{
  "_format": "hh-sol-artifact-1",
  "contractName": "DevBondingCurve",
  "sourceName": "contracts/DevBondingCurve.sol",
  "abi": [
    {
      "inputs": [
        {
          "internalType": "address",
          "name": "owner",
          "type": "address"
        }
      ],
      "name": "OwnableInvalidOwner",
      "type": "error"
    },
    {
      "inputs": [
        {
          "internalType": "address",
          "name": "account",
          "type": "address"
        }
      ],
      "name": "OwnableUnauthorizedAccount",
      "type": "error"
    },
    {
      "inputs": [],
      "name": "ReentrancyGuardReentrantCall",
      "type": "error"
    },
    {
      "anonymous": false,
      "inputs": [
        {
          "indexed": true,
          "internalType": "address",
          "name": "token",
          "type": "address"
        },
        {
          "indexed": false,
          "internalType": "uint256",
          "name": "ethAmount",
          "type": "uint256"
        },
        {
          "indexed": false,
          "internalType": "uint256",
          "name": "tokensReceived",
          "type": "uint256"
        }
      ],
      "name": "DevBuyExecuted",
      "type": "event"
    },
    {
      "anonymous": false,
      "inputs": [
        {
          "indexed": false,
          "internalType": "uint256",
          "name": "platformFeeBps",
          "type": "uint256"
        },
        {
          "indexed": false,
          "internalType": "uint256",
          "name": "creatorFeeBps",
          "type": "uint256"
        }
      ],
      "name": "FeesUpdated",
      "type": "event"
    },
    {
      "anonymous": false,
      "inputs": [
        {
          "indexed": true,
          "internalType": "address",
          "name": "previousOwner",
          "type": "address"
        },
        {
          "indexed": true,
          "internalType": "address",
          "name": "newOwner",
          "type": "address"
        }
      ],
      "name": "OwnershipTransferred",
      "type": "event"
    },
    {
      "anonymous": false,
      "inputs": [
        {
          "indexed": true,
          "internalType": "address",
          "name": "token",
          "type": "address"
        },
        {
          "indexed": true,
          "internalType": "address",
          "name": "creator",
          "type": "address"
        },
        {
          "indexed": false,
          "internalType": "string",
          "name": "name",
          "type": "string"
        },
        {
          "indexed": false,
          "internalType": "string",
          "name": "symbol",
          "type": "string"
        },
        {
          "indexed": false,
          "internalType": "uint256",
          "name": "timestamp",
          "type": "uint256"
        },
        {
          "indexed": false,
          "internalType": "uint256",
          "name": "devBuyAmount",
          "type": "uint256"
        }
      ],
      "name": "TokenCreated",
      "type": "event"
    },
    {
      "anonymous": false,
      "inputs": [
        {
          "indexed": true,
          "internalType": "address",
          "name": "token",
          "type": "address"
        },
        {
          "indexed": false,
          "internalType": "uint256",
          "name": "ethReserve",
          "type": "uint256"
        },
        {
          "indexed": false,
          "internalType": "uint256",
          "name": "tokenReserve",
          "type": "uint256"
        },
        {
          "indexed": false,
          "internalType": "uint256",
          "name": "totalVolume",
          "type": "uint256"
        }
      ],
      "name": "TokenGraduated",
      "type": "event"
    },
    {
      "anonymous": false,
      "inputs": [
        {
          "indexed": true,
          "internalType": "address",
          "name": "token",
          "type": "address"
        },
        {
          "indexed": true,
          "internalType": "address",
          "name": "trader",
          "type": "address"
        },
        {
          "indexed": false,
          "internalType": "bool",
          "name": "isBuy",
          "type": "bool"
        },
        {
          "indexed": false,
          "internalType": "uint256",
          "name": "ethAmount",
          "type": "uint256"
        },
        {
          "indexed": false,
          "internalType": "uint256",
          "name": "tokenAmount",
          "type": "uint256"
        },
        {
          "indexed": false,
          "internalType": "uint256",
          "name": "newPrice",
          "type": "uint256"
        },
        {
          "indexed": false,
          "internalType": "uint256",
          "name": "platformFee",
          "type": "uint256"
        },
        {
          "indexed": false,
          "internalType": "uint256",
          "name": "creatorFee",
          "type": "uint256"
        }
      ],
      "name": "TokenTraded",
      "type": "event"
    },
    {
      "inputs": [],
      "name": "BONDING_SUPPLY",
      "outputs": [
        {
          "internalType": "uint256",
          "name": "",
          "type": "uint256"
        }
      ],
      "stateMutability": "view",
      "type": "function"
    },
    {
      "inputs": [],
      "name": "BPS_DENOMINATOR",
      "outputs": [
        {
          "internalType": "uint256",
          "name": "",
          "type": "uint256"
        }
      ],
      "stateMutability": "view",
      "type": "function"
    },
    {
      "inputs": [],
      "name": "CREATION_FEE",
      "outputs": [
        {
          "internalType": "uint256",
          "name": "",
          "type": "uint256"
        }
      ],
      "stateMutability": "view",
      "type": "function"
    },
    {
      "inputs": [],
      "name": "DEV_BUY_DISCOUNT_BPS",
      "outputs": [
        {
          "internalType": "uint256",
          "name": "",
          "type": "uint256"
        }
      ],
      "stateMutability": "view",
      "type": "function"
    },
    {
      "inputs": [],
      "name": "DEX_RESERVE",
      "outputs": [
        {
          "internalType": "uint256",
          "name": "",
          "type": "uint256"
        }
      ],
      "stateMutability": "view",
      "type": "function"
    },
    {
      "inputs": [],
      "name": "GRADUATION_THRESHOLD",
      "outputs": [
        {
          "internalType": "uint256",
          "name": "",
          "type": "uint256"
        }
      ],
      "stateMutability": "view",
      "type": "function"
    },
    {
      "inputs": [],
      "name": "INITIAL_VIRTUAL_ETH",
      "outputs": [
        {
          "internalType": "uint256",
          "name": "",
          "type": "uint256"
        }
      ],
      "stateMutability": "view",
      "type": "function"
    },
    {
      "inputs": [],
      "name": "INITIAL_VIRTUAL_TOKENS",
      "outputs": [
        {
          "internalType": "uint256",
          "name": "",
          "type": "uint256"
        }
      ],
      "stateMutability": "view",
      "type": "function"
    },
    {
      "inputs": [],
      "name": "MAX_DEV_BUY",
      "outputs": [
        {
          "internalType": "uint256",
          "name": "",
          "type": "uint256"
        }
      ],
      "stateMutability": "view",
      "type": "function"
    },
    {
      "inputs": [],
      "name": "TOTAL_SUPPLY",
      "outputs": [
        {
          "internalType": "uint256",
          "name": "",
          "type": "uint256"
        }
      ],
      "stateMutability": "view",
      "type": "function"
    },
    {
      "inputs": [
        {
          "internalType": "uint256",
          "name": "",
          "type": "uint256"
        }
      ],
      "name": "allTokens",
      "outputs": [
        {
          "internalType": "address",
          "name": "",
          "type": "address"
        }
      ],
      "stateMutability": "view",
      "type": "function"
    },
    {
      "inputs": [
        {
          "internalType": "address",
          "name": "_token",
          "type": "address"
        }
      ],
      "name": "bondingProgress",
      "outputs": [
        {
          "internalType": "uint256",
          "name": "",
          "type": "uint256"
        }
      ],
      "stateMutability": "view",
      "type": "function"
    },
    {
      "inputs": [
        {
          "internalType": "address",
          "name": "_token",
          "type": "address"
        },
        {
          "internalType": "uint256",
          "name": "_minTokensOut",
          "type": "uint256"
        }
      ],
      "name": "buyTokens",
      "outputs": [
        {
          "internalType": "uint256",
          "name": "",
          "type": "uint256"
        }
      ],
      "stateMutability": "payable",
      "type": "function"
    },
    {
      "inputs": [
        {
          "internalType": "address",
          "name": "_token",
          "type": "address"
        },
        {
          "internalType": "uint256",
          "name": "_ethAmount",
          "type": "uint256"
        }
      ],
      "name": "calculateBuyReturn",
      "outputs": [
        {
          "internalType": "uint256",
          "name": "",
          "type": "uint256"
        }
      ],
      "stateMutability": "view",
      "type": "function"
    },
    {
      "inputs": [
        {
          "internalType": "address",
          "name": "_token",
          "type": "address"
        }
      ],
      "name": "calculateMarketCap",
      "outputs": [
        {
          "internalType": "uint256",
          "name": "",
          "type": "uint256"
        }
      ],
      "stateMutability": "view",
      "type": "function"
    },
    {
      "inputs": [
        {
          "internalType": "address",
          "name": "_token",
          "type": "address"
        },
        {
          "internalType": "uint256",
          "name": "_tokenAmount",
          "type": "uint256"
        }
      ],
      "name": "calculateSellReturn",
      "outputs": [
        {
          "internalType": "uint256",
          "name": "",
          "type": "uint256"
        }
      ],
      "stateMutability": "view",
      "type": "function"
    },
    {
      "inputs": [
        {
          "internalType": "address",
          "name": "_token",
          "type": "address"
        }
      ],
      "name": "claimCreatorFees",
      "outputs": [],
      "stateMutability": "nonpayable",
      "type": "function"
    },
    {
      "inputs": [
        {
          "internalType": "string",
          "name": "_name",
          "type": "string"
        },
        {
          "internalType": "string",
          "name": "_symbol",
          "type": "string"
        },
        {
          "internalType": "string",
          "name": "_description",
          "type": "string"
        },
        {
          "internalType": "string",
          "name": "_imageUrl",
          "type": "string"
        },
        {
          "internalType": "string",
          "name": "_twitter",
          "type": "string"
        },
        {
          "internalType": "string",
          "name": "_telegram",
          "type": "string"
        },
        {
          "internalType": "string",
          "name": "_website",
          "type": "string"
        },
        {
          "internalType": "string",
          "name": "",
          "type": "string"
        },
        {
          "internalType": "uint256",
          "name": "_devBuyAmount",
          "type": "uint256"
        }
      ],
      "name": "createToken",
      "outputs": [
        {
          "internalType": "address",
          "name": "",
          "type": "address"
        }
      ],
      "stateMutability": "payable",
      "type": "function"
    },
    {
      "inputs": [],
      "name": "creatorFeeBps",
      "outputs": [
        {
          "internalType": "uint256",
          "name": "",
          "type": "uint256"
        }
      ],
      "stateMutability": "view",
      "type": "function"
    },
    {
      "inputs": [],
      "name": "getAllTokens",
      "outputs": [
        {
          "internalType": "address[]",
          "name": "",
          "type": "address[]"
        }
      ],
      "stateMutability": "view",
      "type": "function"
    },
    {
      "inputs": [],
      "name": "getTokenCount",
      "outputs": [
        {
          "internalType": "uint256",
          "name": "",
          "type": "uint256"
        }
      ],
      "stateMutability": "view",
      "type": "function"
    },
    {
      "inputs": [
        {
          "internalType": "address",
          "name": "_token",
          "type": "address"
        }
      ],
      "name": "getTokenPrice",
      "outputs": [
        {
          "internalType": "uint256",
          "name": "",
          "type": "uint256"
        }
      ],
      "stateMutability": "view",
      "type": "function"
    },
    {
      "inputs": [
        {
          "internalType": "address",
          "name": "",
          "type": "address"
        }
      ],
      "name": "isValidToken",
      "outputs": [
        {
          "internalType": "bool",
          "name": "",
          "type": "bool"
        }
      ],
      "stateMutability": "view",
      "type": "function"
    },
    {
      "inputs": [],
      "name": "owner",
      "outputs": [
        {
          "internalType": "address",
          "name": "",
          "type": "address"
        }
      ],
      "stateMutability": "view",
      "type": "function"
    },
    {
      "inputs": [],
      "name": "platformFeeBps",
      "outputs": [
        {
          "internalType": "uint256",
          "name": "",
          "type": "uint256"
        }
      ],
      "stateMutability": "view",
      "type": "function"
    },
    {
      "inputs": [],
      "name": "renounceOwnership",
      "outputs": [],
      "stateMutability": "nonpayable",
      "type": "function"
    },
    {
      "inputs": [
        {
          "internalType": "address",
          "name": "_token",
          "type": "address"
        },
        {
          "internalType": "uint256",
          "name": "_tokenAmount",
          "type": "uint256"
        },
        {
          "internalType": "uint256",
          "name": "_minEthOut",
          "type": "uint256"
        }
      ],
      "name": "sellTokens",
      "outputs": [
        {
          "internalType": "uint256",
          "name": "",
          "type": "uint256"
        }
      ],
      "stateMutability": "nonpayable",
      "type": "function"
    },
    {
      "inputs": [
        {
          "internalType": "address",
          "name": "",
          "type": "address"
        }
      ],
      "name": "tokenInfo",
      "outputs": [
        {
          "internalType": "address",
          "name": "tokenAddress",
          "type": "address"
        },
        {
          "internalType": "address",
          "name": "creator",
          "type": "address"
        },
        {
          "internalType": "uint256",
          "name": "virtualEthReserve",
          "type": "uint256"
        },
        {
          "internalType": "uint256",
          "name": "virtualTokenReserve",
          "type": "uint256"
        },
        {
          "internalType": "uint256",
          "name": "realEthReserve",
          "type": "uint256"
        },
        {
          "internalType": "uint256",
          "name": "realTokenReserve",
          "type": "uint256"
        },
        {
          "internalType": "uint256",
          "name": "dexReserve",
          "type": "uint256"
        },
        {
          "internalType": "uint256",
          "name": "creatorFees",
          "type": "uint256"
        },
        {
          "internalType": "uint256",
          "name": "platformFees",
          "type": "uint256"
        },
        {
          "internalType": "bool",
          "name": "graduated",
          "type": "bool"
        },
        {
          "internalType": "uint256",
          "name": "createdAt",
          "type": "uint256"
        },
        {
          "internalType": "uint256",
          "name": "firstTradeAt",
          "type": "uint256"
        },
        {
          "internalType": "uint256",
          "name": "totalVolume",
          "type": "uint256"
        },
        {
          "internalType": "uint256",
          "name": "tradeCount",
          "type": "uint256"
        },
        {
          "internalType": "bool",
          "name": "devBuyExecuted",
          "type": "bool"
        },
        {
          "internalType": "uint256",
          "name": "devBuyAmount",
          "type": "uint256"
        }
      ],
      "stateMutability": "view",
      "type": "function"
    },
    {
      "inputs": [],
      "name": "totalPlatformFees",
      "outputs": [
        {
          "internalType": "uint256",
          "name": "",
          "type": "uint256"
        }
      ],
      "stateMutability": "view",
      "type": "function"
    },
    {
      "inputs": [
        {
          "internalType": "address",
          "name": "newOwner",
          "type": "address"
        }
      ],
      "name": "transferOwnership",
      "outputs": [],
      "stateMutability": "nonpayable",
      "type": "function"
    },
    {
      "inputs": [
        {
          "internalType": "uint256",
          "name": "_platformFeeBps",
          "type": "uint256"
        },
        {
          "internalType": "uint256",
          "name": "_creatorFeeBps",
          "type": "uint256"
        }
      ],
      "name": "updateFees",
      "outputs": [],
      "stateMutability": "nonpayable",
      "type": "function"
    },
    {
      "inputs": [],
      "name": "withdrawPlatformFees",
      "outputs": [],
      "stateMutability": "nonpayable",
      "type": "function"
    }
  ],
  "bytecode": "0x608080604052346100885733156100725760008054336001600160a01b03198216811783556040519290916001600160a01b0316907f8be0079c531659141344cd1fd0a4f28419497f9722a3daafe3b4186f6b6457e09080a36001805560646002556064600355613a0b908161008e8239f35b631e4fbdf760e01b815260006004820152602490fd5b600080fdfe60a060405260043610156200001357600080fd5b60003560e01c80630752881a146200167157806317773ebb14620016515780631c8b271a146200162457806322dcd13e14620016045780632a5c792a14620015345780632bba0b46146200151557806341344d5d14620014ec57806345b18f2514620014c757806348dfd57814620014a257806349a2104d146200147e57806351bd05881462001457578063634282af14620014105780636db7943714620013b5578063715018a6146200135857806375535f32146200133057806375a8e372146200130357806378a8956714620012e35780638d427e2514620012ba5780638da5cb5b146200128f578063902d55a51462001266578063b45d92df146200123d578063c187645314620011fa578063d02641a014620011c9578063d0b7830b1462001184578063d3631fa51462001164578063d6ae6e44146200107e578063e1a45218146200105f578063e4e57b9e1462000d11578063ea1ee5991462000372578063f2fde38b14620002e2578063f5dab71114620001c95763fcfc0c09146200019d57600080fd5b34620001c4576000366003190112620001c4576020604051690e9c7f5bd655012000008152f35b600080fd5b34620001c4576020366003190112620001c4576001600160a01b0380620001ef62001a34565b166000526004602052604060002080828154169260018201541660028201546003830154600484015460058501546006860154600787015490600888015492600989015460ff1694600a8a015496600b8b015498600c8c01549a600d8d01549c600e015460ff169d600f01549e60405180608052526080516020015260805160400152608051606001526080516080015260805160a0015260805160c0015260805160e001526080516101000152151560805161012001526080516101400152608051610160015260805161018001526080516101a0015215156080516101c001526080516101e0015260805161020090f35b34620001c4576020366003190112620001c457620002ff62001a34565b6200030962001b26565b6001600160a01b039081169081156200035957600054826001600160601b0360a01b821617600055167f8be0079c531659141344cd1fd0a4f28419497f9722a3daafe3b4186f6b6457e0600080a3005b604051631e4fbdf760e01b815260006004820152602490fd5b610120366003190112620001c45760043567ffffffffffffffff8111620001c457620003a390369060040162001ad9565b60243567ffffffffffffffff8111620001c457620003c690369060040162001ad9565b9060443567ffffffffffffffff8111620001c457620003ea90369060040162001ad9565b60643567ffffffffffffffff8111620001c4576200040d90369060040162001ad9565b9060843567ffffffffffffffff8111620001c4576200043190369060040162001ad9565b60a43567ffffffffffffffff8111620001c4576200045490369060040162001ad9565b9260c43567ffffffffffffffff8111620001c4576200047890369060040162001ad9565b9060e43567ffffffffffffffff8111620001c4576200049c90369060040162001ad9565b50620004a762001be6565b6101043566038d7ea4c680000166038d7ea4c68000116200098d576101043566038d7ea4c6800001341062000ccc57678ac7230489e80000610104351162000c875785511562000c525786511562000c1b5760405194856118f881011067ffffffffffffffff6118f888011117620009a357620005ca620005f894620005b388976200059c620005e1966200056f8e620005578f6101408f6118f8620020de82396118f801818152019062001b61565b908d60206118f882018403916118f801015262001b61565b906b033b2e3c9fd0803ce800000060408d6118f80101526118f88c01820360608d6118f801015262001b61565b906118f88a01820360806118f88c01015262001b61565b906118f88801820360a06118f88a01015262001b61565b906118f88601820360c06118f88801015262001b61565b906118f88401820360e06118f88601015262001b61565b336101006118f884010152306101206118f88401015203906000f091821562000c0f576040518061020081011067ffffffffffffffff61020083011117620009a357610200810160405260018060a01b0384168152336020820152670de0b6b3a7640000604082015269d3c21bcecceda10000006060820152600060808201526b0295be96e64066972000000060a08201526aa56fa5b99019a5c800000060c0820152600060e082015260006101008201526000610120820152426101408201526000610160820152600061018082015260006101a082015260006101c0820152610104356101e082015260018060a01b03841660005260046020526101e060406000209160018060a01b038151166001600160601b0360a01b8454161783556001830160018060a01b036020830151166001600160601b0360a01b82541617905560408101516002840155606081015160038401556080810151600484015560a0810151600584015560c0810151600684015560e081015160078401556101008101516008840155620007a26101208201511515600985019060ff801983541691151516179055565b610140810151600a840155610160810151600b840155610180810151600c8401556101a0810151600d840155620007ef6101c08201511515600e85019060ff801983541691151516179055565b0151600f8201556101043515908115620009b9575b505060065468010000000000000000811015620009a3578060016200082d920160065562001a4b565b81546001600160a01b0386811660039390931b83811b91901b19909116179091556000908152600560205260409020805460ff1916600117905560075466038d7ea4c680008101919082106200098d57620008ab916007556200089c6040519360808552608085019062001b61565b90838203602085015262001b61565b42604083015261010435606083015233916001600160a01b038416917fc12630d761ddbf18b9530f31d91e67493535a2b635711bcff59fded8bf381cce919081900390a36101043566038d7ea4c680000134116200091d575b600180556040516001600160a01b039091168152602090f35b66038d7ea4c67fff1934013481116200098d5760008080620009458194610104359062001ba3565b335af16200095262001bb1565b50620009045760405162461bcd60e51b815260206004820152600d60248201526c1499599d5b990819985a5b1959609a1b6044820152606490fd5b634e487b7160e01b600052601160045260246000fd5b634e487b7160e01b600052604160045260246000fd5b6101f4916101043580840204831417156200098d57620009ea61271062000a68936101043502046101043562001b53565b60028201549162000a7362000a056004830154809562001b53565b93600383015462000a4c62000a4462000a3c62000a286005880154809562001b53565b9762000a35898b62001c0a565b9962001b53565b809862001c1e565b809662001ba3565b96879262000a5d8385111562001c3f565b610104359062001b53565b600485015562001ba3565b600582015562000a8b61010435600c83015462001b53565b600c82015562000a9f600d82015462001c85565b600d820155600e8101805460ff1916600117905542600b9091015560405163a9059cbb60e01b81523360048201526024810184905260208160448160006001600160a01b038c165af1801562000c0f5762000b049160009162000bd9575b5062001caf565b60408051610104358152602081018590526001600160a01b038816917f07cee7a910b07189e927a8504252a1290af98458798c74ceff1091d747e0bd0491a281670de0b6b3a7640000810204670de0b6b3a764000014821517156200098d57670de0b6b3a764000062000b78920262001c1e565b60405191600183526101043560208401526040830152606082015260006080820152600060a082015233907fb6bfd1e0b5e5317c2be379c71d23b23080c3bf9b072a49298ba82a7a06b6dc5b60c060018060a01b03871692a3838062000804565b62000c00915060203d60201162000c07575b62000bf7818362001a99565b81019062001c95565b8862000afd565b503d62000beb565b6040513d6000823e3d90fd5b60405162461bcd60e51b815260206004820152600f60248201526e14de5b589bdb081c995c5d5a5c9959608a1b6044820152606490fd5b60405162461bcd60e51b815260206004820152600d60248201526c13985b59481c995c5d5a5c9959609a1b6044820152606490fd5b60405162461bcd60e51b815260206004820152601760248201527f446576206275792065786365656473206d6178696d756d0000000000000000006044820152606490fd5b60405162461bcd60e51b815260206004820152601a60248201527f496e73756666696369656e7420666565202b20646576206275790000000000006044820152606490fd5b34620001c4576060366003190112620001c45762000d2e62001a34565b62000d3862001be6565b6001600160a01b03811660009081526005602052604090205462000d5f9060ff1662001cee565b60018060a01b038116600052600460205260406000209062000d8960ff6009840154161562001d2b565b60243515620010295760028201549062000da96004840154809362001b53565b62000dbe600385015460058601549062001b53565b9362000df262000dea62000de262000dd7888662001c0a565b976024359062001b53565b809762001c1e565b809362001ba3565b91612710908162000e066002548662001c0a565b049162000e166003548662001c0a565b049262000e4d62000e338562000e2d868962001ba3565b62001ba3565b9762000e446044358a101562001d6a565b88111562001c3f565b6040516323b872dd60e01b8152336004820152306024808301919091523560448201529060208260648160006001600160a01b038c165af191821562000c0f57600d9262000ea49160009162001005575062001caf565b62000eb486600483015462001ba3565b600482015562000ecb602435600583015462001b53565b60058201556007810162000ee186825462001b53565b90556008810162000ef485825462001b53565b9055600c810162000f0787825462001b53565b90550162000f16815462001c85565b905562000f268260075462001b53565b600755600080808089335af162000f3c62001bb1565b501562000fca57670de0b6b3a7640000908181029181830414901517156200098d5760209662000f6c9162001c1e565b60405193600085528785015260243560408501526060840152608083015260a08201527fb6bfd1e0b5e5317c2be379c71d23b23080c3bf9b072a49298ba82a7a06b6dc5b60c0339360018060a01b031692a360018055604051908152f35b60405162461bcd60e51b8152602060048201526013602482015272115512081d1c985b9cd9995c8819985a5b1959606a1b6044820152606490fd5b62001022915060203d60201162000c075762000bf7818362001a99565b8b62000afd565b60405162461bcd60e51b815260206004820152600e60248201526d125b9d985b1a5908185b5bdd5b9d60921b6044820152606490fd5b34620001c4576000366003190112620001c45760206040516127108152f35b34620001c4576020366003190112620001c4576200109b62001a34565b620010a562001be6565b6001600160a01b03908116600090815260046020526040902060018101549091163303620011315760070180548015620010f95760008080809381620010f39655335af162000afd62001bb1565b60018055005b60405162461bcd60e51b815260206004820152601060248201526f4e6f206665657320746f20636c61696d60801b6044820152606490fd5b60405162461bcd60e51b815260206004820152600b60248201526a2737ba1031b932b0ba37b960a91b6044820152606490fd5b34620001c4576000366003190112620001c4576020600754604051908152f35b34620001c4576000366003190112620001c457620011a162001b26565b620011c760008080806007548160075560018060a01b038254165af162000afd62001bb1565b005b34620001c4576020366003190112620001c4576020620011f2620011ec62001a34565b62001dab565b604051908152f35b34620001c4576020366003190112620001c4576001600160a01b036200121f62001a34565b166000526005602052602060ff604060002054166040519015158152f35b34620001c4576020366003190112620001c4576020620011f26200126062001a34565b6200201d565b34620001c4576000366003190112620001c45760206040516b033b2e3c9fd0803ce80000008152f35b34620001c4576000366003190112620001c4576000546040516001600160a01b039091168152602090f35b34620001c4576000366003190112620001c45760206040516b0295be96e6406697200000008152f35b34620001c4576000366003190112620001c4576020600654604051908152f35b34620001c4576040366003190112620001c4576020620011f26200132662001a34565b6024359062001e29565b34620001c4576000366003190112620001c45760206040516aa56fa5b99019a5c80000008152f35b34620001c4576000366003190112620001c4576200137562001b26565b600080546001600160a01b0319811682556001600160a01b03167f8be0079c531659141344cd1fd0a4f28419497f9722a3daafe3b4186f6b6457e08280a3005b34620001c4576040366003190112620001c4577f5c6323bf1c2d7aaea2c091a4751c1c87af7f2864650c336507a77d0557af37a16040600435602435620013fb62001b26565b816002558060035582519182526020820152a1005b34620001c4576020366003190112620001c457600435600654811015620001c4576200143e60209162001a4b565b905460405160039290921b1c6001600160a01b03168152f35b34620001c4576000366003190112620001c457602060405169d3c21bcecceda10000008152f35b34620001c4576000366003190112620001c457602060405166038d7ea4c680008152f35b34620001c4576000366003190112620001c4576020604051678ac7230489e800008152f35b34620001c4576000366003190112620001c4576020604051670de0b6b3a76400008152f35b34620001c4576020366003190112620001c4576020620011f26200150f62001a34565b62001f66565b34620001c4576000366003190112620001c45760206040516101f48152f35b34620001c4576000366003190112620001c457604051806006548083526020809301809160066000527ff652222313e28459528d920b65115c16c04f3efc82aaedc97be59f3f377c0d3f9060005b86828210620015e65786866200159b8288038362001a99565b604051928392818401908285525180915260408401929160005b828110620015c557505050500390f35b83516001600160a01b031685528695509381019392810192600101620015b5565b83546001600160a01b03168552909301926001928301920162001582565b34620001c4576000366003190112620001c4576020600254604051908152f35b34620001c4576040366003190112620001c4576020620011f26200164762001a34565b6024359062001ee1565b34620001c4576000366003190112620001c4576020600354604051908152f35b6040366003190112620001c4576200168862001a34565b6200169262001be6565b60018060a01b03168060005260209060058252620016b860ff6040600020541662001cee565b8060005260048252604060002090620016d960ff6009840154161562001d2b565b341562001a0457600b8201805415620019fa575b5061271091826002543490620017039162001c0a565b04926003543490620017159162001c0a565b04908162001724853462001ba3565b90620017309162001ba3565b936002820154946004830192835496876200174b9162001b53565b93600382015483600584019283549283620017669162001b53565b9762001773898262001c0a565b966200177f9162001b53565b95866200178c9162001c1e565b9788620017999162001ba3565b9a8b92620017ac60243585101562001d6a565b620017ba8585111562001c3f565b620017c59162001b53565b9055620017d29162001ba3565b90556007810185815490620017e79162001b53565b90556008810183815490620017fc9162001b53565b9055600c810134815490620018119162001b53565b9055600d018054620018239062001c85565b90558160075490620018359162001b53565b60075560405163a9059cbb60e01b8152336004820152602481018790528781604481895a90600091f1801562000c0f576200187991600091620019d8575062001caf565b670de0b6b3a764000092838202918083048514901517156200098d57620018a09162001c1e565b9260405191600183523488840152866040840152846060840152608083015260a0820152837fb6bfd1e0b5e5317c2be379c71d23b23080c3bf9b072a49298ba82a7a06b6dc5b60c03393a36b033b2e3c9fd0803ce8000000918281029281840414901517156200098d57690e9c7f5bd65501200000910410156200192c575b5060018055604051908152f35b8060005260048352604060002060098101805460ff81166200199f579160609160017f74ddd6b35eb9921605ec2cb7da4af12cd0020d2117b708ade1d30523471b74419460ff1916179055600481015490600c600682015491015490604051928352878301526040820152a2826200191f565b60405162461bcd60e51b8152600481018790526011602482015270105b1c9958591e4819dc98591d585d1959607a1b6044820152606490fd5b620019f39150893d8b1162000c075762000bf7818362001a99565b8962000afd565b42905583620016ed565b60405162461bcd60e51b81526004810184905260086024820152670a6cadcc8408aa8960c31b6044820152606490fd5b600435906001600160a01b0382168203620001c457565b60065481101562001a835760066000527ff652222313e28459528d920b65115c16c04f3efc82aaedc97be59f3f377c0d3f0190600090565b634e487b7160e01b600052603260045260246000fd5b90601f8019910116810190811067ffffffffffffffff821117620009a357604052565b67ffffffffffffffff8111620009a357601f01601f191660200190565b81601f82011215620001c45780359062001af38262001abc565b9262001b03604051948562001a99565b82845260208383010111620001c457816000926020809301838601378301015290565b6000546001600160a01b0316330362001b3b57565b60405163118cdaa760e01b8152336004820152602490fd5b919082018092116200098d57565b919082519283825260005b84811062001b8e575050826000602080949584010152601f8019910116010190565b60208183018101518483018201520162001b6c565b919082039182116200098d57565b3d1562001be1573d9062001bc58262001abc565b9162001bd5604051938462001a99565b82523d6000602084013e565b606090565b60026001541462001bf8576002600155565b604051633ee5aeb560e01b8152600490fd5b818102929181159184041417156200098d57565b811562001c29570490565b634e487b7160e01b600052601260045260246000fd5b1562001c4757565b60405162461bcd60e51b8152602060048201526016602482015275496e73756666696369656e74206c697175696469747960501b6044820152606490fd5b60001981146200098d5760010190565b90816020910312620001c457518015158103620001c45790565b1562001cb757565b60405162461bcd60e51b815260206004820152600f60248201526e151c985b9cd9995c8819985a5b1959608a1b6044820152606490fd5b1562001cf657565b60405162461bcd60e51b815260206004820152600d60248201526c24b73b30b634b2103a37b5b2b760991b6044820152606490fd5b1562001d3357565b60405162461bcd60e51b815260206004820152600f60248201526e151bdad95b8819dc98591d585d1959608a1b6044820152606490fd5b1562001d7257565b60405162461bcd60e51b815260206004820152601160248201527014db1a5c1c1859d948195e18d959591959607a1b6044820152606490fd5b6001600160a01b03908116600090815260046020526040902080549091161562001e235762001dfa62001de8600283015460048401549062001b53565b91600560038201549101549062001b53565b670de0b6b3a7640000918281029281840414901517156200098d5762001e209162001c1e565b90565b50600090565b6001600160a01b03908116600090815260046020526040902080549091161562001eda5762001ed362001e8862001e209362000e2d6127108062001e706002548562001c0a565b049062001e806003548562001c0a565b049262001ba3565b9162001ecc62001eb862001ea6600284015460048501549062001b53565b92600560038201549101549062001b53565b9362001ec5858462001c0a565b9262001b53565b9062001c1e565b9062001ba3565b5050600090565b6001600160a01b0390811660009081526004602052604090208054909291161562001eda578162001ed362001f509262001ecc62001f4362001f31600262001e2098015460048701549062001b53565b94600560038201549101549062001b53565b9162001ec5838662001c0a565b62000e2d6127108062001e706002548562001c0a565b6001600160a01b039081166000908152600460205260408120805490921615620020185762001fa362001ea6600284015460048501549062001b53565b670de0b6b3a7640000928381029080820485149015171562002004579062001fcb9162001c1e565b906b033b2e3c9fd0803ce80000009182810292818404149015171562001ff057500490565b634e487b7160e01b81526011600452602490fd5b634e487b7160e01b83526011600452602483fd5b905090565b60018060a01b03806000921682526004602052604082209081541615620020d9576200205762001de8600283015460048401549062001b53565b670de0b6b3a76400009182810290808204841490151715620020c557906200207f9162001c1e565b6b033b2e3c9fd0803ce8000000908181029181830414901517156200200457049060648202918083046064149015171562001ff05750690e9c7f5bd65501200000900490565b634e487b7160e01b84526011600452602484fd5b509056fe604060c081523462000c1757620018f8803803806200001e8162000c1c565b9283398101906101408183031262000c175780516001600160401b03811162000c1757826200004f91830162000c42565b60208201519091906001600160401b03811162000c1757836200007491830162000c42565b8185015160608301519094906001600160401b03811162000c1757816200009d91850162000c42565b60808401516001600160401b03811162000c175782620000bf91860162000c42565b60a08501516001600160401b03811162000c175783620000e191870162000c42565b60c08601519092906001600160401b03811162000c1757846200010691880162000c42565b60e087015190946001600160401b03821162000c17576200012991880162000c42565b9462000148610120620001406101008a0162000cb4565b980162000cb4565b885190986001600160401b038211620005ee5760035490600182811c9216801562000c0c575b6020831014620005cd5781601f84931162000b9a575b50602090601f831160011462000b0b5760009262000aff575b50508160011b916000199060031b1c1916176003555b8051906001600160401b038211620005ee5760045490600182811c9216801562000af4575b6020831014620005cd5781601f84931162000a82575b50602090601f8311600114620009f357600092620009e7575b50508160011b916000199060031b1c1916176004555b8051906001600160401b038211620005ee5760055490600182811c92168015620009dc575b6020831014620005cd5781601f84931162000986575b50602090601f8311600114620008f757600092620008eb575b50508160011b916000199060031b1c1916176005555b8051906001600160401b038211620005ee5760065490600182811c92168015620008e0575b6020831014620005cd5781601f8493116200087c575b50602090601f8311600114620007fe57600092620007f2575b50508160011b916000199060031b1c1916176006555b8051906001600160401b038211620005ee5760075490600182811c92168015620007e7575b6020831014620005cd5781601f84931162000783575b50602090601f83116001146200070557600092620006f9575b50508160011b916000199060031b1c1916176007555b8051906001600160401b038211620005ee5760085490600182811c92168015620006ee575b6020831014620005cd5781601f8493116200068a575b50602090601f8311600114620006105760009262000604575b50508160011b916000199060031b1c1916176008555b8051906001600160401b038211620005ee5760095490600182811c92168015620005e3575b6020831014620005cd5781601f84931162000569575b50602090601f8311600114620004ef57600092620004e3575b50508160011b916000199060031b1c1916176009555b6080524260a0526001600160a01b0316908115620004cb5760025490808201809211620004b55760207fddf252ad1be2c89b69c2b068fc378daa952ba7f163c4a11628f55a4df523b3ef916000936002558484528382528584208181540190558551908152a351610bae908162000cca8239608051816109f1015260a051816101370152f35b634e487b7160e01b600052601160045260246000fd5b825163ec442f0560e01b815260006004820152602490fd5b01519050388062000419565b60096000908152600080516020620018b88339815191529350601f198516905b81811062000550575090846001959493921062000536575b505050811b016009556200042f565b015160001960f88460031b161c1916905538808062000527565b929360206001819287860151815501950193016200050f565b6009600052909150600080516020620018b8833981519152601f840160051c81019160208510620005c2575b90601f859493920160051c01905b818110620005b2575062000400565b60008155849350600101620005a3565b909150819062000595565b634e487b7160e01b600052602260045260246000fd5b91607f1691620003ea565b634e487b7160e01b600052604160045260246000fd5b015190503880620003af565b60086000908152600080516020620018988339815191529350601f198516905b81811062000671575090846001959493921062000657575b505050811b01600855620003c5565b015160001960f88460031b161c1916905538808062000648565b9293602060018192878601518155019501930162000630565b600860005290915060008051602062001898833981519152601f840160051c81019160208510620006e3575b90601f859493920160051c01905b818110620006d3575062000396565b60008155849350600101620006c4565b9091508190620006b6565b91607f169162000380565b01519050388062000345565b6007600090815293506000805160206200187883398151915291905b601f198416851062000767576001945083601f198116106200074d575b505050811b016007556200035b565b015160001960f88460031b161c191690553880806200073e565b8181015183556020948501946001909301929091019062000721565b600760005290915060008051602062001878833981519152601f840160051c81019160208510620007dc575b90601f859493920160051c01905b818110620007cc57506200032c565b60008155849350600101620007bd565b9091508190620007af565b91607f169162000316565b015190503880620002db565b600660009081529350600080516020620018d883398151915291905b601f198416851062000860576001945083601f1981161062000846575b505050811b01600655620002f1565b015160001960f88460031b161c1916905538808062000837565b818101518355602094850194600190930192909101906200081a565b6006600052909150600080516020620018d8833981519152601f840160051c81019160208510620008d5575b90601f859493920160051c01905b818110620008c55750620002c2565b60008155849350600101620008b6565b9091508190620008a8565b91607f1691620002ac565b01519050388062000271565b6005600090815293507f036b6384b5eca791c62761152d0c79bb0604c104a5fb6f4eb0703f3154bb3db091905b601f19841685106200096a576001945083601f1981161062000950575b505050811b0160055562000287565b015160001960f88460031b161c1916905538808062000941565b8181015183556020948501946001909301929091019062000924565b90915060056000526020600020601f840160051c810160208510620009d4575b90849392915b601f830160051c82018110620009c457505062000258565b60008155859450600101620009ac565b5080620009a6565b91607f169162000242565b01519050388062000207565b6004600090815293507f8a35acfbc15ff81a39ae7d344fd709f28e8600b4aa8c65c6b64bfe7fe36bd19b91905b601f198416851062000a66576001945083601f1981161062000a4c575b505050811b016004556200021d565b015160001960f88460031b161c1916905538808062000a3d565b8181015183556020948501946001909301929091019062000a20565b60046000529091507f8a35acfbc15ff81a39ae7d344fd709f28e8600b4aa8c65c6b64bfe7fe36bd19b601f840160051c81016020851062000aec575b90849392915b601f830160051c8201811062000adc575050620001ee565b6000815585945060010162000ac4565b508062000abe565b91607f1691620001d8565b0151905038806200019d565b6003600090815293507fc2575a0e9e593c00f959f8c92f12db2869c3395a3b0502d05e2516446f71f85b91905b601f198416851062000b7e576001945083601f1981161062000b64575b505050811b01600355620001b3565b015160001960f88460031b161c1916905538808062000b55565b8181015183556020948501946001909301929091019062000b38565b60036000529091507fc2575a0e9e593c00f959f8c92f12db2869c3395a3b0502d05e2516446f71f85b601f840160051c81016020851062000c04575b90849392915b601f830160051c8201811062000bf457505062000184565b6000815585945060010162000bdc565b508062000bd6565b91607f16916200016e565b600080fd5b6040519190601f01601f191682016001600160401b03811183821017620005ee57604052565b919080601f8401121562000c175782516001600160401b038111620005ee5760209062000c78601f8201601f1916830162000c1c565b9281845282828701011162000c175760005b81811062000ca057508260009394955001015290565b858101830151848201840152820162000c8a565b51906001600160a01b038216820362000c175756fe608060408181526004918236101561001657600080fd5b600092833560e01c91826302d05d3f146109dd5750816306fdde0314610903578163095ea7b31461085557816318160ddd1461083657816323b872dd1461073f578163313ce5671461072357816347ecb6651461064957816370a08231146106125781637284e4161461053857816395d89b4114610460578163a9059cbb1461042f578163aba8315014610355578163abfaeee01461027b578163beb0a4161461015a57508063cf09e0d0146101205763dd62ed3e146100d557600080fd5b3461011c578060031936011261011c57806020926100f1610a69565b6100f9610a84565b6001600160a01b0391821683526001865283832091168252845220549051908152f35b5080fd5b503461011c578160031936011261011c57602090517f00000000000000000000000000000000000000000000000000000000000000008152f35b83833461011c578160031936011261011c5780519082600954600181811c90808316928315610271575b602093848410811461025e5783885290811561024257506001146101ec575b505050829003601f01601f191682019267ffffffffffffffff8411838510176101d957508291826101d5925282610a20565b0390f35b634e487b7160e01b815260418552602490fd5b600987529192508591837f6e1540171b6c0c960b71a7020d9f60077f6af931a8bbf590da0223dacf75c7af5b83851061022e57505050508301018580806101a3565b805488860183015293019284908201610218565b60ff1916878501525050151560051b84010190508580806101a3565b634e487b7160e01b895260228a52602489fd5b91607f1691610184565b83833461011c578160031936011261011c5780519082600754600181811c9080831692831561034b575b602093848410811461025e5783885290811561024257506001146102f557505050829003601f01601f191682019267ffffffffffffffff8411838510176101d957508291826101d5925282610a20565b600787529192508591837fa66cc928b5edb82af9bd49922954155ab7b0942694bea4ce44661d9a8736c6885b83851061033757505050508301018580806101a3565b805488860183015293019284908201610321565b91607f16916102a5565b83833461011c578160031936011261011c5780519082600554600181811c90808316928315610425575b602093848410811461025e5783885290811561024257506001146103cf57505050829003601f01601f191682019267ffffffffffffffff8411838510176101d957508291826101d5925282610a20565b600587529192508591837f036b6384b5eca791c62761152d0c79bb0604c104a5fb6f4eb0703f3154bb3db05b83851061041157505050508301018580806101a3565b8054888601830152930192849082016103fb565b91607f169161037f565b50503461011c578060031936011261011c5760209061045961044f610a69565b6024359033610a9a565b5160018152f35b83833461011c578160031936011261011c57805190828454600181811c9080831692831561052e575b602093848410811461025e5783885290811561024257506001146104d957505050829003601f01601f191682019267ffffffffffffffff8411838510176101d957508291826101d5925282610a20565b8787529192508591837f8a35acfbc15ff81a39ae7d344fd709f28e8600b4aa8c65c6b64bfe7fe36bd19b5b83851061051a57505050508301018580806101a3565b805488860183015293019284908201610504565b91607f1691610489565b83833461011c578160031936011261011c5780519082600654600181811c90808316928315610608575b602093848410811461025e5783885290811561024257506001146105b257505050829003601f01601f191682019267ffffffffffffffff8411838510176101d957508291826101d5925282610a20565b600687529192508591837ff652222313e28459528d920b65115c16c04f3efc82aaedc97be59f3f377c0d3f5b8385106105f457505050508301018580806101a3565b8054888601830152930192849082016105de565b91607f1691610562565b50503461011c57602036600319011261011c5760209181906001600160a01b0361063a610a69565b16815280845220549051908152f35b83833461011c578160031936011261011c5780519082600854600181811c90808316928315610719575b602093848410811461025e5783885290811561024257506001146106c357505050829003601f01601f191682019267ffffffffffffffff8411838510176101d957508291826101d5925282610a20565b600887529192508591837ff3f7a9fe364faab93b216da50a3214154f22a0a2b415b23a84c8169e8b636ee35b83851061070557505050508301018580806101a3565b8054888601830152930192849082016106ef565b91607f1691610673565b50503461011c578160031936011261011c576020905160128152f35b905082346108335760603660031901126108335761075b610a69565b610763610a84565b916044359360018060a01b03831680835260016020528683203384526020528683205491600019831061079f575b602088610459898989610a9a565b8683106108075781156107f05733156107d95750825260016020908152868320338452815291869020908590039055829061045987610791565b8751634a1406b160e11b8152908101849052602490fd5b875163e602df0560e01b8152908101849052602490fd5b8751637dc7a0d960e11b8152339181019182526020820193909352604081018790528291506060010390fd5b80fd5b50503461011c578160031936011261011c576020906002549051908152f35b9050346108ff57816003193601126108ff5761086f610a69565b6024359033156108e8576001600160a01b03169182156108d157508083602095338152600187528181208582528752205582519081527f8c5be1e5ebec7d5bd14f71427d1e84f3dd0314c0f7b2291e5b200ac8c7c3b925843392a35160018152f35b8351634a1406b160e11b8152908101859052602490fd5b835163e602df0560e01b8152808401869052602490fd5b8280fd5b83833461011c578160031936011261011c5780519082600354600181811c908083169283156109d3575b602093848410811461025e57838852908115610242575060011461097d57505050829003601f01601f191682019267ffffffffffffffff8411838510176101d957508291826101d5925282610a20565b600387529192508591837fc2575a0e9e593c00f959f8c92f12db2869c3395a3b0502d05e2516446f71f85b5b8385106109bf57505050508301018580806101a3565b8054888601830152930192849082016109a9565b91607f169161092d565b84903461011c578160031936011261011c577f00000000000000000000000000000000000000000000000000000000000000006001600160a01b03168152602090f35b6020808252825181830181905290939260005b828110610a5557505060409293506000838284010152601f8019910116010190565b818101860151848201604001528501610a33565b600435906001600160a01b0382168203610a7f57565b600080fd5b602435906001600160a01b0382168203610a7f57565b916001600160a01b03808416928315610b5f5716928315610b465760009083825281602052604082205490838210610b14575091604082827fddf252ad1be2c89b69c2b068fc378daa952ba7f163c4a11628f55a4df523b3ef958760209652828652038282205586815220818154019055604051908152a3565b60405163391434e360e21b81526001600160a01b03919091166004820152602481019190915260448101839052606490fd5b60405163ec442f0560e01b815260006004820152602490fd5b604051634b637e8f60e11b815260006004820152602490fdfea2646970667358221220a3352e267d9d34aeb03e01e35bfad523fe78e71fc0cdf85f511ee8407cab1e3d64736f6c63430008140033a66cc928b5edb82af9bd49922954155ab7b0942694bea4ce44661d9a8736c688f3f7a9fe364faab93b216da50a3214154f22a0a2b415b23a84c8169e8b636ee36e1540171b6c0c960b71a7020d9f60077f6af931a8bbf590da0223dacf75c7aff652222313e28459528d920b65115c16c04f3efc82aaedc97be59f3f377c0d3fa2646970667358221220bea2932984997a2af90677ff5259b5af6919754e4fb44aa6ce57a7a46869ec3764736f6c63430008140033",
  "linkReferences": {},
  "deployedLinkReferences": {}
}