{"abi":[{"type":"constructor","inputs":[{"name":"_implementation","type":"address","internalType":"address"}],"stateMutability":"nonpayable"},{"type":"receive","stateMutability":"payable"},{"type":"function","name":"ACTION_COOLDOWN","inputs":[],"outputs":[{"name":"","type":"uint256","internalType":"uint256"}],"stateMutability":"view"},{"type":"function","name":"MAX_FEE","inputs":[],"outputs":[{"name":"","type":"uint256","internalType":"uint256"}],"stateMutability":"view"},{"type":"function","name":"USER_COOLDOWN","inputs":[],"outputs":[{"name":"","type":"uint256","internalType":"uint256"}],"stateMutability":"view"},{"type":"function","name":"admin","inputs":[],"outputs":[{"name":"","type":"address","internalType":"address"}],"stateMutability":"view"},{"type":"function","name":"adminReleaseMilestone","inputs":[{"name":"escrowAddress","type":"address","internalType":"address"},{"name":"milestoneId","type":"uint256","internalType":"uint256"}],"outputs":[],"stateMutability":"nonpayable"},{"type":"function","name":"allEscrows","inputs":[{"name":"","type":"uint256","internalType":"uint256"}],"outputs":[{"name":"","type":"address","internalType":"address"}],"stateMutability":"view"},{"type":"function","name":"collectFees","inputs":[],"outputs":[],"stateMutability":"nonpayable"},{"type":"function","name":"collectedFees","inputs":[],"outputs":[{"name":"","type":"uint256","internalType":"uint256"}],"stateMutability":"view"},{"type":"function","name":"configureMultiSig","inputs":[{"name":"_admins","type":"address[]","internalType":"address[]"},{"name":"_threshold","type":"uint256","internalType":"uint256"}],"outputs":[],"stateMutability":"nonpayable"},{"type":"function","name":"createEscrow","inputs":[{"name":"kol","type":"address","internalType":"address"},{"name":"token","type":"address","internalType":"address"},{"name":"totalAmount","type":"uint256","internalType":"uint256"},{"name":"milestoneAmounts","type":"uint256[]","internalType":"uint256[]"},{"name":"releaseDates","type":"uint256[]","internalType":"uint256[]"},{"name":"verifiers","type":"address[]","internalType":"address[]"},{"name":"verificationThreshold","type":"uint8","internalType":"uint8"}],"outputs":[{"name":"escrow","type":"address","internalType":"address"}],"stateMutability":"nonpayable"},{"type":"function","name":"feePercentage","inputs":[],"outputs":[{"name":"","type":"uint256","internalType":"uint256"}],"stateMutability":"view"},{"type":"function","name":"getAllEscrows","inputs":[],"outputs":[{"name":"","type":"address[]","internalType":"address[]"}],"stateMutability":"view"},{"type":"function","name":"getEscrowCount","inputs":[],"outputs":[{"name":"","type":"uint256","internalType":"uint256"}],"stateMutability":"view"},{"type":"function","name":"getEscrowsByKOL","inputs":[{"name":"kol","type":"address","internalType":"address"}],"outputs":[{"name":"","type":"address[]","internalType":"address[]"}],"stateMutability":"view"},{"type":"function","name":"getEscrowsByProject","inputs":[{"name":"project","type":"address","internalType":"address"}],"outputs":[{"name":"","type":"address[]","internalType":"address[]"}],"stateMutability":"view"},{"type":"function","name":"getSecurityConfig","inputs":[],"outputs":[{"name":"_timelock","type":"address","internalType":"address"},{"name":"_multiSig","type":"address","internalType":"address"},{"name":"_paused","type":"bool","internalType":"bool"},{"name":"_upgradesDisabled","type":"bool","internalType":"bool"},{"name":"_timelockDelay","type":"uint256","internalType":"uint256"}],"stateMutability":"view"},{"type":"function","name":"implementation","inputs":[],"outputs":[{"name":"","type":"address","internalType":"address"}],"stateMutability":"view"},{"type":"function","name":"isEscrow","inputs":[{"name":"","type":"address","internalType":"address"}],"outputs":[{"name":"","type":"bool","internalType":"bool"}],"stateMutability":"view"},{"type":"function","name":"kolEscrows","inputs":[{"name":"","type":"address","internalType":"address"},{"name":"","type":"uint256","internalType":"uint256"}],"outputs":[{"name":"","type":"address","internalType":"address"}],"stateMutability":"view"},{"type":"function","name":"lastActionTime","inputs":[],"outputs":[{"name":"","type":"uint256","internalType":"uint256"}],"stateMutability":"view"},{"type":"function","name":"lastUserAction","inputs":[{"name":"","type":"address","internalType":"address"}],"outputs":[{"name":"","type":"uint256","internalType":"uint256"}],"stateMutability":"view"},{"type":"function","name":"multiSigAdmin","inputs":[],"outputs":[{"name":"","type":"address","internalType":"address payable"}],"stateMutability":"view"},{"type":"function","name":"pause","inputs":[],"outputs":[],"stateMutability":"nonpayable"},{"type":"function","name":"paused","inputs":[],"outputs":[{"name":"","type":"bool","internalType":"bool"}],"stateMutability":"view"},{"type":"function","name":"permanentlyDisableUpgrades","inputs":[],"outputs":[],"stateMutability":"nonpayable"},{"type":"function","name":"projectEscrows","inputs":[{"name":"","type":"address","internalType":"address"},{"name":"","type":"uint256","internalType":"uint256"}],"outputs":[{"name":"","type":"address","internalType":"address"}],"stateMutability":"view"},{"type":"function","name":"timelockController","inputs":[],"outputs":[{"name":"","type":"address","internalType":"address payable"}],"stateMutability":"view"},{"type":"function","name":"unpause","inputs":[],"outputs":[],"stateMutability":"nonpayable"},{"type":"function","name":"updateAdmin","inputs":[{"name":"newAdmin","type":"address","internalType":"address"}],"outputs":[],"stateMutability":"nonpayable"},{"type":"function","name":"updateFee","inputs":[{"name":"newFeePercentage","type":"uint256","internalType":"uint256"}],"outputs":[],"stateMutability":"nonpayable"},{"type":"function","name":"updateImplementation","inputs":[{"name":"newImplementation","type":"address","internalType":"address"}],"outputs":[],"stateMutability":"nonpayable"},{"type":"function","name":"updateImplementationDirect","inputs":[{"name":"newImplementation","type":"address","internalType":"address"}],"outputs":[],"stateMutability":"nonpayable"},{"type":"function","name":"upgradesDisabled","inputs":[],"outputs":[{"name":"","type":"bool","internalType":"bool"}],"stateMutability":"view"},{"type":"event","name":"AdminChanged","inputs":[{"name":"oldAdmin","type":"address","indexed":true,"internalType":"address"},{"name":"newAdmin","type":"address","indexed":true,"internalType":"address"}],"anonymous":false},{"type":"event","name":"EscrowCreated","inputs":[{"name":"escrow","type":"address","indexed":true,"internalType":"address"},{"name":"project","type":"address","indexed":true,"internalType":"address"},{"name":"kol","type":"address","indexed":true,"internalType":"address"},{"name":"token","type":"address","indexed":false,"internalType":"address"},{"name":"totalAmount","type":"uint256","indexed":false,"internalType":"uint256"}],"anonymous":false},{"type":"event","name":"FeeUpdated","inputs":[{"name":"oldFee","type":"uint256","indexed":false,"internalType":"uint256"},{"name":"newFee","type":"uint256","indexed":false,"internalType":"uint256"}],"anonymous":false},{"type":"event","name":"FeesCollected","inputs":[{"name":"collector","type":"address","indexed":true,"internalType":"address"},{"name":"amount","type":"uint256","indexed":false,"internalType":"uint256"}],"anonymous":false},{"type":"event","name":"ImplementationUpdated","inputs":[{"name":"oldImpl","type":"address","indexed":true,"internalType":"address"},{"name":"newImpl","type":"address","indexed":true,"internalType":"address"}],"anonymous":false},{"type":"event","name":"Paused","inputs":[],"anonymous":false},{"type":"event","name":"SecurityConfigured","inputs":[{"name":"timelock","type":"address","indexed":false,"internalType":"address"},{"name":"multiSig","type":"address","indexed":false,"internalType":"address"}],"anonymous":false},{"type":"event","name":"Unpaused","inputs":[],"anonymous":false},{"type":"event","name":"UpgradesDisabled","inputs":[],"anonymous":false},{"type":"error","name":"AddressEmptyCode","inputs":[{"name":"target","type":"address","internalType":"address"}]},{"type":"error","name":"AddressInsufficientBalance","inputs":[{"name":"account","type":"address","internalType":"address"}]},{"type":"error","name":"ERC1167FailedCreateClone","inputs":[]},{"type":"error","name":"FailedInnerCall","inputs":[]},{"type":"error","name":"InsufficientAllowance","inputs":[]},{"type":"error","name":"InvalidFeePercentage","inputs":[]},{"type":"error","name":"InvalidImplementation","inputs":[]},{"type":"error","name":"InvalidParameters","inputs":[]},{"type":"error","name":"ReentrancyGuardReentrantCall","inputs":[]},{"type":"error","name":"SafeERC20FailedOperation","inputs":[{"name":"token","type":"address","internalType":"address"}]},{"type":"error","name":"TransferFailed","inputs":[]},{"type":"error","name":"Unauthorized","inputs":[]},{"type":"error","name":"ZeroAddress","inputs":[]}],"bytecode":{"object":"0x6080346200022957601f62003c0038819003918201601f1916830192916001600160401b039190828511848610176200022d57808492604096875283396020938491810103126200022957516001600160a01b03808216929091839003620002295760015f918183558415620002185781546001600160a01b031990811690951782556002805486163317905560fa6003558651610ac580820190838211838310176200020457899183916200313b83393081526202a3008a82015203019084f08015620001fa57841685600b541617600b5586519187830183811083821117620001e65788528083528683019187368437835115620001d25733835288519361145480860192831186841017620001be579189918695949362001ce787398b825251818c01819052606082019490885b818110620001a3575050500152039082f090811562000198575091817f6ad225d6bb8f4e0cb348cef78580e728f356682a9ba5f555a3e1194bab51258894928694168092600c541617600c55600b5416918351928352820152a151611aa59081620002428239f35b8551903d90823e3d90fd5b82518b168752889750958401958c9490920191850162000130565b634e487b7160e01b87526041600452602487fd5b634e487b7160e01b85526032600452602485fd5b634e487b7160e01b85526041600452602485fd5b87513d85823e3d90fd5b634e487b7160e01b86526041600452602486fd5b865163d92e233d60e01b8152600490fd5b5f80fd5b634e487b7160e01b5f52604160045260245ffdfe608080604052600436101561001c575b50361561001a575f80fd5b005b5f90813560e01c908163025b22bc1461155e57508063085f03161461154057806316b15135146115225780631d3afee6146114c6578063228a480d1461140e57806328cfa96d146113585780633031381d14610d375780633adf052714610cbf5780633f4ba83a14610c4c5780634a4e5a961461090d5780635c60da1b146108e45780635c975abb146108c15780636cc0f541146108455780637ba0eb5e146107ad5780638456cb59146107235780639003adfe146107055780639012c4a8146106885780639a6ac36f146105f95780639f8e6da114610538578063a001ecdd1461051a578063a704e8ad146104e1578063a9f0342c146104c4578063b166a09f14610485578063bc063e1a14610468578063c8796572146103b8578063ca838eb51461039b578063cce446d414610350578063ce8b8089146102f5578063e2f273bd14610232578063f3388e7514610209578063f851a440146101e0578063f9b278c0146101ba5763fd86feee0361000f57346101b757806003193601126101b757600c546040516001600160a01b039091168152602090f35b80fd5b50346101b757806003193601126101b757602060ff60095460081c166040519015158152f35b50346101b757806003193601126101b7576002546040516001600160a01b039091168152602090f35b50346101b757806003193601126101b757600b546040516001600160a01b039091168152602090f35b50346101b75760203660031901126101b75761024c61164c565b600254906001600160a01b0380831691338390036102e45781600c541633036102ae571680926bffffffffffffffffffffffff60a01b16176002557f7e644d79422f17c01e4894b5f4f588d331ebfa28653d42ae832dc59e38c9798f8380a380f35b60405162461bcd60e51b815260206004820152600e60248201526d4f6e6c79206d756c74692d73696760901b6044820152606490fd5b6040516282b42960e81b8152600490fd5b50346101b75760403660031901126101b75761030f61164c565b6001600160a01b039081168252600660205260408220805460243593908410156101b7575060209261034091611676565b9190546040519260031b1c168152f35b50346101b75760403660031901126101b75761036a61164c565b6001600160a01b039081168252600760205260408220805460243593908410156101b7575060209261034091611676565b50346101b757806003193601126101b757602060405161012c8152f35b50346101b757806003193601126101b7576002546001600160a01b0390811633036102e4576103e5611a4e565b6004549081156104565782600455828080808585600254165af1610407611751565b50156104445760207f9dc46f23cfb5ddcad0ae7ea2be38d47fec07bb9382ec7e564efc69e036dd66ce916002541692604051908152a26001815580f35b6040516312171d8360e31b8152600490fd5b604051630e52390960e41b8152600490fd5b50346101b757806003193601126101b75760206040516103e88152f35b50346101b75760203660031901126101b75760209060ff906040906001600160a01b036104b061164c565b168152600584522054166040519015158152f35b50346101b757806003193601126101b7576020604051610e108152f35b50346101b75760203660031901126101b7576020906040906001600160a01b0361050961164c565b168152600d83522054604051908152f35b50346101b757806003193601126101b7576020600354604051908152f35b50346101b757806003193601126101b757600b54600c5460095460405163675e4d4160e11b815290936001600160a01b039384169390921690602081600481875afa9283156105ed57926105b5575b5060a09360ff9160405194855260208501528181161515604085015260081c16151560608301526080820152f35b9091506020813d82116105e5575b816105d06020938361172f565b810103126105e157519060a0610587565b5f80fd5b3d91506105c3565b604051903d90823e3d90fd5b50346101b757806003193601126101b757604051600880548083529083526020808301937ff3f7a9fe364faab93b216da50a3214154f22a0a2b415b23a84c8169e8b636ee392915b82821061066857610664856106588189038261172f565b604051918291826116bc565b0390f35b83546001600160a01b031686529485019460019384019390910190610641565b50346101b75760203660031901126101b757600254600435906001600160a01b031633036102e4576103e881116106f35760407f528d9479e9f9889a87a3c30c7f7ba537e5e59c4c85a37733b16e57c62df6130291600354908060035582519182526020820152a180f35b60405163390edff560e11b8152600490fd5b50346101b757806003193601126101b7576020600454604051908152f35b50346101b757806003193601126101b7576002546001600160a01b031633036102e457600a54610e10810180911161079957610761904210156118b8565b42600a55600160ff1960095416176009557f9e87fac88ff661f02d44f95383c817fece4bce600a3dab7a54406878b965e7528180a180f35b634e487b7160e01b82526011600452602482fd5b50346101b75760403660031901126101b7576107c761164c565b6002546001600160a01b039190821633036102e45716808252600560205260ff60408320541615610456578082913b15610842578180916024604051809481936337bdc99b60e01b8352833560048401525af18015610837576108275750f35b610830906116ff565b6101b75780f35b6040513d84823e3d90fd5b50fd5b50346101b7576020806003193601126108bd576001600160a01b03918261086a61164c565b168152600682526040812092604051908193808654938481520195845280842093915b8383106108a45761066486610658818a038261172f565b845481168752958101956001948501949092019161088d565b5080fd5b50346101b757806003193601126101b757602060ff600954166040519015158152f35b50346101b757806003193601126101b7576001546040516001600160a01b039091168152602090f35b50346101b75760403660031901126101b7576004359067ffffffffffffffff908183116101b757366023840112156101b7578260040135918211610c38578160051b604051936020936109628584018761172f565b85528385016024809383010191368311610c345783869101915b838310610c1c57505060025483359692506001600160a01b039150811633036102e4576002825110610bd85760028610610b9b57835b8251811015610af85781600c5416826109cb8386611904565b51604051630935e01b60e21b81529116600482015287818781855afa908115610aed5791889188938491610ac0575b5015610a12575b505050610a0d906117b1565b6109b2565b610a729085610a218689611904565b51604051637048027560e01b86820152911689820152888152610a4381611713565b6040519485809481936331909d1d60e21b8352856004840152838d84015260606044840152606483019061187a565b03925af18015610ab557908791610a8c575b908691610a01565b813d8311610aae575b610a9f818361172f565b810103126105e157855f610a84565b503d610a95565b6040513d88823e3d90fd5b610ae09150833d8511610ae6575b610ad8818361172f565b810190611918565b5f6109fa565b503d610ace565b6040513d89823e3d90fd5b8486610b56818a888580896040519463d7d7442f60e01b8787015284860152838552610b2385611713565b600c541692604051968795869485936331909d1d60e21b855287600486015284015260606044840152606483019061187a565b03925af18015610b9057610b68578280f35b813d8311610b89575b610b7b818361172f565b810103126105e15781808280f35b503d610b71565b6040513d85823e3d90fd5b60405162461bcd60e51b8152600481018690526016818501527526b4b734b6bab6903a343932b9b437b6321034b9901960511b6044820152606490fd5b60405162461bcd60e51b8152600481018690526019818501527f4d696e696d756d20322061646d696e73207265717569726564000000000000006044820152606490fd5b8190610c2784611662565b815201910190859061097c565b8480fd5b634e487b7160e01b81526041600452602490fd5b50346101b757806003193601126101b7576002546001600160a01b031633036102e457600a54610e10810180911161079957610c8a904210156118b8565b42600a5560ff19600954166009557fa45f47fdea8a1efdd9029a5691c7f759c32b7c698632b563573e155625d169338180a180f35b50346101b7576020806003193601126108bd576001600160a01b039182610ce461164c565b168152600782526040812092604051908193808654938481520195845280842093915b838310610d1e5761066486610658818a038261172f565b8454811687529581019560019485019490920191610d07565b50346101b75760e03660031901126101b757610d5161164c565b906024356001600160a01b03811681036108bd5767ffffffffffffffff60643581811161135057610d8690369060040161168b565b939060843583811161135457610da090369060040161168b565b9360a43590811161135057610db990369060040161168b565b60c4929192359160ff8316830361134c5760ff6009541661131357338652600d602052604086205461012c810180911161120a5742106112d857338652600d602052426040872055610e09611a4e565b6001600160a01b038a161580156112c7575b6112b5576044351561045657881580156112ab575b61045657811515806112a0575b610456578160ff8416116104565785865b8a811061121e575060443503610456576003549660443580890204880361120a57610e83612710896044350204604435611790565b604051636eb1769f60e11b81523360048201523060248201526020816044816001600160a01b038f165afa9081156111ff5789916111cd575b50106111bb57600154608881901c62ffffff16763d602d80600a3d3981f3363d3d373d3d3d363d7300000017885260781b6effffffffffffffffffffffffffffff19166e5af43d82803e903d91602b57fd5bf3176020526037600988f06001600160a01b0381169a9096908b156111a9578b3b156111a557604051631d230b2960e11b81523360048201526001600160a01b03808f1660248301528c1660448083019190915235606482015261010060848201529689968896919590949193602093610fa49391610f92916101048b01916117cf565b8881036003190160a48a0152916117cf565b8581036003190160c4870152828152019290855b8181106111705750505060ff1660e483015281900381838a5af18015610b905761115d575b5090916110519190610ffc60443583336001600160a01b038916611930565b612710816044350204611123575b50848352600560205260408320600160ff19825416179055338352600660205261103781604085206117f3565b6001600160a01b03861683526007602052604083206117f3565b60085491600160401b83101561110f5760018301806008558310156110fb5760085f527ff3f7a9fe364faab93b216da50a3214154f22a0a2b415b23a84c8169e8b636ee390920180546001600160a01b03191684179055604080516001600160a01b039384168152604435602082810191909152956001941691339186917f5110acfd33aad02838430d854a830e50cb07377fab40a6e84daeedb1b151360091a455604051908152f35b634e487b7160e01b5f52603260045260245ffd5b634e487b7160e01b5f52604160045260245ffd5b6111549061271090611147604435820283900430336001600160a01b038b16611930565b6044350204600454611790565b6004555f61100a565b9161116a611051936116ff565b91610fdd565b919550919350909160019060209081906001600160a01b0361119189611662565b168152019501910190879492869492610fb8565b8880fd5b6040516330be1a3d60e21b8152600490fd5b6040516313be252b60e01b8152600490fd5b90506020813d6020116111f7575b816111e86020938361172f565b810103126111a557515f610ebc565b3d91506111db565b6040513d8b823e3d90fd5b634e487b7160e01b87526011600452602487fd5b9061122a828c896117bf565b35156104565781151580611261575b6104565761125661125c9161124f848e8b6117bf565b3590611790565b916117b1565b610e4e565b5061126d828a856117bf565b355f19830183811161128c57611284908b866117bf565b351015611239565b634e487b7160e01b8a52601160045260248afd5b5060ff831615610e3d565b5086891415610e30565b60405163d92e233d60e01b8152600490fd5b506001600160a01b03881615610e1b565b60405162461bcd60e51b815260206004820152601360248201527214985d19481b1a5b5a5d08195e18d959591959606a1b6044820152606490fd5b60405162461bcd60e51b8152602060048201526011602482015270119858dd1bdc9e481a5cc81c185d5cd959607a1b6044820152606490fd5b8580fd5b8380fd5b8280fd5b50346101b757806003193601126101b7576002546001600160a01b0390811633036102e457600c541633036113bd5761010061ff001960095416176009557f0e5daa943fcd7e7182d0e893d180695c2ea9f6f1b4a1c5432faf14cf17b774e88180a180f35b60405162461bcd60e51b815260206004820152602360248201527f4f6e6c79206d756c74692d7369672063616e2064697361626c6520757067726160448201526264657360e81b6064820152608490fd5b50346101b75760203660031901126101b75761142861164c565b600b546001600160a01b039190821633036114915761144f60ff60095460081c161561182e565b16806bffffffffffffffffffffffff60a01b6001541617600155807faa3f731066a578e5f39b4215468d826cdd15373cbc0dfc9cb9bdc649718ef7da8380a380f35b60405162461bcd60e51b815260206004820152600d60248201526c4f6e6c792074696d656c6f636b60981b6044820152606490fd5b50346101b75760203660031901126101b7576004356008548110156108bd5760089091527ff3f7a9fe364faab93b216da50a3214154f22a0a2b415b23a84c8169e8b636ee301546040516001600160a01b039091168152602090f35b50346101b757806003193601126101b7576020600854604051908152f35b50346101b757806003193601126101b7576020600a54604051908152f35b9050346108bd57602090816003193601126113545761157b61164c565b60025490916001600160a01b03918216330361163e5750611604849284926115ab60ff60095460081c161561182e565b806040519263228a480d60e01b86850152166024830152602482526115cf82611713565b600b5416906040519485809481936380b3b09960e01b835230600484015283602484015260606044840152606483019061187a565b03925af18015610b9057611616578280f35b813d8311611637575b611629818361172f565b810103126101b7575f808280f35b503d61161f565b6282b42960e81b8152600490fd5b600435906001600160a01b03821682036105e157565b35906001600160a01b03821682036105e157565b80548210156110fb575f5260205f2001905f90565b9181601f840112156105e15782359167ffffffffffffffff83116105e1576020808501948460051b0101116105e157565b602090816040818301928281528551809452019301915f5b8281106116e2575050505090565b83516001600160a01b0316855293810193928101926001016116d4565b67ffffffffffffffff811161110f57604052565b6060810190811067ffffffffffffffff82111761110f57604052565b90601f8019910116810190811067ffffffffffffffff82111761110f57604052565b3d1561178b573d9067ffffffffffffffff821161110f5760405191611780601f8201601f19166020018461172f565b82523d5f602084013e565b606090565b9190820180921161179d57565b634e487b7160e01b5f52601160045260245ffd5b5f19811461179d5760010190565b91908110156110fb5760051b0190565b81835290916001600160fb1b0383116105e15760209260051b809284830137010190565b8054600160401b81101561110f5761181091600182018155611676565b819291549060031b9160018060a01b03809116831b921b1916179055565b1561183557565b60405162461bcd60e51b815260206004820152601d60248201527f5570677261646573207065726d616e656e746c792064697361626c65640000006044820152606490fd5b91908251928382525f5b8481106118a4575050825f602080949584010152601f8019910116010190565b602081830181015184830182015201611884565b156118bf57565b60405162461bcd60e51b815260206004820152601c60248201527f41646d696e20616374696f6e20636f6f6c646f776e20616374697665000000006044820152606490fd5b80518210156110fb5760209160051b010190565b908160209103126105e1575180151581036105e15790565b6040516323b872dd60e01b602082019081526001600160a01b0393841660248301529383166044820152606480820195909552938452909160a084019067ffffffffffffffff82118583101761110f576119a2935f9384936040521694519082865af161199b611751565b90836119eb565b80519081151591826119d0575b50506119b85750565b60249060405190635274afe760e01b82526004820152fd5b6119e39250602080918301019101611918565b155f806119af565b90611a125750805115611a0057805190602001fd5b604051630a12f52160e11b8152600490fd5b81511580611a45575b611a23575090565b604051639996b31560e01b81526001600160a01b039091166004820152602490fd5b50803b15611a1b565b60025f5414611a5d5760025f55565b604051633ee5aeb560e01b8152600490fdfea26469706673582212203884840d7a5322387e7656c2c9a978cf5af38f11ad15228b2f0bab9dbfd10db464736f6c63430008140033604060808152346200030a5762001454803803806200001e816200030e565b92833981019180828403126200030a5781516001600160401b0393908481116200030a5783019281601f850112156200030a578351948511620001915760059185831b6020958680620000738185016200030e565b809a815201928201019283116200030a5790868094939201905b828210620002de57505050015193848151106200029c57841562000240575f5b81518110156200022d5780831b82018501516001600160a01b03168015620001e957805f52600180875260ff865f205416620001a5575f828152818852868120805460ff19168317905554906801000000000000000082101562000191578101805f558110156200017d575f8080528781209190910180546001600160a01b031916831790557f44d6d25963f097ad14f29f06854a01f575648a1ef82f30e562ccd3889717e3399080a25f1981146200016957600101620000ad565b634e487b7160e01b5f52601160045260245ffd5b634e487b7160e01b5f52603260045260245ffd5b634e487b7160e01b5f52604160045260245ffd5b855162461bcd60e51b815260048101889052601e60248201527f4d756c746953696741646d696e3a206475706c69636174652061646d696e00006044820152606490fd5b845162461bcd60e51b815260048101879052601c60248201527f4d756c746953696741646d696e3a20696e76616c69642061646d696e000000006044820152606490fd5b83866002555161111f9081620003358239f35b825162461bcd60e51b815260048101859052602f60248201527f4d756c746953696741646d696e3a207468726573686f6c64206d75737420626560448201526e02067726561746572207468616e203608c1b6064820152608490fd5b60648484519062461bcd60e51b825280600483015260248201527f4d756c746953696741646d696e3a20696e76616c6964207468726573686f6c646044820152fd5b815193945091929091906001600160a01b03811681036200030a5781528693929184019084016200008d565b5f80fd5b6040519190601f01601f191682016001600160401b03811183821017620001915760405256fe6040608081526004908136101561001f575b5050361561001d575f80fd5b005b5f91823560e01c806314bfd6d014610bb45780631785f53c146109c2578063242232d11461089c57806324d7806c1461085e57806331ae450b1461079b57806342cde4e81461077c57806356c316371461072c57806370480275146105c75780639ace38c214610571578063b1e130fc1461044a578063b77bf6001461042b578063c6427474146101da578063d7aa82731461017e5763d7d7442f146100c55750610011565b3461017a57602036600319011261017a578035906100e430331461108f565b8115158061016f575b1561012c5750907fb06a54caabe58475c86c2bf9df3f2f06dd1213e9e10659c293117fe4893b274b91600254908060025582519182526020820152a180f35b606490602084519162461bcd60e51b8352820152602060248201527f4d756c746953696741646d696e3a20696e76616c6964207468726573686f6c646044820152fd5b5083548211156100ed565b8280fd5b5082346101d75760203660031901126101d757826101d39183358152836020522060018060a01b03815416926001820154946101c8600260ff600386015416938501549401610cc4565b905195869586610d65565b0390f35b80fd5b50919034610427576060366003190112610427576101f6610c3c565b916044359067ffffffffffffffff9485831161042757366023840112156104275782810135958611610427576024903682888601011161017a5733835260019360209785895261024b60ff8887205416610dd0565b80600394600286549a8b8952868d528a89209060018060a01b03166bffffffffffffffffffffffff60a01b82541617815582358a820155019361028e8554610c56565b601f81116103d5575b508790601f841160011461036e578893610361575b5050505f1982861b1c191690861b1790555b8583528087526005858420858482019360ff199485815416905582015533855201875283858420918254161790556102f68154610e27565b905533847f49dac62158bf9ae2b4399a70c655777cc0924f8708068eea723a1b4af2f07f1b8380a3837f924813d717e221b5f46dcd8a56da1679e4612584ab3237d55e5faabf6f6a3079339280a360025414610353575b51908152f35b61035c82610f07565b61034d565b01013590505f80806102ac565b8589528c89208a9550929091601f1985168a8f5b8282106103ba57505085116103a0575b50505050811b0190556102be565b5f1960f8868b1b161c19920101351690555f808080610392565b83860185013587558d98909601959283019290810190610382565b909192508488528b8820601f850160051c8101918d861061041d575b8594939291601f8c920160051c01915b82811061040f575050610297565b8a81558695508b9101610401565b90915081906103f1565b5080fd5b5050346104275781600319360112610427576020906003549051908152f35b50919034610427576020928360031936011261017a578035913384526001855261047960ff8286205416610dd0565b6104866003548410610e49565b82845281855261049f60ff600383872001541615610ea7565b828452818552808420906005820133865280875260ff82872054161561051e578394959633885252852060ff1981541690550190815490811561050b57505f1901905533907f4cd471041f6b9ff47536a54a3d3ab62d0fa9dd5e36c0418b294b1673acb318818380a380f35b634e487b7160e01b855260119052602484fd5b815162461bcd60e51b8152808501889052602760248201527f4d756c746953696741646d696e3a207472616e73616374696f6e206e6f7420616044820152661c1c1c9bdd995960ca1b6064820152608490fd5b5091346101d75760203660031901126101d757816101d3918435815284602052209160018060a01b03835416926001810154946105b060028301610cc4565b9060ff600384015416920154925195869586610d65565b50919034610427576020366003190112610427576105e3610c3c565b6105ee30331461108f565b6001600160a01b03811680845260016020528284205490929060ff166106ea5782156106a85782845260016020528320600160ff19825416179055825468010000000000000000811015610695579061064f82600161066e94018655610bf3565b90919082549060031b9160018060a01b03809116831b921b1916179055565b7f44d6d25963f097ad14f29f06854a01f575648a1ef82f30e562ccd3889717e3398280a280f35b634e487b7160e01b845260418552602484fd5b5162461bcd60e51b8152602081860152601c60248201527f4d756c746953696741646d696e3a20696e76616c69642061646d696e000000006044820152606490fd5b5162461bcd60e51b8152602081860152601c60248201527f4d756c746953696741646d696e3a20616c72656164792061646d696e000000006044820152606490fd5b503461017a578160031936011261017a576024356001600160a01b03811691908290036107785760209360ff928285933583528652600583832001908252855220541690519015158152f35b8380fd5b5050346104275781600319360112610427576020906002549051908152f35b8284346101d757806003193601126101d757908051918290805491828552602080950180938380527f290decd9548b62a8d60345a988386fc84ba6bc95484008f6362f93160ef3e56390845b81811061084157505050816107fd910382610c8e565b83519485948186019282875251809352850193925b82811061082157505050500390f35b83516001600160a01b031685528695509381019392810192600101610812565b82546001600160a01b0316845292880192600192830192016107e7565b5050346104275760203660031901126104275760209160ff9082906001600160a01b03610889610c3c565b1681526001855220541690519015158152f35b503461017a5760208060031936011261077857813592338552600182526108c860ff8287205416610dd0565b6108d56003548510610e49565b8385528282526108ee60ff600383882001541615610ea7565b83855282825280852091600583019033875281815260ff838820541661096c57338752528420600160ff198254161790550161092a8154610e27565b80915533827f924813d717e221b5f46dcd8a56da1679e4612584ab3237d55e5faabf6f6a30798580a36002541115610960575080f35b61096990610f07565b80f35b8460849184519162461bcd60e51b8352820152602b60248201527f4d756c746953696741646d696e3a207472616e73616374696f6e20616c72656160448201526a191e48185c1c1c9bdd995960aa1b6064820152fd5b50903461017a57602036600319011261017a576109dd610c3c565b6109e830331461108f565b60018060a01b03809116918285526001938460205260ff828720541615610b725785545f199290838101908111610b055760025411610b1e5784875260208690528620805460ff1916905585855b610a64575b86857fa3b62bc36326052d97ea62d63c3d60308ed4c3ea8ac079dd8499f1e9c4f80c0f8280a280f35b865480821015610b1857849086610a7a84610bf3565b939054600394851b1c1614610a9a575050610a9490610e27565b85610a36565b90959650838101908111610b05579061064f85610ab9610ac694610bf3565b905490891b1c1691610bf3565b8554908115610af257500191610adb83610bf3565b81939154921b1b191690558255805f808080610a3b565b634e487b7160e01b875260319052602486fd5b634e487b7160e01b885260118352602488fd5b50610a3b565b906020608492519162461bcd60e51b8352820152602860248201527f4d756c746953696741646d696e3a2063616e6e6f7420676f2062656c6f7720746044820152671a1c995cda1bdb1960c21b6064820152fd5b6020606492519162461bcd60e51b8352820152601860248201527f4d756c746953696741646d696e3a206e6f742061646d696e00000000000000006044820152fd5b503461017a57602036600319011261017a57359180548310156101d75750610bdd602092610bf3565b905491519160018060a01b039160031b1c168152f35b905f918254811015610c28578280527f290decd9548b62a8d60345a988386fc84ba6bc95484008f6362f93160ef3e563019190565b634e487b7160e01b83526032600452602483fd5b600435906001600160a01b0382168203610c5257565b5f80fd5b90600182811c92168015610c84575b6020831014610c7057565b634e487b7160e01b5f52602260045260245ffd5b91607f1691610c65565b90601f8019910116810190811067ffffffffffffffff821117610cb057604052565b634e487b7160e01b5f52604160045260245ffd5b9060405191825f825492610cd784610c56565b9081845260019485811690815f14610d425750600114610d02575b5050610d0092500383610c8e565b565b909391505f52602090815f20935f915b818310610d2a575050610d0093508201015f80610cf2565b85548884018501529485019487945091830191610d12565b915050610d0094506020925060ff191682840152151560051b8201015f80610cf2565b9291909594939560018060a01b031683526020908184015260a060408401528151918260a08501525f5b838110610dbc575050509060c0825f8260809585010152601f801991011682010194151560608201520152565b81810183015185820160c001528201610d8f565b15610dd757565b60405162461bcd60e51b815260206004820152602260248201527f4d756c746953696741646d696e3a2063616c6c6572206973206e6f742061646d60448201526134b760f11b6064820152608490fd5b5f198114610e355760010190565b634e487b7160e01b5f52601160045260245ffd5b15610e5057565b60405162461bcd60e51b815260206004820152602960248201527f4d756c746953696741646d696e3a207472616e73616374696f6e20646f6573206044820152681b9bdd08195e1a5cdd60ba1b6064820152608490fd5b15610eae57565b60405162461bcd60e51b815260206004820152602b60248201527f4d756c746953696741646d696e3a207472616e73616374696f6e20616c72656160448201526a191e48195e1958dd5d195960aa1b6064820152608490fd5b5f9080825260206004815260408320836003820191600160ff1993818582541617905560018060a01b03825416916002828201549101946040519285968054610f4f81610c56565b93818416918215611079575050600114611042575b50505081849503925af13d1561103d573d67ffffffffffffffff81116110295760405190610f9b601f8201601f1916850183610c8e565b815284833d92013e5b15610fd157507fefc13bdcf58f184ea7cae26b499fb33b539e01d0197cea456f3ada289b8cf19b339280a3565b6084906040519062461bcd60e51b82526004820152602b60248201527f4d756c746953696741646d696e3a207472616e73616374696f6e20657865637560448201526a1d1a5bdb8819985a5b195960aa1b6064820152fd5b634e487b7160e01b85526041600452602485fd5b610fa4565b8652878620965085905b88838310611063575050508201945081845f610f64565b885483870152978101978b97509091019061104c565b168652505050801515028201945081845f610f64565b1561109657565b60405162461bcd60e51b815260206004820152602560248201527f4d756c746953696741646d696e3a2063616c6c6572206973206e6f74206d756c604482015264746973696760d81b6064820152608490fdfea2646970667358221220d9db088a453bbcc29f6310f99be1fe4bbcc7a26d2c9de3d1799f740cdf51b35564736f6c634300081400336080346100ea57601f610ac538819003918201601f19168301916001600160401b038311848410176100ee5780849260409485528339810103126100ea5780516001600160a01b03811691908290036100ea5760200151906202a300821015806100dd575b1561008e575f80546001600160a01b0319169190911790556002556040516109c290816101038239f35b60405162461bcd60e51b815260206004820152602160248201527f54696d656c6f636b436f6e74726f6c6c65723a20696e76616c69642064656c616044820152607960f81b6064820152608490fd5b5062278d00821115610064565b5f80fd5b634e487b7160e01b5f52604160045260245ffdfe6080604081815260049182361015610021575b505050361561001f575f80fd5b005b5f92833560e01c9182630e18b681146106bb5750816326782247146106925781633f579f42146104435781634125ff90146104255781634dd18bf5146103d95781636a42b8f81461029c57816380b3b099146103215781638f4016b6146102f75781639f81aed7146102d9578163c1a287e2146102bb578163cebc9a821461029c578163e177246e146101d5578163e37c9fd51461015b578163f2b065371461012f57508063f791852b1461010a5763f851a440146100e05780610012565b34610106578160031936011261010657905490516001600160a01b039091168152602090f35b5080fd5b50346101065760209061012861011f36610761565b929190916108c5565b9051908152f35b9050346101575760203660031901126101575760209282913581526003845220549051908152f35b8280fd5b505034610106578161018c61016f36610761565b9261018760018060a09594951b0387541633146107c7565b6108c5565b9182825260036020526101a3818320541515610843565b82825260036020528120557f0891e6c675e964cf1e5982f60fda276ad06301a9221b2f1d7bf2b2a42fbd69a18280a280f35b905034610157576020366003190112610157578035906101f630331461090d565b6202a3008210158061028f575b156102425750907fa580b4a9812995ffed1b336481c3f3bfeb3414df9f587a9d73856bab25aa4eee91600254908060025582519182526020820152a180f35b608490602084519162461bcd60e51b8352820152602160248201527f54696d656c6f636b436f6e74726f6c6c65723a20696e76616c69642064656c616044820152607960f81b6064820152fd5b5062278d00821115610203565b5050346101065781600319360112610106576020906002549051908152f35b50503461010657816003193601126101065760209051621275008152f35b505034610106578160031936011261010657602090516202a3008152f35b90503461015757602036600319011261015757602092829135815260038452205415159051908152f35b8383346101065761033136610761565b9190949260018060a01b039061034b8286541633146107c7565b610357848885846108c5565b966002544201958642116103c65760209950916103b689969492888a868a7f4efebf40a8244d219085e74f928a18e8c9d17adc6b39270b8706cca0a92b648d9a985260038f5220558951958695865260608d8701526060860191610823565b968884015216940390a351908152f35b634e487b7160e01b815260118a52602490fd5b83903461010657602036600319011261010657356001600160a01b038116908190036101065761040a30331461090d565b6bffffffffffffffffffffffff60a01b600154161760015580f35b5050346101065781600319360112610106576020905162278d008152f35b9050346101575761045336610761565b86546001600160a01b03979491939061046f90891633146107c7565b61047b848483856108c5565b9283865260209860038a5288872054610495811515610843565b8042106106505762127500810180911161063d5742116105fd5784875260038a52868981205586808a518885823780898101838152039086885af1973d156105f5573d9867ffffffffffffffff8a116105e2578a51996104fe601f8201601f19168e018c61088f565b8a523d898d8c013e5b1561059957507f8b7b712167f6dc65bddd7d9a42eec3ed7de70db3ffda6e8fbb166195a0fa10cb939291610550918a9b99989b5194859485528b8b86015216968a840191610823565b0390a382519382859384528251928382860152825b84811061058357505050828201840152601f01601f19168101030190f35b8181018301518882018801528795508201610565565b895162461bcd60e51b81529081018b9052603060248201525f8051602061096d83398151915260448201526f195e1958dd5d1a5bdb8819985a5b195960821b6064820152608490fd5b634e487b7160e01b895260418252602489fd5b606098610507565b885162461bcd60e51b81528089018b9052602760248201525f8051602061096d833981519152604482015266195e1c1a5c995960ca1b6064820152608490fd5b634e487b7160e01b885260118952602488fd5b895162461bcd60e51b8152808a018c9052602960248201525f8051602061096d8339815191526044820152686e6f7420726561647960b81b6064820152608490fd5b50503461010657816003193601126101065760015490516001600160a01b039091168152602090f35b849250346101575782600319360112610157576001546001600160a01b03811692909190338490036107085750506bffffffffffffffffffffffff60a01b91828454161783551660015580f35b62461bcd60e51b8252602090820152602f60248201527f54696d656c6f636b436f6e74726f6c6c65723a2063616c6c6572206973206e6f60448201526e3a103832b73234b7339030b236b4b760891b6064820152608490fd5b9060606003198301126107c3576004356001600160a01b03811681036107c357916024359160443567ffffffffffffffff928382116107c357806023830112156107c35781600401359384116107c357602484830101116107c3576024019190565b5f80fd5b156107ce57565b60405162461bcd60e51b815260206004820152602760248201527f54696d656c6f636b436f6e74726f6c6c65723a2063616c6c6572206973206e6f6044820152663a1030b236b4b760c91b6064820152608490fd5b908060209392818452848401375f828201840152601f01601f1916010190565b1561084a57565b60405162461bcd60e51b815260206004820152602a60248201525f8051602061096d8339815191526044820152691b9bdd081c5d595d595960b21b6064820152608490fd5b90601f8019910116810190811067ffffffffffffffff8211176108b157604052565b634e487b7160e01b5f52604160045260245ffd5b9291906108f961090792604051948593602085019760018060a01b0316885260408501526060808501526080840191610823565b03601f19810183528261088f565b51902090565b1561091457565b60405162461bcd60e51b815260206004820152602a60248201527f54696d656c6f636b436f6e74726f6c6c65723a2063616c6c6572206973206e6f604482015269742074696d656c6f636b60b01b6064820152608490fdfe54696d656c6f636b436f6e74726f6c6c65723a207472616e73616374696f6e20a26469706673582212200c00a15c47e6ecdd25030d04f15b3d1c1a847c752ebace95b63fdfa495dfcb7a64736f6c63430008140033","linkReferences":{}},"methodIdentifiers":{"ACTION_COOLDOWN()":"a9f0342c","MAX_FEE()":"bc063e1a","USER_COOLDOWN()":"ca838eb5","admin()":"f851a440","adminReleaseMilestone(address,uint256)":"7ba0eb5e","allEscrows(uint256)":"1d3afee6","collectFees()":"c8796572","collectedFees()":"9003adfe","configureMultiSig(address[],uint256)":"4a4e5a96","createEscrow(address,address,uint256,uint256[],uint256[],address[],uint8)":"3031381d","feePercentage()":"a001ecdd","getAllEscrows()":"9a6ac36f","getEscrowCount()":"16b15135","getEscrowsByKOL(address)":"3adf0527","getEscrowsByProject(address)":"6cc0f541","getSecurityConfig()":"9f8e6da1","implementation()":"5c60da1b","isEscrow(address)":"b166a09f","kolEscrows(address,uint256)":"cce446d4","lastActionTime()":"085f0316","lastUserAction(address)":"a704e8ad","multiSigAdmin()":"fd86feee","pause()":"8456cb59","paused()":"5c975abb","permanentlyDisableUpgrades()":"28cfa96d","projectEscrows(address,uint256)":"ce8b8089","timelockController()":"f3388e75","unpause()":"3f4ba83a","updateAdmin(address)":"e2f273bd","updateFee(uint256)":"9012c4a8","updateImplementation(address)":"025b22bc","updateImplementationDirect(address)":"228a480d","upgradesDisabled()":"f9b278c0"},"id":4}