{
  "_format": "hh-sol-artifact-1",
  "contractName": "BondingCurve",
  "sourceName": "contracts/TokenFactory.sol",
  "abi": [
    {
      "inputs": [
        {
          "internalType": "address",
          "name": "_platformFeeReceiver",
          "type": "address"
        }
      ],
      "stateMutability": "nonpayable",
      "type": "constructor"
    },
    {
      "inputs": [],
      "name": "ReentrancyGuardReentrantCall",
      "type": "error"
    },
    {
      "anonymous": false,
      "inputs": [
        {
          "indexed": true,
          "internalType": "address",
          "name": "token",
          "type": "address"
        },
        {
          "indexed": false,
          "internalType": "uint256",
          "name": "liquidity",
          "type": "uint256"
        }
      ],
      "name": "TokenGraduated",
      "type": "event"
    },
    {
      "anonymous": false,
      "inputs": [
        {
          "indexed": true,
          "internalType": "address",
          "name": "token",
          "type": "address"
        },
        {
          "indexed": true,
          "internalType": "address",
          "name": "creator",
          "type": "address"
        }
      ],
      "name": "TokenListed",
      "type": "event"
    },
    {
      "anonymous": false,
      "inputs": [
        {
          "indexed": true,
          "internalType": "address",
          "name": "token",
          "type": "address"
        },
        {
          "indexed": true,
          "internalType": "address",
          "name": "buyer",
          "type": "address"
        },
        {
          "indexed": false,
          "internalType": "uint256",
          "name": "ethIn",
          "type": "uint256"
        },
        {
          "indexed": false,
          "internalType": "uint256",
          "name": "tokensOut",
          "type": "uint256"
        }
      ],
      "name": "TokensBought",
      "type": "event"
    },
    {
      "anonymous": false,
      "inputs": [
        {
          "indexed": true,
          "internalType": "address",
          "name": "token",
          "type": "address"
        },
        {
          "indexed": true,
          "internalType": "address",
          "name": "seller",
          "type": "address"
        },
        {
          "indexed": false,
          "internalType": "uint256",
          "name": "tokensIn",
          "type": "uint256"
        },
        {
          "indexed": false,
          "internalType": "uint256",
          "name": "ethOut",
          "type": "uint256"
        }
      ],
      "name": "TokensSold",
      "type": "event"
    },
    {
      "inputs": [],
      "name": "CREATOR_FEE_BPS",
      "outputs": [
        {
          "internalType": "uint256",
          "name": "",
          "type": "uint256"
        }
      ],
      "stateMutability": "view",
      "type": "function"
    },
    {
      "inputs": [],
      "name": "GRADUATION_THRESHOLD",
      "outputs": [
        {
          "internalType": "uint256",
          "name": "",
          "type": "uint256"
        }
      ],
      "stateMutability": "view",
      "type": "function"
    },
    {
      "inputs": [],
      "name": "MAX_BPS",
      "outputs": [
        {
          "internalType": "uint256",
          "name": "",
          "type": "uint256"
        }
      ],
      "stateMutability": "view",
      "type": "function"
    },
    {
      "inputs": [],
      "name": "PLATFORM_FEE_BPS",
      "outputs": [
        {
          "internalType": "uint256",
          "name": "",
          "type": "uint256"
        }
      ],
      "stateMutability": "view",
      "type": "function"
    },
    {
      "inputs": [
        {
          "internalType": "address",
          "name": "_token",
          "type": "address"
        }
      ],
      "name": "bondingProgress",
      "outputs": [
        {
          "internalType": "uint256",
          "name": "",
          "type": "uint256"
        }
      ],
      "stateMutability": "view",
      "type": "function"
    },
    {
      "inputs": [
        {
          "internalType": "address",
          "name": "_token",
          "type": "address"
        },
        {
          "internalType": "uint256",
          "name": "_minTokensOut",
          "type": "uint256"
        }
      ],
      "name": "buyTokens",
      "outputs": [
        {
          "internalType": "uint256",
          "name": "tokensOut",
          "type": "uint256"
        }
      ],
      "stateMutability": "payable",
      "type": "function"
    },
    {
      "inputs": [
        {
          "internalType": "address",
          "name": "_token",
          "type": "address"
        }
      ],
      "name": "calculateMarketCap",
      "outputs": [
        {
          "internalType": "uint256",
          "name": "",
          "type": "uint256"
        }
      ],
      "stateMutability": "view",
      "type": "function"
    },
    {
      "inputs": [
        {
          "internalType": "address",
          "name": "_token",
          "type": "address"
        }
      ],
      "name": "claimCreatorFees",
      "outputs": [],
      "stateMutability": "nonpayable",
      "type": "function"
    },
    {
      "inputs": [
        {
          "internalType": "address",
          "name": "_token",
          "type": "address"
        }
      ],
      "name": "getTokenPrice",
      "outputs": [
        {
          "internalType": "uint256",
          "name": "",
          "type": "uint256"
        }
      ],
      "stateMutability": "view",
      "type": "function"
    },
    {
      "inputs": [
        {
          "internalType": "address",
          "name": "_token",
          "type": "address"
        },
        {
          "internalType": "uint256",
          "name": "_initialTokenSupply",
          "type": "uint256"
        }
      ],
      "name": "listToken",
      "outputs": [],
      "stateMutability": "nonpayable",
      "type": "function"
    },
    {
      "inputs": [],
      "name": "platformFeeReceiver",
      "outputs": [
        {
          "internalType": "address",
          "name": "",
          "type": "address"
        }
      ],
      "stateMutability": "view",
      "type": "function"
    },
    {
      "inputs": [
        {
          "internalType": "address",
          "name": "_token",
          "type": "address"
        },
        {
          "internalType": "uint256",
          "name": "_tokenAmount",
          "type": "uint256"
        },
        {
          "internalType": "uint256",
          "name": "_minEthOut",
          "type": "uint256"
        }
      ],
      "name": "sellTokens",
      "outputs": [
        {
          "internalType": "uint256",
          "name": "ethOut",
          "type": "uint256"
        }
      ],
      "stateMutability": "nonpayable",
      "type": "function"
    },
    {
      "inputs": [
        {
          "internalType": "address",
          "name": "",
          "type": "address"
        }
      ],
      "name": "tokens",
      "outputs": [
        {
          "internalType": "address",
          "name": "tokenAddress",
          "type": "address"
        },
        {
          "internalType": "uint256",
          "name": "virtualEthReserve",
          "type": "uint256"
        },
        {
          "internalType": "uint256",
          "name": "virtualTokenReserve",
          "type": "uint256"
        },
        {
          "internalType": "uint256",
          "name": "realEthReserve",
          "type": "uint256"
        },
        {
          "internalType": "uint256",
          "name": "realTokenReserve",
          "type": "uint256"
        },
        {
          "internalType": "bool",
          "name": "graduated",
          "type": "bool"
        },
        {
          "internalType": "address",
          "name": "creator",
          "type": "address"
        },
        {
          "internalType": "uint256",
          "name": "collectedFees",
          "type": "uint256"
        }
      ],
      "stateMutability": "view",
      "type": "function"
    }
  ],
  "bytecode": "0x60803461007957601f610e2038819003918201601f19168301916001600160401b0383118484101761007e5780849260209460405283398101031261007957516001600160a01b03811690819003610079576001600055600280546001600160a01b031916919091179055604051610d8b90816100958239f35b600080fd5b634e487b7160e01b600052604160045260246000fdfe608080604052600436101561001357600080fd5b60003560e01c9081630717d7c3146108c7575080630752881a146105c65780632d656ad71461059d57806341344d5d1461057a578063539aa77f14610552578063b45d92df14610557578063cc3cbd2a14610552578063d02641a014610527578063d6ae6e441461045d578063e4860339146103cf578063e4e57b9e146100f5578063fcfc0c09146100d05763fd967f47146100ae57600080fd5b346100cb5760003660031901126100cb5760206040516127108152f35b600080fd5b346100cb5760003660031901126100cb576020604051690e9c7f5bd655012000008152f35b346100cb5760603660031901126100cb5761010e610a63565b6024359061011a610bd9565b60018060a01b038091169182600052602092600184526040600020610143848254161515610ab7565b61015460ff60058301541615610af6565b8215610396576040516323b872dd60e01b81523360048201523060248201526044810184905285816064816000875af180156102f057610369575b50600181015493600382018054926101a78488610b74565b8460028301549860048401928984549b8c926101c38483610b74565b6101cc91610b34565b926101d691610b74565b906101e091610b74565b6101e991610b47565b916101f391610b74565b906101fd91610b67565b97606489028981046064148a1517156103535761271090049361022985610224818d610b67565b610b67565b96610238604435891015610b81565b808b1161030e57600694939261025a926102538d8d94610b67565b9055610b74565b905501610268828254610b74565b90558260008115610305575b600080809381933390f1156102f057801580156102cc575b505050604051928352848301527f697c42d55a5e1fed3f464ec6f38b32546a0bd368dc8068b065c67566d73f329060403393a36001600055604051908152f35b60008093928193928293600254169083906102fc575bf1156102f05785808061028c565b6040513d6000823e3d90fd5b506108fc6102e2565b506108fc610274565b60405162461bcd60e51b8152600481018d9052601860248201527f496e73756666696369656e7420455448207265736572766500000000000000006044820152606490fd5b634e487b7160e01b600052601160045260246000fd5b61038890863d881161038f575b6103808183610a95565b810190610bc1565b508561018f565b503d610376565b60405162461bcd60e51b8152600481018690526011602482015270139bc81d1bdad95b9cc81d1bc81cd95b1b607a1b6044820152606490fd5b346100cb5760203660031901126100cb576101006001600160a01b03806103f4610a63565b16600052600160205260406000208181541691600182015491600281015460038201546004830154916006600585015494015495604051978852602088015260408701526060860152608085015260ff8116151560a085015260081c1660c083015260e0820152f35b346100cb5760203660031901126100cb576001600160a01b038061047f610a63565b166000526001602052604060002090600582015460081c1633036104f45760060180549081156104bc576000808093818094553382f1156102f057005b60405162461bcd60e51b815260206004820152601060248201526f4e6f206665657320746f20636c61696d60801b6044820152606490fd5b60405162461bcd60e51b815260206004820152600b60248201526a2737ba1031b932b0ba37b960a91b6044820152606490fd5b346100cb5760203660031901126100cb57602061054a610545610a63565b610cb8565b604051908152f35b610a79565b346100cb5760203660031901126100cb57602061054a610575610a63565b610d1a565b346100cb5760203660031901126100cb57602061054a610598610a63565b610bfc565b346100cb5760003660031901126100cb576002546040516001600160a01b039091168152602090f35b60403660031901126100cb576105da610a63565b6105e2610bd9565b60018060a01b0381166000526020906001825260406000209061060f60018060a01b038354161515610ab7565b61062060ff60058401541615610af6565b34156108945760643402348104606403610353576102249261068e61064b6127108404868134610b67565b6106a560018401546003850154978161069f6106688b8095610b74565b916106998761069460028c01549760048d01549b8c97610688898c610b74565b90610b34565b94610b74565b610b74565b90610b47565b92610b74565b956106b4602435881015610b81565b82871161084f57600693926106cd6106d7938993610b74565b6003850155610b67565b6004820155016106ec61271083048254610b74565b905560405163a9059cbb60e01b815233600482015260248101849052848160448160006001600160a01b0388165af180156102f057610832575b506127108104159081156107fb575b50506040805134815284810184905233916001600160a01b038416917fc244d500136edffae7025aaf7fbd7a07193ac544a1d0cc3132cf2a32452d340c9190a3690e9c7f5bd6550120000061078982610bfc565b101561079e575b506001600055604051908152f35b6001600160a01b03166000818152600180855260409182902060058101805460ff19169092179091556003015490519081527f3774b363547126f466f72012377433ce54030696ae07ad35617ad9317eaf776b908490a282610790565b6000808093819360018060a01b0360025416908392610828575b612710900491f1156102f0578380610735565b6108fc9250610815565b61084890853d871161038f576103808183610a95565b5084610726565b60405162461bcd60e51b815260048101899052601a60248201527f496e73756666696369656e7420746f6b656e20726573657276650000000000006044820152606490fd5b60405162461bcd60e51b815260048101849052600b60248201526a139bc8115512081cd95b9d60aa1b6044820152606490fd5b346100cb5760403660031901126100cb576001600160a01b03806108e9610a63565b16918260005260016020528160406000205416610a2a57506040519061010082019082821067ffffffffffffffff831117610a145760069160405283835260208301670de0b6b3a76400008152604084019069d3c21bcecceda1000000825260608501600081526080860190602435825260a08701936000855260c088019333855260e0890196600088528a600052600160205260406000209951166bffffffffffffffffffffffff60a01b8a541617895551600189015551600288015551600387015551600486015560058501915115159060ff835491610100600160a81b03905160081b169216906affffffffffffffffffffff60a81b16171790555191015533907f99d2b755eb38920131acb332adf086ea38d15009f223c21f3aa978d6ab234786600080a3005b634e487b7160e01b600052604160045260246000fd5b62461bcd60e51b8152602060048201526014602482015273151bdad95b88185b1c9958591e481b1a5cdd195960621b6044820152606490fd5b600435906001600160a01b03821682036100cb57565b346100cb5760003660031901126100cb57602060405160648152f35b90601f8019910116810190811067ffffffffffffffff821117610a1457604052565b15610abe57565b60405162461bcd60e51b815260206004820152601060248201526f151bdad95b881b9bdd081b1a5cdd195960821b6044820152606490fd5b15610afd57565b60405162461bcd60e51b815260206004820152600f60248201526e151bdad95b8819dc98591d585d1959608a1b6044820152606490fd5b8181029291811591840414171561035357565b8115610b51570490565b634e487b7160e01b600052601260045260246000fd5b9190820391821161035357565b9190820180921161035357565b15610b8857565b60405162461bcd60e51b815260206004820152601160248201527014db1a5c1c1859d948195e18d959591959607a1b6044820152606490fd5b908160209103126100cb575180151581036100cb5790565b600260005414610bea576002600055565b604051633ee5aeb560e01b8152600490fd5b9060018060a01b03806000931683526001602052604083209081541615610cb557610c44610c336001830154600384015490610b74565b916004600282015491015490610b74565b90633b9aca0090818102918183041481151715610ca1576b033b2e3c9fd0803ce80000000290808204670de0b6b3a76400001490151715610c8d57610c8a929350610b47565b90565b634e487b7160e01b84526011600452602484fd5b634e487b7160e01b85526011600452602485fd5b50565b6001600160a01b039081166000908152600160205260409020805490911615610d1457610cf1610c336001830154600384015490610b74565b670de0b6b3a76400009182810292818404149015171561035357610c8a91610b47565b50600090565b610d2390610bfc565b690e9c7f5bd655012000009081811015610d4e57606481029080820460641490151715610353570490565b505060649056fea2646970667358221220e07e6fde95f7da7a080e0e89982dea98abcdc8f94c568d4be8923702bf0cfc9964736f6c63430008140033",
  "linkReferences": {},
  "deployedLinkReferences": {}
}