{
  "_format": "hh-sol-artifact-1",
  "contractName": "S4Token",
  "sourceName": "contracts/TokenFactory.sol",
  "abi": [
    {
      "inputs": [
        {
          "internalType": "string",
          "name": "_name",
          "type": "string"
        },
        {
          "internalType": "string",
          "name": "_symbol",
          "type": "string"
        },
        {
          "internalType": "uint256",
          "name": "_totalSupply",
          "type": "uint256"
        },
        {
          "internalType": "string",
          "name": "_imageUrl",
          "type": "string"
        },
        {
          "internalType": "string",
          "name": "_description",
          "type": "string"
        },
        {
          "internalType": "string",
          "name": "_twitter",
          "type": "string"
        },
        {
          "internalType": "string",
          "name": "_telegram",
          "type": "string"
        },
        {
          "internalType": "string",
          "name": "_website",
          "type": "string"
        },
        {
          "internalType": "address",
          "name": "_creator",
          "type": "address"
        }
      ],
      "stateMutability": "nonpayable",
      "type": "constructor"
    },
    {
      "inputs": [
        {
          "internalType": "address",
          "name": "spender",
          "type": "address"
        },
        {
          "internalType": "uint256",
          "name": "allowance",
          "type": "uint256"
        },
        {
          "internalType": "uint256",
          "name": "needed",
          "type": "uint256"
        }
      ],
      "name": "ERC20InsufficientAllowance",
      "type": "error"
    },
    {
      "inputs": [
        {
          "internalType": "address",
          "name": "sender",
          "type": "address"
        },
        {
          "internalType": "uint256",
          "name": "balance",
          "type": "uint256"
        },
        {
          "internalType": "uint256",
          "name": "needed",
          "type": "uint256"
        }
      ],
      "name": "ERC20InsufficientBalance",
      "type": "error"
    },
    {
      "inputs": [
        {
          "internalType": "address",
          "name": "approver",
          "type": "address"
        }
      ],
      "name": "ERC20InvalidApprover",
      "type": "error"
    },
    {
      "inputs": [
        {
          "internalType": "address",
          "name": "receiver",
          "type": "address"
        }
      ],
      "name": "ERC20InvalidReceiver",
      "type": "error"
    },
    {
      "inputs": [
        {
          "internalType": "address",
          "name": "sender",
          "type": "address"
        }
      ],
      "name": "ERC20InvalidSender",
      "type": "error"
    },
    {
      "inputs": [
        {
          "internalType": "address",
          "name": "spender",
          "type": "address"
        }
      ],
      "name": "ERC20InvalidSpender",
      "type": "error"
    },
    {
      "anonymous": false,
      "inputs": [
        {
          "indexed": true,
          "internalType": "address",
          "name": "owner",
          "type": "address"
        },
        {
          "indexed": true,
          "internalType": "address",
          "name": "spender",
          "type": "address"
        },
        {
          "indexed": false,
          "internalType": "uint256",
          "name": "value",
          "type": "uint256"
        }
      ],
      "name": "Approval",
      "type": "event"
    },
    {
      "anonymous": false,
      "inputs": [
        {
          "indexed": true,
          "internalType": "address",
          "name": "from",
          "type": "address"
        },
        {
          "indexed": true,
          "internalType": "address",
          "name": "to",
          "type": "address"
        },
        {
          "indexed": false,
          "internalType": "uint256",
          "name": "value",
          "type": "uint256"
        }
      ],
      "name": "Transfer",
      "type": "event"
    },
    {
      "inputs": [
        {
          "internalType": "address",
          "name": "owner",
          "type": "address"
        },
        {
          "internalType": "address",
          "name": "spender",
          "type": "address"
        }
      ],
      "name": "allowance",
      "outputs": [
        {
          "internalType": "uint256",
          "name": "",
          "type": "uint256"
        }
      ],
      "stateMutability": "view",
      "type": "function"
    },
    {
      "inputs": [
        {
          "internalType": "address",
          "name": "spender",
          "type": "address"
        },
        {
          "internalType": "uint256",
          "name": "value",
          "type": "uint256"
        }
      ],
      "name": "approve",
      "outputs": [
        {
          "internalType": "bool",
          "name": "",
          "type": "bool"
        }
      ],
      "stateMutability": "nonpayable",
      "type": "function"
    },
    {
      "inputs": [
        {
          "internalType": "address",
          "name": "account",
          "type": "address"
        }
      ],
      "name": "balanceOf",
      "outputs": [
        {
          "internalType": "uint256",
          "name": "",
          "type": "uint256"
        }
      ],
      "stateMutability": "view",
      "type": "function"
    },
    {
      "inputs": [],
      "name": "createdAt",
      "outputs": [
        {
          "internalType": "uint256",
          "name": "",
          "type": "uint256"
        }
      ],
      "stateMutability": "view",
      "type": "function"
    },
    {
      "inputs": [],
      "name": "creator",
      "outputs": [
        {
          "internalType": "address",
          "name": "",
          "type": "address"
        }
      ],
      "stateMutability": "view",
      "type": "function"
    },
    {
      "inputs": [],
      "name": "decimals",
      "outputs": [
        {
          "internalType": "uint8",
          "name": "",
          "type": "uint8"
        }
      ],
      "stateMutability": "view",
      "type": "function"
    },
    {
      "inputs": [],
      "name": "description",
      "outputs": [
        {
          "internalType": "string",
          "name": "",
          "type": "string"
        }
      ],
      "stateMutability": "view",
      "type": "function"
    },
    {
      "inputs": [],
      "name": "imageUrl",
      "outputs": [
        {
          "internalType": "string",
          "name": "",
          "type": "string"
        }
      ],
      "stateMutability": "view",
      "type": "function"
    },
    {
      "inputs": [],
      "name": "name",
      "outputs": [
        {
          "internalType": "string",
          "name": "",
          "type": "string"
        }
      ],
      "stateMutability": "view",
      "type": "function"
    },
    {
      "inputs": [],
      "name": "symbol",
      "outputs": [
        {
          "internalType": "string",
          "name": "",
          "type": "string"
        }
      ],
      "stateMutability": "view",
      "type": "function"
    },
    {
      "inputs": [],
      "name": "telegram",
      "outputs": [
        {
          "internalType": "string",
          "name": "",
          "type": "string"
        }
      ],
      "stateMutability": "view",
      "type": "function"
    },
    {
      "inputs": [],
      "name": "totalSupply",
      "outputs": [
        {
          "internalType": "uint256",
          "name": "",
          "type": "uint256"
        }
      ],
      "stateMutability": "view",
      "type": "function"
    },
    {
      "inputs": [
        {
          "internalType": "address",
          "name": "to",
          "type": "address"
        },
        {
          "internalType": "uint256",
          "name": "value",
          "type": "uint256"
        }
      ],
      "name": "transfer",
      "outputs": [
        {
          "internalType": "bool",
          "name": "",
          "type": "bool"
        }
      ],
      "stateMutability": "nonpayable",
      "type": "function"
    },
    {
      "inputs": [
        {
          "internalType": "address",
          "name": "from",
          "type": "address"
        },
        {
          "internalType": "address",
          "name": "to",
          "type": "address"
        },
        {
          "internalType": "uint256",
          "name": "value",
          "type": "uint256"
        }
      ],
      "name": "transferFrom",
      "outputs": [
        {
          "internalType": "bool",
          "name": "",
          "type": "bool"
        }
      ],
      "stateMutability": "nonpayable",
      "type": "function"
    },
    {
      "inputs": [],
      "name": "twitter",
      "outputs": [
        {
          "internalType": "string",
          "name": "",
          "type": "string"
        }
      ],
      "stateMutability": "view",
      "type": "function"
    },
    {
      "inputs": [],
      "name": "website",
      "outputs": [
        {
          "internalType": "string",
          "name": "",
          "type": "string"
        }
      ],
      "stateMutability": "view",
      "type": "function"
    }
  ],
  "bytecode": "0x604060c081523462000c0857620018d4803803806200001e8162000c0d565b92833981016101208282031262000c085781516001600160401b03811162000c0857816200004e91840162000c33565b60208301519092906001600160401b03811162000c0857826200007391830162000c33565b908481015192606082015160018060401b03811162000c0857816200009a91840162000c33565b60808301516001600160401b03811162000c085782620000bc91850162000c33565b60a08401516001600160401b03811162000c085783620000de91860162000c33565b60c08501519092906001600160401b03811162000c0857846200010391870162000c33565b60e08601519094906001600160401b03811162000c0857610100916200012b91880162000c33565b9501516001600160a01b0381169890969089880362000c08578051906001600160401b038211620005df5760035490600182811c9216801562000bfd575b6020831014620005be5781601f84931162000b8b575b50602090601f831160011462000afc5760009262000af0575b50508160011b916000199060031b1c1916176003555b8051906001600160401b038211620005df5760045490600182811c9216801562000ae5575b6020831014620005be5781601f84931162000a73575b50602090601f8311600114620009e457600092620009d8575b50508160011b916000199060031b1c1916176004555b8051906001600160401b038211620005df5760055490600182811c92168015620009cd575b6020831014620005be5781601f84931162000977575b50602090601f8311600114620008e857600092620008dc575b50508160011b916000199060031b1c1916176005555b8051906001600160401b038211620005df5760065490600182811c92168015620008d1575b6020831014620005be5781601f8493116200086d575b50602090601f8311600114620007ef57600092620007e3575b50508160011b916000199060031b1c1916176006555b8051906001600160401b038211620005df5760075490600182811c92168015620007d8575b6020831014620005be5781601f84931162000774575b50602090601f8311600114620006f657600092620006ea575b50508160011b916000199060031b1c1916176007555b8051906001600160401b038211620005df5760085490600182811c92168015620006df575b6020831014620005be5781601f8493116200067b575b50602090601f83116001146200060157600092620005f5575b50508160011b916000199060031b1c1916176008555b8051906001600160401b038211620005df5760095490600182811c92168015620005d4575b6020831014620005be5781601f8493116200055a575b50602090601f8311600114620004e057600092620004d4575b50508160011b916000199060031b1c1916176009555b6080524260a0528115620004bc5760025490808201809211620004a65760207fddf252ad1be2c89b69c2b068fc378daa952ba7f163c4a11628f55a4df523b3ef916000936002558484528382528584208181540190558551908152a351610bae908162000ca68239608051816109f1015260a051816101370152f35b634e487b7160e01b600052601160045260246000fd5b825163ec442f0560e01b815260006004820152602490fd5b01519050388062000414565b60096000908152600080516020620018948339815191529350601f198516905b81811062000541575090846001959493921062000527575b505050811b016009556200042a565b015160001960f88460031b161c1916905538808062000518565b9293602060018192878601518155019501930162000500565b600960005290915060008051602062001894833981519152601f840160051c81019160208510620005b3575b90601f859493920160051c01905b818110620005a35750620003fb565b6000815584935060010162000594565b909150819062000586565b634e487b7160e01b600052602260045260246000fd5b91607f1691620003e5565b634e487b7160e01b600052604160045260246000fd5b015190503880620003aa565b60086000908152600080516020620018748339815191529350601f198516905b81811062000662575090846001959493921062000648575b505050811b01600855620003c0565b015160001960f88460031b161c1916905538808062000639565b9293602060018192878601518155019501930162000621565b600860005290915060008051602062001874833981519152601f840160051c81019160208510620006d4575b90601f859493920160051c01905b818110620006c4575062000391565b60008155849350600101620006b5565b9091508190620006a7565b91607f16916200037b565b01519050388062000340565b6007600090815293506000805160206200185483398151915291905b601f198416851062000758576001945083601f198116106200073e575b505050811b0160075562000356565b015160001960f88460031b161c191690553880806200072f565b8181015183556020948501946001909301929091019062000712565b600760005290915060008051602062001854833981519152601f840160051c81019160208510620007cd575b90601f859493920160051c01905b818110620007bd575062000327565b60008155849350600101620007ae565b9091508190620007a0565b91607f169162000311565b015190503880620002d6565b600660009081529350600080516020620018b483398151915291905b601f198416851062000851576001945083601f1981161062000837575b505050811b01600655620002ec565b015160001960f88460031b161c1916905538808062000828565b818101518355602094850194600190930192909101906200080b565b6006600052909150600080516020620018b4833981519152601f840160051c81019160208510620008c6575b90601f859493920160051c01905b818110620008b65750620002bd565b60008155849350600101620008a7565b909150819062000899565b91607f1691620002a7565b0151905038806200026c565b6005600090815293507f036b6384b5eca791c62761152d0c79bb0604c104a5fb6f4eb0703f3154bb3db091905b601f19841685106200095b576001945083601f1981161062000941575b505050811b0160055562000282565b015160001960f88460031b161c1916905538808062000932565b8181015183556020948501946001909301929091019062000915565b90915060056000526020600020601f840160051c810160208510620009c5575b90849392915b601f830160051c82018110620009b557505062000253565b600081558594506001016200099d565b508062000997565b91607f16916200023d565b01519050388062000202565b6004600090815293507f8a35acfbc15ff81a39ae7d344fd709f28e8600b4aa8c65c6b64bfe7fe36bd19b91905b601f198416851062000a57576001945083601f1981161062000a3d575b505050811b0160045562000218565b015160001960f88460031b161c1916905538808062000a2e565b8181015183556020948501946001909301929091019062000a11565b60046000529091507f8a35acfbc15ff81a39ae7d344fd709f28e8600b4aa8c65c6b64bfe7fe36bd19b601f840160051c81016020851062000add575b90849392915b601f830160051c8201811062000acd575050620001e9565b6000815585945060010162000ab5565b508062000aaf565b91607f1691620001d3565b01519050388062000198565b6003600090815293507fc2575a0e9e593c00f959f8c92f12db2869c3395a3b0502d05e2516446f71f85b91905b601f198416851062000b6f576001945083601f1981161062000b55575b505050811b01600355620001ae565b015160001960f88460031b161c1916905538808062000b46565b8181015183556020948501946001909301929091019062000b29565b60036000529091507fc2575a0e9e593c00f959f8c92f12db2869c3395a3b0502d05e2516446f71f85b601f840160051c81016020851062000bf5575b90849392915b601f830160051c8201811062000be55750506200017f565b6000815585945060010162000bcd565b508062000bc7565b91607f169162000169565b600080fd5b6040519190601f01601f191682016001600160401b03811183821017620005df57604052565b919080601f8401121562000c085782516001600160401b038111620005df5760209062000c69601f8201601f1916830162000c0d565b9281845282828701011162000c085760005b81811062000c9157508260009394955001015290565b858101830151848201840152820162000c7b56fe608060408181526004918236101561001657600080fd5b600092833560e01c91826302d05d3f146109dd5750816306fdde0314610903578163095ea7b31461085557816318160ddd1461083657816323b872dd1461073f578163313ce5671461072357816347ecb6651461064957816370a08231146106125781637284e4161461053857816395d89b4114610460578163a9059cbb1461042f578163aba8315014610355578163abfaeee01461027b578163beb0a4161461015a57508063cf09e0d0146101205763dd62ed3e146100d557600080fd5b3461011c578060031936011261011c57806020926100f1610a69565b6100f9610a84565b6001600160a01b0391821683526001865283832091168252845220549051908152f35b5080fd5b503461011c578160031936011261011c57602090517f00000000000000000000000000000000000000000000000000000000000000008152f35b83833461011c578160031936011261011c5780519082600954600181811c90808316928315610271575b602093848410811461025e5783885290811561024257506001146101ec575b505050829003601f01601f191682019267ffffffffffffffff8411838510176101d957508291826101d5925282610a20565b0390f35b634e487b7160e01b815260418552602490fd5b600987529192508591837f6e1540171b6c0c960b71a7020d9f60077f6af931a8bbf590da0223dacf75c7af5b83851061022e57505050508301018580806101a3565b805488860183015293019284908201610218565b60ff1916878501525050151560051b84010190508580806101a3565b634e487b7160e01b895260228a52602489fd5b91607f1691610184565b83833461011c578160031936011261011c5780519082600754600181811c9080831692831561034b575b602093848410811461025e5783885290811561024257506001146102f557505050829003601f01601f191682019267ffffffffffffffff8411838510176101d957508291826101d5925282610a20565b600787529192508591837fa66cc928b5edb82af9bd49922954155ab7b0942694bea4ce44661d9a8736c6885b83851061033757505050508301018580806101a3565b805488860183015293019284908201610321565b91607f16916102a5565b83833461011c578160031936011261011c5780519082600554600181811c90808316928315610425575b602093848410811461025e5783885290811561024257506001146103cf57505050829003601f01601f191682019267ffffffffffffffff8411838510176101d957508291826101d5925282610a20565b600587529192508591837f036b6384b5eca791c62761152d0c79bb0604c104a5fb6f4eb0703f3154bb3db05b83851061041157505050508301018580806101a3565b8054888601830152930192849082016103fb565b91607f169161037f565b50503461011c578060031936011261011c5760209061045961044f610a69565b6024359033610a9a565b5160018152f35b83833461011c578160031936011261011c57805190828454600181811c9080831692831561052e575b602093848410811461025e5783885290811561024257506001146104d957505050829003601f01601f191682019267ffffffffffffffff8411838510176101d957508291826101d5925282610a20565b8787529192508591837f8a35acfbc15ff81a39ae7d344fd709f28e8600b4aa8c65c6b64bfe7fe36bd19b5b83851061051a57505050508301018580806101a3565b805488860183015293019284908201610504565b91607f1691610489565b83833461011c578160031936011261011c5780519082600654600181811c90808316928315610608575b602093848410811461025e5783885290811561024257506001146105b257505050829003601f01601f191682019267ffffffffffffffff8411838510176101d957508291826101d5925282610a20565b600687529192508591837ff652222313e28459528d920b65115c16c04f3efc82aaedc97be59f3f377c0d3f5b8385106105f457505050508301018580806101a3565b8054888601830152930192849082016105de565b91607f1691610562565b50503461011c57602036600319011261011c5760209181906001600160a01b0361063a610a69565b16815280845220549051908152f35b83833461011c578160031936011261011c5780519082600854600181811c90808316928315610719575b602093848410811461025e5783885290811561024257506001146106c357505050829003601f01601f191682019267ffffffffffffffff8411838510176101d957508291826101d5925282610a20565b600887529192508591837ff3f7a9fe364faab93b216da50a3214154f22a0a2b415b23a84c8169e8b636ee35b83851061070557505050508301018580806101a3565b8054888601830152930192849082016106ef565b91607f1691610673565b50503461011c578160031936011261011c576020905160128152f35b905082346108335760603660031901126108335761075b610a69565b610763610a84565b916044359360018060a01b03831680835260016020528683203384526020528683205491600019831061079f575b602088610459898989610a9a565b8683106108075781156107f05733156107d95750825260016020908152868320338452815291869020908590039055829061045987610791565b8751634a1406b160e11b8152908101849052602490fd5b875163e602df0560e01b8152908101849052602490fd5b8751637dc7a0d960e11b8152339181019182526020820193909352604081018790528291506060010390fd5b80fd5b50503461011c578160031936011261011c576020906002549051908152f35b9050346108ff57816003193601126108ff5761086f610a69565b6024359033156108e8576001600160a01b03169182156108d157508083602095338152600187528181208582528752205582519081527f8c5be1e5ebec7d5bd14f71427d1e84f3dd0314c0f7b2291e5b200ac8c7c3b925843392a35160018152f35b8351634a1406b160e11b8152908101859052602490fd5b835163e602df0560e01b8152808401869052602490fd5b8280fd5b83833461011c578160031936011261011c5780519082600354600181811c908083169283156109d3575b602093848410811461025e57838852908115610242575060011461097d57505050829003601f01601f191682019267ffffffffffffffff8411838510176101d957508291826101d5925282610a20565b600387529192508591837fc2575a0e9e593c00f959f8c92f12db2869c3395a3b0502d05e2516446f71f85b5b8385106109bf57505050508301018580806101a3565b8054888601830152930192849082016109a9565b91607f169161092d565b84903461011c578160031936011261011c577f00000000000000000000000000000000000000000000000000000000000000006001600160a01b03168152602090f35b6020808252825181830181905290939260005b828110610a5557505060409293506000838284010152601f8019910116010190565b818101860151848201604001528501610a33565b600435906001600160a01b0382168203610a7f57565b600080fd5b602435906001600160a01b0382168203610a7f57565b916001600160a01b03808416928315610b5f5716928315610b465760009083825281602052604082205490838210610b14575091604082827fddf252ad1be2c89b69c2b068fc378daa952ba7f163c4a11628f55a4df523b3ef958760209652828652038282205586815220818154019055604051908152a3565b60405163391434e360e21b81526001600160a01b03919091166004820152602481019190915260448101839052606490fd5b60405163ec442f0560e01b815260006004820152602490fd5b604051634b637e8f60e11b815260006004820152602490fdfea26469706673582212208d91f5625532f67338b9bd4e1c842404efc4eaec4ea6da68851587d630ed3b2864736f6c63430008140033a66cc928b5edb82af9bd49922954155ab7b0942694bea4ce44661d9a8736c688f3f7a9fe364faab93b216da50a3214154f22a0a2b415b23a84c8169e8b636ee36e1540171b6c0c960b71a7020d9f60077f6af931a8bbf590da0223dacf75c7aff652222313e28459528d920b65115c16c04f3efc82aaedc97be59f3f377c0d3f",
  "linkReferences": {},
  "deployedLinkReferences": {}
}