{
  "_format": "hh-sol-artifact-1",
  "contractName": "TokenFactory",
  "sourceName": "contracts/TokenFactory.sol",
  "abi": [
    {
      "inputs": [],
      "stateMutability": "nonpayable",
      "type": "constructor"
    },
    {
      "inputs": [
        {
          "internalType": "address",
          "name": "owner",
          "type": "address"
        }
      ],
      "name": "OwnableInvalidOwner",
      "type": "error"
    },
    {
      "inputs": [
        {
          "internalType": "address",
          "name": "account",
          "type": "address"
        }
      ],
      "name": "OwnableUnauthorizedAccount",
      "type": "error"
    },
    {
      "inputs": [],
      "name": "ReentrancyGuardReentrantCall",
      "type": "error"
    },
    {
      "anonymous": false,
      "inputs": [
        {
          "indexed": true,
          "internalType": "address",
          "name": "previousOwner",
          "type": "address"
        },
        {
          "indexed": true,
          "internalType": "address",
          "name": "newOwner",
          "type": "address"
        }
      ],
      "name": "OwnershipTransferred",
      "type": "event"
    },
    {
      "anonymous": false,
      "inputs": [
        {
          "indexed": true,
          "internalType": "address",
          "name": "token",
          "type": "address"
        },
        {
          "indexed": true,
          "internalType": "address",
          "name": "creator",
          "type": "address"
        },
        {
          "indexed": false,
          "internalType": "string",
          "name": "name",
          "type": "string"
        },
        {
          "indexed": false,
          "internalType": "string",
          "name": "symbol",
          "type": "string"
        }
      ],
      "name": "TokenCreated",
      "type": "event"
    },
    {
      "inputs": [],
      "name": "BONDING_CURVE_SUPPLY",
      "outputs": [
        {
          "internalType": "uint256",
          "name": "",
          "type": "uint256"
        }
      ],
      "stateMutability": "view",
      "type": "function"
    },
    {
      "inputs": [],
      "name": "CREATION_FEE",
      "outputs": [
        {
          "internalType": "uint256",
          "name": "",
          "type": "uint256"
        }
      ],
      "stateMutability": "view",
      "type": "function"
    },
    {
      "inputs": [],
      "name": "INITIAL_SUPPLY",
      "outputs": [
        {
          "internalType": "uint256",
          "name": "",
          "type": "uint256"
        }
      ],
      "stateMutability": "view",
      "type": "function"
    },
    {
      "inputs": [
        {
          "internalType": "uint256",
          "name": "",
          "type": "uint256"
        }
      ],
      "name": "allTokens",
      "outputs": [
        {
          "internalType": "address",
          "name": "",
          "type": "address"
        }
      ],
      "stateMutability": "view",
      "type": "function"
    },
    {
      "inputs": [],
      "name": "bondingCurve",
      "outputs": [
        {
          "internalType": "contract BondingCurve",
          "name": "",
          "type": "address"
        }
      ],
      "stateMutability": "view",
      "type": "function"
    },
    {
      "inputs": [
        {
          "internalType": "string",
          "name": "_name",
          "type": "string"
        },
        {
          "internalType": "string",
          "name": "_symbol",
          "type": "string"
        },
        {
          "internalType": "string",
          "name": "_description",
          "type": "string"
        },
        {
          "internalType": "string",
          "name": "_imageUrl",
          "type": "string"
        },
        {
          "internalType": "string",
          "name": "_twitter",
          "type": "string"
        },
        {
          "internalType": "string",
          "name": "_telegram",
          "type": "string"
        },
        {
          "internalType": "string",
          "name": "_website",
          "type": "string"
        },
        {
          "internalType": "string",
          "name": "",
          "type": "string"
        }
      ],
      "name": "createToken",
      "outputs": [
        {
          "internalType": "address",
          "name": "",
          "type": "address"
        }
      ],
      "stateMutability": "payable",
      "type": "function"
    },
    {
      "inputs": [],
      "name": "getAllTokens",
      "outputs": [
        {
          "internalType": "address[]",
          "name": "",
          "type": "address[]"
        }
      ],
      "stateMutability": "view",
      "type": "function"
    },
    {
      "inputs": [],
      "name": "getCreationFee",
      "outputs": [
        {
          "internalType": "uint256",
          "name": "",
          "type": "uint256"
        }
      ],
      "stateMutability": "pure",
      "type": "function"
    },
    {
      "inputs": [
        {
          "internalType": "address",
          "name": "",
          "type": "address"
        }
      ],
      "name": "isToken",
      "outputs": [
        {
          "internalType": "bool",
          "name": "",
          "type": "bool"
        }
      ],
      "stateMutability": "view",
      "type": "function"
    },
    {
      "inputs": [],
      "name": "owner",
      "outputs": [
        {
          "internalType": "address",
          "name": "",
          "type": "address"
        }
      ],
      "stateMutability": "view",
      "type": "function"
    },
    {
      "inputs": [],
      "name": "renounceOwnership",
      "outputs": [],
      "stateMutability": "nonpayable",
      "type": "function"
    },
    {
      "inputs": [
        {
          "internalType": "address",
          "name": "_newReceiver",
          "type": "address"
        }
      ],
      "name": "setBondingCurveFeeReceiver",
      "outputs": [],
      "stateMutability": "nonpayable",
      "type": "function"
    },
    {
      "inputs": [],
      "name": "tokenCount",
      "outputs": [
        {
          "internalType": "uint256",
          "name": "",
          "type": "uint256"
        }
      ],
      "stateMutability": "view",
      "type": "function"
    },
    {
      "inputs": [
        {
          "internalType": "address",
          "name": "newOwner",
          "type": "address"
        }
      ],
      "name": "transferOwnership",
      "outputs": [],
      "stateMutability": "nonpayable",
      "type": "function"
    },
    {
      "inputs": [],
      "name": "withdrawFees",
      "outputs": [],
      "stateMutability": "nonpayable",
      "type": "function"
    }
  ],
  "bytecode": "0x60a080604052346100e45733156100ce5760008054336001600160a01b0319821681178355604051916001600160a01b03167f8be0079c531659141344cd1fd0a4f28419497f9722a3daafe3b4186f6b6457e08480a360018055610e20818101906001600160401b038211838310176100ba5760209183916124f6833930815203019082f09081156100ae575060805260405161240c90816100ea823960805181818161018c01526103d00152f35b604051903d90823e3d90fd5b634e487b7160e01b84526041600452602484fd5b631e4fbdf760e01b815260006004820152602490fd5b600080fdfe60808060405260043610156200001457600080fd5b600090813560e01c90816319f373611462000965575080632a5c792a14620008975780632ff2e9dc146200086e578063476343ee146200081857806349a2104d14620006a7578063634282af14620007cf578063715018a614620007715780638da5cb5b14620007485780639bf63579146200071f5780639f181b5e14620006ff578063c9c4c98a14620006cb578063db07b68e14620006a7578063eac440fc14620001bb578063eff1d50e14620001745763f2fde38b14620000d657600080fd5b346200017157602036600319011262000171576004356001600160a01b03818116918290036200016d576200010a62000a93565b81156200015457600054826bffffffffffffffffffffffff60a01b821617600055167f8be0079c531659141344cd1fd0a4f28419497f9722a3daafe3b4186f6b6457e0600080a380f35b604051631e4fbdf760e01b815260048101849052602490fd5b8280fd5b80fd5b503462000171578060031936011262000171576040517f00000000000000000000000000000000000000000000000000000000000000006001600160a01b03168152602090f35b50610100366003190112620001715767ffffffffffffffff6004358181116200016d57620001ee90369060040162000a32565b602435828111620005cb576200020990369060040162000a32565b9060443583811162000605576200022590369060040162000a32565b606435848111620006a3576200024090369060040162000a32565b6084358581116200069f576200025b90369060040162000a32565b60a4358681116200069b576200027690369060040162000a32565b60c43587811162000697576200029190369060040162000a32565b9160e4358881116200069357620002ad90369060040162000a32565b506002600154146200068157600260015566470de4df82000034106200063c57604051946118d49486868101108a878901111762000628579262000386869593620003736200039994620003608b620003ac998f8f8d849f6b033b2e3c9fd0803ce80000009362000336604094620003499362000b038a39610120898601818152019062000ac0565b9083880182036020858a01015262000ac0565b940101528c60608d80830185039201015262000ac0565b90898b01820360808b8d01015262000ac0565b90878901820360a0898b01015262000ac0565b90858701820360c0878901015262000ac0565b90838501820360e0858701015262000ac0565b90610100339184010152039085f080156200061d578460018060a01b0380921694827f0000000000000000000000000000000000000000000000000000000000000000166040519063a9059cbb60e01b82528060048301526b0295be96e64066972000000091826024820152602081604481888d5af180156200061257620005cf575b50803b15620005cb57604484926040519586938492630717d7c360e01b84528c600485015260248401525af18015620005c05762000596575b505060025468010000000000000000811015620005825784927fd5d05a8421149c74fd223cfc823befb883babf9bf0b0e4d6bf9c8fdb70e59bb492620004b9836001620004fc9501600255620009ab565b819291549060031b9187831b921b1916179055838752600360205260408720600160ff198254161790556200050c60405192839260408452604084019062000ac0565b8281036020840152339662000ac0565b0390a366470de4df82000034116200052e575b60209060018055604051908152f35b66470de4df81ffff1934013481116200056e57828080809381811562000564575b3390f16200051f5750604051903d90823e3d90fd5b506108fc6200054f565b634e487b7160e01b83526011600452602483fd5b634e487b7160e01b86526041600452602486fd5b8196929611620005ac5760405293388062000468565b634e487b7160e01b82526041600452602482fd5b6040513d89823e3d90fd5b8380fd5b6020813d60201162000609575b81620005eb60209383620009f9565b8101031262000605575180151503620005cb57386200042f565b8480fd5b3d9150620005dc565b6040513d87823e3d90fd5b6040513d86823e3d90fd5b634e487b7160e01b8b52604160045260248bfd5b60405162461bcd60e51b815260206004820152601960248201527f496e73756666696369656e74206372656174696f6e20666565000000000000006044820152606490fd5b604051633ee5aeb560e01b8152600490fd5b8980fd5b8880fd5b8780fd5b8680fd5b8580fd5b50346200017157806003193601126200017157602060405166470de4df8200008152f35b50346200017157602036600319011262000171576004356001600160a01b038116036200017157620006fc62000a93565b80f35b503462000171578060031936011262000171576020600254604051908152f35b5034620001715780600319360112620001715760206040516b0295be96e6406697200000008152f35b50346200017157806003193601126200017157546040516001600160a01b039091168152602090f35b503462000171578060031936011262000171576200078e62000a93565b80546001600160a01b03198116825581906001600160a01b03167f8be0079c531659141344cd1fd0a4f28419497f9722a3daafe3b4186f6b6457e08280a380f35b50346200017157602036600319011262000171576004359060025482101562000171576020620007ff83620009ab565b905460405160039290921b1c6001600160a01b03168152f35b503462000171578060031936011262000171576200083562000a93565b8080808060018060a01b03815416479082821562000864575bf115620008585780f35b604051903d90823e3d90fd5b506108fc6200084e565b5034620001715780600319360112620001715760206040516b033b2e3c9fd0803ce80000008152f35b5034620001715780600319360112620001715760405180916002549081835260208093018092600283527f405787fa12a823e0f2b7631cc41b3ba8828b3321ca811111fa75cd3aa3bb5ace90835b818110620009475750505084620008fe910385620009f9565b60405193838594850191818652518092526040850193925b8281106200092657505050500390f35b83516001600160a01b03168552869550938101939281019260010162000916565b82546001600160a01b031684529286019260019283019201620008e5565b905034620009a7576020366003190112620009a7576004356001600160a01b038116908190036200016d5760408360ff92602095526003855220541615158152f35b5080fd5b600254811015620009e35760026000527f405787fa12a823e0f2b7631cc41b3ba8828b3321ca811111fa75cd3aa3bb5ace0190600090565b634e487b7160e01b600052603260045260246000fd5b90601f8019910116810190811067ffffffffffffffff82111762000a1c57604052565b634e487b7160e01b600052604160045260246000fd5b81601f8201121562000a8e5780359067ffffffffffffffff821162000a1c576040519262000a6b601f8401601f191660200185620009f9565b8284526020838301011162000a8e57816000926020809301838601378301015290565b600080fd5b6000546001600160a01b0316330362000aa857565b60405163118cdaa760e01b8152336004820152602490fd5b919082519283825260005b84811062000aed575050826000602080949584010152601f8019910116010190565b60208183018101518483018201520162000acb56fe604060c081523462000c0857620018d4803803806200001e8162000c0d565b92833981016101208282031262000c085781516001600160401b03811162000c0857816200004e91840162000c33565b60208301519092906001600160401b03811162000c0857826200007391830162000c33565b908481015192606082015160018060401b03811162000c0857816200009a91840162000c33565b60808301516001600160401b03811162000c085782620000bc91850162000c33565b60a08401516001600160401b03811162000c085783620000de91860162000c33565b60c08501519092906001600160401b03811162000c0857846200010391870162000c33565b60e08601519094906001600160401b03811162000c0857610100916200012b91880162000c33565b9501516001600160a01b0381169890969089880362000c08578051906001600160401b038211620005df5760035490600182811c9216801562000bfd575b6020831014620005be5781601f84931162000b8b575b50602090601f831160011462000afc5760009262000af0575b50508160011b916000199060031b1c1916176003555b8051906001600160401b038211620005df5760045490600182811c9216801562000ae5575b6020831014620005be5781601f84931162000a73575b50602090601f8311600114620009e457600092620009d8575b50508160011b916000199060031b1c1916176004555b8051906001600160401b038211620005df5760055490600182811c92168015620009cd575b6020831014620005be5781601f84931162000977575b50602090601f8311600114620008e857600092620008dc575b50508160011b916000199060031b1c1916176005555b8051906001600160401b038211620005df5760065490600182811c92168015620008d1575b6020831014620005be5781601f8493116200086d575b50602090601f8311600114620007ef57600092620007e3575b50508160011b916000199060031b1c1916176006555b8051906001600160401b038211620005df5760075490600182811c92168015620007d8575b6020831014620005be5781601f84931162000774575b50602090601f8311600114620006f657600092620006ea575b50508160011b916000199060031b1c1916176007555b8051906001600160401b038211620005df5760085490600182811c92168015620006df575b6020831014620005be5781601f8493116200067b575b50602090601f83116001146200060157600092620005f5575b50508160011b916000199060031b1c1916176008555b8051906001600160401b038211620005df5760095490600182811c92168015620005d4575b6020831014620005be5781601f8493116200055a575b50602090601f8311600114620004e057600092620004d4575b50508160011b916000199060031b1c1916176009555b6080524260a0528115620004bc5760025490808201809211620004a65760207fddf252ad1be2c89b69c2b068fc378daa952ba7f163c4a11628f55a4df523b3ef916000936002558484528382528584208181540190558551908152a351610bae908162000ca68239608051816109f1015260a051816101370152f35b634e487b7160e01b600052601160045260246000fd5b825163ec442f0560e01b815260006004820152602490fd5b01519050388062000414565b60096000908152600080516020620018948339815191529350601f198516905b81811062000541575090846001959493921062000527575b505050811b016009556200042a565b015160001960f88460031b161c1916905538808062000518565b9293602060018192878601518155019501930162000500565b600960005290915060008051602062001894833981519152601f840160051c81019160208510620005b3575b90601f859493920160051c01905b818110620005a35750620003fb565b6000815584935060010162000594565b909150819062000586565b634e487b7160e01b600052602260045260246000fd5b91607f1691620003e5565b634e487b7160e01b600052604160045260246000fd5b015190503880620003aa565b60086000908152600080516020620018748339815191529350601f198516905b81811062000662575090846001959493921062000648575b505050811b01600855620003c0565b015160001960f88460031b161c1916905538808062000639565b9293602060018192878601518155019501930162000621565b600860005290915060008051602062001874833981519152601f840160051c81019160208510620006d4575b90601f859493920160051c01905b818110620006c4575062000391565b60008155849350600101620006b5565b9091508190620006a7565b91607f16916200037b565b01519050388062000340565b6007600090815293506000805160206200185483398151915291905b601f198416851062000758576001945083601f198116106200073e575b505050811b0160075562000356565b015160001960f88460031b161c191690553880806200072f565b8181015183556020948501946001909301929091019062000712565b600760005290915060008051602062001854833981519152601f840160051c81019160208510620007cd575b90601f859493920160051c01905b818110620007bd575062000327565b60008155849350600101620007ae565b9091508190620007a0565b91607f169162000311565b015190503880620002d6565b600660009081529350600080516020620018b483398151915291905b601f198416851062000851576001945083601f1981161062000837575b505050811b01600655620002ec565b015160001960f88460031b161c1916905538808062000828565b818101518355602094850194600190930192909101906200080b565b6006600052909150600080516020620018b4833981519152601f840160051c81019160208510620008c6575b90601f859493920160051c01905b818110620008b65750620002bd565b60008155849350600101620008a7565b909150819062000899565b91607f1691620002a7565b0151905038806200026c565b6005600090815293507f036b6384b5eca791c62761152d0c79bb0604c104a5fb6f4eb0703f3154bb3db091905b601f19841685106200095b576001945083601f1981161062000941575b505050811b0160055562000282565b015160001960f88460031b161c1916905538808062000932565b8181015183556020948501946001909301929091019062000915565b90915060056000526020600020601f840160051c810160208510620009c5575b90849392915b601f830160051c82018110620009b557505062000253565b600081558594506001016200099d565b508062000997565b91607f16916200023d565b01519050388062000202565b6004600090815293507f8a35acfbc15ff81a39ae7d344fd709f28e8600b4aa8c65c6b64bfe7fe36bd19b91905b601f198416851062000a57576001945083601f1981161062000a3d575b505050811b0160045562000218565b015160001960f88460031b161c1916905538808062000a2e565b8181015183556020948501946001909301929091019062000a11565b60046000529091507f8a35acfbc15ff81a39ae7d344fd709f28e8600b4aa8c65c6b64bfe7fe36bd19b601f840160051c81016020851062000add575b90849392915b601f830160051c8201811062000acd575050620001e9565b6000815585945060010162000ab5565b508062000aaf565b91607f1691620001d3565b01519050388062000198565b6003600090815293507fc2575a0e9e593c00f959f8c92f12db2869c3395a3b0502d05e2516446f71f85b91905b601f198416851062000b6f576001945083601f1981161062000b55575b505050811b01600355620001ae565b015160001960f88460031b161c1916905538808062000b46565b8181015183556020948501946001909301929091019062000b29565b60036000529091507fc2575a0e9e593c00f959f8c92f12db2869c3395a3b0502d05e2516446f71f85b601f840160051c81016020851062000bf5575b90849392915b601f830160051c8201811062000be55750506200017f565b6000815585945060010162000bcd565b508062000bc7565b91607f169162000169565b600080fd5b6040519190601f01601f191682016001600160401b03811183821017620005df57604052565b919080601f8401121562000c085782516001600160401b038111620005df5760209062000c69601f8201601f1916830162000c0d565b9281845282828701011162000c085760005b81811062000c9157508260009394955001015290565b858101830151848201840152820162000c7b56fe608060408181526004918236101561001657600080fd5b600092833560e01c91826302d05d3f146109dd5750816306fdde0314610903578163095ea7b31461085557816318160ddd1461083657816323b872dd1461073f578163313ce5671461072357816347ecb6651461064957816370a08231146106125781637284e4161461053857816395d89b4114610460578163a9059cbb1461042f578163aba8315014610355578163abfaeee01461027b578163beb0a4161461015a57508063cf09e0d0146101205763dd62ed3e146100d557600080fd5b3461011c578060031936011261011c57806020926100f1610a69565b6100f9610a84565b6001600160a01b0391821683526001865283832091168252845220549051908152f35b5080fd5b503461011c578160031936011261011c57602090517f00000000000000000000000000000000000000000000000000000000000000008152f35b83833461011c578160031936011261011c5780519082600954600181811c90808316928315610271575b602093848410811461025e5783885290811561024257506001146101ec575b505050829003601f01601f191682019267ffffffffffffffff8411838510176101d957508291826101d5925282610a20565b0390f35b634e487b7160e01b815260418552602490fd5b600987529192508591837f6e1540171b6c0c960b71a7020d9f60077f6af931a8bbf590da0223dacf75c7af5b83851061022e57505050508301018580806101a3565b805488860183015293019284908201610218565b60ff1916878501525050151560051b84010190508580806101a3565b634e487b7160e01b895260228a52602489fd5b91607f1691610184565b83833461011c578160031936011261011c5780519082600754600181811c9080831692831561034b575b602093848410811461025e5783885290811561024257506001146102f557505050829003601f01601f191682019267ffffffffffffffff8411838510176101d957508291826101d5925282610a20565b600787529192508591837fa66cc928b5edb82af9bd49922954155ab7b0942694bea4ce44661d9a8736c6885b83851061033757505050508301018580806101a3565b805488860183015293019284908201610321565b91607f16916102a5565b83833461011c578160031936011261011c5780519082600554600181811c90808316928315610425575b602093848410811461025e5783885290811561024257506001146103cf57505050829003601f01601f191682019267ffffffffffffffff8411838510176101d957508291826101d5925282610a20565b600587529192508591837f036b6384b5eca791c62761152d0c79bb0604c104a5fb6f4eb0703f3154bb3db05b83851061041157505050508301018580806101a3565b8054888601830152930192849082016103fb565b91607f169161037f565b50503461011c578060031936011261011c5760209061045961044f610a69565b6024359033610a9a565b5160018152f35b83833461011c578160031936011261011c57805190828454600181811c9080831692831561052e575b602093848410811461025e5783885290811561024257506001146104d957505050829003601f01601f191682019267ffffffffffffffff8411838510176101d957508291826101d5925282610a20565b8787529192508591837f8a35acfbc15ff81a39ae7d344fd709f28e8600b4aa8c65c6b64bfe7fe36bd19b5b83851061051a57505050508301018580806101a3565b805488860183015293019284908201610504565b91607f1691610489565b83833461011c578160031936011261011c5780519082600654600181811c90808316928315610608575b602093848410811461025e5783885290811561024257506001146105b257505050829003601f01601f191682019267ffffffffffffffff8411838510176101d957508291826101d5925282610a20565b600687529192508591837ff652222313e28459528d920b65115c16c04f3efc82aaedc97be59f3f377c0d3f5b8385106105f457505050508301018580806101a3565b8054888601830152930192849082016105de565b91607f1691610562565b50503461011c57602036600319011261011c5760209181906001600160a01b0361063a610a69565b16815280845220549051908152f35b83833461011c578160031936011261011c5780519082600854600181811c90808316928315610719575b602093848410811461025e5783885290811561024257506001146106c357505050829003601f01601f191682019267ffffffffffffffff8411838510176101d957508291826101d5925282610a20565b600887529192508591837ff3f7a9fe364faab93b216da50a3214154f22a0a2b415b23a84c8169e8b636ee35b83851061070557505050508301018580806101a3565b8054888601830152930192849082016106ef565b91607f1691610673565b50503461011c578160031936011261011c576020905160128152f35b905082346108335760603660031901126108335761075b610a69565b610763610a84565b916044359360018060a01b03831680835260016020528683203384526020528683205491600019831061079f575b602088610459898989610a9a565b8683106108075781156107f05733156107d95750825260016020908152868320338452815291869020908590039055829061045987610791565b8751634a1406b160e11b8152908101849052602490fd5b875163e602df0560e01b8152908101849052602490fd5b8751637dc7a0d960e11b8152339181019182526020820193909352604081018790528291506060010390fd5b80fd5b50503461011c578160031936011261011c576020906002549051908152f35b9050346108ff57816003193601126108ff5761086f610a69565b6024359033156108e8576001600160a01b03169182156108d157508083602095338152600187528181208582528752205582519081527f8c5be1e5ebec7d5bd14f71427d1e84f3dd0314c0f7b2291e5b200ac8c7c3b925843392a35160018152f35b8351634a1406b160e11b8152908101859052602490fd5b835163e602df0560e01b8152808401869052602490fd5b8280fd5b83833461011c578160031936011261011c5780519082600354600181811c908083169283156109d3575b602093848410811461025e57838852908115610242575060011461097d57505050829003601f01601f191682019267ffffffffffffffff8411838510176101d957508291826101d5925282610a20565b600387529192508591837fc2575a0e9e593c00f959f8c92f12db2869c3395a3b0502d05e2516446f71f85b5b8385106109bf57505050508301018580806101a3565b8054888601830152930192849082016109a9565b91607f169161092d565b84903461011c578160031936011261011c577f00000000000000000000000000000000000000000000000000000000000000006001600160a01b03168152602090f35b6020808252825181830181905290939260005b828110610a5557505060409293506000838284010152601f8019910116010190565b818101860151848201604001528501610a33565b600435906001600160a01b0382168203610a7f57565b600080fd5b602435906001600160a01b0382168203610a7f57565b916001600160a01b03808416928315610b5f5716928315610b465760009083825281602052604082205490838210610b14575091604082827fddf252ad1be2c89b69c2b068fc378daa952ba7f163c4a11628f55a4df523b3ef958760209652828652038282205586815220818154019055604051908152a3565b60405163391434e360e21b81526001600160a01b03919091166004820152602481019190915260448101839052606490fd5b60405163ec442f0560e01b815260006004820152602490fd5b604051634b637e8f60e11b815260006004820152602490fdfea26469706673582212208d91f5625532f67338b9bd4e1c842404efc4eaec4ea6da68851587d630ed3b2864736f6c63430008140033a66cc928b5edb82af9bd49922954155ab7b0942694bea4ce44661d9a8736c688f3f7a9fe364faab93b216da50a3214154f22a0a2b415b23a84c8169e8b636ee36e1540171b6c0c960b71a7020d9f60077f6af931a8bbf590da0223dacf75c7aff652222313e28459528d920b65115c16c04f3efc82aaedc97be59f3f377c0d3fa264697066735822122075c8cab3d2f070982a9ac855de213a6aafe062714fd29aedd1b5889046dce42964736f6c6343000814003360803461007957601f610e2038819003918201601f19168301916001600160401b0383118484101761007e5780849260209460405283398101031261007957516001600160a01b03811690819003610079576001600055600280546001600160a01b031916919091179055604051610d8b90816100958239f35b600080fd5b634e487b7160e01b600052604160045260246000fdfe608080604052600436101561001357600080fd5b60003560e01c9081630717d7c3146108c7575080630752881a146105c65780632d656ad71461059d57806341344d5d1461057a578063539aa77f14610552578063b45d92df14610557578063cc3cbd2a14610552578063d02641a014610527578063d6ae6e441461045d578063e4860339146103cf578063e4e57b9e146100f5578063fcfc0c09146100d05763fd967f47146100ae57600080fd5b346100cb5760003660031901126100cb5760206040516127108152f35b600080fd5b346100cb5760003660031901126100cb576020604051690e9c7f5bd655012000008152f35b346100cb5760603660031901126100cb5761010e610a63565b6024359061011a610bd9565b60018060a01b038091169182600052602092600184526040600020610143848254161515610ab7565b61015460ff60058301541615610af6565b8215610396576040516323b872dd60e01b81523360048201523060248201526044810184905285816064816000875af180156102f057610369575b50600181015493600382018054926101a78488610b74565b8460028301549860048401928984549b8c926101c38483610b74565b6101cc91610b34565b926101d691610b74565b906101e091610b74565b6101e991610b47565b916101f391610b74565b906101fd91610b67565b97606489028981046064148a1517156103535761271090049361022985610224818d610b67565b610b67565b96610238604435891015610b81565b808b1161030e57600694939261025a926102538d8d94610b67565b9055610b74565b905501610268828254610b74565b90558260008115610305575b600080809381933390f1156102f057801580156102cc575b505050604051928352848301527f697c42d55a5e1fed3f464ec6f38b32546a0bd368dc8068b065c67566d73f329060403393a36001600055604051908152f35b60008093928193928293600254169083906102fc575bf1156102f05785808061028c565b6040513d6000823e3d90fd5b506108fc6102e2565b506108fc610274565b60405162461bcd60e51b8152600481018d9052601860248201527f496e73756666696369656e7420455448207265736572766500000000000000006044820152606490fd5b634e487b7160e01b600052601160045260246000fd5b61038890863d881161038f575b6103808183610a95565b810190610bc1565b508561018f565b503d610376565b60405162461bcd60e51b8152600481018690526011602482015270139bc81d1bdad95b9cc81d1bc81cd95b1b607a1b6044820152606490fd5b346100cb5760203660031901126100cb576101006001600160a01b03806103f4610a63565b16600052600160205260406000208181541691600182015491600281015460038201546004830154916006600585015494015495604051978852602088015260408701526060860152608085015260ff8116151560a085015260081c1660c083015260e0820152f35b346100cb5760203660031901126100cb576001600160a01b038061047f610a63565b166000526001602052604060002090600582015460081c1633036104f45760060180549081156104bc576000808093818094553382f1156102f057005b60405162461bcd60e51b815260206004820152601060248201526f4e6f206665657320746f20636c61696d60801b6044820152606490fd5b60405162461bcd60e51b815260206004820152600b60248201526a2737ba1031b932b0ba37b960a91b6044820152606490fd5b346100cb5760203660031901126100cb57602061054a610545610a63565b610cb8565b604051908152f35b610a79565b346100cb5760203660031901126100cb57602061054a610575610a63565b610d1a565b346100cb5760203660031901126100cb57602061054a610598610a63565b610bfc565b346100cb5760003660031901126100cb576002546040516001600160a01b039091168152602090f35b60403660031901126100cb576105da610a63565b6105e2610bd9565b60018060a01b0381166000526020906001825260406000209061060f60018060a01b038354161515610ab7565b61062060ff60058401541615610af6565b34156108945760643402348104606403610353576102249261068e61064b6127108404868134610b67565b6106a560018401546003850154978161069f6106688b8095610b74565b916106998761069460028c01549760048d01549b8c97610688898c610b74565b90610b34565b94610b74565b610b74565b90610b47565b92610b74565b956106b4602435881015610b81565b82871161084f57600693926106cd6106d7938993610b74565b6003850155610b67565b6004820155016106ec61271083048254610b74565b905560405163a9059cbb60e01b815233600482015260248101849052848160448160006001600160a01b0388165af180156102f057610832575b506127108104159081156107fb575b50506040805134815284810184905233916001600160a01b038416917fc244d500136edffae7025aaf7fbd7a07193ac544a1d0cc3132cf2a32452d340c9190a3690e9c7f5bd6550120000061078982610bfc565b101561079e575b506001600055604051908152f35b6001600160a01b03166000818152600180855260409182902060058101805460ff19169092179091556003015490519081527f3774b363547126f466f72012377433ce54030696ae07ad35617ad9317eaf776b908490a282610790565b6000808093819360018060a01b0360025416908392610828575b612710900491f1156102f0578380610735565b6108fc9250610815565b61084890853d871161038f576103808183610a95565b5084610726565b60405162461bcd60e51b815260048101899052601a60248201527f496e73756666696369656e7420746f6b656e20726573657276650000000000006044820152606490fd5b60405162461bcd60e51b815260048101849052600b60248201526a139bc8115512081cd95b9d60aa1b6044820152606490fd5b346100cb5760403660031901126100cb576001600160a01b03806108e9610a63565b16918260005260016020528160406000205416610a2a57506040519061010082019082821067ffffffffffffffff831117610a145760069160405283835260208301670de0b6b3a76400008152604084019069d3c21bcecceda1000000825260608501600081526080860190602435825260a08701936000855260c088019333855260e0890196600088528a600052600160205260406000209951166bffffffffffffffffffffffff60a01b8a541617895551600189015551600288015551600387015551600486015560058501915115159060ff835491610100600160a81b03905160081b169216906affffffffffffffffffffff60a81b16171790555191015533907f99d2b755eb38920131acb332adf086ea38d15009f223c21f3aa978d6ab234786600080a3005b634e487b7160e01b600052604160045260246000fd5b62461bcd60e51b8152602060048201526014602482015273151bdad95b88185b1c9958591e481b1a5cdd195960621b6044820152606490fd5b600435906001600160a01b03821682036100cb57565b346100cb5760003660031901126100cb57602060405160648152f35b90601f8019910116810190811067ffffffffffffffff821117610a1457604052565b15610abe57565b60405162461bcd60e51b815260206004820152601060248201526f151bdad95b881b9bdd081b1a5cdd195960821b6044820152606490fd5b15610afd57565b60405162461bcd60e51b815260206004820152600f60248201526e151bdad95b8819dc98591d585d1959608a1b6044820152606490fd5b8181029291811591840414171561035357565b8115610b51570490565b634e487b7160e01b600052601260045260246000fd5b9190820391821161035357565b9190820180921161035357565b15610b8857565b60405162461bcd60e51b815260206004820152601160248201527014db1a5c1c1859d948195e18d959591959607a1b6044820152606490fd5b908160209103126100cb575180151581036100cb5790565b600260005414610bea576002600055565b604051633ee5aeb560e01b8152600490fd5b9060018060a01b03806000931683526001602052604083209081541615610cb557610c44610c336001830154600384015490610b74565b916004600282015491015490610b74565b90633b9aca0090818102918183041481151715610ca1576b033b2e3c9fd0803ce80000000290808204670de0b6b3a76400001490151715610c8d57610c8a929350610b47565b90565b634e487b7160e01b84526011600452602484fd5b634e487b7160e01b85526011600452602485fd5b50565b6001600160a01b039081166000908152600160205260409020805490911615610d1457610cf1610c336001830154600384015490610b74565b670de0b6b3a76400009182810292818404149015171561035357610c8a91610b47565b50600090565b610d2390610bfc565b690e9c7f5bd655012000009081811015610d4e57606481029080820460641490151715610353570490565b505060649056fea2646970667358221220e07e6fde95f7da7a080e0e89982dea98abcdc8f94c568d4be8923702bf0cfc9964736f6c63430008140033",
  "linkReferences": {},
  "deployedLinkReferences": {}
}