{"abi":[{"type":"constructor","inputs":[{"name":"_admin","type":"address","internalType":"address"},{"name":"_project","type":"address","internalType":"address"},{"name":"_kol","type":"address","internalType":"address"},{"name":"_token","type":"address","internalType":"address"},{"name":"_totalAmount","type":"uint256","internalType":"uint256"},{"name":"_titles","type":"string[]","internalType":"string[]"},{"name":"_descriptions","type":"string[]","internalType":"string[]"},{"name":"_amounts","type":"uint256[]","internalType":"uint256[]"}],"stateMutability":"nonpayable"},{"type":"function","name":"admin","inputs":[],"outputs":[{"name":"","type":"address","internalType":"address"}],"stateMutability":"view"},{"type":"function","name":"deliver","inputs":[{"name":"milestoneId","type":"uint256","internalType":"uint256"},{"name":"proof","type":"string","internalType":"string"}],"outputs":[],"stateMutability":"nonpayable"},{"type":"function","name":"getBalance","inputs":[],"outputs":[{"name":"","type":"uint256","internalType":"uint256"}],"stateMutability":"view"},{"type":"function","name":"getMilestone","inputs":[{"name":"milestoneId","type":"uint256","internalType":"uint256"}],"outputs":[{"name":"title","type":"string","internalType":"string"},{"name":"description","type":"string","internalType":"string"},{"name":"amount","type":"uint256","internalType":"uint256"},{"name":"delivered","type":"bool","internalType":"bool"},{"name":"reviewed","type":"bool","internalType":"bool"},{"name":"approved","type":"bool","internalType":"bool"},{"name":"deliveryProof","type":"string","internalType":"string"}],"stateMutability":"view"},{"type":"function","name":"getMilestoneCount","inputs":[],"outputs":[{"name":"","type":"uint256","internalType":"uint256"}],"stateMutability":"view"},{"type":"function","name":"kol","inputs":[],"outputs":[{"name":"","type":"address","internalType":"address"}],"stateMutability":"view"},{"type":"function","name":"milestones","inputs":[{"name":"","type":"uint256","internalType":"uint256"}],"outputs":[{"name":"title","type":"string","internalType":"string"},{"name":"description","type":"string","internalType":"string"},{"name":"amount","type":"uint256","internalType":"uint256"},{"name":"delivered","type":"bool","internalType":"bool"},{"name":"reviewed","type":"bool","internalType":"bool"},{"name":"approved","type":"bool","internalType":"bool"},{"name":"deliveryProof","type":"string","internalType":"string"}],"stateMutability":"view"},{"type":"function","name":"project","inputs":[],"outputs":[{"name":"","type":"address","internalType":"address"}],"stateMutability":"view"},{"type":"function","name":"refundedAmount","inputs":[],"outputs":[{"name":"","type":"uint256","internalType":"uint256"}],"stateMutability":"view"},{"type":"function","name":"review","inputs":[{"name":"milestoneId","type":"uint256","internalType":"uint256"},{"name":"approve","type":"bool","internalType":"bool"}],"outputs":[],"stateMutability":"nonpayable"},{"type":"function","name":"token","inputs":[],"outputs":[{"name":"","type":"address","internalType":"contract IERC20"}],"stateMutability":"view"},{"type":"function","name":"totalAmount","inputs":[],"outputs":[{"name":"","type":"uint256","internalType":"uint256"}],"stateMutability":"view"},{"type":"function","name":"withdrawRefunds","inputs":[],"outputs":[],"stateMutability":"nonpayable"},{"type":"event","name":"FundsRefunded","inputs":[{"name":"project","type":"address","indexed":true,"internalType":"address"},{"name":"amount","type":"uint256","indexed":false,"internalType":"uint256"}],"anonymous":false},{"type":"event","name":"FundsTransferred","inputs":[{"name":"recipient","type":"address","indexed":true,"internalType":"address"},{"name":"amount","type":"uint256","indexed":false,"internalType":"uint256"}],"anonymous":false},{"type":"event","name":"MilestoneDelivered","inputs":[{"name":"milestoneId","type":"uint256","indexed":true,"internalType":"uint256"},{"name":"proof","type":"string","indexed":false,"internalType":"string"}],"anonymous":false},{"type":"event","name":"MilestoneReviewed","inputs":[{"name":"milestoneId","type":"uint256","indexed":true,"internalType":"uint256"},{"name":"approved","type":"bool","indexed":false,"internalType":"bool"},{"name":"amount","type":"uint256","indexed":false,"internalType":"uint256"}],"anonymous":false},{"type":"error","name":"AddressEmptyCode","inputs":[{"name":"target","type":"address","internalType":"address"}]},{"type":"error","name":"AddressInsufficientBalance","inputs":[{"name":"account","type":"address","internalType":"address"}]},{"type":"error","name":"AlreadyDelivered","inputs":[]},{"type":"error","name":"AlreadyReviewed","inputs":[]},{"type":"error","name":"FailedInnerCall","inputs":[]},{"type":"error","name":"InvalidMilestone","inputs":[]},{"type":"error","name":"NotAdmin","inputs":[]},{"type":"error","name":"NotDelivered","inputs":[]},{"type":"error","name":"NotKOL","inputs":[]},{"type":"error","name":"NotProject","inputs":[]},{"type":"error","name":"ReentrancyGuardReentrantCall","inputs":[]},{"type":"error","name":"SafeERC20FailedOperation","inputs":[{"name":"token","type":"address","internalType":"address"}]},{"type":"error","name":"TransferFailed","inputs":[]}],"bytecode":{"object":"0x610120806040523462000897576200193f80380380916200002182856200094f565b833981016101008282031262000897576200003c8262000973565b906200004b6020840162000973565b926200005a6040820162000973565b92620000696060830162000973565b608083015160a08401519095906001600160401b03811162000897578562000093918601620009bc565b60c08501519093906001600160401b038111620008975786620000b8918701620009bc565b60e086015190966001600160401b038211620008975780601f83890101121562000897578187015191620000ec8362000988565b97620000fc604051998a6200094f565b838952602089019260208560051b848401010111620008975780820160200192915b60208560051b828401010184106200093a57505060015f5550505060805260a087905260c0526001600160a01b031660e05261010084905280518351811490816200092e575b5015620008e9575f93845b8251861015620007345762000185868462000aa6565b5162000192878762000aa6565b516200019f888762000aa6565b51604051929091906001600160401b0360e0850190811190851117620005445760e084016040528352602083015260408201525f60608201525f60808201525f60a082015260405180602081011060018060401b036020830111176200054457602081016040525f815260c0820152600154906801000000000000000082101562000544576001820180600155821015620007205760015f52805180517fb10e2d527612073b26eecdfd717e6a320cf44b4afac2b0732d9fcbe2b7fa0cf692916001600160401b03821162000544576005850284015490600182811c9216801562000715575b6020831014620005255781601f849311620006be575b50602090601f831160011462000647575f926200063b575b50508160011b915f199060031b1c191617600584028301555b60208101518051906001600160401b038211620005445760016005860285010154600181811c9116801562000630575b60208210146200052557601f8111620005e2575b50602090601f8311600114620005645760c09392915f918362000558575b50508160011b915f199060031b1c191617600160058602850101555b60408101516002600586028501015560036005850284010160608201511515815461ff006080850151151560081b169060ff62ff000060a0870151151560101b1693169062ffffff19161717179055015180519060018060401b038211620005445760046005850284010154600181811c9116801562000539575b60208210146200052557601f8111620004d7575b50602090601f83116001146200045c579180600592600495945f9262000450575b50508160011b915f199060031b1c19161793020101555b6200041d868562000aa6565b5181018091116200043c57945f1981146200043c57600101946200016f565b634e487b7160e01b5f52601160045260245ffd5b015190505f80620003fa565b906004600586028501015f5260205f20915f5b601f1985168110620004be5750926005926001926004969583601f19811610620004a5575b505050811b01930201015562000411565b01515f1960f88460031b161c191690555f808062000494565b919260206001819286850151815501940192016200046f565b6004600586028501015f5260205f20601f840160051c8101602085106200051d575b601f830160051c8201811062000511575050620003d9565b5f8155600101620004f9565b5080620004f9565b634e487b7160e01b5f52602260045260245ffd5b90607f1690620003c5565b634e487b7160e01b5f52604160045260245ffd5b015190505f806200032e565b906001600587028601015f5260205f20915f5b601f1985168110620005c9575091839160019360c09695601f19811610620005b0575b505050811b01600160058602850101556200034a565b01515f1960f88460031b161c191690555f80806200059a565b9192602060018192868501518155019401920162000577565b6001600587028601015f5260205f20601f840160051c81016020851062000628575b601f830160051c820181106200061c57505062000310565b5f815560010162000604565b508062000604565b90607f1690620002fc565b015190505f80620002b3565b92506005860285015f5260205f20905f935b601f1984168510620006a2576001945083601f1981161062000689575b505050811b0160058402830155620002cc565b01515f1960f88460031b161c191690555f808062000676565b8181015183556020948501946001909301929091019062000659565b9091506005860285015f5260205f20601f840160051c8101602085106200070d575b90849392915b601f830160051c82018110620006fe5750506200029b565b5f8155859450600101620006e6565b5080620006e0565b91607f169162000285565b634e487b7160e01b5f52603260045260245ffd5b81879103620008a45760e0516040516323b872dd60e01b602082019081526001600160a01b0393841660248301523060448301526064808301959095529381529116919060a081016001600160401b03811182821017620005445760405251620007d5915f91829182865af13d156200089b573d90620007b482620009a0565b91620007c460405193846200094f565b82523d5f602084013e5b8362000abb565b805190811515918262000870575b50506200085857604051610e1b908162000b24823960805181818161010b0152610745015260a05181818161014e0152610232015260c051818181610468015281816108100152610996015260e05181818160c4015281816102cf0152818161083b01526108ff015261010051816106f20152f35b60249060405190635274afe760e01b82526004820152fd5b819250906020918101031262000897576020015180159081150362000897578280620007e3565b5f80fd5b606090620007ce565b60405162461bcd60e51b815260206004820152601960248201527f416d6f756e747320646f6e2774206d6174636820746f74616c000000000000006044820152606490fd5b60405162461bcd60e51b815260206004820152601560248201527f4172726179206c656e677468206d69736d6174636800000000000000000000006044820152606490fd5b90508251145f62000164565b6020808094865181520194019392506200011e565b601f909101601f19168101906001600160401b038211908210176200054457604052565b51906001600160a01b03821682036200089757565b6001600160401b038111620005445760051b60200190565b6001600160401b0381116200054457601f01601f191660200190565b9080601f830112156200089757815191620009d78362000988565b92604090620009e9825195866200094f565b808552602093848087019260051b850101938185116200089757858101925b85841062000a1a575050505050505090565b83516001600160401b0381116200089757820183603f8201121562000897578781015162000a4881620009a0565b9162000a57885193846200094f565b81835285888383010111620008975792909189925f945b81861062000a8d5750838095505f918301015281520193019262000a08565b8086018a015183870186015293909401938a9362000a6e565b8051821015620007205760209160051b010190565b9062000ae4575080511562000ad257805190602001fd5b604051630a12f52160e11b8152600490fd5b8151158062000b19575b62000af7575090565b604051639996b31560e01b81526001600160a01b039091166004820152602490fd5b50803b1562000aee56fe6080604081815260049182361015610015575f80fd5b5f92833560e01c9182630dcba2d1146109825750816312065fe0146108d0578163150ad280146107155781631a39d8ef146106da5781632442e1cb146106665781636f210902146103f35781638f4cf247146103d457816395afc05c1461021d578163ad7c6ed1146101fe578163e89e4ed61461017d57508063f60ca60d1461013a578063f851a440146100f75763fc0c546a146100b1575f80fd5b346100f357816003193601126100f357517f00000000000000000000000000000000000000000000000000000000000000006001600160a01b03168152602090f35b5080fd5b50346100f357816003193601126100f357517f00000000000000000000000000000000000000000000000000000000000000006001600160a01b03168152602090f35b50346100f357816003193601126100f357517f00000000000000000000000000000000000000000000000000000000000000006001600160a01b03168152602090f35b905082346101fb5760203660031901126101fb578135906001548210156101fb57506101ab6101f791610aae565b50926101b684610b33565b936101c360018201610b33565b906101d960028201549560038301549201610b33565b925195869560ff8360101c169360ff808560081c1694169288610a03565b0390f35b80fd5b5050346100f357816003193601126100f3576020906002549051908152f35b919050346103d057826003193601126103d0577f00000000000000000000000000000000000000000000000000000000000000006001600160a01b03811691338390036103c15761026c610dc4565b849185946001958654905b81811061034a57505060025490818503948086116103375782146102fd5750916102f38480936102ca7fbada1a1bf129e41a8af5abe00997bd8a8cb1770cb0cf68314eb4b1d6c427139797602097610bd4565b6002557f0000000000000000000000000000000000000000000000000000000000000000610c76565b51908152a2815580f35b606490602085519162461bcd60e51b835282015260146024820152734e6f20726566756e647320617661696c61626c6560601b6044820152fd5b634e487b7160e01b895260118252602489fd5b61035c61035682610aae565b50610bf5565b60608101511580156103a7575b610391575b505f19811461037e578701610277565b634e487b7160e01b895260118352602489fd5b95856103a09297015190610bd4565b945f61036e565b50608081015115158015610369575060a081015115610369565b5163ebcef41b60e01b81528390fd5b8280fd5b5050346100f357816003193601126100f3576020906001549051908152f35b919050346103d057806003193601126103d0578135916024359167ffffffffffffffff9182841161066257366023850112156106625783810135928661043885610a92565b9561044585519788610a5c565b85875236602487830101116100f35785602496602097889301838a0137870101527f00000000000000000000000000000000000000000000000000000000000000006001600160a01b031633036106535760018054871015610643576104aa87610aae565b5060038101805460ff81166106335760ff1916831790558651908401939092831161062057506104da8354610afb565b601f81116105da575b5084601f83116001146105545791808061054395937f0ecd564a0ce8a5f592a42f808f248f0a5892eac4f08cdfa682a30e6a6255d3e6999897958c93610549575b501b915f199060031b1c19161790555b519282849384528301906109c5565b0390a280f35b89015192505f610524565b83895285892091929190601f1983168a5b8181106105c5575091839161054396947f0ecd564a0ce8a5f592a42f808f248f0a5892eac4f08cdfa682a30e6a6255d3e69a99989694106105ad575b5050811b019055610534565b8801515f1960f88460031b161c191690555f806105a1565b89830151845592850192918801918801610565565b838952858920601f840160051c810191878510610616575b601f0160051c019082905b82811061060b5750506104e3565b8a81550182906105fd565b90915081906105f2565b634e487b7160e01b895260419052602488fd5b865163b9f7965360e01b81528690fd5b83516302e845cd60e61b81528390fd5b509051632c34c29b60e01b8152fd5b8580fd5b905082346101fb5760203660031901126101fb57508035906001548210156106cc575061035661069591610aae565b906101f78251916020840151938181015160608201511515608083015115159160c060a08501511515940151945197889788610a03565b82516302e845cd60e61b8152fd5b5050346100f357816003193601126100f357602090517f00000000000000000000000000000000000000000000000000000000000000008152f35b919050346103d057806003193601126103d0578135916024359081151591828103610662576001600160a01b03907f0000000000000000000000000000000000000000000000000000000000000000821633036108c057610774610dc4565b6001548610156108b05761078786610aae565b5092600384019081549060ff8216156108a25760ff8260081c16610894575062ffff001916601086901b62ff000016176101001790557f209de51a06bf2f1b5c68ebbce5cbbcd40a574bfce664c34df6562e9a08a40beb94939260029290911561087e577f8c9a4f13b67cb64d7c6aa1ae0c9bf07694af521a28b93e7060020810ab4bc59f60207f00000000000000000000000000000000000000000000000000000000000000009285850161085f8154867f0000000000000000000000000000000000000000000000000000000000000000610c76565b549388519485521692a25b015482519182526020820152a26001815580f35b5061088d828201548354610bd4565b825561086a565b87516396c3b41160e01b8152fd5b8751630a8bd16f60e21b8152fd5b84516302e845cd60e61b81528390fd5b8451637bfa4b9f60e01b81528390fd5b919050346103d057826003193601126103d05780516370a0823160e01b815230928101929092526020826024817f00000000000000000000000000000000000000000000000000000000000000006001600160a01b03165afa918215610978578392610941575b6020838351908152f35b9091506020813d8211610970575b8161095c60209383610a5c565b810103126103d0576020925051905f610937565b3d915061094f565b81513d85823e3d90fd5b8490346100f357816003193601126100f3577f00000000000000000000000000000000000000000000000000000000000000006001600160a01b03168152602090f35b91908251928382525f5b8481106109ef575050825f602080949584010152601f8019910116010190565b6020818301810151848301820152016109cf565b9390610a59979592610a23610a319298959860e0885260e08801906109c5565b9086820360208801526109c5565b9560408501521515606084015215156080830152151560a082015260c08184039101526109c5565b90565b90601f8019910116810190811067ffffffffffffffff821117610a7e57604052565b634e487b7160e01b5f52604160045260245ffd5b67ffffffffffffffff8111610a7e57601f01601f191660200190565b600154811015610ae75760059060015f52027fb10e2d527612073b26eecdfd717e6a320cf44b4afac2b0732d9fcbe2b7fa0cf601905f90565b634e487b7160e01b5f52603260045260245ffd5b90600182811c92168015610b29575b6020831014610b1557565b634e487b7160e01b5f52602260045260245ffd5b91607f1691610b0a565b9060405191825f825492610b4684610afb565b9081845260019485811690815f14610bb15750600114610b71575b5050610b6f92500383610a5c565b565b909391505f52602090815f20935f915b818310610b99575050610b6f93508201015f80610b61565b85548884018501529485019487945091830191610b81565b915050610b6f94506020925060ff191682840152151560051b8201015f80610b61565b91908201809211610be157565b634e487b7160e01b5f52601160045260245ffd5b9060405160e0810181811067ffffffffffffffff821117610a7e5760405260c0610c7160048395610c2581610b33565b8552610c3360018201610b33565b60208601526002810154604086015260ff600382015481811615156060880152818160081c161515608088015260101c16151560a086015201610b33565b910152565b60405163a9059cbb60e01b602082019081526001600160a01b0393841660248301526044808301959095529381529291608084019167ffffffffffffffff831185841017610a7e57610d019260405216925f80938192519082875af13d15610d59573d90610ce382610a92565b91610cf16040519384610a5c565b82523d84602084013e5b84610d61565b908151918215159283610d31575b505050610d195750565b60249060405190635274afe760e01b82526004820152fd5b8192935090602091810103126100f35760200151908115918215036101fb57505f8080610d0f565b606090610cfb565b90610d885750805115610d7657805190602001fd5b604051630a12f52160e11b8152600490fd5b81511580610dbb575b610d99575090565b604051639996b31560e01b81526001600160a01b039091166004820152602490fd5b50803b15610d91565b60025f5414610dd35760025f55565b604051633ee5aeb560e01b8152600490fdfea264697066735822122034815f0f9d58506db94efb1586bbd8f9563d188c528ba95159dd826164e7be3864736f6c63430008140033","linkReferences":{}},"methodIdentifiers":{"admin()":"f851a440","deliver(uint256,string)":"6f210902","getBalance()":"12065fe0","getMilestone(uint256)":"2442e1cb","getMilestoneCount()":"8f4cf247","kol()":"0dcba2d1","milestones(uint256)":"e89e4ed6","project()":"f60ca60d","refundedAmount()":"ad7c6ed1","review(uint256,bool)":"150ad280","token()":"fc0c546a","totalAmount()":"1a39d8ef","withdrawRefunds()":"95afc05c"},"id":0}