{
  "_format": "hh-sol-artifact-1",
  "contractName": "LowFeeTokenFactory",
  "sourceName": "contracts/LowFeeTokenFactory.sol",
  "abi": [
    {
      "inputs": [],
      "stateMutability": "nonpayable",
      "type": "constructor"
    },
    {
      "inputs": [
        {
          "internalType": "address",
          "name": "owner",
          "type": "address"
        }
      ],
      "name": "OwnableInvalidOwner",
      "type": "error"
    },
    {
      "inputs": [
        {
          "internalType": "address",
          "name": "account",
          "type": "address"
        }
      ],
      "name": "OwnableUnauthorizedAccount",
      "type": "error"
    },
    {
      "inputs": [],
      "name": "ReentrancyGuardReentrantCall",
      "type": "error"
    },
    {
      "anonymous": false,
      "inputs": [
        {
          "indexed": true,
          "internalType": "address",
          "name": "previousOwner",
          "type": "address"
        },
        {
          "indexed": true,
          "internalType": "address",
          "name": "newOwner",
          "type": "address"
        }
      ],
      "name": "OwnershipTransferred",
      "type": "event"
    },
    {
      "anonymous": false,
      "inputs": [
        {
          "indexed": true,
          "internalType": "address",
          "name": "token",
          "type": "address"
        },
        {
          "indexed": true,
          "internalType": "address",
          "name": "creator",
          "type": "address"
        },
        {
          "indexed": false,
          "internalType": "string",
          "name": "name",
          "type": "string"
        },
        {
          "indexed": false,
          "internalType": "string",
          "name": "symbol",
          "type": "string"
        },
        {
          "indexed": false,
          "internalType": "uint256",
          "name": "timestamp",
          "type": "uint256"
        }
      ],
      "name": "TokenCreated",
      "type": "event"
    },
    {
      "inputs": [],
      "name": "CREATION_FEE",
      "outputs": [
        {
          "internalType": "uint256",
          "name": "",
          "type": "uint256"
        }
      ],
      "stateMutability": "view",
      "type": "function"
    },
    {
      "inputs": [],
      "name": "INITIAL_SUPPLY",
      "outputs": [
        {
          "internalType": "uint256",
          "name": "",
          "type": "uint256"
        }
      ],
      "stateMutability": "view",
      "type": "function"
    },
    {
      "inputs": [
        {
          "internalType": "uint256",
          "name": "",
          "type": "uint256"
        }
      ],
      "name": "allTokens",
      "outputs": [
        {
          "internalType": "address",
          "name": "",
          "type": "address"
        }
      ],
      "stateMutability": "view",
      "type": "function"
    },
    {
      "inputs": [
        {
          "internalType": "string",
          "name": "_name",
          "type": "string"
        },
        {
          "internalType": "string",
          "name": "_symbol",
          "type": "string"
        },
        {
          "internalType": "string",
          "name": "_description",
          "type": "string"
        },
        {
          "internalType": "string",
          "name": "_imageUrl",
          "type": "string"
        },
        {
          "internalType": "string",
          "name": "",
          "type": "string"
        },
        {
          "internalType": "string",
          "name": "",
          "type": "string"
        },
        {
          "internalType": "string",
          "name": "",
          "type": "string"
        },
        {
          "internalType": "string",
          "name": "",
          "type": "string"
        }
      ],
      "name": "createToken",
      "outputs": [
        {
          "internalType": "address",
          "name": "",
          "type": "address"
        }
      ],
      "stateMutability": "payable",
      "type": "function"
    },
    {
      "inputs": [],
      "name": "getAllTokens",
      "outputs": [
        {
          "internalType": "address[]",
          "name": "",
          "type": "address[]"
        }
      ],
      "stateMutability": "view",
      "type": "function"
    },
    {
      "inputs": [],
      "name": "getCreationFee",
      "outputs": [
        {
          "internalType": "uint256",
          "name": "",
          "type": "uint256"
        }
      ],
      "stateMutability": "pure",
      "type": "function"
    },
    {
      "inputs": [],
      "name": "getTokenCount",
      "outputs": [
        {
          "internalType": "uint256",
          "name": "",
          "type": "uint256"
        }
      ],
      "stateMutability": "view",
      "type": "function"
    },
    {
      "inputs": [
        {
          "internalType": "address",
          "name": "",
          "type": "address"
        }
      ],
      "name": "isToken",
      "outputs": [
        {
          "internalType": "bool",
          "name": "",
          "type": "bool"
        }
      ],
      "stateMutability": "view",
      "type": "function"
    },
    {
      "inputs": [],
      "name": "owner",
      "outputs": [
        {
          "internalType": "address",
          "name": "",
          "type": "address"
        }
      ],
      "stateMutability": "view",
      "type": "function"
    },
    {
      "inputs": [],
      "name": "renounceOwnership",
      "outputs": [],
      "stateMutability": "nonpayable",
      "type": "function"
    },
    {
      "inputs": [
        {
          "internalType": "address",
          "name": "newOwner",
          "type": "address"
        }
      ],
      "name": "transferOwnership",
      "outputs": [],
      "stateMutability": "nonpayable",
      "type": "function"
    },
    {
      "inputs": [
        {
          "internalType": "uint256",
          "name": "",
          "type": "uint256"
        }
      ],
      "name": "updateCreationFee",
      "outputs": [],
      "stateMutability": "nonpayable",
      "type": "function"
    },
    {
      "inputs": [],
      "name": "withdrawFees",
      "outputs": [],
      "stateMutability": "nonpayable",
      "type": "function"
    }
  ],
  "bytecode": "0x6080806040523461007e5733156100685760008054336001600160a01b03198216811783556040519290916001600160a01b0316907f8be0079c531659141344cd1fd0a4f28419497f9722a3daafe3b4186f6b6457e09080a360018055611a6090816100848239f35b631e4fbdf760e01b815260006004820152602490fd5b600080fdfe60806040818152600490813610156200001757600080fd5b600092833560e01c90816319f37361146200086b575080632a5c792a146200079e5780632ff2e9dc1462000775578063476343ee14620006eb57806349a2104d146200056f578063634282af14620006a55780636fa237951462000643578063715018a614620005e257806378a8956714620005c15780638da5cb5b1462000597578063db07b68e146200056f578063eac440fc14620001575763f2fde38b14620000c157600080fd5b346200015357602036600319011262000153576001600160a01b038235818116939192908490036200014f57620000f762000996565b83156200013957505082546001600160a01b0319811683178455167f8be0079c531659141344cd1fd0a4f28419497f9722a3daafe3b4186f6b6457e08380a380f35b51631e4fbdf760e01b8152908101849052602490fd5b8480fd5b8280fd5b50610100366003190112620001535767ffffffffffffffff82358181116200014f5762000188903690850162000935565b92602480358381116200056b57620001a4903690840162000935565b946044358481116200056757620001bf903690850162000935565b906064358581116200056357620001da903690860162000935565b6084358681116200055f57620001f4903690870162000935565b5060a4358681116200055f576200020f903690870162000935565b5060c4358681116200055f576200022a903690870162000935565b5060e4358681116200055f5762000245903690870162000935565b5060019560028754146200054f576002875566038d7ea4c68000938434106200050057835115620004ce578951156200049a57600a8a5111620004665788519261102580850193841185851017620004545791620002f28b62000301936b033b2e3c9fd0803ce80000008f620002e0908a999862000a068b3960c08952620002d160c08a018d620009c3565b9089820360208b0152620009c3565b928701528582036060870152620009c3565b908382036080850152620009c3565b9060a033910152039089f09687156200044a576002546001600160a01b03988916989068010000000000000000811015620004385789927f6e6ae68e7d7d45fbd855c40d1eaafa8de46c5fbec3ee26f1af88730e400bc92c926200036f838b620003bc9501600255620008ae565b819291549060031b9187831b921b1916179055838c526003602052898c208960ff19825416179055620003ad8a5195606087526060870190620009c3565b908582036020870152620009c3565b9242898201528033940390a33411620003de575b505060209350805551908152f35b66038d7ea4c67fff193401913483116200042757505084808080938181156200041d575b3390f11562000413578380620003d0565b81513d85823e3d90fd5b506108fc62000402565b634e487b7160e01b87526011905285fd5b634e487b7160e01b8b5260418752858bfd5b86513d8a823e3d90fd5b634e487b7160e01b8d5260418952878dfd5b885162461bcd60e51b8152602081890152600f818801526e53796d626f6c20746f6f206c6f6e6760881b6044820152606490fd5b885162461bcd60e51b8152602081890152600f818801526e14de5b589bdb081c995c5d5a5c9959608a1b6044820152606490fd5b885162461bcd60e51b8152602081890152600d818801526c13985b59481c995c5d5a5c9959609a1b6044820152606490fd5b885162461bcd60e51b81526020818901528087018790527f496e73756666696369656e74206665653a20302e3030312045544820726571756044820152631a5c995960e21b6064820152608490fd5b8751633ee5aeb560e01b81528690fd5b8980fd5b8880fd5b8780fd5b8680fd5b83823462000593578160031936011262000593576020905166038d7ea4c680008152f35b5080fd5b8382346200059357816003193601126200059357905490516001600160a01b039091168152602090f35b83823462000593578160031936011262000593576020906002549051908152f35b83346200064057806003193601126200064057620005ff62000996565b80546001600160a01b03198116825581906001600160a01b03167f8be0079c531659141344cd1fd0a4f28419497f9722a3daafe3b4186f6b6457e08280a380f35b80fd5b5091346200064057602036600319011262000640575060206064926200066862000996565b5162461bcd60e51b815291820152601d60248201527f46656520697320696d6d757461626c6520617420302e303031204554480000006044820152fd5b5090346200015357602036600319011262000153573591600254831015620006405750620006d5602092620008ae565b905491519160018060a01b039160031b1c168152f35b50903462000153578260031936011262000153576200070962000996565b479081156200073c5750825483918291829182916001600160a01b031682f11562000732575080f35b51903d90823e3d90fd5b606490602084519162461bcd60e51b835282015260136024820152724e6f206665657320746f20776974686472617760681b6044820152fd5b8382346200059357816003193601126200059357602090516b033b2e3c9fd0803ce80000008152f35b50823462000640578060031936011262000640579080519182906002549182855260208095018093600284527f405787fa12a823e0f2b7631cc41b3ba8828b3321ca811111fa75cd3aa3bb5ace90845b8181106200084d575050508162000807910382620008fc565b83519485948186019282875251809352850193925b8281106200082c57505050500390f35b83516001600160a01b0316855286955093810193928101926001016200081c565b82546001600160a01b031684529288019260019283019201620007ee565b92905034620008aa576020366003190112620008aa57356001600160a01b03811690819003620008aa5783526003602090815292205460ff1615158152f35b8380fd5b600254811015620008e65760026000527f405787fa12a823e0f2b7631cc41b3ba8828b3321ca811111fa75cd3aa3bb5ace0190600090565b634e487b7160e01b600052603260045260246000fd5b90601f8019910116810190811067ffffffffffffffff8211176200091f57604052565b634e487b7160e01b600052604160045260246000fd5b81601f82011215620009915780359067ffffffffffffffff82116200091f57604051926200096e601f8401601f191660200185620008fc565b828452602083830101116200099157816000926020809301838601378301015290565b600080fd5b6000546001600160a01b03163303620009ab57565b60405163118cdaa760e01b8152336004820152602490fd5b919082519283825260005b848110620009f0575050826000602080949584010152601f8019910116010190565b602081830181015184830182015201620009ce56fe604060a0815234620006cd5762001025803803806200001e81620006d2565b928339810160c082820312620006cd5781516001600160401b0390818111620006cd57826200004f918501620006f8565b60209283850151838111620006cd57816200006c918701620006f8565b9186860151936060870151818111620006cd57836200008d918901620006f8565b926080880151828111620006cd5760a091620000ab918a01620006f8565b9701516001600160a01b03811697909390888503620006cd57835190838211620005be576003928354926001968785811c95168015620006c2575b8c861014620006ac5781908c601f9687811162000653575b50508c90868311600114620005e057600092620005d4575b505060001982871b1c191690871b1784555b8751858111620005be5760049889548881811c91168015620005b3575b8d821014620004a657908c82878594116200055a575b50508c90868311600114620004e757600092620004db575b505060001982871b1c191690871b1788555b8051858111620004c65760059182548881811c91168015620004bb575b8d821014620004a657908c82878594116200044f575b50508c90868311600114620003dc57600092620003d0575b505060001982871b1c191690871b1781555b8151948511620003bb57600654908682811c92168015620003b0575b8b8310146200039b5783821162000351575b505088918411600114620002e457938394918492600095620002d8575b50501b92600019911b1c1916176006555b6080528315620002c15760025490828201809211620002ac575060025560008381528083528481208054830190558451918252917fddf252ad1be2c89b69c2b068fc378daa952ba7f163c4a11628f55a4df523b3ef91a3516108ba90816200076b8239608051816106fd0152f35b601190634e487b7160e01b6000525260246000fd5b602490600086519163ec442f0560e01b8352820152fd5b0151935038806200022d565b9190601f198416926006600052848a6000209460005b8c898383106200033957505050106200031e575b50505050811b016006556200023e565b01519060f884600019921b161c19169055388080806200030e565b868601518955909701969485019488935001620002fa565b60066000528a6000209084808801821c8301938d891062000391575b01901c019086905b82811062000384575062000210565b6000815501869062000375565b935082936200036d565b602289634e487b7160e01b6000525260246000fd5b91607f1691620001fe565b604188634e487b7160e01b6000525260246000fd5b015190503880620001d0565b899350908d91601f1984168660005283600020936000905b8282106200042d575050841162000414575b505050811b018155620001e2565b015160001983891b60f8161c1916905538808062000406565b91929395968291958786015181550195019301908f918c9695949392620003f4565b9091925084600052868260002091818601871c83019386106200049c575b918b918695949301871c01915b8281106200048c57508e9150620001b8565b600081558594508b91016200047a565b925081926200046d565b60228b634e487b7160e01b6000525260246000fd5b90607f1690620001a2565b604189634e487b7160e01b6000525260246000fd5b01519050388062000173565b899350908d91601f1984168d60005283600020936000905b8282106200053857505084116200051f575b505050811b01885562000185565b015160001983891b60f8161c1916905538808062000511565b91929395968291958786015181550195019301908f918c9695949392620004ff565b909192508b60005286826000209181860160051c8301938610620005a9575b918b91869594930160051c01915b8281106200059957508e91506200015b565b600081558594508b910162000587565b9250819262000579565b90607f169062000145565b634e487b7160e01b600052604160045260246000fd5b01519050388062000116565b899350908d91601f1984168960005283600020936000905b82821062000631575050841162000618575b505050811b01845562000128565b015160001983891b60f8161c191690553880806200060a565b91929395968291958786015181550195019301908f918c9695949392620005f8565b909192508760005286826000209181860160051c8301938610620006a2575b918b91869594930160051c01915b8281106200069257508e9150620000fe565b600081558594508b910162000680565b9250819262000672565b634e487b7160e01b600052602260045260246000fd5b94607f1694620000e6565b600080fd5b6040519190601f01601f191682016001600160401b03811183821017620005be57604052565b919080601f84011215620006cd5782516001600160401b038111620005be576020906200072e601f8201601f19168301620006d2565b92818452828287010111620006cd5760005b8181106200075657508260009394955001015290565b85810183015184820184015282016200074056fe608060408181526004918236101561001657600080fd5b600092833560e01c91826302d05d3f146106e95750816306fdde031461060f578163095ea7b31461056157816318160ddd1461054257816323b872dd1461044b578163313ce5671461042f57816370a08231146103f85781637284e4161461031e57816395d89b4114610246578163a9059cbb14610215578163aba83150146100f4575063dd62ed3e146100a957600080fd5b346100f057806003193601126100f057806020926100c5610775565b6100cd610790565b6001600160a01b0391821683526001865283832091168252845220549051908152f35b5080fd5b8383346100f057816003193601126100f05780519082600554600181811c9080831692831561020b575b60209384841081146101f8578388529081156101dc5750600114610186575b505050829003601f01601f191682019267ffffffffffffffff841183851017610173575082918261016f92528261072c565b0390f35b634e487b7160e01b815260418552602490fd5b600587529192508591837f036b6384b5eca791c62761152d0c79bb0604c104a5fb6f4eb0703f3154bb3db05b8385106101c8575050505083010185808061013d565b8054888601830152930192849082016101b2565b60ff1916878501525050151560051b840101905085808061013d565b634e487b7160e01b895260228a52602489fd5b91607f169161011e565b5050346100f057806003193601126100f05760209061023f610235610775565b60243590336107a6565b5160018152f35b8383346100f057816003193601126100f057805190828454600181811c90808316928315610314575b60209384841081146101f8578388529081156101dc57506001146102bf57505050829003601f01601f191682019267ffffffffffffffff841183851017610173575082918261016f92528261072c565b8787529192508591837f8a35acfbc15ff81a39ae7d344fd709f28e8600b4aa8c65c6b64bfe7fe36bd19b5b838510610300575050505083010185808061013d565b8054888601830152930192849082016102ea565b91607f169161026f565b8383346100f057816003193601126100f05780519082600654600181811c908083169283156103ee575b60209384841081146101f8578388529081156101dc575060011461039857505050829003601f01601f191682019267ffffffffffffffff841183851017610173575082918261016f92528261072c565b600687529192508591837ff652222313e28459528d920b65115c16c04f3efc82aaedc97be59f3f377c0d3f5b8385106103da575050505083010185808061013d565b8054888601830152930192849082016103c4565b91607f1691610348565b5050346100f05760203660031901126100f05760209181906001600160a01b03610420610775565b16815280845220549051908152f35b5050346100f057816003193601126100f0576020905160128152f35b9050823461053f57606036600319011261053f57610467610775565b61046f610790565b916044359360018060a01b0383168083526001602052868320338452602052868320549160001983106104ab575b60208861023f8989896107a6565b8683106105135781156104fc5733156104e55750825260016020908152868320338452815291869020908590039055829061023f8761049d565b8751634a1406b160e11b8152908101849052602490fd5b875163e602df0560e01b8152908101849052602490fd5b8751637dc7a0d960e11b8152339181019182526020820193909352604081018790528291506060010390fd5b80fd5b5050346100f057816003193601126100f0576020906002549051908152f35b90503461060b578160031936011261060b5761057b610775565b6024359033156105f4576001600160a01b03169182156105dd57508083602095338152600187528181208582528752205582519081527f8c5be1e5ebec7d5bd14f71427d1e84f3dd0314c0f7b2291e5b200ac8c7c3b925843392a35160018152f35b8351634a1406b160e11b8152908101859052602490fd5b835163e602df0560e01b8152808401869052602490fd5b8280fd5b8383346100f057816003193601126100f05780519082600354600181811c908083169283156106df575b60209384841081146101f8578388529081156101dc575060011461068957505050829003601f01601f191682019267ffffffffffffffff841183851017610173575082918261016f92528261072c565b600387529192508591837fc2575a0e9e593c00f959f8c92f12db2869c3395a3b0502d05e2516446f71f85b5b8385106106cb575050505083010185808061013d565b8054888601830152930192849082016106b5565b91607f1691610639565b8490346100f057816003193601126100f0577f00000000000000000000000000000000000000000000000000000000000000006001600160a01b03168152602090f35b6020808252825181830181905290939260005b82811061076157505060409293506000838284010152601f8019910116010190565b81810186015184820160400152850161073f565b600435906001600160a01b038216820361078b57565b600080fd5b602435906001600160a01b038216820361078b57565b916001600160a01b0380841692831561086b57169283156108525760009083825281602052604082205490838210610820575091604082827fddf252ad1be2c89b69c2b068fc378daa952ba7f163c4a11628f55a4df523b3ef958760209652828652038282205586815220818154019055604051908152a3565b60405163391434e360e21b81526001600160a01b03919091166004820152602481019190915260448101839052606490fd5b60405163ec442f0560e01b815260006004820152602490fd5b604051634b637e8f60e11b815260006004820152602490fdfea2646970667358221220e49eabdc0ce3aee7342e383cf8100187ab2cb5ec9ba5abf0ffc80097a03dcad264736f6c63430008140033a26469706673582212201eeb1a94fd15f8dd299685e095190f3884f88877370c541160d2b18f39bcdd3064736f6c63430008140033",
  "linkReferences": {},
  "deployedLinkReferences": {}
}