{
  "_format": "hh-sol-artifact-1",
  "contractName": "SimpleToken",
  "sourceName": "contracts/LowFeeTokenFactory.sol",
  "abi": [
    {
      "inputs": [
        {
          "internalType": "string",
          "name": "_name",
          "type": "string"
        },
        {
          "internalType": "string",
          "name": "_symbol",
          "type": "string"
        },
        {
          "internalType": "uint256",
          "name": "_totalSupply",
          "type": "uint256"
        },
        {
          "internalType": "string",
          "name": "_imageUrl",
          "type": "string"
        },
        {
          "internalType": "string",
          "name": "_description",
          "type": "string"
        },
        {
          "internalType": "address",
          "name": "_creator",
          "type": "address"
        }
      ],
      "stateMutability": "nonpayable",
      "type": "constructor"
    },
    {
      "inputs": [
        {
          "internalType": "address",
          "name": "spender",
          "type": "address"
        },
        {
          "internalType": "uint256",
          "name": "allowance",
          "type": "uint256"
        },
        {
          "internalType": "uint256",
          "name": "needed",
          "type": "uint256"
        }
      ],
      "name": "ERC20InsufficientAllowance",
      "type": "error"
    },
    {
      "inputs": [
        {
          "internalType": "address",
          "name": "sender",
          "type": "address"
        },
        {
          "internalType": "uint256",
          "name": "balance",
          "type": "uint256"
        },
        {
          "internalType": "uint256",
          "name": "needed",
          "type": "uint256"
        }
      ],
      "name": "ERC20InsufficientBalance",
      "type": "error"
    },
    {
      "inputs": [
        {
          "internalType": "address",
          "name": "approver",
          "type": "address"
        }
      ],
      "name": "ERC20InvalidApprover",
      "type": "error"
    },
    {
      "inputs": [
        {
          "internalType": "address",
          "name": "receiver",
          "type": "address"
        }
      ],
      "name": "ERC20InvalidReceiver",
      "type": "error"
    },
    {
      "inputs": [
        {
          "internalType": "address",
          "name": "sender",
          "type": "address"
        }
      ],
      "name": "ERC20InvalidSender",
      "type": "error"
    },
    {
      "inputs": [
        {
          "internalType": "address",
          "name": "spender",
          "type": "address"
        }
      ],
      "name": "ERC20InvalidSpender",
      "type": "error"
    },
    {
      "anonymous": false,
      "inputs": [
        {
          "indexed": true,
          "internalType": "address",
          "name": "owner",
          "type": "address"
        },
        {
          "indexed": true,
          "internalType": "address",
          "name": "spender",
          "type": "address"
        },
        {
          "indexed": false,
          "internalType": "uint256",
          "name": "value",
          "type": "uint256"
        }
      ],
      "name": "Approval",
      "type": "event"
    },
    {
      "anonymous": false,
      "inputs": [
        {
          "indexed": true,
          "internalType": "address",
          "name": "from",
          "type": "address"
        },
        {
          "indexed": true,
          "internalType": "address",
          "name": "to",
          "type": "address"
        },
        {
          "indexed": false,
          "internalType": "uint256",
          "name": "value",
          "type": "uint256"
        }
      ],
      "name": "Transfer",
      "type": "event"
    },
    {
      "inputs": [
        {
          "internalType": "address",
          "name": "owner",
          "type": "address"
        },
        {
          "internalType": "address",
          "name": "spender",
          "type": "address"
        }
      ],
      "name": "allowance",
      "outputs": [
        {
          "internalType": "uint256",
          "name": "",
          "type": "uint256"
        }
      ],
      "stateMutability": "view",
      "type": "function"
    },
    {
      "inputs": [
        {
          "internalType": "address",
          "name": "spender",
          "type": "address"
        },
        {
          "internalType": "uint256",
          "name": "value",
          "type": "uint256"
        }
      ],
      "name": "approve",
      "outputs": [
        {
          "internalType": "bool",
          "name": "",
          "type": "bool"
        }
      ],
      "stateMutability": "nonpayable",
      "type": "function"
    },
    {
      "inputs": [
        {
          "internalType": "address",
          "name": "account",
          "type": "address"
        }
      ],
      "name": "balanceOf",
      "outputs": [
        {
          "internalType": "uint256",
          "name": "",
          "type": "uint256"
        }
      ],
      "stateMutability": "view",
      "type": "function"
    },
    {
      "inputs": [],
      "name": "creator",
      "outputs": [
        {
          "internalType": "address",
          "name": "",
          "type": "address"
        }
      ],
      "stateMutability": "view",
      "type": "function"
    },
    {
      "inputs": [],
      "name": "decimals",
      "outputs": [
        {
          "internalType": "uint8",
          "name": "",
          "type": "uint8"
        }
      ],
      "stateMutability": "view",
      "type": "function"
    },
    {
      "inputs": [],
      "name": "description",
      "outputs": [
        {
          "internalType": "string",
          "name": "",
          "type": "string"
        }
      ],
      "stateMutability": "view",
      "type": "function"
    },
    {
      "inputs": [],
      "name": "imageUrl",
      "outputs": [
        {
          "internalType": "string",
          "name": "",
          "type": "string"
        }
      ],
      "stateMutability": "view",
      "type": "function"
    },
    {
      "inputs": [],
      "name": "name",
      "outputs": [
        {
          "internalType": "string",
          "name": "",
          "type": "string"
        }
      ],
      "stateMutability": "view",
      "type": "function"
    },
    {
      "inputs": [],
      "name": "symbol",
      "outputs": [
        {
          "internalType": "string",
          "name": "",
          "type": "string"
        }
      ],
      "stateMutability": "view",
      "type": "function"
    },
    {
      "inputs": [],
      "name": "totalSupply",
      "outputs": [
        {
          "internalType": "uint256",
          "name": "",
          "type": "uint256"
        }
      ],
      "stateMutability": "view",
      "type": "function"
    },
    {
      "inputs": [
        {
          "internalType": "address",
          "name": "to",
          "type": "address"
        },
        {
          "internalType": "uint256",
          "name": "value",
          "type": "uint256"
        }
      ],
      "name": "transfer",
      "outputs": [
        {
          "internalType": "bool",
          "name": "",
          "type": "bool"
        }
      ],
      "stateMutability": "nonpayable",
      "type": "function"
    },
    {
      "inputs": [
        {
          "internalType": "address",
          "name": "from",
          "type": "address"
        },
        {
          "internalType": "address",
          "name": "to",
          "type": "address"
        },
        {
          "internalType": "uint256",
          "name": "value",
          "type": "uint256"
        }
      ],
      "name": "transferFrom",
      "outputs": [
        {
          "internalType": "bool",
          "name": "",
          "type": "bool"
        }
      ],
      "stateMutability": "nonpayable",
      "type": "function"
    }
  ],
  "bytecode": "0x604060a0815234620006cd5762001025803803806200001e81620006d2565b928339810160c082820312620006cd5781516001600160401b0390818111620006cd57826200004f918501620006f8565b60209283850151838111620006cd57816200006c918701620006f8565b9186860151936060870151818111620006cd57836200008d918901620006f8565b926080880151828111620006cd5760a091620000ab918a01620006f8565b9701516001600160a01b03811697909390888503620006cd57835190838211620005be576003928354926001968785811c95168015620006c2575b8c861014620006ac5781908c601f9687811162000653575b50508c90868311600114620005e057600092620005d4575b505060001982871b1c191690871b1784555b8751858111620005be5760049889548881811c91168015620005b3575b8d821014620004a657908c82878594116200055a575b50508c90868311600114620004e757600092620004db575b505060001982871b1c191690871b1788555b8051858111620004c65760059182548881811c91168015620004bb575b8d821014620004a657908c82878594116200044f575b50508c90868311600114620003dc57600092620003d0575b505060001982871b1c191690871b1781555b8151948511620003bb57600654908682811c92168015620003b0575b8b8310146200039b5783821162000351575b505088918411600114620002e457938394918492600095620002d8575b50501b92600019911b1c1916176006555b6080528315620002c15760025490828201809211620002ac575060025560008381528083528481208054830190558451918252917fddf252ad1be2c89b69c2b068fc378daa952ba7f163c4a11628f55a4df523b3ef91a3516108ba90816200076b8239608051816106fd0152f35b601190634e487b7160e01b6000525260246000fd5b602490600086519163ec442f0560e01b8352820152fd5b0151935038806200022d565b9190601f198416926006600052848a6000209460005b8c898383106200033957505050106200031e575b50505050811b016006556200023e565b01519060f884600019921b161c19169055388080806200030e565b868601518955909701969485019488935001620002fa565b60066000528a6000209084808801821c8301938d891062000391575b01901c019086905b82811062000384575062000210565b6000815501869062000375565b935082936200036d565b602289634e487b7160e01b6000525260246000fd5b91607f1691620001fe565b604188634e487b7160e01b6000525260246000fd5b015190503880620001d0565b899350908d91601f1984168660005283600020936000905b8282106200042d575050841162000414575b505050811b018155620001e2565b015160001983891b60f8161c1916905538808062000406565b91929395968291958786015181550195019301908f918c9695949392620003f4565b9091925084600052868260002091818601871c83019386106200049c575b918b918695949301871c01915b8281106200048c57508e9150620001b8565b600081558594508b91016200047a565b925081926200046d565b60228b634e487b7160e01b6000525260246000fd5b90607f1690620001a2565b604189634e487b7160e01b6000525260246000fd5b01519050388062000173565b899350908d91601f1984168d60005283600020936000905b8282106200053857505084116200051f575b505050811b01885562000185565b015160001983891b60f8161c1916905538808062000511565b91929395968291958786015181550195019301908f918c9695949392620004ff565b909192508b60005286826000209181860160051c8301938610620005a9575b918b91869594930160051c01915b8281106200059957508e91506200015b565b600081558594508b910162000587565b9250819262000579565b90607f169062000145565b634e487b7160e01b600052604160045260246000fd5b01519050388062000116565b899350908d91601f1984168960005283600020936000905b82821062000631575050841162000618575b505050811b01845562000128565b015160001983891b60f8161c191690553880806200060a565b91929395968291958786015181550195019301908f918c9695949392620005f8565b909192508760005286826000209181860160051c8301938610620006a2575b918b91869594930160051c01915b8281106200069257508e9150620000fe565b600081558594508b910162000680565b9250819262000672565b634e487b7160e01b600052602260045260246000fd5b94607f1694620000e6565b600080fd5b6040519190601f01601f191682016001600160401b03811183821017620005be57604052565b919080601f84011215620006cd5782516001600160401b038111620005be576020906200072e601f8201601f19168301620006d2565b92818452828287010111620006cd5760005b8181106200075657508260009394955001015290565b85810183015184820184015282016200074056fe608060408181526004918236101561001657600080fd5b600092833560e01c91826302d05d3f146106e95750816306fdde031461060f578163095ea7b31461056157816318160ddd1461054257816323b872dd1461044b578163313ce5671461042f57816370a08231146103f85781637284e4161461031e57816395d89b4114610246578163a9059cbb14610215578163aba83150146100f4575063dd62ed3e146100a957600080fd5b346100f057806003193601126100f057806020926100c5610775565b6100cd610790565b6001600160a01b0391821683526001865283832091168252845220549051908152f35b5080fd5b8383346100f057816003193601126100f05780519082600554600181811c9080831692831561020b575b60209384841081146101f8578388529081156101dc5750600114610186575b505050829003601f01601f191682019267ffffffffffffffff841183851017610173575082918261016f92528261072c565b0390f35b634e487b7160e01b815260418552602490fd5b600587529192508591837f036b6384b5eca791c62761152d0c79bb0604c104a5fb6f4eb0703f3154bb3db05b8385106101c8575050505083010185808061013d565b8054888601830152930192849082016101b2565b60ff1916878501525050151560051b840101905085808061013d565b634e487b7160e01b895260228a52602489fd5b91607f169161011e565b5050346100f057806003193601126100f05760209061023f610235610775565b60243590336107a6565b5160018152f35b8383346100f057816003193601126100f057805190828454600181811c90808316928315610314575b60209384841081146101f8578388529081156101dc57506001146102bf57505050829003601f01601f191682019267ffffffffffffffff841183851017610173575082918261016f92528261072c565b8787529192508591837f8a35acfbc15ff81a39ae7d344fd709f28e8600b4aa8c65c6b64bfe7fe36bd19b5b838510610300575050505083010185808061013d565b8054888601830152930192849082016102ea565b91607f169161026f565b8383346100f057816003193601126100f05780519082600654600181811c908083169283156103ee575b60209384841081146101f8578388529081156101dc575060011461039857505050829003601f01601f191682019267ffffffffffffffff841183851017610173575082918261016f92528261072c565b600687529192508591837ff652222313e28459528d920b65115c16c04f3efc82aaedc97be59f3f377c0d3f5b8385106103da575050505083010185808061013d565b8054888601830152930192849082016103c4565b91607f1691610348565b5050346100f05760203660031901126100f05760209181906001600160a01b03610420610775565b16815280845220549051908152f35b5050346100f057816003193601126100f0576020905160128152f35b9050823461053f57606036600319011261053f57610467610775565b61046f610790565b916044359360018060a01b0383168083526001602052868320338452602052868320549160001983106104ab575b60208861023f8989896107a6565b8683106105135781156104fc5733156104e55750825260016020908152868320338452815291869020908590039055829061023f8761049d565b8751634a1406b160e11b8152908101849052602490fd5b875163e602df0560e01b8152908101849052602490fd5b8751637dc7a0d960e11b8152339181019182526020820193909352604081018790528291506060010390fd5b80fd5b5050346100f057816003193601126100f0576020906002549051908152f35b90503461060b578160031936011261060b5761057b610775565b6024359033156105f4576001600160a01b03169182156105dd57508083602095338152600187528181208582528752205582519081527f8c5be1e5ebec7d5bd14f71427d1e84f3dd0314c0f7b2291e5b200ac8c7c3b925843392a35160018152f35b8351634a1406b160e11b8152908101859052602490fd5b835163e602df0560e01b8152808401869052602490fd5b8280fd5b8383346100f057816003193601126100f05780519082600354600181811c908083169283156106df575b60209384841081146101f8578388529081156101dc575060011461068957505050829003601f01601f191682019267ffffffffffffffff841183851017610173575082918261016f92528261072c565b600387529192508591837fc2575a0e9e593c00f959f8c92f12db2869c3395a3b0502d05e2516446f71f85b5b8385106106cb575050505083010185808061013d565b8054888601830152930192849082016106b5565b91607f1691610639565b8490346100f057816003193601126100f0577f00000000000000000000000000000000000000000000000000000000000000006001600160a01b03168152602090f35b6020808252825181830181905290939260005b82811061076157505060409293506000838284010152601f8019910116010190565b81810186015184820160400152850161073f565b600435906001600160a01b038216820361078b57565b600080fd5b602435906001600160a01b038216820361078b57565b916001600160a01b0380841692831561086b57169283156108525760009083825281602052604082205490838210610820575091604082827fddf252ad1be2c89b69c2b068fc378daa952ba7f163c4a11628f55a4df523b3ef958760209652828652038282205586815220818154019055604051908152a3565b60405163391434e360e21b81526001600160a01b03919091166004820152602481019190915260448101839052606490fd5b60405163ec442f0560e01b815260006004820152602490fd5b604051634b637e8f60e11b815260006004820152602490fdfea2646970667358221220e49eabdc0ce3aee7342e383cf8100187ab2cb5ec9ba5abf0ffc80097a03dcad264736f6c63430008140033",
  "linkReferences": {},
  "deployedLinkReferences": {}
}