{
  "_format": "hh-sol-artifact-1",
  "contractName": "BondingCurveToken",
  "sourceName": "contracts/PumpFunStyleFactory.sol",
  "abi": [
    {
      "inputs": [
        {
          "internalType": "string",
          "name": "_name",
          "type": "string"
        },
        {
          "internalType": "string",
          "name": "_symbol",
          "type": "string"
        },
        {
          "internalType": "uint256",
          "name": "_totalSupply",
          "type": "uint256"
        },
        {
          "internalType": "address",
          "name": "_creator",
          "type": "address"
        },
        {
          "internalType": "address",
          "name": "_initialHolder",
          "type": "address"
        }
      ],
      "stateMutability": "nonpayable",
      "type": "constructor"
    },
    {
      "inputs": [
        {
          "internalType": "address",
          "name": "spender",
          "type": "address"
        },
        {
          "internalType": "uint256",
          "name": "allowance",
          "type": "uint256"
        },
        {
          "internalType": "uint256",
          "name": "needed",
          "type": "uint256"
        }
      ],
      "name": "ERC20InsufficientAllowance",
      "type": "error"
    },
    {
      "inputs": [
        {
          "internalType": "address",
          "name": "sender",
          "type": "address"
        },
        {
          "internalType": "uint256",
          "name": "balance",
          "type": "uint256"
        },
        {
          "internalType": "uint256",
          "name": "needed",
          "type": "uint256"
        }
      ],
      "name": "ERC20InsufficientBalance",
      "type": "error"
    },
    {
      "inputs": [
        {
          "internalType": "address",
          "name": "approver",
          "type": "address"
        }
      ],
      "name": "ERC20InvalidApprover",
      "type": "error"
    },
    {
      "inputs": [
        {
          "internalType": "address",
          "name": "receiver",
          "type": "address"
        }
      ],
      "name": "ERC20InvalidReceiver",
      "type": "error"
    },
    {
      "inputs": [
        {
          "internalType": "address",
          "name": "sender",
          "type": "address"
        }
      ],
      "name": "ERC20InvalidSender",
      "type": "error"
    },
    {
      "inputs": [
        {
          "internalType": "address",
          "name": "spender",
          "type": "address"
        }
      ],
      "name": "ERC20InvalidSpender",
      "type": "error"
    },
    {
      "anonymous": false,
      "inputs": [
        {
          "indexed": true,
          "internalType": "address",
          "name": "owner",
          "type": "address"
        },
        {
          "indexed": true,
          "internalType": "address",
          "name": "spender",
          "type": "address"
        },
        {
          "indexed": false,
          "internalType": "uint256",
          "name": "value",
          "type": "uint256"
        }
      ],
      "name": "Approval",
      "type": "event"
    },
    {
      "anonymous": false,
      "inputs": [
        {
          "indexed": true,
          "internalType": "address",
          "name": "from",
          "type": "address"
        },
        {
          "indexed": true,
          "internalType": "address",
          "name": "to",
          "type": "address"
        },
        {
          "indexed": false,
          "internalType": "uint256",
          "name": "value",
          "type": "uint256"
        }
      ],
      "name": "Transfer",
      "type": "event"
    },
    {
      "inputs": [
        {
          "internalType": "address",
          "name": "owner",
          "type": "address"
        },
        {
          "internalType": "address",
          "name": "spender",
          "type": "address"
        }
      ],
      "name": "allowance",
      "outputs": [
        {
          "internalType": "uint256",
          "name": "",
          "type": "uint256"
        }
      ],
      "stateMutability": "view",
      "type": "function"
    },
    {
      "inputs": [
        {
          "internalType": "address",
          "name": "spender",
          "type": "address"
        },
        {
          "internalType": "uint256",
          "name": "value",
          "type": "uint256"
        }
      ],
      "name": "approve",
      "outputs": [
        {
          "internalType": "bool",
          "name": "",
          "type": "bool"
        }
      ],
      "stateMutability": "nonpayable",
      "type": "function"
    },
    {
      "inputs": [
        {
          "internalType": "address",
          "name": "account",
          "type": "address"
        }
      ],
      "name": "balanceOf",
      "outputs": [
        {
          "internalType": "uint256",
          "name": "",
          "type": "uint256"
        }
      ],
      "stateMutability": "view",
      "type": "function"
    },
    {
      "inputs": [],
      "name": "createdAt",
      "outputs": [
        {
          "internalType": "uint256",
          "name": "",
          "type": "uint256"
        }
      ],
      "stateMutability": "view",
      "type": "function"
    },
    {
      "inputs": [],
      "name": "creator",
      "outputs": [
        {
          "internalType": "address",
          "name": "",
          "type": "address"
        }
      ],
      "stateMutability": "view",
      "type": "function"
    },
    {
      "inputs": [],
      "name": "decimals",
      "outputs": [
        {
          "internalType": "uint8",
          "name": "",
          "type": "uint8"
        }
      ],
      "stateMutability": "view",
      "type": "function"
    },
    {
      "inputs": [],
      "name": "name",
      "outputs": [
        {
          "internalType": "string",
          "name": "",
          "type": "string"
        }
      ],
      "stateMutability": "view",
      "type": "function"
    },
    {
      "inputs": [],
      "name": "symbol",
      "outputs": [
        {
          "internalType": "string",
          "name": "",
          "type": "string"
        }
      ],
      "stateMutability": "view",
      "type": "function"
    },
    {
      "inputs": [],
      "name": "totalSupply",
      "outputs": [
        {
          "internalType": "uint256",
          "name": "",
          "type": "uint256"
        }
      ],
      "stateMutability": "view",
      "type": "function"
    },
    {
      "inputs": [
        {
          "internalType": "address",
          "name": "to",
          "type": "address"
        },
        {
          "internalType": "uint256",
          "name": "value",
          "type": "uint256"
        }
      ],
      "name": "transfer",
      "outputs": [
        {
          "internalType": "bool",
          "name": "",
          "type": "bool"
        }
      ],
      "stateMutability": "nonpayable",
      "type": "function"
    },
    {
      "inputs": [
        {
          "internalType": "address",
          "name": "from",
          "type": "address"
        },
        {
          "internalType": "address",
          "name": "to",
          "type": "address"
        },
        {
          "internalType": "uint256",
          "name": "value",
          "type": "uint256"
        }
      ],
      "name": "transferFrom",
      "outputs": [
        {
          "internalType": "bool",
          "name": "",
          "type": "bool"
        }
      ],
      "stateMutability": "nonpayable",
      "type": "function"
    }
  ],
  "bytecode": "0x604060c0815234620003df5762000bc6803803806200001e81620003e4565b928339810160a082820312620003df5781516001600160401b0390818111620003df57826200004f9185016200040a565b906020928385015190828211620003df576200006d9186016200040a565b9385810151926200008f608062000087606085016200047c565b93016200047c565b928151818111620002df576003908154906001948583811c93168015620003d4575b8a841014620003be578190601f9384811162000368575b508a908483116001146200030157600092620002f5575b505060001982851b1c191690851b1782555b8851928311620002df5760049889548581811c91168015620002d4575b8a821014620002bf5782811162000274575b50889184116001146200020957938394918492600095620001fd575b50501b92600019911b1c19161785555b6080524260a0526001600160a01b0316928315620001e65760025490828201809211620001d1575060025560008381528083528481208054830190558451918252917fddf252ad1be2c89b69c2b068fc378daa952ba7f163c4a11628f55a4df523b3ef91a351610734908162000492823960805181610577015260a051816101000152f35b601190634e487b7160e01b6000525260246000fd5b602490600086519163ec442f0560e01b8352820152fd5b0151935038806200013c565b9190601f198416928a600052848a6000209460005b8c898383106200025c575050501062000241575b50505050811b0185556200014c565b01519060f884600019921b161c191690553880808062000232565b8686015189559097019694850194889350016200021e565b8a600052896000208380870160051c8201928c8810620002b5575b0160051c019086905b828110620002a857505062000120565b6000815501869062000298565b925081926200028f565b60228b634e487b7160e01b6000525260246000fd5b90607f16906200010e565b634e487b7160e01b600052604160045260246000fd5b015190503880620000df565b60008681528c8120899550929190601f198516908e5b82821062000350575050841162000337575b505050811b018255620000f1565b015160001983871b60f8161c1916905538808062000329565b8385015186558b979095019493840193018e62000317565b909150846000528a6000208480850160051c8201928d8610620003b4575b918991869594930160051c01915b828110620003a4575050620000c8565b6000815585945089910162000394565b9250819262000386565b634e487b7160e01b600052602260045260246000fd5b92607f1692620000b1565b600080fd5b6040519190601f01601f191682016001600160401b03811183821017620002df57604052565b919080601f84011215620003df5782516001600160401b038111620002df5760209062000440601f8201601f19168301620003e4565b92818452828287010111620003df5760005b8181106200046857508260009394955001015290565b858101830151848201840152820162000452565b51906001600160a01b0382168203620003df5756fe608060408181526004918236101561001657600080fd5b600092833560e01c91826302d05d3f146105635750816306fdde0314610489578163095ea7b3146103db57816318160ddd146103bc57816323b872dd146102c5578163313ce567146102a957816370a082311461027257816395d89b411461015357508063a9059cbb14610123578063cf09e0d0146100e95763dd62ed3e1461009e57600080fd5b346100e557806003193601126100e557806020926100ba6105ef565b6100c261060a565b6001600160a01b0391821683526001865283832091168252845220549051908152f35b5080fd5b50346100e557816003193601126100e557602090517f00000000000000000000000000000000000000000000000000000000000000008152f35b50346100e557806003193601126100e55760209061014c6101426105ef565b6024359033610620565b5160018152f35b8383346100e557816003193601126100e557805190828454600181811c90808316928315610268575b60209384841081146102555783885290811561023957506001146101e4575b505050829003601f01601f191682019267ffffffffffffffff8411838510176101d157508291826101cd9252826105a6565b0390f35b634e487b7160e01b815260418552602490fd5b8787529192508591837f8a35acfbc15ff81a39ae7d344fd709f28e8600b4aa8c65c6b64bfe7fe36bd19b5b838510610225575050505083010185808061019b565b80548886018301529301928490820161020f565b60ff1916878501525050151560051b840101905085808061019b565b634e487b7160e01b895260228a52602489fd5b91607f169161017c565b5050346100e55760203660031901126100e55760209181906001600160a01b0361029a6105ef565b16815280845220549051908152f35b5050346100e557816003193601126100e5576020905160128152f35b905082346103b95760603660031901126103b9576102e16105ef565b6102e961060a565b916044359360018060a01b038316808352600160205286832033845260205286832054916000198310610325575b60208861014c898989610620565b86831061038d57811561037657331561035f5750825260016020908152868320338452815291869020908590039055829061014c87610317565b8751634a1406b160e11b8152908101849052602490fd5b875163e602df0560e01b8152908101849052602490fd5b8751637dc7a0d960e11b8152339181019182526020820193909352604081018790528291506060010390fd5b80fd5b5050346100e557816003193601126100e5576020906002549051908152f35b9050346104855781600319360112610485576103f56105ef565b60243590331561046e576001600160a01b031691821561045757508083602095338152600187528181208582528752205582519081527f8c5be1e5ebec7d5bd14f71427d1e84f3dd0314c0f7b2291e5b200ac8c7c3b925843392a35160018152f35b8351634a1406b160e11b8152908101859052602490fd5b835163e602df0560e01b8152808401869052602490fd5b8280fd5b8383346100e557816003193601126100e55780519082600354600181811c90808316928315610559575b602093848410811461025557838852908115610239575060011461050357505050829003601f01601f191682019267ffffffffffffffff8411838510176101d157508291826101cd9252826105a6565b600387529192508591837fc2575a0e9e593c00f959f8c92f12db2869c3395a3b0502d05e2516446f71f85b5b838510610545575050505083010185808061019b565b80548886018301529301928490820161052f565b91607f16916104b3565b8490346100e557816003193601126100e5577f00000000000000000000000000000000000000000000000000000000000000006001600160a01b03168152602090f35b6020808252825181830181905290939260005b8281106105db57505060409293506000838284010152601f8019910116010190565b8181018601518482016040015285016105b9565b600435906001600160a01b038216820361060557565b600080fd5b602435906001600160a01b038216820361060557565b916001600160a01b038084169283156106e557169283156106cc576000908382528160205260408220549083821061069a575091604082827fddf252ad1be2c89b69c2b068fc378daa952ba7f163c4a11628f55a4df523b3ef958760209652828652038282205586815220818154019055604051908152a3565b60405163391434e360e21b81526001600160a01b03919091166004820152602481019190915260448101839052606490fd5b60405163ec442f0560e01b815260006004820152602490fd5b604051634b637e8f60e11b815260006004820152602490fdfea264697066735822122012a0eb8cab538279f27a3cdead06f9bc344f8f33bb4ad832e880bcac4cc16f0564736f6c63430008140033",
  "linkReferences": {},
  "deployedLinkReferences": {}
}