{
  "_format": "hh-sol-artifact-1",
  "contractName": "PumpFunStyleFactory",
  "sourceName": "contracts/PumpFunStyleFactory.sol",
  "abi": [
    {
      "inputs": [
        {
          "internalType": "address",
          "name": "owner",
          "type": "address"
        }
      ],
      "name": "OwnableInvalidOwner",
      "type": "error"
    },
    {
      "inputs": [
        {
          "internalType": "address",
          "name": "account",
          "type": "address"
        }
      ],
      "name": "OwnableUnauthorizedAccount",
      "type": "error"
    },
    {
      "inputs": [],
      "name": "ReentrancyGuardReentrantCall",
      "type": "error"
    },
    {
      "anonymous": false,
      "inputs": [
        {
          "indexed": true,
          "internalType": "address",
          "name": "creator",
          "type": "address"
        },
        {
          "indexed": true,
          "internalType": "address",
          "name": "token",
          "type": "address"
        },
        {
          "indexed": false,
          "internalType": "uint256",
          "name": "reward",
          "type": "uint256"
        }
      ],
      "name": "CreatorRewarded",
      "type": "event"
    },
    {
      "anonymous": false,
      "inputs": [
        {
          "indexed": true,
          "internalType": "address",
          "name": "previousOwner",
          "type": "address"
        },
        {
          "indexed": true,
          "internalType": "address",
          "name": "newOwner",
          "type": "address"
        }
      ],
      "name": "OwnershipTransferred",
      "type": "event"
    },
    {
      "anonymous": false,
      "inputs": [
        {
          "indexed": true,
          "internalType": "address",
          "name": "token",
          "type": "address"
        },
        {
          "indexed": false,
          "internalType": "uint256",
          "name": "ethLiquidity",
          "type": "uint256"
        },
        {
          "indexed": false,
          "internalType": "uint256",
          "name": "tokenLiquidity",
          "type": "uint256"
        }
      ],
      "name": "TokenGraduated",
      "type": "event"
    },
    {
      "anonymous": false,
      "inputs": [
        {
          "indexed": true,
          "internalType": "address",
          "name": "token",
          "type": "address"
        },
        {
          "indexed": true,
          "internalType": "address",
          "name": "creator",
          "type": "address"
        },
        {
          "indexed": true,
          "internalType": "address",
          "name": "firstBuyer",
          "type": "address"
        }
      ],
      "name": "TokenLaunched",
      "type": "event"
    },
    {
      "anonymous": false,
      "inputs": [
        {
          "indexed": true,
          "internalType": "address",
          "name": "pendingAddress",
          "type": "address"
        },
        {
          "indexed": true,
          "internalType": "address",
          "name": "creator",
          "type": "address"
        },
        {
          "indexed": false,
          "internalType": "string",
          "name": "name",
          "type": "string"
        },
        {
          "indexed": false,
          "internalType": "string",
          "name": "symbol",
          "type": "string"
        }
      ],
      "name": "TokenPending",
      "type": "event"
    },
    {
      "anonymous": false,
      "inputs": [
        {
          "indexed": true,
          "internalType": "address",
          "name": "token",
          "type": "address"
        },
        {
          "indexed": true,
          "internalType": "address",
          "name": "trader",
          "type": "address"
        },
        {
          "indexed": false,
          "internalType": "bool",
          "name": "isBuy",
          "type": "bool"
        },
        {
          "indexed": false,
          "internalType": "uint256",
          "name": "ethAmount",
          "type": "uint256"
        },
        {
          "indexed": false,
          "internalType": "uint256",
          "name": "tokenAmount",
          "type": "uint256"
        }
      ],
      "name": "TokenTraded",
      "type": "event"
    },
    {
      "inputs": [],
      "name": "BONDING_CURVE_SUPPLY",
      "outputs": [
        {
          "internalType": "uint256",
          "name": "",
          "type": "uint256"
        }
      ],
      "stateMutability": "view",
      "type": "function"
    },
    {
      "inputs": [],
      "name": "BPS_DENOMINATOR",
      "outputs": [
        {
          "internalType": "uint256",
          "name": "",
          "type": "uint256"
        }
      ],
      "stateMutability": "view",
      "type": "function"
    },
    {
      "inputs": [],
      "name": "CREATION_COST",
      "outputs": [
        {
          "internalType": "uint256",
          "name": "",
          "type": "uint256"
        }
      ],
      "stateMutability": "view",
      "type": "function"
    },
    {
      "inputs": [],
      "name": "CREATOR_FEE_SHARE",
      "outputs": [
        {
          "internalType": "uint256",
          "name": "",
          "type": "uint256"
        }
      ],
      "stateMutability": "view",
      "type": "function"
    },
    {
      "inputs": [],
      "name": "CREATOR_REWARD",
      "outputs": [
        {
          "internalType": "uint256",
          "name": "",
          "type": "uint256"
        }
      ],
      "stateMutability": "view",
      "type": "function"
    },
    {
      "inputs": [],
      "name": "DEX_LIQUIDITY",
      "outputs": [
        {
          "internalType": "uint256",
          "name": "",
          "type": "uint256"
        }
      ],
      "stateMutability": "view",
      "type": "function"
    },
    {
      "inputs": [],
      "name": "GRADUATION_ETH_THRESHOLD",
      "outputs": [
        {
          "internalType": "uint256",
          "name": "",
          "type": "uint256"
        }
      ],
      "stateMutability": "view",
      "type": "function"
    },
    {
      "inputs": [],
      "name": "INITIAL_VIRTUAL_ETH",
      "outputs": [
        {
          "internalType": "uint256",
          "name": "",
          "type": "uint256"
        }
      ],
      "stateMutability": "view",
      "type": "function"
    },
    {
      "inputs": [],
      "name": "INITIAL_VIRTUAL_TOKENS",
      "outputs": [
        {
          "internalType": "uint256",
          "name": "",
          "type": "uint256"
        }
      ],
      "stateMutability": "view",
      "type": "function"
    },
    {
      "inputs": [],
      "name": "PLATFORM_FEE_SHARE",
      "outputs": [
        {
          "internalType": "uint256",
          "name": "",
          "type": "uint256"
        }
      ],
      "stateMutability": "view",
      "type": "function"
    },
    {
      "inputs": [],
      "name": "TOTAL_SUPPLY",
      "outputs": [
        {
          "internalType": "uint256",
          "name": "",
          "type": "uint256"
        }
      ],
      "stateMutability": "view",
      "type": "function"
    },
    {
      "inputs": [],
      "name": "TRADING_FEE_BPS",
      "outputs": [
        {
          "internalType": "uint256",
          "name": "",
          "type": "uint256"
        }
      ],
      "stateMutability": "view",
      "type": "function"
    },
    {
      "inputs": [
        {
          "internalType": "uint256",
          "name": "",
          "type": "uint256"
        }
      ],
      "name": "allTokens",
      "outputs": [
        {
          "internalType": "address",
          "name": "",
          "type": "address"
        }
      ],
      "stateMutability": "view",
      "type": "function"
    },
    {
      "inputs": [
        {
          "internalType": "address",
          "name": "_pendingToken",
          "type": "address"
        }
      ],
      "name": "buyFirstTokens",
      "outputs": [
        {
          "internalType": "address",
          "name": "",
          "type": "address"
        }
      ],
      "stateMutability": "payable",
      "type": "function"
    },
    {
      "inputs": [
        {
          "internalType": "address",
          "name": "_token",
          "type": "address"
        }
      ],
      "name": "buyTokens",
      "outputs": [],
      "stateMutability": "payable",
      "type": "function"
    },
    {
      "inputs": [
        {
          "internalType": "address",
          "name": "_token",
          "type": "address"
        }
      ],
      "name": "claimCreatorEarnings",
      "outputs": [],
      "stateMutability": "nonpayable",
      "type": "function"
    },
    {
      "inputs": [
        {
          "internalType": "string",
          "name": "_name",
          "type": "string"
        },
        {
          "internalType": "string",
          "name": "_symbol",
          "type": "string"
        }
      ],
      "name": "createPendingToken",
      "outputs": [
        {
          "internalType": "address",
          "name": "",
          "type": "address"
        }
      ],
      "stateMutability": "nonpayable",
      "type": "function"
    },
    {
      "inputs": [],
      "name": "getAllTokens",
      "outputs": [
        {
          "internalType": "address[]",
          "name": "",
          "type": "address[]"
        }
      ],
      "stateMutability": "view",
      "type": "function"
    },
    {
      "inputs": [
        {
          "internalType": "address",
          "name": "_token",
          "type": "address"
        }
      ],
      "name": "getMarketCap",
      "outputs": [
        {
          "internalType": "uint256",
          "name": "",
          "type": "uint256"
        }
      ],
      "stateMutability": "view",
      "type": "function"
    },
    {
      "inputs": [],
      "name": "getPendingTokens",
      "outputs": [
        {
          "internalType": "address[]",
          "name": "",
          "type": "address[]"
        }
      ],
      "stateMutability": "view",
      "type": "function"
    },
    {
      "inputs": [
        {
          "internalType": "address",
          "name": "_token",
          "type": "address"
        }
      ],
      "name": "getTokenPrice",
      "outputs": [
        {
          "internalType": "uint256",
          "name": "",
          "type": "uint256"
        }
      ],
      "stateMutability": "view",
      "type": "function"
    },
    {
      "inputs": [],
      "name": "owner",
      "outputs": [
        {
          "internalType": "address",
          "name": "",
          "type": "address"
        }
      ],
      "stateMutability": "view",
      "type": "function"
    },
    {
      "inputs": [
        {
          "internalType": "address",
          "name": "",
          "type": "address"
        }
      ],
      "name": "pendingTokens",
      "outputs": [
        {
          "internalType": "string",
          "name": "name",
          "type": "string"
        },
        {
          "internalType": "string",
          "name": "symbol",
          "type": "string"
        },
        {
          "internalType": "address",
          "name": "creator",
          "type": "address"
        },
        {
          "internalType": "uint256",
          "name": "createdAt",
          "type": "uint256"
        }
      ],
      "stateMutability": "view",
      "type": "function"
    },
    {
      "inputs": [
        {
          "internalType": "uint256",
          "name": "",
          "type": "uint256"
        }
      ],
      "name": "pendingTokensList",
      "outputs": [
        {
          "internalType": "address",
          "name": "",
          "type": "address"
        }
      ],
      "stateMutability": "view",
      "type": "function"
    },
    {
      "inputs": [],
      "name": "renounceOwnership",
      "outputs": [],
      "stateMutability": "nonpayable",
      "type": "function"
    },
    {
      "inputs": [
        {
          "internalType": "address",
          "name": "_token",
          "type": "address"
        },
        {
          "internalType": "uint256",
          "name": "_amount",
          "type": "uint256"
        }
      ],
      "name": "sellTokens",
      "outputs": [],
      "stateMutability": "nonpayable",
      "type": "function"
    },
    {
      "inputs": [
        {
          "internalType": "address",
          "name": "",
          "type": "address"
        }
      ],
      "name": "tokenInfo",
      "outputs": [
        {
          "internalType": "address",
          "name": "tokenAddress",
          "type": "address"
        },
        {
          "internalType": "address",
          "name": "creator",
          "type": "address"
        },
        {
          "internalType": "uint256",
          "name": "virtualEthReserve",
          "type": "uint256"
        },
        {
          "internalType": "uint256",
          "name": "virtualTokenReserve",
          "type": "uint256"
        },
        {
          "internalType": "uint256",
          "name": "realEthReserve",
          "type": "uint256"
        },
        {
          "internalType": "uint256",
          "name": "realTokenReserve",
          "type": "uint256"
        },
        {
          "internalType": "uint256",
          "name": "creatorEarnings",
          "type": "uint256"
        },
        {
          "internalType": "bool",
          "name": "firstBuyCompleted",
          "type": "bool"
        },
        {
          "internalType": "bool",
          "name": "graduated",
          "type": "bool"
        },
        {
          "internalType": "uint256",
          "name": "createdAt",
          "type": "uint256"
        }
      ],
      "stateMutability": "view",
      "type": "function"
    },
    {
      "inputs": [],
      "name": "totalPlatformFees",
      "outputs": [
        {
          "internalType": "uint256",
          "name": "",
          "type": "uint256"
        }
      ],
      "stateMutability": "view",
      "type": "function"
    },
    {
      "inputs": [
        {
          "internalType": "address",
          "name": "newOwner",
          "type": "address"
        }
      ],
      "name": "transferOwnership",
      "outputs": [],
      "stateMutability": "nonpayable",
      "type": "function"
    },
    {
      "inputs": [],
      "name": "withdrawPlatformFees",
      "outputs": [],
      "stateMutability": "nonpayable",
      "type": "function"
    }
  ],
  "bytecode": "0x6080806040523461007e5733156100685760008054336001600160a01b03198216811783556040519290916001600160a01b0316907f8be0079c531659141344cd1fd0a4f28419497f9722a3daafe3b4186f6b6457e09080a360018055612ad590816100848239f35b631e4fbdf760e01b815260006004820152602490fd5b600080fdfe60806040908082526004803610156200001757600080fd5b600091823560e01c9081632a5c792a14620014d8575080633328b83c14620014365780633e7a97f4146200140e57806340c900b614620013e957806345b18f2514620013c35780634a38a458146200101057806351bd05881462000fe7578063634282af1462000f8d578063689945f21462000f685780636c89d88d1462000f0d578063715018a61462000eaf5780638da5cb5b1462000e85578063902d55a51462000e5c5780639bf635791462000e33578063a487fa031462000e15578063b56b89311462000d79578063c03134f1146200087b578063c031a66f14620007e5578063c464fe65146200051b578063d02641a014620004ef578063d0b7830b1462000494578063d146d31d1462000461578063d3631fa51462000440578063d6badc951462000422578063dd4d7bf71462000404578063e1a4521814620003e5578063eab9096b14620003c1578063ec8ac4d814620002d1578063f2fde38b146200023e5763f5dab711146200018d57600080fd5b346200023a5760203660031901126200023a57610140926001600160a01b039260ff9190819085620001be620015a2565b1681526002602052209084825416946001830154169360028301549060038401549084015490600585015492600686015494600860078801549701549881519a8b5260208b01528901526060880152608087015260a086015260c0850152818116151560e085015260081c161515610100830152610120820152f35b5080fd5b50829034620002cd576020366003190112620002cd576200025e620015a2565b9062000269620017c9565b6001600160a01b03918216928315620002b757505082546001600160a01b0319811683178455167f8be0079c531659141344cd1fd0a4f28419497f9722a3daafe3b4186f6b6457e08380a380f35b51631e4fbdf760e01b8152908101849052602490fd5b8280fd5b5082906020366003190112620002cd57620002eb620015a2565b91620002f6620018e3565b6001600160a01b038381168552600260205281852080546007926200031e911615156200180f565b015460ff811615620003895760ff6200033c9160081c161562001907565b341562000358578362000351333486620019bf565b6001805580f35b906020606492519162461bcd60e51b8352820152600b60248201526a139bc8115512081cd95b9d60aa1b6044820152fd5b815162461bcd60e51b81526020818501526012602482015271557365206275794669727374546f6b656e7360701b6044820152606490fd5b8284346200023a57816003193601126200023a57602090516611c37937e080008152f35b8284346200023a57816003193601126200023a57602090516127108152f35b8284346200023a57816003193601126200023a576020905160648152f35b8284346200023a57816003193601126200023a576020905160288152f35b8284346200023a57816003193601126200023a576020906006549051908152f35b8284346200023a5760203660031901126200023a576020906200048d62000487620015a2565b62001da5565b9051908152f35b8284346200023a57816003193601126200023a57620004b2620017c9565b818080806006548160065560018060a01b03825416828215620004e5575bf115620004db575080f35b51903d90823e3d90fd5b506108fc620004d0565b8284346200023a5760203660031901126200023a576020906200048d62000515620015a2565b62001cb8565b508234620002cd5780600319360112620002cd5762000539620015a2565b906024359062000548620018e3565b60018060a01b038093169283865260209460028652620005708388209283541615156200180f565b6200058660ff600784015460081c161562001907565b8315620007b15782516323b872dd60e01b815233828201523060248201526044810185905286816064818b8a5af18015620007a75762000773575b50600282015481830180549362000635620005dd8685620018d5565b936200062f87620006286003860154620006218d6200061b60058a019b620006148d54916200060d8388620018d5565b906200184e565b94620018d5565b620018d5565b9062001946565b92620018d5565b620018c7565b946200064e8615918215908162000767575b5062001967565b606486029086820460641417156200075457612710900490620006728287620018c7565b94603c830290838204603c1484151715620007415750938b959193869593620006c260068897620006b6620006ad60648b9a048096620018c7565b948354620018d5565b825501918254620018d5565b9055620006d1888254620018c7565b9055620006e0898254620018d5565b905581811562000737575b3390f1156200072d578151948686528501528301527f7de7ccb0d6b12f41c11600a18be80c156137bfb216a4cb7cc95d7aeb261233d460603393a36001805580f35b81513d87823e3d90fd5b506108fc620006eb565b634e487b7160e01b8d526011905260248cfd5b634e487b7160e01b8b526011855260248bfd5b90508711158d62000647565b6200079790873d89116200079f575b6200078e81836200160f565b810190620019a5565b5087620005c1565b503d62000782565b84513d8a823e3d90fd5b825162461bcd60e51b8152908101869052600e60248201526d125b9d985b1a5908185b5bdd5b9d60921b6044820152606490fd5b8284346200023a5760203660031901126200023a576200085f916001600160a01b03919081908362000816620015a2565b168152600360205220916200082b83620016cb565b926200086e60036200084060018401620016cb565b93600284015416920154928451968796608088526080880190620017a2565b908682036020880152620017a2565b9284015260608301520390f35b5091346200023a57806003193601126200023a5767ffffffffffffffff9183358381116200023a57620008b2903690860162001632565b6024803585811162000d7557620008cd903690880162001632565b928251801515908162000d68575b501562000d37578351801515908162000d2a575b501562000cf7578451916020978884019362000952605482898d6200093381620009208d8d8151938492016200177d565b840191835193818592850191016200177d565b018d3360601b908201524260348201520360348101845201826200160f565b60018060a01b03948591519020169788845260038a5284600289862001541662000cc55787518a95949392916200098982620015be565b8782528a878301968a885260038c850199338b5260608601934285528952528b8720935197885184811162000cb3578f8190620009c788546200168e565b9b8b601f9d8e8481831162000c82575b50505050818d841160011462000c1757508b9262000c0b575b50508160011b916000199060031b1c19161785555b5192835190811162000bf9578e906001998a87019262000a2684546200168e565b82811162000bbe575b508091831160011462000b55575081906003968b9262000b49575b505060001982871b1c1916908a1b1790555b60028401985116976bffffffffffffffffffffffff60a01b98898254161790555191015560055493600160401b85101562000b375784018060055584101562000b26575050927f8958e1cb8de57d02747d1101987c4ef6abfb4ded33a4164b9cea8a249edfa68c928762000b0e9360058297527f036b6384b5eca791c62761152d0c79bb0604c104a5fb6f4eb0703f3154bb3db0019182541617905562000b1d865192839288845288840190620017a2565b8281038a8401523396620017a2565b0390a351908152f35b634e487b7160e01b83526032905281fd5b50634e487b7160e01b83526041905281fd5b01519050388062000a4a565b8b9291601f198316858d52828d20928d905b82821062000ba457505097836003991062000b8b575b505050811b01905562000a5c565b015160001983891b60f8161c1916905538808062000b7d565b838b015185558f9690940193928301929081019062000b67565b62000be890858d52828d208480870160051c82019285881062000bef575b0160051c0190620017f6565b3862000a2f565b9250819262000bdc565b634e487b7160e01b8852604186528688fd5b015190503880620009f0565b898d52808d209350601f198516908d905b82821062000c6957505090846001959493921062000c4f575b505050811b01855562000a05565b015160001960f88460031b161c1916905538808062000c41565b8060018697829497870151815501960194019062000c28565b838d62000ca99552209080870160051c82019286881062000bef570160051c0190620017f6565b8b388e84620009d7565b634e487b7160e01b8952604187528789fd5b50600e6064928a89519362461bcd60e51b85528401528201526d416c72656164792065786973747360901b6044820152fd5b845162461bcd60e51b8152602081890152600e818401526d125b9d985b1a59081cde5b589bdb60921b6044820152606490fd5b60089150111538620008ef565b845162461bcd60e51b8152602081890152600c818401526b496e76616c6964206e616d6560a01b6044820152606490fd5b60209150111538620008db565b8380fd5b50503462000e12578060031936011262000e12578151918291600554808552602080950194600583527f036b6384b5eca791c62761152d0c79bb0604c104a5fb6f4eb0703f3154bb3db092905b82821062000df15762000ded868662000de2828b03836200160f565b51918291826200155c565b0390f35b83546001600160a01b03168752958601956001938401939091019062000dc6565b80fd5b8284346200023a57816003193601126200023a5760209051603c8152f35b8284346200023a57816003193601126200023a57602090516b0295be96e6406697200000008152f35b8284346200023a57816003193601126200023a57602090516b033b2e3c9fd0803ce80000008152f35b8284346200023a57816003193601126200023a57905490516001600160a01b039091168152602090f35b823462000e12578060031936011262000e125762000ecc620017c9565b80546001600160a01b03198116825581906001600160a01b03167f8be0079c531659141344cd1fd0a4f28419497f9722a3daafe3b4186f6b6457e08280a380f35b50829034620002cd576020366003190112620002cd5735600554811015620002cd5760056020935260018060a01b03907f036b6384b5eca791c62761152d0c79bb0604c104a5fb6f4eb0703f3154bb3db00154169051908152f35b8284346200023a57816003193601126200023a5760209051678ac7230489e800008152f35b50829034620002cd576020366003190112620002cd57803590805482101562000d75576020935260018060a01b03907f8a35acfbc15ff81a39ae7d344fd709f28e8600b4aa8c65c6b64bfe7fe36bd19b0154169051908152f35b8284346200023a57816003193601126200023a57602090516b037790968dc8efffd10000008152f35b50826020918260031936011262000d75576200102b620015a2565b9362001036620018e3565b6001600160a01b039485168082526003855283822084519196916200105b81620015be565b6200106682620016cb565b815260019462001078868401620016cb565b888301908152620010a18560028601541660038a8601968288520154606086015215156200180f565b6611c37937e08000928334106200138957519051908585511690895192610bc6918285019285841067ffffffffffffffff851117620013765785949392620010ff8f92936200110d9462001eda893960a0865260a0860190620017a2565b9184830390850152620017a2565b916b033b2e3c9fd0803ce80000008c8301526060820152608030910152039086f09889156200136c5786858a82828c9d9e169b8c928b858b51169280519687946200115886620015f1565b878652848601908152828601906801a055690d9db80000825260608701926b037790968dc8efffd1000000845280608089019587875260a08a01976b0295be96e640669720000000895260c08b0199818b5260e08c019c8d526101008c019b828d52610120019d8e429052825260029052209b51169b6bffffffffffffffffffffffff60a01b9c8d8d5416178c558b019151168b825416179055516002890155516003880155518987015551600586015551600685015560078401915115159082549051151560081b61ff00169160ff169061ffff1916171790555190600801558254600160401b8110156200135957888101808555811015620013465789907f8a35acfbc15ff81a39ae7d344fd709f28e8600b4aa8c65c6b64bfe7fe36bd19b0191825416179055855260038952846003898220620012988162001878565b620012a589820162001878565b82600282015501556611c37937e07fff1934013481116200133357806200131e575b506006549182018092116200130b57506006555116935193837f3a2480ce53a8c9229556c140c60039b8c13bce2009773b802a638deec98eae1f339380a480558152f35b634e487b7160e01b855260119052602484fd5b6200132c90339089620019bf565b89620012c7565b634e487b7160e01b865260118252602486fd5b634e487b7160e01b885260328452602488fd5b634e487b7160e01b885260418452602488fd5b87513d87823e3d90fd5b634e487b7160e01b8b526041875260248bfd5b885162461bcd60e51b81528084018b90526014602482015273125b9cdd59999a58da595b9d081c185e5b595b9d60621b6044820152606490fd5b8284346200023a57816003193601126200023a57602090516801a055690d9db800008152f35b8284346200023a57816003193601126200023a576020905167016345785d8a00008152f35b8284346200023a57816003193601126200023a57602090516aa56fa5b99019a5c80000008152f35b50829034620002cd576020366003190112620002cd576001600160a01b03908162001460620015a2565b1684526002602052828420916001830154163303620014a75750828080600681940181815491558181156200149d575b3390f115620004db575080f35b506108fc62001490565b606490602084519162461bcd60e51b8352820152600b60248201526a2737ba1031b932b0ba37b960a91b6044820152fd5b905083833462000e12578060031936011262000e1257835480845260208085019583527f8a35acfbc15ff81a39ae7d344fd709f28e8600b4aa8c65c6b64bfe7fe36bd19b92905b8282106200153b5762000ded868662000de2828b03836200160f565b83546001600160a01b0316875295860195600193840193909101906200151f565b6020908160408183019282815285518094520193019160005b82811062001584575050505090565b83516001600160a01b03168552938101939281019260010162001575565b600435906001600160a01b0382168203620015b957565b600080fd5b6080810190811067ffffffffffffffff821117620015db57604052565b634e487b7160e01b600052604160045260246000fd5b610140810190811067ffffffffffffffff821117620015db57604052565b90601f8019910116810190811067ffffffffffffffff821117620015db57604052565b81601f82011215620015b95780359067ffffffffffffffff8211620015db57604051926200166b601f8401601f1916602001856200160f565b82845260208383010111620015b957816000926020809301838601378301015290565b90600182811c92168015620016c0575b6020831014620016aa57565b634e487b7160e01b600052602260045260246000fd5b91607f16916200169e565b9060405191826000825492620016e1846200168e565b90818452600194858116908160001462001758575060011462001711575b50506200170f925003836200160f565b565b9093915060005260209081600020936000915b8183106200173f5750506200170f93508201013880620016ff565b8554888401850152948501948794509183019162001724565b9150506200170f94506020925060ff191682840152151560051b8201013880620016ff565b60005b838110620017915750506000910152565b818101518382015260200162001780565b90602091620017bd815180928185528580860191016200177d565b601f01601f1916010190565b6000546001600160a01b03163303620017de57565b60405163118cdaa760e01b8152336004820152602490fd5b81811062001802575050565b60008155600101620017f6565b156200181757565b60405162461bcd60e51b815260206004820152600f60248201526e151bdad95b881b9bdd08199bdd5b99608a1b6044820152606490fd5b818102929181159184041417156200186257565b634e487b7160e01b600052601160045260246000fd5b6200188481546200168e565b90816200188f575050565b81601f60009311600114620018a2575055565b908083918252620018c3601f60208420940160051c840160018501620017f6565b5555565b919082039182116200186257565b919082018092116200186257565b600260015414620018f5576002600155565b604051633ee5aeb560e01b8152600490fd5b156200190f57565b60405162461bcd60e51b815260206004820152600f60248201526e151bdad95b8819dc98591d585d1959608a1b6044820152606490fd5b811562001951570490565b634e487b7160e01b600052601260045260246000fd5b156200196f57565b60405162461bcd60e51b815260206004820152600e60248201526d125b9d985b1a59081bdd5d1c1d5d60921b6044820152606490fd5b90816020910312620015b957518015158103620015b95790565b929160018060a01b038094169160008381526020916002835260409384832091606481028181046064148215171562001ca457612710900462001a038183620018c7565b90603c8102818104603c148215171562001c90579060648a94939204908162001a2c91620018c7565b906006549062001a3c91620018d5565b600655600686019081549062001a5291620018d5565b905585878c6002880154936004890197885462001a708188620018d5565b9060038c01549160058d0192828685549b8c9462001a8f8686620018d5565b62001a9a916200184e565b9262001aa691620018d5565b9062001ab291620018d5565b62001abd9162001946565b9162001ac991620018d5565b9062001ad591620018c7565b809881151560449662001b01948262001af99362001c85575b6200061b9062001967565b8d55620018c7565b90558c51948593849263a9059cbb60e01b845216988960048401528760248401525af1801562001c7b57678ac7230489e800009594938b937f7de7ccb0d6b12f41c11600a18be80c156137bfb216a4cb7cc95d7aeb261233d49360609362001c59575b508b5191600183528b8301528b820152a3541015908162001c45575b5062001b8f575b505050509050565b83815260028252828120956007870161010061ff00198254161790556001870167016345785d8a00009280808080878787541682f11562001c3a5750857f1669614928af055cd5932e43424383a863eb888f3e3a9f80f443162171c568b6868a600560047fec268b0052b4da9628a897f94d4984e93917aeaea4bb66abe13a742f25f39c8b9a9b9c9d0154910154825191825288820152a254169351908152a3803880808062001b87565b8551903d90823e3d90fd5b60ff91506007015460081c16153862001b80565b62001c73908c8d3d106200079f576200078e81836200160f565b503862001b64565b89513d89823e3d90fd5b508385111562001aee565b634e487b7160e01b87526011600452602487fd5b634e487b7160e01b85526011600452602485fd5b60018060a01b03809116600052600260205260406000206040519062001cde82620015f1565b82815416928383526001820154166020830152600281015480604084015260038201549360608401948552600483015493846080820152610120600860058601549560a08401968752600681015460c085015260ff6007820154818116151560e0870152831c16151561010085015201549101521562001d9c5762001d739262001d6891620018d5565b9251905190620018d5565b670de0b6b3a764000091828102928184041490151715620018625762001d999162001946565b90565b50505050600090565b6001600160a01b03908116600090815260026020526040808220905162001dcc81620015f1565b83825416938482526001830154166020820152600282015480604083015260038301549460608301958652600484015492836080820152610120600860058701549660a08401978852600681015460c085015260ff6007820154818116151560e0870152831c16151561010085015201549101521562001ed1579062001e5291620018d5565b90670de0b6b3a7640000938483029280840486149015171562001ebd5762001e849291620006219151905190620018d5565b906b033b2e3c9fd0803ce80000009182810292818404149015171562001ea957500490565b634e487b7160e01b81526011600452602490fd5b634e487b7160e01b84526011600452602484fd5b50505090509056fe604060c0815234620003df5762000bc6803803806200001e81620003e4565b928339810160a082820312620003df5781516001600160401b0390818111620003df57826200004f9185016200040a565b906020928385015190828211620003df576200006d9186016200040a565b9385810151926200008f608062000087606085016200047c565b93016200047c565b928151818111620002df576003908154906001948583811c93168015620003d4575b8a841014620003be578190601f9384811162000368575b508a908483116001146200030157600092620002f5575b505060001982851b1c191690851b1782555b8851928311620002df5760049889548581811c91168015620002d4575b8a821014620002bf5782811162000274575b50889184116001146200020957938394918492600095620001fd575b50501b92600019911b1c19161785555b6080524260a0526001600160a01b0316928315620001e65760025490828201809211620001d1575060025560008381528083528481208054830190558451918252917fddf252ad1be2c89b69c2b068fc378daa952ba7f163c4a11628f55a4df523b3ef91a351610734908162000492823960805181610577015260a051816101000152f35b601190634e487b7160e01b6000525260246000fd5b602490600086519163ec442f0560e01b8352820152fd5b0151935038806200013c565b9190601f198416928a600052848a6000209460005b8c898383106200025c575050501062000241575b50505050811b0185556200014c565b01519060f884600019921b161c191690553880808062000232565b8686015189559097019694850194889350016200021e565b8a600052896000208380870160051c8201928c8810620002b5575b0160051c019086905b828110620002a857505062000120565b6000815501869062000298565b925081926200028f565b60228b634e487b7160e01b6000525260246000fd5b90607f16906200010e565b634e487b7160e01b600052604160045260246000fd5b015190503880620000df565b60008681528c8120899550929190601f198516908e5b82821062000350575050841162000337575b505050811b018255620000f1565b015160001983871b60f8161c1916905538808062000329565b8385015186558b979095019493840193018e62000317565b909150846000528a6000208480850160051c8201928d8610620003b4575b918991869594930160051c01915b828110620003a4575050620000c8565b6000815585945089910162000394565b9250819262000386565b634e487b7160e01b600052602260045260246000fd5b92607f1692620000b1565b600080fd5b6040519190601f01601f191682016001600160401b03811183821017620002df57604052565b919080601f84011215620003df5782516001600160401b038111620002df5760209062000440601f8201601f19168301620003e4565b92818452828287010111620003df5760005b8181106200046857508260009394955001015290565b858101830151848201840152820162000452565b51906001600160a01b0382168203620003df5756fe608060408181526004918236101561001657600080fd5b600092833560e01c91826302d05d3f146105635750816306fdde0314610489578163095ea7b3146103db57816318160ddd146103bc57816323b872dd146102c5578163313ce567146102a957816370a082311461027257816395d89b411461015357508063a9059cbb14610123578063cf09e0d0146100e95763dd62ed3e1461009e57600080fd5b346100e557806003193601126100e557806020926100ba6105ef565b6100c261060a565b6001600160a01b0391821683526001865283832091168252845220549051908152f35b5080fd5b50346100e557816003193601126100e557602090517f00000000000000000000000000000000000000000000000000000000000000008152f35b50346100e557806003193601126100e55760209061014c6101426105ef565b6024359033610620565b5160018152f35b8383346100e557816003193601126100e557805190828454600181811c90808316928315610268575b60209384841081146102555783885290811561023957506001146101e4575b505050829003601f01601f191682019267ffffffffffffffff8411838510176101d157508291826101cd9252826105a6565b0390f35b634e487b7160e01b815260418552602490fd5b8787529192508591837f8a35acfbc15ff81a39ae7d344fd709f28e8600b4aa8c65c6b64bfe7fe36bd19b5b838510610225575050505083010185808061019b565b80548886018301529301928490820161020f565b60ff1916878501525050151560051b840101905085808061019b565b634e487b7160e01b895260228a52602489fd5b91607f169161017c565b5050346100e55760203660031901126100e55760209181906001600160a01b0361029a6105ef565b16815280845220549051908152f35b5050346100e557816003193601126100e5576020905160128152f35b905082346103b95760603660031901126103b9576102e16105ef565b6102e961060a565b916044359360018060a01b038316808352600160205286832033845260205286832054916000198310610325575b60208861014c898989610620565b86831061038d57811561037657331561035f5750825260016020908152868320338452815291869020908590039055829061014c87610317565b8751634a1406b160e11b8152908101849052602490fd5b875163e602df0560e01b8152908101849052602490fd5b8751637dc7a0d960e11b8152339181019182526020820193909352604081018790528291506060010390fd5b80fd5b5050346100e557816003193601126100e5576020906002549051908152f35b9050346104855781600319360112610485576103f56105ef565b60243590331561046e576001600160a01b031691821561045757508083602095338152600187528181208582528752205582519081527f8c5be1e5ebec7d5bd14f71427d1e84f3dd0314c0f7b2291e5b200ac8c7c3b925843392a35160018152f35b8351634a1406b160e11b8152908101859052602490fd5b835163e602df0560e01b8152808401869052602490fd5b8280fd5b8383346100e557816003193601126100e55780519082600354600181811c90808316928315610559575b602093848410811461025557838852908115610239575060011461050357505050829003601f01601f191682019267ffffffffffffffff8411838510176101d157508291826101cd9252826105a6565b600387529192508591837fc2575a0e9e593c00f959f8c92f12db2869c3395a3b0502d05e2516446f71f85b5b838510610545575050505083010185808061019b565b80548886018301529301928490820161052f565b91607f16916104b3565b8490346100e557816003193601126100e5577f00000000000000000000000000000000000000000000000000000000000000006001600160a01b03168152602090f35b6020808252825181830181905290939260005b8281106105db57505060409293506000838284010152601f8019910116010190565b8181018601518482016040015285016105b9565b600435906001600160a01b038216820361060557565b600080fd5b602435906001600160a01b038216820361060557565b916001600160a01b038084169283156106e557169283156106cc576000908382528160205260408220549083821061069a575091604082827fddf252ad1be2c89b69c2b068fc378daa952ba7f163c4a11628f55a4df523b3ef958760209652828652038282205586815220818154019055604051908152a3565b60405163391434e360e21b81526001600160a01b03919091166004820152602481019190915260448101839052606490fd5b60405163ec442f0560e01b815260006004820152602490fd5b604051634b637e8f60e11b815260006004820152602490fdfea264697066735822122012a0eb8cab538279f27a3cdead06f9bc344f8f33bb4ad832e880bcac4cc16f0564736f6c63430008140033a2646970667358221220d14f333c9d43b7e09a72eca8913894e2c91d71d4d23f1bd93ab5f3604116fe3f64736f6c63430008140033",
  "linkReferences": {},
  "deployedLinkReferences": {}
}