{"contracts/DevBondingCurveV2.sol":{"DevBondingCurveV2":{"abi":[{"inputs":[{"internalType":"address","name":"owner","type":"address"}],"name":"OwnableInvalidOwner","type":"error"},{"inputs":[{"internalType":"address","name":"account","type":"address"}],"name":"OwnableUnauthorizedAccount","type":"error"},{"inputs":[],"name":"ReentrancyGuardReentrantCall","type":"error"},{"anonymous":false,"inputs":[{"indexed":false,"internalType":"uint256","name":"platformFeeBps","type":"uint256"},{"indexed":false,"internalType":"uint256","name":"creatorFeeBps","type":"uint256"}],"name":"FeesUpdated","type":"event"},{"anonymous":false,"inputs":[{"indexed":true,"internalType":"address","name":"previousOwner","type":"address"},{"indexed":true,"internalType":"address","name":"newOwner","type":"address"}],"name":"OwnershipTransferred","type":"event"},{"anonymous":false,"inputs":[{"indexed":true,"internalType":"address","name":"token","type":"address"},{"indexed":true,"internalType":"address","name":"creator","type":"address"},{"indexed":false,"internalType":"string","name":"name","type":"string"},{"indexed":false,"internalType":"string","name":"symbol","type":"string"},{"indexed":false,"internalType":"uint256","name":"timestamp","type":"uint256"},{"indexed":false,"internalType":"uint256","name":"devBuyAmount","type":"uint256"}],"name":"TokenCreated","type":"event"},{"anonymous":false,"inputs":[{"indexed":true,"internalType":"address","name":"token","type":"address"},{"indexed":false,"internalType":"uint256","name":"ethReserve","type":"uint256"},{"indexed":false,"internalType":"uint256","name":"tokenReserve","type":"uint256"},{"indexed":false,"internalType":"uint256","name":"totalVolume","type":"uint256"}],"name":"TokenGraduated","type":"event"},{"anonymous":false,"inputs":[{"indexed":true,"internalType":"address","name":"token","type":"address"},{"indexed":true,"internalType":"address","name":"trader","type":"address"},{"indexed":false,"internalType":"bool","name":"isBuy","type":"bool"},{"indexed":false,"internalType":"uint256","name":"ethAmount","type":"uint256"},{"indexed":false,"internalType":"uint256","name":"tokenAmount","type":"uint256"},{"indexed":false,"internalType":"uint256","name":"newPrice","type":"uint256"},{"indexed":false,"internalType":"uint256","name":"platformFee","type":"uint256"},{"indexed":false,"internalType":"uint256","name":"creatorFee","type":"uint256"}],"name":"TokenTraded","type":"event"},{"inputs":[],"name":"BONDING_SUPPLY","outputs":[{"internalType":"uint256","name":"","type":"uint256"}],"stateMutability":"view","type":"function"},{"inputs":[],"name":"BPS_DENOMINATOR","outputs":[{"internalType":"uint256","name":"","type":"uint256"}],"stateMutability":"view","type":"function"},{"inputs":[],"name":"CREATION_FEE","outputs":[{"internalType":"uint256","name":"","type":"uint256"}],"stateMutability":"view","type":"function"},{"inputs":[],"name":"DEX_RESERVE","outputs":[{"internalType":"uint256","name":"","type":"uint256"}],"stateMutability":"view","type":"function"},{"inputs":[],"name":"GRADUATION_THRESHOLD","outputs":[{"internalType":"uint256","name":"","type":"uint256"}],"stateMutability":"view","type":"function"},{"inputs":[],"name":"MAX_DEV_BUY","outputs":[{"internalType":"uint256","name":"","type":"uint256"}],"stateMutability":"view","type":"function"},{"inputs":[],"name":"TOTAL_SUPPLY","outputs":[{"internalType":"uint256","name":"","type":"uint256"}],"stateMutability":"view","type":"function"},{"inputs":[],"name":"VIRTUAL_ETH_RESERVE","outputs":[{"internalType":"uint256","name":"","type":"uint256"}],"stateMutability":"view","type":"function"},{"inputs":[],"name":"VIRTUAL_TOKEN_RESERVE","outputs":[{"internalType":"uint256","name":"","type":"uint256"}],"stateMutability":"view","type":"function"},{"inputs":[{"internalType":"uint256","name":"","type":"uint256"}],"name":"allTokens","outputs":[{"internalType":"address","name":"","type":"address"}],"stateMutability":"view","type":"function"},{"inputs":[{"internalType":"address","name":"_token","type":"address"}],"name":"bondingProgress","outputs":[{"internalType":"uint256","name":"","type":"uint256"}],"stateMutability":"view","type":"function"},{"inputs":[{"internalType":"address","name":"_token","type":"address"},{"internalType":"uint256","name":"_minTokensOut","type":"uint256"}],"name":"buyTokens","outputs":[{"internalType":"uint256","name":"","type":"uint256"}],"stateMutability":"payable","type":"function"},{"inputs":[{"internalType":"address","name":"_token","type":"address"},{"internalType":"uint256","name":"_ethAmount","type":"uint256"}],"name":"calculateBuyReturn","outputs":[{"internalType":"uint256","name":"","type":"uint256"}],"stateMutability":"view","type":"function"},{"inputs":[{"internalType":"address","name":"_token","type":"address"}],"name":"calculateMarketCap","outputs":[{"internalType":"uint256","name":"","type":"uint256"}],"stateMutability":"view","type":"function"},{"inputs":[{"internalType":"address","name":"_token","type":"address"},{"internalType":"uint256","name":"_tokenAmount","type":"uint256"}],"name":"calculateSellReturn","outputs":[{"internalType":"uint256","name":"","type":"uint256"}],"stateMutability":"view","type":"function"},{"inputs":[{"internalType":"address","name":"_token","type":"address"}],"name":"claimCreatorFees","outputs":[],"stateMutability":"nonpayable","type":"function"},{"inputs":[{"internalType":"string","name":"_name","type":"string"},{"internalType":"string","name":"_symbol","type":"string"},{"internalType":"string","name":"_description","type":"string"},{"internalType":"string","name":"_imageUrl","type":"string"},{"internalType":"string","name":"_twitter","type":"string"},{"internalType":"string","name":"_telegram","type":"string"},{"internalType":"string","name":"_website","type":"string"},{"internalType":"string","name":"","type":"string"},{"internalType":"uint256","name":"_devBuyAmount","type":"uint256"}],"name":"createToken","outputs":[{"internalType":"address","name":"","type":"address"}],"stateMutability":"payable","type":"function"},{"inputs":[],"name":"creatorFeeBps","outputs":[{"internalType":"uint256","name":"","type":"uint256"}],"stateMutability":"view","type":"function"},{"inputs":[],"name":"getAllTokens","outputs":[{"internalType":"address[]","name":"","type":"address[]"}],"stateMutability":"view","type":"function"},{"inputs":[{"internalType":"address","name":"_token","type":"address"}],"name":"getFullTokenInfo","outputs":[{"internalType":"address","name":"creator","type":"address"},{"internalType":"uint256","name":"virtualEthReserve","type":"uint256"},{"internalType":"uint256","name":"virtualTokenReserve","type":"uint256"},{"internalType":"uint256","name":"realEthReserve","type":"uint256"},{"internalType":"uint256","name":"realTokenReserve","type":"uint256"},{"internalType":"uint256","name":"k","type":"uint256"},{"internalType":"bool","name":"graduated","type":"bool"}],"stateMutability":"view","type":"function"},{"inputs":[],"name":"getTokenCount","outputs":[{"internalType":"uint256","name":"","type":"uint256"}],"stateMutability":"view","type":"function"},{"inputs":[{"internalType":"address","name":"_token","type":"address"}],"name":"getTokenPrice","outputs":[{"internalType":"uint256","name":"","type":"uint256"}],"stateMutability":"view","type":"function"},{"inputs":[{"internalType":"address","name":"","type":"address"}],"name":"isValidToken","outputs":[{"internalType":"bool","name":"","type":"bool"}],"stateMutability":"view","type":"function"},{"inputs":[],"name":"owner","outputs":[{"internalType":"address","name":"","type":"address"}],"stateMutability":"view","type":"function"},{"inputs":[],"name":"platformFeeBps","outputs":[{"internalType":"uint256","name":"","type":"uint256"}],"stateMutability":"view","type":"function"},{"inputs":[],"name":"renounceOwnership","outputs":[],"stateMutability":"nonpayable","type":"function"},{"inputs":[{"internalType":"address","name":"_token","type":"address"},{"internalType":"uint256","name":"_tokenAmount","type":"uint256"},{"internalType":"uint256","name":"_minEthOut","type":"uint256"}],"name":"sellTokens","outputs":[{"internalType":"uint256","name":"","type":"uint256"}],"stateMutability":"nonpayable","type":"function"},{"inputs":[{"internalType":"address","name":"","type":"address"}],"name":"tokenInfo","outputs":[{"internalType":"address","name":"tokenAddress","type":"address"},{"internalType":"address","name":"creator","type":"address"},{"internalType":"uint256","name":"realEthReserve","type":"uint256"},{"internalType":"uint256","name":"realTokenReserve","type":"uint256"},{"internalType":"uint256","name":"k","type":"uint256"},{"internalType":"uint256","name":"dexReserve","type":"uint256"},{"internalType":"uint256","name":"creatorFees","type":"uint256"},{"internalType":"uint256","name":"platformFees","type":"uint256"},{"internalType":"bool","name":"graduated","type":"bool"},{"internalType":"uint256","name":"createdAt","type":"uint256"},{"internalType":"uint256","name":"totalVolume","type":"uint256"},{"internalType":"uint256","name":"tradeCount","type":"uint256"}],"stateMutability":"view","type":"function"},{"inputs":[],"name":"totalPlatformFees","outputs":[{"internalType":"uint256","name":"","type":"uint256"}],"stateMutability":"view","type":"function"},{"inputs":[{"internalType":"address","name":"newOwner","type":"address"}],"name":"transferOwnership","outputs":[],"stateMutability":"nonpayable","type":"function"},{"inputs":[{"internalType":"uint256","name":"_platformFeeBps","type":"uint256"},{"internalType":"uint256","name":"_creatorFeeBps","type":"uint256"}],"name":"updateFees","outputs":[],"stateMutability":"nonpayable","type":"function"},{"inputs":[],"name":"withdrawPlatformFees","outputs":[],"stateMutability":"nonpayable","type":"function"}],"evm":{"bytecode":{"linkReferences":{},"object":"608080604052346100885733156100725760008054336001600160a01b03198216811783556040519290916001600160a01b0316907f8be0079c531659141344cd1fd0a4f28419497f9722a3daafe3b4186f6b6457e09080a360018055606460025560646003556139e5908161008e8239f35b631e4fbdf760e01b815260006004820152602490fd5b600080fdfe608060405260043610156200001357600080fd5b60003560e01c80630752881a146200162c57806317773ebb146200160c5780631c8b271a14620015df57806322dcd13e14620015bf5780632a5c792a14620014ef578063306ba063146200145c57806341344d5d146200143357806348dfd578146200140e57806349a2104d14620013ea578063634282af14620013a35780636db7943714620012f6578063715018a6146200129957806375535f32146200127157806375a8e372146200124457806378a8956714620012245780637e309b9214620011fd5780638d427e2514620011d45780638da5cb5b14620011a9578063902d55a51462001180578063b45d92df1462001157578063c18764531462001114578063cb24a72f14620010ef578063d02641a014620010be578063d0b7830b1462001079578063d3631fa51462001059578063d6ae6e441462000f73578063e1a452181462000f54578063e4e57b9e1462000bdc578063ea1ee599146200031b578063f2fde38b146200028b578063f5dab71114620001c95763fcfc0c09146200019d57600080fd5b34620001c4576000366003190112620001c4576020604051690e9c7f5bd655012000008152f35b600080fd5b34620001c4576020366003190112620001c4576101806001600160a01b0380620001f2620019a4565b1660005260046020526040600020818154169160018201541690600281015460038201546004830154600584015460068501549060078601549260ff60088801541694600988015496600b600a8a0154990154996040519b8c5260208c015260408b015260608a0152608089015260a088015260c087015260e08601521515610100850152610120840152610140830152610160820152f35b34620001c4576020366003190112620001c457620002a8620019a4565b620002b262001a96565b6001600160a01b039081169081156200030257600054826001600160601b0360a01b821617600055167f8be0079c531659141344cd1fd0a4f28419497f9722a3daafe3b4186f6b6457e0600080a3005b604051631e4fbdf760e01b815260006004820152602490fd5b610120366003190112620001c45760043567ffffffffffffffff8111620001c4576200034c90369060040162001a49565b60243567ffffffffffffffff8111620001c4576200036f90369060040162001a49565b9060443567ffffffffffffffff8111620001c4576200039390369060040162001a49565b60643567ffffffffffffffff8111620001c457620003b690369060040162001a49565b9060843567ffffffffffffffff8111620001c457620003da90369060040162001a49565b60a43567ffffffffffffffff8111620001c457620003fd90369060040162001a49565b9260c43567ffffffffffffffff8111620001c4576200042190369060040162001a49565b9060e43567ffffffffffffffff8111620001c4576200044590369060040162001a49565b506200045062001b88565b6101043566038d7ea4c680000166038d7ea4c6800011620008d4576101043566038d7ea4c6800001341062000ba057678ac7230489e80000610104351162000b5b5785511562000b265786511562000aef5760405194856118f881011067ffffffffffffffff6118f888011117620008ea5762000573620005a1946200055c8897620005456200058a96620005188e620005008f6101408f6118f8620020b882396118f801818152019062001ad1565b908d60206118f882018403916118f801015262001ad1565b906b033b2e3c9fd0803ce800000060408d6118f80101526118f88c01820360608d6118f801015262001ad1565b906118f88a01820360806118f88c01015262001ad1565b906118f88801820360a06118f88a01015262001ad1565b906118f88601820360c06118f88801015262001ad1565b906118f88401820360e06118f88601015262001ad1565b336101006118f884010152306101206118f88401015203906000f091821562000ae3576040518061018081011067ffffffffffffffff61018083011117620008ea57610180810160405260018060a01b0384168152336020820152600060408201526b0295be96e64066972000000060608201527223eb0770016ae74c53ff94acc264000000000060808201526aa56fa5b99019a5c800000060a0820152600060c0820152600060e08201526000610100820152426101208201526000610140820152600061016082015260018060a01b0384166000526004602052604060002060018060a01b038251166001600160601b0360a01b8254161781556001810160018060a01b036020840151166001600160601b0360a01b82541617905560408201519081600282015560608301519081600382015560808401519283600483015560a0850151600583015560c0850151600683015560e0850151600783015560088201610100860151151560ff8019835416911617905561012085015160098301556101606101408601519586600a85015501519081600b8401556101043562000900575b50505050505060065468010000000000000000811015620008ea57806001620007749201600655620019bb565b81546001600160a01b0386811660039390931b83811b91901b19909116179091556000908152600560205260409020805460ff1916600117905560075466038d7ea4c68000810191908210620008d457620007f291600755620007e36040519360808552608085019062001ad1565b90838203602085015262001ad1565b42604083015261010435606083015233916001600160a01b038416917fc12630d761ddbf18b9530f31d91e67493535a2b635711bcff59fded8bf381cce919081900390a36101043566038d7ea4c6800001341162000864575b600180556040516001600160a01b039091168152602090f35b66038d7ea4c67fff193401348111620008d457600080806200088c8194610104359062001b45565b335af16200089962001b53565b506200084b5760405162461bcd60e51b815260206004820152600d60248201526c1499599d5b990819985a5b1959609a1b6044820152606490fd5b634e487b7160e01b600052601160045260246000fd5b634e487b7160e01b600052604160045260246000fd5b670de0b6b3a7640000918183018311620008d45769d3c21bcecceda10000008581018111620008d45762000987976200099284886200096b620009a2956200096162000959600b9b620009ad9b61010435910162001ac3565b809e62001bac565b9b8c910162001b45565b9b8c926200097c8385111562001bcd565b610104359062001ac3565b60028a015562001b45565b6003870155610104359062001ac3565b600a85015562001c1a565b91015560405163a9059cbb60e01b81523360048201526024810184905260208160448160006001600160a01b038c165af190811562000ae35760009162000aad575b501562000a705762000a0562000a0b9262001b13565b62001bac565b60405191600183526101043560208401526040830152606082015260006080820152600060a082015233907fb6bfd1e0b5e5317c2be379c71d23b23080c3bf9b072a49298ba82a7a06b6dc5b60c060018060a01b03871692a383808080808062000747565b60405162461bcd60e51b8152602060048201526015602482015274151bdad95b881d1c985b9cd9995c8819985a5b1959605a1b6044820152606490fd5b62000ad4915060203d60201162000adb575b62000acb818362001a09565b81019062001c2a565b87620009ef565b503d62000abf565b6040513d6000823e3d90fd5b60405162461bcd60e51b815260206004820152600f60248201526e14de5b589bdb081c995c5d5a5c9959608a1b6044820152606490fd5b60405162461bcd60e51b815260206004820152600d60248201526c13985b59481c995c5d5a5c9959609a1b6044820152606490fd5b60405162461bcd60e51b815260206004820152601760248201527f446576206275792065786365656473206d6178696d756d0000000000000000006044820152606490fd5b60405162461bcd60e51b8152602060048201526014602482015273125b9cdd59999a58da595b9d081c185e5b595b9d60621b6044820152606490fd5b34620001c4576060366003190112620001c45762000bf9620019a4565b62000c0362001b88565b6001600160a01b03811660009081526005602052604090205462000c2a9060ff1662001c44565b60018060a01b038116600052600460205260406000209062000c5460ff6008840154161562001c81565b6024351562000f1e57600282015490670de0b6b3a7640000828101809111620008d457600384015469d3c21bcecceda1000000908101809111620008d45762000ca1906024359062001ac3565b9362000cbe62000cb686600484015462001bac565b809362001b45565b91612710908162000cd26002548662001b31565b049162000ce26003548662001b31565b049262000cfb8462000cf5858862001b45565b62001b45565b9662000d0c60443589101562001cc0565b851162000ed9576040516323b872dd60e01b8152336004820152306024808301919091523560448201529060208260648160006001600160a01b038c165af191821562000ae357600b9262000d6b9160009162000eb5575b5062001d01565b62000d7b86600283015462001b45565b600282015562000d92602435600383015462001ac3565b60038201556006810162000da886825462001ac3565b90556007810162000dbb85825462001ac3565b9055600a810162000dce87825462001ac3565b90550162000ddd815462001c1a565b905562000ded8260075462001ac3565b600755600080808089335af162000e0362001b53565b501562000e7a5760209662000a0562000e1c9262001b13565b60405193600085528785015260243560408501526060840152608083015260a08201527fb6bfd1e0b5e5317c2be379c71d23b23080c3bf9b072a49298ba82a7a06b6dc5b60c0339360018060a01b031692a360018055604051908152f35b60405162461bcd60e51b8152602060048201526013602482015272115512081d1c985b9cd9995c8819985a5b1959606a1b6044820152606490fd5b62000ed2915060203d60201162000adb5762000acb818362001a09565b8b62000d64565b60405162461bcd60e51b815260206004820152601a60248201527f496e73756666696369656e7420455448206c69717569646974790000000000006044820152606490fd5b60405162461bcd60e51b815260206004820152600e60248201526d125b9d985b1a5908185b5bdd5b9d60921b6044820152606490fd5b34620001c4576000366003190112620001c45760206040516127108152f35b34620001c4576020366003190112620001c45762000f90620019a4565b62000f9a62001b88565b6001600160a01b0390811660009081526004602052604090206001810154909116330362001026576006018054801562000fee576000808080938162000fe89655335af162000d6462001b53565b60018055005b60405162461bcd60e51b815260206004820152601060248201526f4e6f206665657320746f20636c61696d60801b6044820152606490fd5b60405162461bcd60e51b815260206004820152600b60248201526a2737ba1031b932b0ba37b960a91b6044820152606490fd5b34620001c4576000366003190112620001c4576020600754604051908152f35b34620001c4576000366003190112620001c4576200109662001a96565b620010bc60008080806007548160075560018060a01b038254165af162000d6462001b53565b005b34620001c4576020366003190112620001c4576020620010e7620010e1620019a4565b62001d6a565b604051908152f35b34620001c4576000366003190112620001c4576020604051670de0b6b3a76400008152f35b34620001c4576020366003190112620001c4576001600160a01b0362001139620019a4565b166000526005602052602060ff604060002054166040519015158152f35b34620001c4576020366003190112620001c4576020620010e76200117a620019a4565b62002000565b34620001c4576000366003190112620001c45760206040516b033b2e3c9fd0803ce80000008152f35b34620001c4576000366003190112620001c4576000546040516001600160a01b039091168152602090f35b34620001c4576000366003190112620001c45760206040516b0295be96e6406697200000008152f35b34620001c4576000366003190112620001c457602060405169d3c21bcecceda10000008152f35b34620001c4576000366003190112620001c4576020600654604051908152f35b34620001c4576040366003190112620001c4576020620010e762001267620019a4565b6024359062001ded565b34620001c4576000366003190112620001c45760206040516aa56fa5b99019a5c80000008152f35b34620001c4576000366003190112620001c457620012b662001a96565b600080546001600160a01b0319811682556001600160a01b03167f8be0079c531659141344cd1fd0a4f28419497f9722a3daafe3b4186f6b6457e08280a3005b34620001c4576040366003190112620001c4576004356024356200131962001a96565b6103e862001328828462001ac3565b116200136857816040917f5c6323bf1c2d7aaea2c091a4751c1c87af7f2864650c336507a77d0557af37a1936002558060035582519182526020820152a1005b60405162461bcd60e51b81526020600482015260136024820152720a8dee8c2d840cccacae640e8dede40d0d2ced606b1b6044820152606490fd5b34620001c4576020366003190112620001c457600435600654811015620001c457620013d1602091620019bb565b905460405160039290921b1c6001600160a01b03168152f35b34620001c4576000366003190112620001c457602060405166038d7ea4c680008152f35b34620001c4576000366003190112620001c4576020604051678ac7230489e800008152f35b34620001c4576020366003190112620001c4576020620010e762001456620019a4565b62001f56565b34620001c4576020366003190112620001c45760e06001600160a01b038062001484620019a4565b16600052600460205260406000209060018201541690600281015490600381015460ff600860048401549301541692604051948552670de0b6b3a7640000602086015269d3c21bcecceda100000060408601526060850152608084015260a0830152151560c0820152f35b34620001c4576000366003190112620001c457604051806006548083526020809301809160066000527ff652222313e28459528d920b65115c16c04f3efc82aaedc97be59f3f377c0d3f9060005b86828210620015a1578686620015568288038362001a09565b604051928392818401908285525180915260408401929160005b8281106200158057505050500390f35b83516001600160a01b03168552869550938101939281019260010162001570565b83546001600160a01b0316855290930192600192830192016200153d565b34620001c4576000366003190112620001c4576020600254604051908152f35b34620001c4576040366003190112620001c4576020620010e762001602620019a4565b6024359062001ec2565b34620001c4576000366003190112620001c4576020600354604051908152f35b6040366003190112620001c45762001643620019a4565b6200164d62001b88565b60018060a01b031680600052602090600582526200167360ff6040600020541662001c44565b80600052600482526040600020906200169460ff6008840154161562001c81565b341562001974576127109182620016ae6002543462001b31565b0492620016be6003543462001b31565b0490620016d18262000cf5863462001b45565b93600282018054670de0b6b3a76400009381850190818611620008d4576003810180549269d3c21bcecceda100000094848601809611620008d457600b946200171f8d6200176f9462001ac3565b976200176762001740620017388b60048a015462001bac565b809a62001b45565b9e8f946200175360243587101562001cc0565b620017618587111562001bcd565b62001ac3565b905562001b45565b9055600681016200178288825462001ac3565b9055600781016200179586825462001ac3565b9055600a8101620017a834825462001ac3565b905501620017b7815462001c1a565b9055620017c78360075462001ac3565b60075560405163a9059cbb60e01b81523360048201526024810188905291888360448160008b5af190811562000ae3576200181462000a05926200181a9560009162001952575062001d01565b62001b13565b9260405191600183523488840152866040840152846060840152608083015260a0820152837fb6bfd1e0b5e5317c2be379c71d23b23080c3bf9b072a49298ba82a7a06b6dc5b60c03393a36b033b2e3c9fd0803ce800000091828102928184041490151715620008d457690e9c7f5bd6550120000091041015620018a6575b5060018055604051908152f35b8060005260048352604060002060088101805460ff811662001919579160609160017f74ddd6b35eb9921605ec2cb7da4af12cd0020d2117b708ade1d30523471b74419460ff1916179055600281015490600a600582015491015490604051928352878301526040820152a28262001899565b60405162461bcd60e51b8152600481018790526011602482015270105b1c9958591e4819dc98591d585d1959607a1b6044820152606490fd5b6200196d91508c8d3d1062000adb5762000acb818362001a09565b8c62000d64565b60405162461bcd60e51b81526004810184905260086024820152670a6cadcc8408aa8960c31b6044820152606490fd5b600435906001600160a01b0382168203620001c457565b600654811015620019f35760066000527ff652222313e28459528d920b65115c16c04f3efc82aaedc97be59f3f377c0d3f0190600090565b634e487b7160e01b600052603260045260246000fd5b90601f8019910116810190811067ffffffffffffffff821117620008ea57604052565b67ffffffffffffffff8111620008ea57601f01601f191660200190565b81601f82011215620001c45780359062001a638262001a2c565b9262001a73604051948562001a09565b82845260208383010111620001c457816000926020809301838601378301015290565b6000546001600160a01b0316330362001aab57565b60405163118cdaa760e01b8152336004820152602490fd5b91908201809211620008d457565b919082519283825260005b84811062001afe575050826000602080949584010152601f8019910116010190565b60208183018101518483018201520162001adc565b90670de0b6b3a764000091828102928184041490151715620008d457565b81810292918115918404141715620008d457565b91908203918211620008d457565b3d1562001b83573d9062001b678262001a2c565b9162001b77604051938462001a09565b82523d6000602084013e565b606090565b60026001541462001b9a576002600155565b604051633ee5aeb560e01b8152600490fd5b811562001bb7570490565b634e487b7160e01b600052601260045260246000fd5b1562001bd557565b60405162461bcd60e51b815260206004820152601c60248201527f496e73756666696369656e7420746f6b656e206c6971756964697479000000006044820152606490fd5b6000198114620008d45760010190565b90816020910312620001c457518015158103620001c45790565b1562001c4c57565b60405162461bcd60e51b815260206004820152600d60248201526c24b73b30b634b2103a37b5b2b760991b6044820152606490fd5b1562001c8957565b60405162461bcd60e51b815260206004820152600f60248201526e151bdad95b8819dc98591d585d1959608a1b6044820152606490fd5b1562001cc857565b60405162461bcd60e51b815260206004820152601160248201527014db1a5c1c1859d948195e18d959591959607a1b6044820152606490fd5b1562001d0957565b60405162461bcd60e51b815260206004820152600f60248201526e151c985b9cd9995c8819985a5b1959608a1b6044820152606490fd5b90670de0b6b3a764000091828102928184041490151715620008d45762001d679162001bac565b90565b9060009160018060a01b03168252600460205260408220600560205260ff6040842054161562001dea57600281015490670de0b6b3a764000091820180921162001dd657600301549069d3c21bcecceda100000091820180921162001dd65762001d6792935062001d40565b634e487b7160e01b84526011600452602484fd5b50565b9060009160018060a01b0316825260046020526040822090600560205260ff6040842054161562001ebd5762001e4b9062000cf56127108062001e336002548562001b31565b049062001e436003548562001b31565b049262001b45565b6002820154670de0b6b3a764000090810180911162001dd65760038301549369d3c21bcecceda100000094850180951162001ea9575091600462001e9962001ea29362001d67969562001ac3565b91015462001bac565b9062001b45565b634e487b7160e01b81526011600452602490fd5b505090565b9060009160018060a01b0316825260046020526040822090600560205260ff6040842054161562001ebd57600282015492670de0b6b3a764000093840180941162001ea95760038301549069d3c21bcecceda100000091820180921162001ea9575062001f4092600462001e9962001d67969462001ea29462001ac3565b62000cf56127108062001e336002548562001b31565b60009060018060a01b0316815260046020526040812090600560205260ff6040822054161562001ffb57600282015491670de0b6b3a76400009283019081841162001fe757600301549069d3c21bcecceda100000091820180921162001fe7579062001fc29162001d40565b906b033b2e3c9fd0803ce80000009182810292818404149015171562001ea957500490565b634e487b7160e01b83526011600452602483fd5b905090565b6001600160a01b03166000908152600460209081526040808320600590925282205460ff1615620020b357600281015490670de0b6b3a76400009182019081831162001dd657600301549069d3c21bcecceda100000091820180921162001dd657906200206d9162001d40565b6b033b2e3c9fd0803ce80000009081810291818304149015171562001fe757049060648202918083046064149015171562001ea95750690e9c7f5bd65501200000900490565b509056fe604060c081523462000c1757620018f8803803806200001e8162000c1c565b9283398101906101408183031262000c175780516001600160401b03811162000c1757826200004f91830162000c42565b60208201519091906001600160401b03811162000c1757836200007491830162000c42565b8185015160608301519094906001600160401b03811162000c1757816200009d91850162000c42565b60808401516001600160401b03811162000c175782620000bf91860162000c42565b60a08501516001600160401b03811162000c175783620000e191870162000c42565b60c08601519092906001600160401b03811162000c1757846200010691880162000c42565b60e087015190946001600160401b03821162000c17576200012991880162000c42565b9462000148610120620001406101008a0162000cb4565b980162000cb4565b885190986001600160401b038211620005ee5760035490600182811c9216801562000c0c575b6020831014620005cd5781601f84931162000b9a575b50602090601f831160011462000b0b5760009262000aff575b50508160011b916000199060031b1c1916176003555b8051906001600160401b038211620005ee5760045490600182811c9216801562000af4575b6020831014620005cd5781601f84931162000a82575b50602090601f8311600114620009f357600092620009e7575b50508160011b916000199060031b1c1916176004555b8051906001600160401b038211620005ee5760055490600182811c92168015620009dc575b6020831014620005cd5781601f84931162000986575b50602090601f8311600114620008f757600092620008eb575b50508160011b916000199060031b1c1916176005555b8051906001600160401b038211620005ee5760065490600182811c92168015620008e0575b6020831014620005cd5781601f8493116200087c575b50602090601f8311600114620007fe57600092620007f2575b50508160011b916000199060031b1c1916176006555b8051906001600160401b038211620005ee5760075490600182811c92168015620007e7575b6020831014620005cd5781601f84931162000783575b50602090601f83116001146200070557600092620006f9575b50508160011b916000199060031b1c1916176007555b8051906001600160401b038211620005ee5760085490600182811c92168015620006ee575b6020831014620005cd5781601f8493116200068a575b50602090601f8311600114620006105760009262000604575b50508160011b916000199060031b1c1916176008555b8051906001600160401b038211620005ee5760095490600182811c92168015620005e3575b6020831014620005cd5781601f84931162000569575b50602090601f8311600114620004ef57600092620004e3575b50508160011b916000199060031b1c1916176009555b6080524260a0526001600160a01b0316908115620004cb5760025490808201809211620004b55760207fddf252ad1be2c89b69c2b068fc378daa952ba7f163c4a11628f55a4df523b3ef916000936002558484528382528584208181540190558551908152a351610bae908162000cca8239608051816109f1015260a051816101370152f35b634e487b7160e01b600052601160045260246000fd5b825163ec442f0560e01b815260006004820152602490fd5b01519050388062000419565b60096000908152600080516020620018b88339815191529350601f198516905b81811062000550575090846001959493921062000536575b505050811b016009556200042f565b015160001960f88460031b161c1916905538808062000527565b929360206001819287860151815501950193016200050f565b6009600052909150600080516020620018b8833981519152601f840160051c81019160208510620005c2575b90601f859493920160051c01905b818110620005b2575062000400565b60008155849350600101620005a3565b909150819062000595565b634e487b7160e01b600052602260045260246000fd5b91607f1691620003ea565b634e487b7160e01b600052604160045260246000fd5b015190503880620003af565b60086000908152600080516020620018988339815191529350601f198516905b81811062000671575090846001959493921062000657575b505050811b01600855620003c5565b015160001960f88460031b161c1916905538808062000648565b9293602060018192878601518155019501930162000630565b600860005290915060008051602062001898833981519152601f840160051c81019160208510620006e3575b90601f859493920160051c01905b818110620006d3575062000396565b60008155849350600101620006c4565b9091508190620006b6565b91607f169162000380565b01519050388062000345565b6007600090815293506000805160206200187883398151915291905b601f198416851062000767576001945083601f198116106200074d575b505050811b016007556200035b565b015160001960f88460031b161c191690553880806200073e565b8181015183556020948501946001909301929091019062000721565b600760005290915060008051602062001878833981519152601f840160051c81019160208510620007dc575b90601f859493920160051c01905b818110620007cc57506200032c565b60008155849350600101620007bd565b9091508190620007af565b91607f169162000316565b015190503880620002db565b600660009081529350600080516020620018d883398151915291905b601f198416851062000860576001945083601f1981161062000846575b505050811b01600655620002f1565b015160001960f88460031b161c1916905538808062000837565b818101518355602094850194600190930192909101906200081a565b6006600052909150600080516020620018d8833981519152601f840160051c81019160208510620008d5575b90601f859493920160051c01905b818110620008c55750620002c2565b60008155849350600101620008b6565b9091508190620008a8565b91607f1691620002ac565b01519050388062000271565b6005600090815293507f036b6384b5eca791c62761152d0c79bb0604c104a5fb6f4eb0703f3154bb3db091905b601f19841685106200096a576001945083601f1981161062000950575b505050811b0160055562000287565b015160001960f88460031b161c1916905538808062000941565b8181015183556020948501946001909301929091019062000924565b90915060056000526020600020601f840160051c810160208510620009d4575b90849392915b601f830160051c82018110620009c457505062000258565b60008155859450600101620009ac565b5080620009a6565b91607f169162000242565b01519050388062000207565b6004600090815293507f8a35acfbc15ff81a39ae7d344fd709f28e8600b4aa8c65c6b64bfe7fe36bd19b91905b601f198416851062000a66576001945083601f1981161062000a4c575b505050811b016004556200021d565b015160001960f88460031b161c1916905538808062000a3d565b8181015183556020948501946001909301929091019062000a20565b60046000529091507f8a35acfbc15ff81a39ae7d344fd709f28e8600b4aa8c65c6b64bfe7fe36bd19b601f840160051c81016020851062000aec575b90849392915b601f830160051c8201811062000adc575050620001ee565b6000815585945060010162000ac4565b508062000abe565b91607f1691620001d8565b0151905038806200019d565b6003600090815293507fc2575a0e9e593c00f959f8c92f12db2869c3395a3b0502d05e2516446f71f85b91905b601f198416851062000b7e576001945083601f1981161062000b64575b505050811b01600355620001b3565b015160001960f88460031b161c1916905538808062000b55565b8181015183556020948501946001909301929091019062000b38565b60036000529091507fc2575a0e9e593c00f959f8c92f12db2869c3395a3b0502d05e2516446f71f85b601f840160051c81016020851062000c04575b90849392915b601f830160051c8201811062000bf457505062000184565b6000815585945060010162000bdc565b508062000bd6565b91607f16916200016e565b600080fd5b6040519190601f01601f191682016001600160401b03811183821017620005ee57604052565b919080601f8401121562000c175782516001600160401b038111620005ee5760209062000c78601f8201601f1916830162000c1c565b9281845282828701011162000c175760005b81811062000ca057508260009394955001015290565b858101830151848201840152820162000c8a565b51906001600160a01b038216820362000c175756fe608060408181526004918236101561001657600080fd5b600092833560e01c91826302d05d3f146109dd5750816306fdde0314610903578163095ea7b31461085557816318160ddd1461083657816323b872dd1461073f578163313ce5671461072357816347ecb6651461064957816370a08231146106125781637284e4161461053857816395d89b4114610460578163a9059cbb1461042f578163aba8315014610355578163abfaeee01461027b578163beb0a4161461015a57508063cf09e0d0146101205763dd62ed3e146100d557600080fd5b3461011c578060031936011261011c57806020926100f1610a69565b6100f9610a84565b6001600160a01b0391821683526001865283832091168252845220549051908152f35b5080fd5b503461011c578160031936011261011c57602090517f00000000000000000000000000000000000000000000000000000000000000008152f35b83833461011c578160031936011261011c5780519082600954600181811c90808316928315610271575b602093848410811461025e5783885290811561024257506001146101ec575b505050829003601f01601f191682019267ffffffffffffffff8411838510176101d957508291826101d5925282610a20565b0390f35b634e487b7160e01b815260418552602490fd5b600987529192508591837f6e1540171b6c0c960b71a7020d9f60077f6af931a8bbf590da0223dacf75c7af5b83851061022e57505050508301018580806101a3565b805488860183015293019284908201610218565b60ff1916878501525050151560051b84010190508580806101a3565b634e487b7160e01b895260228a52602489fd5b91607f1691610184565b83833461011c578160031936011261011c5780519082600754600181811c9080831692831561034b575b602093848410811461025e5783885290811561024257506001146102f557505050829003601f01601f191682019267ffffffffffffffff8411838510176101d957508291826101d5925282610a20565b600787529192508591837fa66cc928b5edb82af9bd49922954155ab7b0942694bea4ce44661d9a8736c6885b83851061033757505050508301018580806101a3565b805488860183015293019284908201610321565b91607f16916102a5565b83833461011c578160031936011261011c5780519082600554600181811c90808316928315610425575b602093848410811461025e5783885290811561024257506001146103cf57505050829003601f01601f191682019267ffffffffffffffff8411838510176101d957508291826101d5925282610a20565b600587529192508591837f036b6384b5eca791c62761152d0c79bb0604c104a5fb6f4eb0703f3154bb3db05b83851061041157505050508301018580806101a3565b8054888601830152930192849082016103fb565b91607f169161037f565b50503461011c578060031936011261011c5760209061045961044f610a69565b6024359033610a9a565b5160018152f35b83833461011c578160031936011261011c57805190828454600181811c9080831692831561052e575b602093848410811461025e5783885290811561024257506001146104d957505050829003601f01601f191682019267ffffffffffffffff8411838510176101d957508291826101d5925282610a20565b8787529192508591837f8a35acfbc15ff81a39ae7d344fd709f28e8600b4aa8c65c6b64bfe7fe36bd19b5b83851061051a57505050508301018580806101a3565b805488860183015293019284908201610504565b91607f1691610489565b83833461011c578160031936011261011c5780519082600654600181811c90808316928315610608575b602093848410811461025e5783885290811561024257506001146105b257505050829003601f01601f191682019267ffffffffffffffff8411838510176101d957508291826101d5925282610a20565b600687529192508591837ff652222313e28459528d920b65115c16c04f3efc82aaedc97be59f3f377c0d3f5b8385106105f457505050508301018580806101a3565b8054888601830152930192849082016105de565b91607f1691610562565b50503461011c57602036600319011261011c5760209181906001600160a01b0361063a610a69565b16815280845220549051908152f35b83833461011c578160031936011261011c5780519082600854600181811c90808316928315610719575b602093848410811461025e5783885290811561024257506001146106c357505050829003601f01601f191682019267ffffffffffffffff8411838510176101d957508291826101d5925282610a20565b600887529192508591837ff3f7a9fe364faab93b216da50a3214154f22a0a2b415b23a84c8169e8b636ee35b83851061070557505050508301018580806101a3565b8054888601830152930192849082016106ef565b91607f1691610673565b50503461011c578160031936011261011c576020905160128152f35b905082346108335760603660031901126108335761075b610a69565b610763610a84565b916044359360018060a01b03831680835260016020528683203384526020528683205491600019831061079f575b602088610459898989610a9a565b8683106108075781156107f05733156107d95750825260016020908152868320338452815291869020908590039055829061045987610791565b8751634a1406b160e11b8152908101849052602490fd5b875163e602df0560e01b8152908101849052602490fd5b8751637dc7a0d960e11b8152339181019182526020820193909352604081018790528291506060010390fd5b80fd5b50503461011c578160031936011261011c576020906002549051908152f35b9050346108ff57816003193601126108ff5761086f610a69565b6024359033156108e8576001600160a01b03169182156108d157508083602095338152600187528181208582528752205582519081527f8c5be1e5ebec7d5bd14f71427d1e84f3dd0314c0f7b2291e5b200ac8c7c3b925843392a35160018152f35b8351634a1406b160e11b8152908101859052602490fd5b835163e602df0560e01b8152808401869052602490fd5b8280fd5b83833461011c578160031936011261011c5780519082600354600181811c908083169283156109d3575b602093848410811461025e57838852908115610242575060011461097d57505050829003601f01601f191682019267ffffffffffffffff8411838510176101d957508291826101d5925282610a20565b600387529192508591837fc2575a0e9e593c00f959f8c92f12db2869c3395a3b0502d05e2516446f71f85b5b8385106109bf57505050508301018580806101a3565b8054888601830152930192849082016109a9565b91607f169161092d565b84903461011c578160031936011261011c577f00000000000000000000000000000000000000000000000000000000000000006001600160a01b03168152602090f35b6020808252825181830181905290939260005b828110610a5557505060409293506000838284010152601f8019910116010190565b818101860151848201604001528501610a33565b600435906001600160a01b0382168203610a7f57565b600080fd5b602435906001600160a01b0382168203610a7f57565b916001600160a01b03808416928315610b5f5716928315610b465760009083825281602052604082205490838210610b14575091604082827fddf252ad1be2c89b69c2b068fc378daa952ba7f163c4a11628f55a4df523b3ef958760209652828652038282205586815220818154019055604051908152a3565b60405163391434e360e21b81526001600160a01b03919091166004820152602481019190915260448101839052606490fd5b60405163ec442f0560e01b815260006004820152602490fd5b604051634b637e8f60e11b815260006004820152602490fdfea2646970667358221220a2115af599a8f58581dae5b1e223e05290d7a3f02aa840eec7b424727fefa93764736f6c63430008140033a66cc928b5edb82af9bd49922954155ab7b0942694bea4ce44661d9a8736c688f3f7a9fe364faab93b216da50a3214154f22a0a2b415b23a84c8169e8b636ee36e1540171b6c0c960b71a7020d9f60077f6af931a8bbf590da0223dacf75c7aff652222313e28459528d920b65115c16c04f3efc82aaedc97be59f3f377c0d3fa264697066735822122049ddd8a9c1b862d8c00467c2475f77f1506bc3eba500c9c0e9294ee2ee24945664736f6c63430008140033","opcodes":"PUSH1 0x80 DUP1 PUSH1 0x40 MSTORE CALLVALUE PUSH2 0x88 JUMPI CALLER ISZERO PUSH2 0x72 JUMPI PUSH1 0x0 DUP1 SLOAD CALLER PUSH1 0x1 PUSH1 0x1 PUSH1 0xA0 SHL SUB NOT DUP3 AND DUP2 OR DUP4 SSTORE PUSH1 0x40 MLOAD SWAP3 SWAP1 SWAP2 PUSH1 0x1 PUSH1 0x1 PUSH1 0xA0 SHL SUB AND SWAP1 PUSH32 0x8BE0079C531659141344CD1FD0A4F28419497F9722A3DAAFE3B4186F6B6457E0 SWAP1 DUP1 LOG3 PUSH1 0x1 DUP1 SSTORE PUSH1 0x64 PUSH1 0x2 SSTORE PUSH1 0x64 PUSH1 0x3 SSTORE PUSH2 0x39E5 SWAP1 DUP2 PUSH2 0x8E DUP3 CODECOPY RETURN JUMPDEST PUSH4 0x1E4FBDF7 PUSH1 0xE0 SHL DUP2 MSTORE PUSH1 0x0 PUSH1 0x4 DUP3 ADD MSTORE PUSH1 0x24 SWAP1 REVERT JUMPDEST PUSH1 0x0 DUP1 REVERT INVALID PUSH1 0x80 PUSH1 0x40 MSTORE PUSH1 0x4 CALLDATASIZE LT ISZERO PUSH3 0x13 JUMPI PUSH1 0x0 DUP1 REVERT JUMPDEST PUSH1 0x0 CALLDATALOAD PUSH1 0xE0 SHR DUP1 PUSH4 0x752881A EQ PUSH3 0x162C JUMPI DUP1 PUSH4 0x17773EBB EQ PUSH3 0x160C JUMPI DUP1 PUSH4 0x1C8B271A EQ PUSH3 0x15DF JUMPI DUP1 PUSH4 0x22DCD13E EQ PUSH3 0x15BF JUMPI DUP1 PUSH4 0x2A5C792A EQ PUSH3 0x14EF JUMPI DUP1 PUSH4 0x306BA063 EQ PUSH3 0x145C JUMPI DUP1 PUSH4 0x41344D5D EQ PUSH3 0x1433 JUMPI DUP1 PUSH4 0x48DFD578 EQ PUSH3 0x140E JUMPI DUP1 PUSH4 0x49A2104D EQ PUSH3 0x13EA JUMPI DUP1 PUSH4 0x634282AF EQ PUSH3 0x13A3 JUMPI DUP1 PUSH4 0x6DB79437 EQ PUSH3 0x12F6 JUMPI DUP1 PUSH4 0x715018A6 EQ PUSH3 0x1299 JUMPI DUP1 PUSH4 0x75535F32 EQ PUSH3 0x1271 JUMPI DUP1 PUSH4 0x75A8E372 EQ PUSH3 0x1244 JUMPI DUP1 PUSH4 0x78A89567 EQ PUSH3 0x1224 JUMPI DUP1 PUSH4 0x7E309B92 EQ PUSH3 0x11FD JUMPI DUP1 PUSH4 0x8D427E25 EQ PUSH3 0x11D4 JUMPI DUP1 PUSH4 0x8DA5CB5B EQ PUSH3 0x11A9 JUMPI DUP1 PUSH4 0x902D55A5 EQ PUSH3 0x1180 JUMPI DUP1 PUSH4 0xB45D92DF EQ PUSH3 0x1157 JUMPI DUP1 PUSH4 0xC1876453 EQ PUSH3 0x1114 JUMPI DUP1 PUSH4 0xCB24A72F EQ PUSH3 0x10EF JUMPI DUP1 PUSH4 0xD02641A0 EQ PUSH3 0x10BE JUMPI DUP1 PUSH4 0xD0B7830B EQ PUSH3 0x1079 JUMPI DUP1 PUSH4 0xD3631FA5 EQ PUSH3 0x1059 JUMPI DUP1 PUSH4 0xD6AE6E44 EQ PUSH3 0xF73 JUMPI DUP1 PUSH4 0xE1A45218 EQ PUSH3 0xF54 JUMPI DUP1 PUSH4 0xE4E57B9E EQ PUSH3 0xBDC JUMPI DUP1 PUSH4 0xEA1EE599 EQ PUSH3 0x31B JUMPI DUP1 PUSH4 0xF2FDE38B EQ PUSH3 0x28B JUMPI DUP1 PUSH4 0xF5DAB711 EQ PUSH3 0x1C9 JUMPI PUSH4 0xFCFC0C09 EQ PUSH3 0x19D JUMPI PUSH1 0x0 DUP1 REVERT JUMPDEST CALLVALUE PUSH3 0x1C4 JUMPI PUSH1 0x0 CALLDATASIZE PUSH1 0x3 NOT ADD SLT PUSH3 0x1C4 JUMPI PUSH1 0x20 PUSH1 0x40 MLOAD PUSH10 0xE9C7F5BD65501200000 DUP2 MSTORE RETURN JUMPDEST PUSH1 0x0 DUP1 REVERT JUMPDEST CALLVALUE PUSH3 0x1C4 JUMPI PUSH1 0x20 CALLDATASIZE PUSH1 0x3 NOT ADD SLT PUSH3 0x1C4 JUMPI PUSH2 0x180 PUSH1 0x1 PUSH1 0x1 PUSH1 0xA0 SHL SUB DUP1 PUSH3 0x1F2 PUSH3 0x19A4 JUMP JUMPDEST AND PUSH1 0x0 MSTORE PUSH1 0x4 PUSH1 0x20 MSTORE PUSH1 0x40 PUSH1 0x0 KECCAK256 DUP2 DUP2 SLOAD AND SWAP2 PUSH1 0x1 DUP3 ADD SLOAD AND SWAP1 PUSH1 0x2 DUP2 ADD SLOAD PUSH1 0x3 DUP3 ADD SLOAD PUSH1 0x4 DUP4 ADD SLOAD PUSH1 0x5 DUP5 ADD SLOAD PUSH1 0x6 DUP6 ADD SLOAD SWAP1 PUSH1 0x7 DUP7 ADD SLOAD SWAP3 PUSH1 0xFF PUSH1 0x8 DUP9 ADD SLOAD AND SWAP5 PUSH1 0x9 DUP9 ADD SLOAD SWAP7 PUSH1 0xB PUSH1 0xA DUP11 ADD SLOAD SWAP10 ADD SLOAD SWAP10 PUSH1 0x40 MLOAD SWAP12 DUP13 MSTORE PUSH1 0x20 DUP13 ADD MSTORE PUSH1 0x40 DUP12 ADD MSTORE PUSH1 0x60 DUP11 ADD MSTORE PUSH1 0x80 DUP10 ADD MSTORE PUSH1 0xA0 DUP9 ADD MSTORE PUSH1 0xC0 DUP8 ADD MSTORE PUSH1 0xE0 DUP7 ADD MSTORE ISZERO ISZERO PUSH2 0x100 DUP6 ADD MSTORE PUSH2 0x120 DUP5 ADD MSTORE PUSH2 0x140 DUP4 ADD MSTORE PUSH2 0x160 DUP3 ADD MSTORE RETURN JUMPDEST CALLVALUE PUSH3 0x1C4 JUMPI PUSH1 0x20 CALLDATASIZE PUSH1 0x3 NOT ADD SLT PUSH3 0x1C4 JUMPI PUSH3 0x2A8 PUSH3 0x19A4 JUMP JUMPDEST PUSH3 0x2B2 PUSH3 0x1A96 JUMP JUMPDEST PUSH1 0x1 PUSH1 0x1 PUSH1 0xA0 SHL SUB SWAP1 DUP2 AND SWAP1 DUP2 ISZERO PUSH3 0x302 JUMPI PUSH1 0x0 SLOAD DUP3 PUSH1 0x1 PUSH1 0x1 PUSH1 0x60 SHL SUB PUSH1 0xA0 SHL DUP3 AND OR PUSH1 0x0 SSTORE AND PUSH32 0x8BE0079C531659141344CD1FD0A4F28419497F9722A3DAAFE3B4186F6B6457E0 PUSH1 0x0 DUP1 LOG3 STOP JUMPDEST PUSH1 0x40 MLOAD PUSH4 0x1E4FBDF7 PUSH1 0xE0 SHL DUP2 MSTORE PUSH1 0x0 PUSH1 0x4 DUP3 ADD MSTORE PUSH1 0x24 SWAP1 REVERT JUMPDEST PUSH2 0x120 CALLDATASIZE PUSH1 0x3 NOT ADD SLT PUSH3 0x1C4 JUMPI PUSH1 0x4 CALLDATALOAD PUSH8 0xFFFFFFFFFFFFFFFF DUP2 GT PUSH3 0x1C4 JUMPI PUSH3 0x34C SWAP1 CALLDATASIZE SWAP1 PUSH1 0x4 ADD PUSH3 0x1A49 JUMP JUMPDEST PUSH1 0x24 CALLDATALOAD PUSH8 0xFFFFFFFFFFFFFFFF DUP2 GT PUSH3 0x1C4 JUMPI PUSH3 0x36F SWAP1 CALLDATASIZE SWAP1 PUSH1 0x4 ADD PUSH3 0x1A49 JUMP JUMPDEST SWAP1 PUSH1 0x44 CALLDATALOAD PUSH8 0xFFFFFFFFFFFFFFFF DUP2 GT PUSH3 0x1C4 JUMPI PUSH3 0x393 SWAP1 CALLDATASIZE SWAP1 PUSH1 0x4 ADD PUSH3 0x1A49 JUMP JUMPDEST PUSH1 0x64 CALLDATALOAD PUSH8 0xFFFFFFFFFFFFFFFF DUP2 GT PUSH3 0x1C4 JUMPI PUSH3 0x3B6 SWAP1 CALLDATASIZE SWAP1 PUSH1 0x4 ADD PUSH3 0x1A49 JUMP JUMPDEST SWAP1 PUSH1 0x84 CALLDATALOAD PUSH8 0xFFFFFFFFFFFFFFFF DUP2 GT PUSH3 0x1C4 JUMPI PUSH3 0x3DA SWAP1 CALLDATASIZE SWAP1 PUSH1 0x4 ADD PUSH3 0x1A49 JUMP JUMPDEST PUSH1 0xA4 CALLDATALOAD PUSH8 0xFFFFFFFFFFFFFFFF DUP2 GT PUSH3 0x1C4 JUMPI PUSH3 0x3FD SWAP1 CALLDATASIZE SWAP1 PUSH1 0x4 ADD PUSH3 0x1A49 JUMP JUMPDEST SWAP3 PUSH1 0xC4 CALLDATALOAD PUSH8 0xFFFFFFFFFFFFFFFF DUP2 GT PUSH3 0x1C4 JUMPI PUSH3 0x421 SWAP1 CALLDATASIZE SWAP1 PUSH1 0x4 ADD PUSH3 0x1A49 JUMP JUMPDEST SWAP1 PUSH1 0xE4 CALLDATALOAD PUSH8 0xFFFFFFFFFFFFFFFF DUP2 GT PUSH3 0x1C4 JUMPI PUSH3 0x445 SWAP1 CALLDATASIZE SWAP1 PUSH1 0x4 ADD PUSH3 0x1A49 JUMP JUMPDEST POP PUSH3 0x450 PUSH3 0x1B88 JUMP JUMPDEST PUSH2 0x104 CALLDATALOAD PUSH7 0x38D7EA4C68000 ADD PUSH7 0x38D7EA4C68000 GT PUSH3 0x8D4 JUMPI PUSH2 0x104 CALLDATALOAD PUSH7 0x38D7EA4C68000 ADD CALLVALUE LT PUSH3 0xBA0 JUMPI PUSH8 0x8AC7230489E80000 PUSH2 0x104 CALLDATALOAD GT PUSH3 0xB5B JUMPI DUP6 MLOAD ISZERO PUSH3 0xB26 JUMPI DUP7 MLOAD ISZERO PUSH3 0xAEF JUMPI PUSH1 0x40 MLOAD SWAP5 DUP6 PUSH2 0x18F8 DUP2 ADD LT PUSH8 0xFFFFFFFFFFFFFFFF PUSH2 0x18F8 DUP9 ADD GT OR PUSH3 0x8EA JUMPI PUSH3 0x573 PUSH3 0x5A1 SWAP5 PUSH3 0x55C DUP9 SWAP8 PUSH3 0x545 PUSH3 0x58A SWAP7 PUSH3 0x518 DUP15 PUSH3 0x500 DUP16 PUSH2 0x140 DUP16 PUSH2 0x18F8 PUSH3 0x20B8 DUP3 CODECOPY PUSH2 0x18F8 ADD DUP2 DUP2 MSTORE ADD SWAP1 PUSH3 0x1AD1 JUMP JUMPDEST SWAP1 DUP14 PUSH1 0x20 PUSH2 0x18F8 DUP3 ADD DUP5 SUB SWAP2 PUSH2 0x18F8 ADD ADD MSTORE PUSH3 0x1AD1 JUMP JUMPDEST SWAP1 PUSH12 0x33B2E3C9FD0803CE8000000 PUSH1 0x40 DUP14 PUSH2 0x18F8 ADD ADD MSTORE PUSH2 0x18F8 DUP13 ADD DUP3 SUB PUSH1 0x60 DUP14 PUSH2 0x18F8 ADD ADD MSTORE PUSH3 0x1AD1 JUMP JUMPDEST SWAP1 PUSH2 0x18F8 DUP11 ADD DUP3 SUB PUSH1 0x80 PUSH2 0x18F8 DUP13 ADD ADD MSTORE PUSH3 0x1AD1 JUMP JUMPDEST SWAP1 PUSH2 0x18F8 DUP9 ADD DUP3 SUB PUSH1 0xA0 PUSH2 0x18F8 DUP11 ADD ADD MSTORE PUSH3 0x1AD1 JUMP JUMPDEST SWAP1 PUSH2 0x18F8 DUP7 ADD DUP3 SUB PUSH1 0xC0 PUSH2 0x18F8 DUP9 ADD ADD MSTORE PUSH3 0x1AD1 JUMP JUMPDEST SWAP1 PUSH2 0x18F8 DUP5 ADD DUP3 SUB PUSH1 0xE0 PUSH2 0x18F8 DUP7 ADD ADD MSTORE PUSH3 0x1AD1 JUMP JUMPDEST CALLER PUSH2 0x100 PUSH2 0x18F8 DUP5 ADD ADD MSTORE ADDRESS PUSH2 0x120 PUSH2 0x18F8 DUP5 ADD ADD MSTORE SUB SWAP1 PUSH1 0x0 CREATE SWAP2 DUP3 ISZERO PUSH3 0xAE3 JUMPI PUSH1 0x40 MLOAD DUP1 PUSH2 0x180 DUP2 ADD LT PUSH8 0xFFFFFFFFFFFFFFFF PUSH2 0x180 DUP4 ADD GT OR PUSH3 0x8EA JUMPI PUSH2 0x180 DUP2 ADD PUSH1 0x40 MSTORE PUSH1 0x1 DUP1 PUSH1 0xA0 SHL SUB DUP5 AND DUP2 MSTORE CALLER PUSH1 0x20 DUP3 ADD MSTORE PUSH1 0x0 PUSH1 0x40 DUP3 ADD MSTORE PUSH12 0x295BE96E640669720000000 PUSH1 0x60 DUP3 ADD MSTORE PUSH19 0x23EB0770016AE74C53FF94ACC2640000000000 PUSH1 0x80 DUP3 ADD MSTORE PUSH11 0xA56FA5B99019A5C8000000 PUSH1 0xA0 DUP3 ADD MSTORE PUSH1 0x0 PUSH1 0xC0 DUP3 ADD MSTORE PUSH1 0x0 PUSH1 0xE0 DUP3 ADD MSTORE PUSH1 0x0 PUSH2 0x100 DUP3 ADD MSTORE TIMESTAMP PUSH2 0x120 DUP3 ADD MSTORE PUSH1 0x0 PUSH2 0x140 DUP3 ADD MSTORE PUSH1 0x0 PUSH2 0x160 DUP3 ADD MSTORE PUSH1 0x1 DUP1 PUSH1 0xA0 SHL SUB DUP5 AND PUSH1 0x0 MSTORE PUSH1 0x4 PUSH1 0x20 MSTORE PUSH1 0x40 PUSH1 0x0 KECCAK256 PUSH1 0x1 DUP1 PUSH1 0xA0 SHL SUB DUP3 MLOAD AND PUSH1 0x1 PUSH1 0x1 PUSH1 0x60 SHL SUB PUSH1 0xA0 SHL DUP3 SLOAD AND OR DUP2 SSTORE PUSH1 0x1 DUP2 ADD PUSH1 0x1 DUP1 PUSH1 0xA0 SHL SUB PUSH1 0x20 DUP5 ADD MLOAD AND PUSH1 0x1 PUSH1 0x1 PUSH1 0x60 SHL SUB PUSH1 0xA0 SHL DUP3 SLOAD AND OR SWAP1 SSTORE PUSH1 0x40 DUP3 ADD MLOAD SWAP1 DUP2 PUSH1 0x2 DUP3 ADD SSTORE PUSH1 0x60 DUP4 ADD MLOAD SWAP1 DUP2 PUSH1 0x3 DUP3 ADD SSTORE PUSH1 0x80 DUP5 ADD MLOAD SWAP3 DUP4 PUSH1 0x4 DUP4 ADD SSTORE PUSH1 0xA0 DUP6 ADD MLOAD PUSH1 0x5 DUP4 ADD SSTORE PUSH1 0xC0 DUP6 ADD MLOAD PUSH1 0x6 DUP4 ADD SSTORE PUSH1 0xE0 DUP6 ADD MLOAD PUSH1 0x7 DUP4 ADD SSTORE PUSH1 0x8 DUP3 ADD PUSH2 0x100 DUP7 ADD MLOAD ISZERO ISZERO PUSH1 0xFF DUP1 NOT DUP4 SLOAD AND SWAP2 AND OR SWAP1 SSTORE PUSH2 0x120 DUP6 ADD MLOAD PUSH1 0x9 DUP4 ADD SSTORE PUSH2 0x160 PUSH2 0x140 DUP7 ADD MLOAD SWAP6 DUP7 PUSH1 0xA DUP6 ADD SSTORE ADD MLOAD SWAP1 DUP2 PUSH1 0xB DUP5 ADD SSTORE PUSH2 0x104 CALLDATALOAD PUSH3 0x900 JUMPI JUMPDEST POP POP POP POP POP POP PUSH1 0x6 SLOAD PUSH9 0x10000000000000000 DUP2 LT ISZERO PUSH3 0x8EA JUMPI DUP1 PUSH1 0x1 PUSH3 0x774 SWAP3 ADD PUSH1 0x6 SSTORE PUSH3 0x19BB JUMP JUMPDEST DUP2 SLOAD PUSH1 0x1 PUSH1 0x1 PUSH1 0xA0 SHL SUB DUP7 DUP2 AND PUSH1 0x3 SWAP4 SWAP1 SWAP4 SHL DUP4 DUP2 SHL SWAP2 SWAP1 SHL NOT SWAP1 SWAP2 AND OR SWAP1 SWAP2 SSTORE PUSH1 0x0 SWAP1 DUP2 MSTORE PUSH1 0x5 PUSH1 0x20 MSTORE PUSH1 0x40 SWAP1 KECCAK256 DUP1 SLOAD PUSH1 0xFF NOT AND PUSH1 0x1 OR SWAP1 SSTORE PUSH1 0x7 SLOAD PUSH7 0x38D7EA4C68000 DUP2 ADD SWAP2 SWAP1 DUP3 LT PUSH3 0x8D4 JUMPI PUSH3 0x7F2 SWAP2 PUSH1 0x7 SSTORE PUSH3 0x7E3 PUSH1 0x40 MLOAD SWAP4 PUSH1 0x80 DUP6 MSTORE PUSH1 0x80 DUP6 ADD SWAP1 PUSH3 0x1AD1 JUMP JUMPDEST SWAP1 DUP4 DUP3 SUB PUSH1 0x20 DUP6 ADD MSTORE PUSH3 0x1AD1 JUMP JUMPDEST TIMESTAMP PUSH1 0x40 DUP4 ADD MSTORE PUSH2 0x104 CALLDATALOAD PUSH1 0x60 DUP4 ADD MSTORE CALLER SWAP2 PUSH1 0x1 PUSH1 0x1 PUSH1 0xA0 SHL SUB DUP5 AND SWAP2 PUSH32 0xC12630D761DDBF18B9530F31D91E67493535A2B635711BCFF59FDED8BF381CCE SWAP2 SWAP1 DUP2 SWAP1 SUB SWAP1 LOG3 PUSH2 0x104 CALLDATALOAD PUSH7 0x38D7EA4C68000 ADD CALLVALUE GT PUSH3 0x864 JUMPI JUMPDEST PUSH1 0x1 DUP1 SSTORE PUSH1 0x40 MLOAD PUSH1 0x1 PUSH1 0x1 PUSH1 0xA0 SHL SUB SWAP1 SWAP2 AND DUP2 MSTORE PUSH1 0x20 SWAP1 RETURN JUMPDEST PUSH7 0x38D7EA4C67FFF NOT CALLVALUE ADD CALLVALUE DUP2 GT PUSH3 0x8D4 JUMPI PUSH1 0x0 DUP1 DUP1 PUSH3 0x88C DUP2 SWAP5 PUSH2 0x104 CALLDATALOAD SWAP1 PUSH3 0x1B45 JUMP JUMPDEST CALLER GAS CALL PUSH3 0x899 PUSH3 0x1B53 JUMP JUMPDEST POP PUSH3 0x84B JUMPI PUSH1 0x40 MLOAD PUSH3 0x461BCD PUSH1 0xE5 SHL DUP2 MSTORE PUSH1 0x20 PUSH1 0x4 DUP3 ADD MSTORE PUSH1 0xD PUSH1 0x24 DUP3 ADD MSTORE PUSH13 0x1499599D5B990819985A5B1959 PUSH1 0x9A SHL PUSH1 0x44 DUP3 ADD MSTORE PUSH1 0x64 SWAP1 REVERT JUMPDEST PUSH4 0x4E487B71 PUSH1 0xE0 SHL PUSH1 0x0 MSTORE PUSH1 0x11 PUSH1 0x4 MSTORE PUSH1 0x24 PUSH1 0x0 REVERT JUMPDEST PUSH4 0x4E487B71 PUSH1 0xE0 SHL PUSH1 0x0 MSTORE PUSH1 0x41 PUSH1 0x4 MSTORE PUSH1 0x24 PUSH1 0x0 REVERT JUMPDEST PUSH8 0xDE0B6B3A7640000 SWAP2 DUP2 DUP4 ADD DUP4 GT PUSH3 0x8D4 JUMPI PUSH10 0xD3C21BCECCEDA1000000 DUP6 DUP2 ADD DUP2 GT PUSH3 0x8D4 JUMPI PUSH3 0x987 SWAP8 PUSH3 0x992 DUP5 DUP9 PUSH3 0x96B PUSH3 0x9A2 SWAP6 PUSH3 0x961 PUSH3 0x959 PUSH1 0xB SWAP12 PUSH3 0x9AD SWAP12 PUSH2 0x104 CALLDATALOAD SWAP2 ADD PUSH3 0x1AC3 JUMP JUMPDEST DUP1 SWAP15 PUSH3 0x1BAC JUMP JUMPDEST SWAP12 DUP13 SWAP2 ADD PUSH3 0x1B45 JUMP JUMPDEST SWAP12 DUP13 SWAP3 PUSH3 0x97C DUP4 DUP6 GT ISZERO PUSH3 0x1BCD JUMP JUMPDEST PUSH2 0x104 CALLDATALOAD SWAP1 PUSH3 0x1AC3 JUMP JUMPDEST PUSH1 0x2 DUP11 ADD SSTORE PUSH3 0x1B45 JUMP JUMPDEST PUSH1 0x3 DUP8 ADD SSTORE PUSH2 0x104 CALLDATALOAD SWAP1 PUSH3 0x1AC3 JUMP JUMPDEST PUSH1 0xA DUP6 ADD SSTORE PUSH3 0x1C1A JUMP JUMPDEST SWAP2 ADD SSTORE PUSH1 0x40 MLOAD PUSH4 0xA9059CBB PUSH1 0xE0 SHL DUP2 MSTORE CALLER PUSH1 0x4 DUP3 ADD MSTORE PUSH1 0x24 DUP2 ADD DUP5 SWAP1 MSTORE PUSH1 0x20 DUP2 PUSH1 0x44 DUP2 PUSH1 0x0 PUSH1 0x1 PUSH1 0x1 PUSH1 0xA0 SHL SUB DUP13 AND GAS CALL SWAP1 DUP2 ISZERO PUSH3 0xAE3 JUMPI PUSH1 0x0 SWAP2 PUSH3 0xAAD JUMPI JUMPDEST POP ISZERO PUSH3 0xA70 JUMPI PUSH3 0xA05 PUSH3 0xA0B SWAP3 PUSH3 0x1B13 JUMP JUMPDEST PUSH3 0x1BAC JUMP JUMPDEST PUSH1 0x40 MLOAD SWAP2 PUSH1 0x1 DUP4 MSTORE PUSH2 0x104 CALLDATALOAD PUSH1 0x20 DUP5 ADD MSTORE PUSH1 0x40 DUP4 ADD MSTORE PUSH1 0x60 DUP3 ADD MSTORE PUSH1 0x0 PUSH1 0x80 DUP3 ADD MSTORE PUSH1 0x0 PUSH1 0xA0 DUP3 ADD MSTORE CALLER SWAP1 PUSH32 0xB6BFD1E0B5E5317C2BE379C71D23B23080C3BF9B072A49298BA82A7A06B6DC5B PUSH1 0xC0 PUSH1 0x1 DUP1 PUSH1 0xA0 SHL SUB DUP8 AND SWAP3 LOG3 DUP4 DUP1 DUP1 DUP1 DUP1 DUP1 PUSH3 0x747 JUMP JUMPDEST PUSH1 0x40 MLOAD PUSH3 0x461BCD PUSH1 0xE5 SHL DUP2 MSTORE PUSH1 0x20 PUSH1 0x4 DUP3 ADD MSTORE PUSH1 0x15 PUSH1 0x24 DUP3 ADD MSTORE PUSH21 0x151BDAD95B881D1C985B9CD9995C8819985A5B1959 PUSH1 0x5A SHL PUSH1 0x44 DUP3 ADD MSTORE PUSH1 0x64 SWAP1 REVERT JUMPDEST PUSH3 0xAD4 SWAP2 POP PUSH1 0x20 RETURNDATASIZE PUSH1 0x20 GT PUSH3 0xADB JUMPI JUMPDEST PUSH3 0xACB DUP2 DUP4 PUSH3 0x1A09 JUMP JUMPDEST DUP2 ADD SWAP1 PUSH3 0x1C2A JUMP JUMPDEST DUP8 PUSH3 0x9EF JUMP JUMPDEST POP RETURNDATASIZE PUSH3 0xABF JUMP JUMPDEST PUSH1 0x40 MLOAD RETURNDATASIZE PUSH1 0x0 DUP3 RETURNDATACOPY RETURNDATASIZE SWAP1 REVERT JUMPDEST PUSH1 0x40 MLOAD PUSH3 0x461BCD PUSH1 0xE5 SHL DUP2 MSTORE PUSH1 0x20 PUSH1 0x4 DUP3 ADD MSTORE PUSH1 0xF PUSH1 0x24 DUP3 ADD MSTORE PUSH15 0x14DE5B589BDB081C995C5D5A5C9959 PUSH1 0x8A SHL PUSH1 0x44 DUP3 ADD MSTORE PUSH1 0x64 SWAP1 REVERT JUMPDEST PUSH1 0x40 MLOAD PUSH3 0x461BCD PUSH1 0xE5 SHL DUP2 MSTORE PUSH1 0x20 PUSH1 0x4 DUP3 ADD MSTORE PUSH1 0xD PUSH1 0x24 DUP3 ADD MSTORE PUSH13 0x13985B59481C995C5D5A5C9959 PUSH1 0x9A SHL PUSH1 0x44 DUP3 ADD MSTORE PUSH1 0x64 SWAP1 REVERT JUMPDEST PUSH1 0x40 MLOAD PUSH3 0x461BCD PUSH1 0xE5 SHL DUP2 MSTORE PUSH1 0x20 PUSH1 0x4 DUP3 ADD MSTORE PUSH1 0x17 PUSH1 0x24 DUP3 ADD MSTORE PUSH32 0x446576206275792065786365656473206D6178696D756D000000000000000000 PUSH1 0x44 DUP3 ADD MSTORE PUSH1 0x64 SWAP1 REVERT JUMPDEST PUSH1 0x40 MLOAD PUSH3 0x461BCD PUSH1 0xE5 SHL DUP2 MSTORE PUSH1 0x20 PUSH1 0x4 DUP3 ADD MSTORE PUSH1 0x14 PUSH1 0x24 DUP3 ADD MSTORE PUSH20 0x125B9CDD59999A58DA595B9D081C185E5B595B9D PUSH1 0x62 SHL PUSH1 0x44 DUP3 ADD MSTORE PUSH1 0x64 SWAP1 REVERT JUMPDEST CALLVALUE PUSH3 0x1C4 JUMPI PUSH1 0x60 CALLDATASIZE PUSH1 0x3 NOT ADD SLT PUSH3 0x1C4 JUMPI PUSH3 0xBF9 PUSH3 0x19A4 JUMP JUMPDEST PUSH3 0xC03 PUSH3 0x1B88 JUMP JUMPDEST PUSH1 0x1 PUSH1 0x1 PUSH1 0xA0 SHL SUB DUP2 AND PUSH1 0x0 SWAP1 DUP2 MSTORE PUSH1 0x5 PUSH1 0x20 MSTORE PUSH1 0x40 SWAP1 KECCAK256 SLOAD PUSH3 0xC2A SWAP1 PUSH1 0xFF AND PUSH3 0x1C44 JUMP JUMPDEST PUSH1 0x1 DUP1 PUSH1 0xA0 SHL SUB DUP2 AND PUSH1 0x0 MSTORE PUSH1 0x4 PUSH1 0x20 MSTORE PUSH1 0x40 PUSH1 0x0 KECCAK256 SWAP1 PUSH3 0xC54 PUSH1 0xFF PUSH1 0x8 DUP5 ADD SLOAD AND ISZERO PUSH3 0x1C81 JUMP JUMPDEST PUSH1 0x24 CALLDATALOAD ISZERO PUSH3 0xF1E JUMPI PUSH1 0x2 DUP3 ADD SLOAD SWAP1 PUSH8 0xDE0B6B3A7640000 DUP3 DUP2 ADD DUP1 SWAP2 GT PUSH3 0x8D4 JUMPI PUSH1 0x3 DUP5 ADD SLOAD PUSH10 0xD3C21BCECCEDA1000000 SWAP1 DUP2 ADD DUP1 SWAP2 GT PUSH3 0x8D4 JUMPI PUSH3 0xCA1 SWAP1 PUSH1 0x24 CALLDATALOAD SWAP1 PUSH3 0x1AC3 JUMP JUMPDEST SWAP4 PUSH3 0xCBE PUSH3 0xCB6 DUP7 PUSH1 0x4 DUP5 ADD SLOAD PUSH3 0x1BAC JUMP JUMPDEST DUP1 SWAP4 PUSH3 0x1B45 JUMP JUMPDEST SWAP2 PUSH2 0x2710 SWAP1 DUP2 PUSH3 0xCD2 PUSH1 0x2 SLOAD DUP7 PUSH3 0x1B31 JUMP JUMPDEST DIV SWAP2 PUSH3 0xCE2 PUSH1 0x3 SLOAD DUP7 PUSH3 0x1B31 JUMP JUMPDEST DIV SWAP3 PUSH3 0xCFB DUP5 PUSH3 0xCF5 DUP6 DUP9 PUSH3 0x1B45 JUMP JUMPDEST PUSH3 0x1B45 JUMP JUMPDEST SWAP7 PUSH3 0xD0C PUSH1 0x44 CALLDATALOAD DUP10 LT ISZERO PUSH3 0x1CC0 JUMP JUMPDEST DUP6 GT PUSH3 0xED9 JUMPI PUSH1 0x40 MLOAD PUSH4 0x23B872DD PUSH1 0xE0 SHL DUP2 MSTORE CALLER PUSH1 0x4 DUP3 ADD MSTORE ADDRESS PUSH1 0x24 DUP1 DUP4 ADD SWAP2 SWAP1 SWAP2 MSTORE CALLDATALOAD PUSH1 0x44 DUP3 ADD MSTORE SWAP1 PUSH1 0x20 DUP3 PUSH1 0x64 DUP2 PUSH1 0x0 PUSH1 0x1 PUSH1 0x1 PUSH1 0xA0 SHL SUB DUP13 AND GAS CALL SWAP2 DUP3 ISZERO PUSH3 0xAE3 JUMPI PUSH1 0xB SWAP3 PUSH3 0xD6B SWAP2 PUSH1 0x0 SWAP2 PUSH3 0xEB5 JUMPI JUMPDEST POP PUSH3 0x1D01 JUMP JUMPDEST PUSH3 0xD7B DUP7 PUSH1 0x2 DUP4 ADD SLOAD PUSH3 0x1B45 JUMP JUMPDEST PUSH1 0x2 DUP3 ADD SSTORE PUSH3 0xD92 PUSH1 0x24 CALLDATALOAD PUSH1 0x3 DUP4 ADD SLOAD PUSH3 0x1AC3 JUMP JUMPDEST PUSH1 0x3 DUP3 ADD SSTORE PUSH1 0x6 DUP2 ADD PUSH3 0xDA8 DUP7 DUP3 SLOAD PUSH3 0x1AC3 JUMP JUMPDEST SWAP1 SSTORE PUSH1 0x7 DUP2 ADD PUSH3 0xDBB DUP6 DUP3 SLOAD PUSH3 0x1AC3 JUMP JUMPDEST SWAP1 SSTORE PUSH1 0xA DUP2 ADD PUSH3 0xDCE DUP8 DUP3 SLOAD PUSH3 0x1AC3 JUMP JUMPDEST SWAP1 SSTORE ADD PUSH3 0xDDD DUP2 SLOAD PUSH3 0x1C1A JUMP JUMPDEST SWAP1 SSTORE PUSH3 0xDED DUP3 PUSH1 0x7 SLOAD PUSH3 0x1AC3 JUMP JUMPDEST PUSH1 0x7 SSTORE PUSH1 0x0 DUP1 DUP1 DUP1 DUP10 CALLER GAS CALL PUSH3 0xE03 PUSH3 0x1B53 JUMP JUMPDEST POP ISZERO PUSH3 0xE7A JUMPI PUSH1 0x20 SWAP7 PUSH3 0xA05 PUSH3 0xE1C SWAP3 PUSH3 0x1B13 JUMP JUMPDEST PUSH1 0x40 MLOAD SWAP4 PUSH1 0x0 DUP6 MSTORE DUP8 DUP6 ADD MSTORE PUSH1 0x24 CALLDATALOAD PUSH1 0x40 DUP6 ADD MSTORE PUSH1 0x60 DUP5 ADD MSTORE PUSH1 0x80 DUP4 ADD MSTORE PUSH1 0xA0 DUP3 ADD MSTORE PUSH32 0xB6BFD1E0B5E5317C2BE379C71D23B23080C3BF9B072A49298BA82A7A06B6DC5B PUSH1 0xC0 CALLER SWAP4 PUSH1 0x1 DUP1 PUSH1 0xA0 SHL SUB AND SWAP3 LOG3 PUSH1 0x1 DUP1 SSTORE PUSH1 0x40 MLOAD SWAP1 DUP2 MSTORE RETURN JUMPDEST PUSH1 0x40 MLOAD PUSH3 0x461BCD PUSH1 0xE5 SHL DUP2 MSTORE PUSH1 0x20 PUSH1 0x4 DUP3 ADD MSTORE PUSH1 0x13 PUSH1 0x24 DUP3 ADD MSTORE PUSH19 0x115512081D1C985B9CD9995C8819985A5B1959 PUSH1 0x6A SHL PUSH1 0x44 DUP3 ADD MSTORE PUSH1 0x64 SWAP1 REVERT JUMPDEST PUSH3 0xED2 SWAP2 POP PUSH1 0x20 RETURNDATASIZE PUSH1 0x20 GT PUSH3 0xADB JUMPI PUSH3 0xACB DUP2 DUP4 PUSH3 0x1A09 JUMP JUMPDEST DUP12 PUSH3 0xD64 JUMP JUMPDEST PUSH1 0x40 MLOAD PUSH3 0x461BCD PUSH1 0xE5 SHL DUP2 MSTORE PUSH1 0x20 PUSH1 0x4 DUP3 ADD MSTORE PUSH1 0x1A PUSH1 0x24 DUP3 ADD MSTORE PUSH32 0x496E73756666696369656E7420455448206C6971756964697479000000000000 PUSH1 0x44 DUP3 ADD MSTORE PUSH1 0x64 SWAP1 REVERT JUMPDEST PUSH1 0x40 MLOAD PUSH3 0x461BCD PUSH1 0xE5 SHL DUP2 MSTORE PUSH1 0x20 PUSH1 0x4 DUP3 ADD MSTORE PUSH1 0xE PUSH1 0x24 DUP3 ADD MSTORE PUSH14 0x125B9D985B1A5908185B5BDD5B9D PUSH1 0x92 SHL PUSH1 0x44 DUP3 ADD MSTORE PUSH1 0x64 SWAP1 REVERT JUMPDEST CALLVALUE PUSH3 0x1C4 JUMPI PUSH1 0x0 CALLDATASIZE PUSH1 0x3 NOT ADD SLT PUSH3 0x1C4 JUMPI PUSH1 0x20 PUSH1 0x40 MLOAD PUSH2 0x2710 DUP2 MSTORE RETURN JUMPDEST CALLVALUE PUSH3 0x1C4 JUMPI PUSH1 0x20 CALLDATASIZE PUSH1 0x3 NOT ADD SLT PUSH3 0x1C4 JUMPI PUSH3 0xF90 PUSH3 0x19A4 JUMP JUMPDEST PUSH3 0xF9A PUSH3 0x1B88 JUMP JUMPDEST PUSH1 0x1 PUSH1 0x1 PUSH1 0xA0 SHL SUB SWAP1 DUP2 AND PUSH1 0x0 SWAP1 DUP2 MSTORE PUSH1 0x4 PUSH1 0x20 MSTORE PUSH1 0x40 SWAP1 KECCAK256 PUSH1 0x1 DUP2 ADD SLOAD SWAP1 SWAP2 AND CALLER SUB PUSH3 0x1026 JUMPI PUSH1 0x6 ADD DUP1 SLOAD DUP1 ISZERO PUSH3 0xFEE JUMPI PUSH1 0x0 DUP1 DUP1 DUP1 SWAP4 DUP2 PUSH3 0xFE8 SWAP7 SSTORE CALLER GAS CALL PUSH3 0xD64 PUSH3 0x1B53 JUMP JUMPDEST PUSH1 0x1 DUP1 SSTORE STOP JUMPDEST PUSH1 0x40 MLOAD PUSH3 0x461BCD PUSH1 0xE5 SHL DUP2 MSTORE PUSH1 0x20 PUSH1 0x4 DUP3 ADD MSTORE PUSH1 0x10 PUSH1 0x24 DUP3 ADD MSTORE PUSH16 0x4E6F206665657320746F20636C61696D PUSH1 0x80 SHL PUSH1 0x44 DUP3 ADD MSTORE PUSH1 0x64 SWAP1 REVERT JUMPDEST PUSH1 0x40 MLOAD PUSH3 0x461BCD PUSH1 0xE5 SHL DUP2 MSTORE PUSH1 0x20 PUSH1 0x4 DUP3 ADD MSTORE PUSH1 0xB PUSH1 0x24 DUP3 ADD MSTORE PUSH11 0x2737BA1031B932B0BA37B9 PUSH1 0xA9 SHL PUSH1 0x44 DUP3 ADD MSTORE PUSH1 0x64 SWAP1 REVERT JUMPDEST CALLVALUE PUSH3 0x1C4 JUMPI PUSH1 0x0 CALLDATASIZE PUSH1 0x3 NOT ADD SLT PUSH3 0x1C4 JUMPI PUSH1 0x20 PUSH1 0x7 SLOAD PUSH1 0x40 MLOAD SWAP1 DUP2 MSTORE RETURN JUMPDEST CALLVALUE PUSH3 0x1C4 JUMPI PUSH1 0x0 CALLDATASIZE PUSH1 0x3 NOT ADD SLT PUSH3 0x1C4 JUMPI PUSH3 0x1096 PUSH3 0x1A96 JUMP JUMPDEST PUSH3 0x10BC PUSH1 0x0 DUP1 DUP1 DUP1 PUSH1 0x7 SLOAD DUP2 PUSH1 0x7 SSTORE PUSH1 0x1 DUP1 PUSH1 0xA0 SHL SUB DUP3 SLOAD AND GAS CALL PUSH3 0xD64 PUSH3 0x1B53 JUMP JUMPDEST STOP JUMPDEST CALLVALUE PUSH3 0x1C4 JUMPI PUSH1 0x20 CALLDATASIZE PUSH1 0x3 NOT ADD SLT PUSH3 0x1C4 JUMPI PUSH1 0x20 PUSH3 0x10E7 PUSH3 0x10E1 PUSH3 0x19A4 JUMP JUMPDEST PUSH3 0x1D6A JUMP JUMPDEST PUSH1 0x40 MLOAD SWAP1 DUP2 MSTORE RETURN JUMPDEST CALLVALUE PUSH3 0x1C4 JUMPI PUSH1 0x0 CALLDATASIZE PUSH1 0x3 NOT ADD SLT PUSH3 0x1C4 JUMPI PUSH1 0x20 PUSH1 0x40 MLOAD PUSH8 0xDE0B6B3A7640000 DUP2 MSTORE RETURN JUMPDEST CALLVALUE PUSH3 0x1C4 JUMPI PUSH1 0x20 CALLDATASIZE PUSH1 0x3 NOT ADD SLT PUSH3 0x1C4 JUMPI PUSH1 0x1 PUSH1 0x1 PUSH1 0xA0 SHL SUB PUSH3 0x1139 PUSH3 0x19A4 JUMP JUMPDEST AND PUSH1 0x0 MSTORE PUSH1 0x5 PUSH1 0x20 MSTORE PUSH1 0x20 PUSH1 0xFF PUSH1 0x40 PUSH1 0x0 KECCAK256 SLOAD AND PUSH1 0x40 MLOAD SWAP1 ISZERO ISZERO DUP2 MSTORE RETURN JUMPDEST CALLVALUE PUSH3 0x1C4 JUMPI PUSH1 0x20 CALLDATASIZE PUSH1 0x3 NOT ADD SLT PUSH3 0x1C4 JUMPI PUSH1 0x20 PUSH3 0x10E7 PUSH3 0x117A PUSH3 0x19A4 JUMP JUMPDEST PUSH3 0x2000 JUMP JUMPDEST CALLVALUE PUSH3 0x1C4 JUMPI PUSH1 0x0 CALLDATASIZE PUSH1 0x3 NOT ADD SLT PUSH3 0x1C4 JUMPI PUSH1 0x20 PUSH1 0x40 MLOAD PUSH12 0x33B2E3C9FD0803CE8000000 DUP2 MSTORE RETURN JUMPDEST CALLVALUE PUSH3 0x1C4 JUMPI PUSH1 0x0 CALLDATASIZE PUSH1 0x3 NOT ADD SLT PUSH3 0x1C4 JUMPI PUSH1 0x0 SLOAD PUSH1 0x40 MLOAD PUSH1 0x1 PUSH1 0x1 PUSH1 0xA0 SHL SUB SWAP1 SWAP2 AND DUP2 MSTORE PUSH1 0x20 SWAP1 RETURN JUMPDEST CALLVALUE PUSH3 0x1C4 JUMPI PUSH1 0x0 CALLDATASIZE PUSH1 0x3 NOT ADD SLT PUSH3 0x1C4 JUMPI PUSH1 0x20 PUSH1 0x40 MLOAD PUSH12 0x295BE96E640669720000000 DUP2 MSTORE RETURN JUMPDEST CALLVALUE PUSH3 0x1C4 JUMPI PUSH1 0x0 CALLDATASIZE PUSH1 0x3 NOT ADD SLT PUSH3 0x1C4 JUMPI PUSH1 0x20 PUSH1 0x40 MLOAD PUSH10 0xD3C21BCECCEDA1000000 DUP2 MSTORE RETURN JUMPDEST CALLVALUE PUSH3 0x1C4 JUMPI PUSH1 0x0 CALLDATASIZE PUSH1 0x3 NOT ADD SLT PUSH3 0x1C4 JUMPI PUSH1 0x20 PUSH1 0x6 SLOAD PUSH1 0x40 MLOAD SWAP1 DUP2 MSTORE RETURN JUMPDEST CALLVALUE PUSH3 0x1C4 JUMPI PUSH1 0x40 CALLDATASIZE PUSH1 0x3 NOT ADD SLT PUSH3 0x1C4 JUMPI PUSH1 0x20 PUSH3 0x10E7 PUSH3 0x1267 PUSH3 0x19A4 JUMP JUMPDEST PUSH1 0x24 CALLDATALOAD SWAP1 PUSH3 0x1DED JUMP JUMPDEST CALLVALUE PUSH3 0x1C4 JUMPI PUSH1 0x0 CALLDATASIZE PUSH1 0x3 NOT ADD SLT PUSH3 0x1C4 JUMPI PUSH1 0x20 PUSH1 0x40 MLOAD PUSH11 0xA56FA5B99019A5C8000000 DUP2 MSTORE RETURN JUMPDEST CALLVALUE PUSH3 0x1C4 JUMPI PUSH1 0x0 CALLDATASIZE PUSH1 0x3 NOT ADD SLT PUSH3 0x1C4 JUMPI PUSH3 0x12B6 PUSH3 0x1A96 JUMP JUMPDEST PUSH1 0x0 DUP1 SLOAD PUSH1 0x1 PUSH1 0x1 PUSH1 0xA0 SHL SUB NOT DUP2 AND DUP3 SSTORE PUSH1 0x1 PUSH1 0x1 PUSH1 0xA0 SHL SUB AND PUSH32 0x8BE0079C531659141344CD1FD0A4F28419497F9722A3DAAFE3B4186F6B6457E0 DUP3 DUP1 LOG3 STOP JUMPDEST CALLVALUE PUSH3 0x1C4 JUMPI PUSH1 0x40 CALLDATASIZE PUSH1 0x3 NOT ADD SLT PUSH3 0x1C4 JUMPI PUSH1 0x4 CALLDATALOAD PUSH1 0x24 CALLDATALOAD PUSH3 0x1319 PUSH3 0x1A96 JUMP JUMPDEST PUSH2 0x3E8 PUSH3 0x1328 DUP3 DUP5 PUSH3 0x1AC3 JUMP JUMPDEST GT PUSH3 0x1368 JUMPI DUP2 PUSH1 0x40 SWAP2 PUSH32 0x5C6323BF1C2D7AAEA2C091A4751C1C87AF7F2864650C336507A77D0557AF37A1 SWAP4 PUSH1 0x2 SSTORE DUP1 PUSH1 0x3 SSTORE DUP3 MLOAD SWAP2 DUP3 MSTORE PUSH1 0x20 DUP3 ADD MSTORE LOG1 STOP JUMPDEST PUSH1 0x40 MLOAD PUSH3 0x461BCD PUSH1 0xE5 SHL DUP2 MSTORE PUSH1 0x20 PUSH1 0x4 DUP3 ADD MSTORE PUSH1 0x13 PUSH1 0x24 DUP3 ADD MSTORE PUSH19 0xA8DEE8C2D840CCCACAE640E8DEDE40D0D2CED PUSH1 0x6B SHL PUSH1 0x44 DUP3 ADD MSTORE PUSH1 0x64 SWAP1 REVERT JUMPDEST CALLVALUE PUSH3 0x1C4 JUMPI PUSH1 0x20 CALLDATASIZE PUSH1 0x3 NOT ADD SLT PUSH3 0x1C4 JUMPI PUSH1 0x4 CALLDATALOAD PUSH1 0x6 SLOAD DUP2 LT ISZERO PUSH3 0x1C4 JUMPI PUSH3 0x13D1 PUSH1 0x20 SWAP2 PUSH3 0x19BB JUMP JUMPDEST SWAP1 SLOAD PUSH1 0x40 MLOAD PUSH1 0x3 SWAP3 SWAP1 SWAP3 SHL SHR PUSH1 0x1 PUSH1 0x1 PUSH1 0xA0 SHL SUB AND DUP2 MSTORE RETURN JUMPDEST CALLVALUE PUSH3 0x1C4 JUMPI PUSH1 0x0 CALLDATASIZE PUSH1 0x3 NOT ADD SLT PUSH3 0x1C4 JUMPI PUSH1 0x20 PUSH1 0x40 MLOAD PUSH7 0x38D7EA4C68000 DUP2 MSTORE RETURN JUMPDEST CALLVALUE PUSH3 0x1C4 JUMPI PUSH1 0x0 CALLDATASIZE PUSH1 0x3 NOT ADD SLT PUSH3 0x1C4 JUMPI PUSH1 0x20 PUSH1 0x40 MLOAD PUSH8 0x8AC7230489E80000 DUP2 MSTORE RETURN JUMPDEST CALLVALUE PUSH3 0x1C4 JUMPI PUSH1 0x20 CALLDATASIZE PUSH1 0x3 NOT ADD SLT PUSH3 0x1C4 JUMPI PUSH1 0x20 PUSH3 0x10E7 PUSH3 0x1456 PUSH3 0x19A4 JUMP JUMPDEST PUSH3 0x1F56 JUMP JUMPDEST CALLVALUE PUSH3 0x1C4 JUMPI PUSH1 0x20 CALLDATASIZE PUSH1 0x3 NOT ADD SLT PUSH3 0x1C4 JUMPI PUSH1 0xE0 PUSH1 0x1 PUSH1 0x1 PUSH1 0xA0 SHL SUB DUP1 PUSH3 0x1484 PUSH3 0x19A4 JUMP JUMPDEST AND PUSH1 0x0 MSTORE PUSH1 0x4 PUSH1 0x20 MSTORE PUSH1 0x40 PUSH1 0x0 KECCAK256 SWAP1 PUSH1 0x1 DUP3 ADD SLOAD AND SWAP1 PUSH1 0x2 DUP2 ADD SLOAD SWAP1 PUSH1 0x3 DUP2 ADD SLOAD PUSH1 0xFF PUSH1 0x8 PUSH1 0x4 DUP5 ADD SLOAD SWAP4 ADD SLOAD AND SWAP3 PUSH1 0x40 MLOAD SWAP5 DUP6 MSTORE PUSH8 0xDE0B6B3A7640000 PUSH1 0x20 DUP7 ADD MSTORE PUSH10 0xD3C21BCECCEDA1000000 PUSH1 0x40 DUP7 ADD MSTORE PUSH1 0x60 DUP6 ADD MSTORE PUSH1 0x80 DUP5 ADD MSTORE PUSH1 0xA0 DUP4 ADD MSTORE ISZERO ISZERO PUSH1 0xC0 DUP3 ADD MSTORE RETURN JUMPDEST CALLVALUE PUSH3 0x1C4 JUMPI PUSH1 0x0 CALLDATASIZE PUSH1 0x3 NOT ADD SLT PUSH3 0x1C4 JUMPI PUSH1 0x40 MLOAD DUP1 PUSH1 0x6 SLOAD DUP1 DUP4 MSTORE PUSH1 0x20 DUP1 SWAP4 ADD DUP1 SWAP2 PUSH1 0x6 PUSH1 0x0 MSTORE PUSH32 0xF652222313E28459528D920B65115C16C04F3EFC82AAEDC97BE59F3F377C0D3F SWAP1 PUSH1 0x0 JUMPDEST DUP7 DUP3 DUP3 LT PUSH3 0x15A1 JUMPI DUP7 DUP7 PUSH3 0x1556 DUP3 DUP9 SUB DUP4 PUSH3 0x1A09 JUMP JUMPDEST PUSH1 0x40 MLOAD SWAP3 DUP4 SWAP3 DUP2 DUP5 ADD SWAP1 DUP3 DUP6 MSTORE MLOAD DUP1 SWAP2 MSTORE PUSH1 0x40 DUP5 ADD SWAP3 SWAP2 PUSH1 0x0 JUMPDEST DUP3 DUP2 LT PUSH3 0x1580 JUMPI POP POP POP POP SUB SWAP1 RETURN JUMPDEST DUP4 MLOAD PUSH1 0x1 PUSH1 0x1 PUSH1 0xA0 SHL SUB AND DUP6 MSTORE DUP7 SWAP6 POP SWAP4 DUP2 ADD SWAP4 SWAP3 DUP2 ADD SWAP3 PUSH1 0x1 ADD PUSH3 0x1570 JUMP JUMPDEST DUP4 SLOAD PUSH1 0x1 PUSH1 0x1 PUSH1 0xA0 SHL SUB AND DUP6 MSTORE SWAP1 SWAP4 ADD SWAP3 PUSH1 0x1 SWAP3 DUP4 ADD SWAP3 ADD PUSH3 0x153D JUMP JUMPDEST CALLVALUE PUSH3 0x1C4 JUMPI PUSH1 0x0 CALLDATASIZE PUSH1 0x3 NOT ADD SLT PUSH3 0x1C4 JUMPI PUSH1 0x20 PUSH1 0x2 SLOAD PUSH1 0x40 MLOAD SWAP1 DUP2 MSTORE RETURN JUMPDEST CALLVALUE PUSH3 0x1C4 JUMPI PUSH1 0x40 CALLDATASIZE PUSH1 0x3 NOT ADD SLT PUSH3 0x1C4 JUMPI PUSH1 0x20 PUSH3 0x10E7 PUSH3 0x1602 PUSH3 0x19A4 JUMP JUMPDEST PUSH1 0x24 CALLDATALOAD SWAP1 PUSH3 0x1EC2 JUMP JUMPDEST CALLVALUE PUSH3 0x1C4 JUMPI PUSH1 0x0 CALLDATASIZE PUSH1 0x3 NOT ADD SLT PUSH3 0x1C4 JUMPI PUSH1 0x20 PUSH1 0x3 SLOAD PUSH1 0x40 MLOAD SWAP1 DUP2 MSTORE RETURN JUMPDEST PUSH1 0x40 CALLDATASIZE PUSH1 0x3 NOT ADD SLT PUSH3 0x1C4 JUMPI PUSH3 0x1643 PUSH3 0x19A4 JUMP JUMPDEST PUSH3 0x164D PUSH3 0x1B88 JUMP JUMPDEST PUSH1 0x1 DUP1 PUSH1 0xA0 SHL SUB AND DUP1 PUSH1 0x0 MSTORE PUSH1 0x20 SWAP1 PUSH1 0x5 DUP3 MSTORE PUSH3 0x1673 PUSH1 0xFF PUSH1 0x40 PUSH1 0x0 KECCAK256 SLOAD AND PUSH3 0x1C44 JUMP JUMPDEST DUP1 PUSH1 0x0 MSTORE PUSH1 0x4 DUP3 MSTORE PUSH1 0x40 PUSH1 0x0 KECCAK256 SWAP1 PUSH3 0x1694 PUSH1 0xFF PUSH1 0x8 DUP5 ADD SLOAD AND ISZERO PUSH3 0x1C81 JUMP JUMPDEST CALLVALUE ISZERO PUSH3 0x1974 JUMPI PUSH2 0x2710 SWAP2 DUP3 PUSH3 0x16AE PUSH1 0x2 SLOAD CALLVALUE PUSH3 0x1B31 JUMP JUMPDEST DIV SWAP3 PUSH3 0x16BE PUSH1 0x3 SLOAD CALLVALUE PUSH3 0x1B31 JUMP JUMPDEST DIV SWAP1 PUSH3 0x16D1 DUP3 PUSH3 0xCF5 DUP7 CALLVALUE PUSH3 0x1B45 JUMP JUMPDEST SWAP4 PUSH1 0x2 DUP3 ADD DUP1 SLOAD PUSH8 0xDE0B6B3A7640000 SWAP4 DUP2 DUP6 ADD SWAP1 DUP2 DUP7 GT PUSH3 0x8D4 JUMPI PUSH1 0x3 DUP2 ADD DUP1 SLOAD SWAP3 PUSH10 0xD3C21BCECCEDA1000000 SWAP5 DUP5 DUP7 ADD DUP1 SWAP7 GT PUSH3 0x8D4 JUMPI PUSH1 0xB SWAP5 PUSH3 0x171F DUP14 PUSH3 0x176F SWAP5 PUSH3 0x1AC3 JUMP JUMPDEST SWAP8 PUSH3 0x1767 PUSH3 0x1740 PUSH3 0x1738 DUP12 PUSH1 0x4 DUP11 ADD SLOAD PUSH3 0x1BAC JUMP JUMPDEST DUP1 SWAP11 PUSH3 0x1B45 JUMP JUMPDEST SWAP15 DUP16 SWAP5 PUSH3 0x1753 PUSH1 0x24 CALLDATALOAD DUP8 LT ISZERO PUSH3 0x1CC0 JUMP JUMPDEST PUSH3 0x1761 DUP6 DUP8 GT ISZERO PUSH3 0x1BCD JUMP JUMPDEST PUSH3 0x1AC3 JUMP JUMPDEST SWAP1 SSTORE PUSH3 0x1B45 JUMP JUMPDEST SWAP1 SSTORE PUSH1 0x6 DUP2 ADD PUSH3 0x1782 DUP9 DUP3 SLOAD PUSH3 0x1AC3 JUMP JUMPDEST SWAP1 SSTORE PUSH1 0x7 DUP2 ADD PUSH3 0x1795 DUP7 DUP3 SLOAD PUSH3 0x1AC3 JUMP JUMPDEST SWAP1 SSTORE PUSH1 0xA DUP2 ADD PUSH3 0x17A8 CALLVALUE DUP3 SLOAD PUSH3 0x1AC3 JUMP JUMPDEST SWAP1 SSTORE ADD PUSH3 0x17B7 DUP2 SLOAD PUSH3 0x1C1A JUMP JUMPDEST SWAP1 SSTORE PUSH3 0x17C7 DUP4 PUSH1 0x7 SLOAD PUSH3 0x1AC3 JUMP JUMPDEST PUSH1 0x7 SSTORE PUSH1 0x40 MLOAD PUSH4 0xA9059CBB PUSH1 0xE0 SHL DUP2 MSTORE CALLER PUSH1 0x4 DUP3 ADD MSTORE PUSH1 0x24 DUP2 ADD DUP9 SWAP1 MSTORE SWAP2 DUP9 DUP4 PUSH1 0x44 DUP2 PUSH1 0x0 DUP12 GAS CALL SWAP1 DUP2 ISZERO PUSH3 0xAE3 JUMPI PUSH3 0x1814 PUSH3 0xA05 SWAP3 PUSH3 0x181A SWAP6 PUSH1 0x0 SWAP2 PUSH3 0x1952 JUMPI POP PUSH3 0x1D01 JUMP JUMPDEST PUSH3 0x1B13 JUMP JUMPDEST SWAP3 PUSH1 0x40 MLOAD SWAP2 PUSH1 0x1 DUP4 MSTORE CALLVALUE DUP9 DUP5 ADD MSTORE DUP7 PUSH1 0x40 DUP5 ADD MSTORE DUP5 PUSH1 0x60 DUP5 ADD MSTORE PUSH1 0x80 DUP4 ADD MSTORE PUSH1 0xA0 DUP3 ADD MSTORE DUP4 PUSH32 0xB6BFD1E0B5E5317C2BE379C71D23B23080C3BF9B072A49298BA82A7A06B6DC5B PUSH1 0xC0 CALLER SWAP4 LOG3 PUSH12 0x33B2E3C9FD0803CE8000000 SWAP2 DUP3 DUP2 MUL SWAP3 DUP2 DUP5 DIV EQ SWAP1 ISZERO OR ISZERO PUSH3 0x8D4 JUMPI PUSH10 0xE9C7F5BD65501200000 SWAP2 DIV LT ISZERO PUSH3 0x18A6 JUMPI JUMPDEST POP PUSH1 0x1 DUP1 SSTORE PUSH1 0x40 MLOAD SWAP1 DUP2 MSTORE RETURN JUMPDEST DUP1 PUSH1 0x0 MSTORE PUSH1 0x4 DUP4 MSTORE PUSH1 0x40 PUSH1 0x0 KECCAK256 PUSH1 0x8 DUP2 ADD DUP1 SLOAD PUSH1 0xFF DUP2 AND PUSH3 0x1919 JUMPI SWAP2 PUSH1 0x60 SWAP2 PUSH1 0x1 PUSH32 0x74DDD6B35EB9921605EC2CB7DA4AF12CD0020D2117B708ADE1D30523471B7441 SWAP5 PUSH1 0xFF NOT AND OR SWAP1 SSTORE PUSH1 0x2 DUP2 ADD SLOAD SWAP1 PUSH1 0xA PUSH1 0x5 DUP3 ADD SLOAD SWAP2 ADD SLOAD SWAP1 PUSH1 0x40 MLOAD SWAP3 DUP4 MSTORE DUP8 DUP4 ADD MSTORE PUSH1 0x40 DUP3 ADD MSTORE LOG2 DUP3 PUSH3 0x1899 JUMP JUMPDEST PUSH1 0x40 MLOAD PUSH3 0x461BCD PUSH1 0xE5 SHL DUP2 MSTORE PUSH1 0x4 DUP2 ADD DUP8 SWAP1 MSTORE PUSH1 0x11 PUSH1 0x24 DUP3 ADD MSTORE PUSH17 0x105B1C9958591E4819DC98591D585D1959 PUSH1 0x7A SHL PUSH1 0x44 DUP3 ADD MSTORE PUSH1 0x64 SWAP1 REVERT JUMPDEST PUSH3 0x196D SWAP2 POP DUP13 DUP14 RETURNDATASIZE LT PUSH3 0xADB JUMPI PUSH3 0xACB DUP2 DUP4 PUSH3 0x1A09 JUMP JUMPDEST DUP13 PUSH3 0xD64 JUMP JUMPDEST PUSH1 0x40 MLOAD PUSH3 0x461BCD PUSH1 0xE5 SHL DUP2 MSTORE PUSH1 0x4 DUP2 ADD DUP5 SWAP1 MSTORE PUSH1 0x8 PUSH1 0x24 DUP3 ADD MSTORE PUSH8 0xA6CADCC8408AA89 PUSH1 0xC3 SHL PUSH1 0x44 DUP3 ADD MSTORE PUSH1 0x64 SWAP1 REVERT JUMPDEST PUSH1 0x4 CALLDATALOAD SWAP1 PUSH1 0x1 PUSH1 0x1 PUSH1 0xA0 SHL SUB DUP3 AND DUP3 SUB PUSH3 0x1C4 JUMPI JUMP JUMPDEST PUSH1 0x6 SLOAD DUP2 LT ISZERO PUSH3 0x19F3 JUMPI PUSH1 0x6 PUSH1 0x0 MSTORE PUSH32 0xF652222313E28459528D920B65115C16C04F3EFC82AAEDC97BE59F3F377C0D3F ADD SWAP1 PUSH1 0x0 SWAP1 JUMP JUMPDEST PUSH4 0x4E487B71 PUSH1 0xE0 SHL PUSH1 0x0 MSTORE PUSH1 0x32 PUSH1 0x4 MSTORE PUSH1 0x24 PUSH1 0x0 REVERT JUMPDEST SWAP1 PUSH1 0x1F DUP1 NOT SWAP2 ADD AND DUP2 ADD SWAP1 DUP2 LT PUSH8 0xFFFFFFFFFFFFFFFF DUP3 GT OR PUSH3 0x8EA JUMPI PUSH1 0x40 MSTORE JUMP JUMPDEST PUSH8 0xFFFFFFFFFFFFFFFF DUP2 GT PUSH3 0x8EA JUMPI PUSH1 0x1F ADD PUSH1 0x1F NOT AND PUSH1 0x20 ADD SWAP1 JUMP JUMPDEST DUP2 PUSH1 0x1F DUP3 ADD SLT ISZERO PUSH3 0x1C4 JUMPI DUP1 CALLDATALOAD SWAP1 PUSH3 0x1A63 DUP3 PUSH3 0x1A2C JUMP JUMPDEST SWAP3 PUSH3 0x1A73 PUSH1 0x40 MLOAD SWAP5 DUP6 PUSH3 0x1A09 JUMP JUMPDEST DUP3 DUP5 MSTORE PUSH1 0x20 DUP4 DUP4 ADD ADD GT PUSH3 0x1C4 JUMPI DUP2 PUSH1 0x0 SWAP3 PUSH1 0x20 DUP1 SWAP4 ADD DUP4 DUP7 ADD CALLDATACOPY DUP4 ADD ADD MSTORE SWAP1 JUMP JUMPDEST PUSH1 0x0 SLOAD PUSH1 0x1 PUSH1 0x1 PUSH1 0xA0 SHL SUB AND CALLER SUB PUSH3 0x1AAB JUMPI JUMP JUMPDEST PUSH1 0x40 MLOAD PUSH4 0x118CDAA7 PUSH1 0xE0 SHL DUP2 MSTORE CALLER PUSH1 0x4 DUP3 ADD MSTORE PUSH1 0x24 SWAP1 REVERT JUMPDEST SWAP2 SWAP1 DUP3 ADD DUP1 SWAP3 GT PUSH3 0x8D4 JUMPI JUMP JUMPDEST SWAP2 SWAP1 DUP3 MLOAD SWAP3 DUP4 DUP3 MSTORE PUSH1 0x0 JUMPDEST DUP5 DUP2 LT PUSH3 0x1AFE JUMPI POP POP DUP3 PUSH1 0x0 PUSH1 0x20 DUP1 SWAP5 SWAP6 DUP5 ADD ADD MSTORE PUSH1 0x1F DUP1 NOT SWAP2 ADD AND ADD ADD SWAP1 JUMP JUMPDEST PUSH1 0x20 DUP2 DUP4 ADD DUP2 ADD MLOAD DUP5 DUP4 ADD DUP3 ADD MSTORE ADD PUSH3 0x1ADC JUMP JUMPDEST SWAP1 PUSH8 0xDE0B6B3A7640000 SWAP2 DUP3 DUP2 MUL SWAP3 DUP2 DUP5 DIV EQ SWAP1 ISZERO OR ISZERO PUSH3 0x8D4 JUMPI JUMP JUMPDEST DUP2 DUP2 MUL SWAP3 SWAP2 DUP2 ISZERO SWAP2 DUP5 DIV EQ OR ISZERO PUSH3 0x8D4 JUMPI JUMP JUMPDEST SWAP2 SWAP1 DUP3 SUB SWAP2 DUP3 GT PUSH3 0x8D4 JUMPI JUMP JUMPDEST RETURNDATASIZE ISZERO PUSH3 0x1B83 JUMPI RETURNDATASIZE SWAP1 PUSH3 0x1B67 DUP3 PUSH3 0x1A2C JUMP JUMPDEST SWAP2 PUSH3 0x1B77 PUSH1 0x40 MLOAD SWAP4 DUP5 PUSH3 0x1A09 JUMP JUMPDEST DUP3 MSTORE RETURNDATASIZE PUSH1 0x0 PUSH1 0x20 DUP5 ADD RETURNDATACOPY JUMP JUMPDEST PUSH1 0x60 SWAP1 JUMP JUMPDEST PUSH1 0x2 PUSH1 0x1 SLOAD EQ PUSH3 0x1B9A JUMPI PUSH1 0x2 PUSH1 0x1 SSTORE JUMP JUMPDEST PUSH1 0x40 MLOAD PUSH4 0x3EE5AEB5 PUSH1 0xE0 SHL DUP2 MSTORE PUSH1 0x4 SWAP1 REVERT JUMPDEST DUP2 ISZERO PUSH3 0x1BB7 JUMPI DIV SWAP1 JUMP JUMPDEST PUSH4 0x4E487B71 PUSH1 0xE0 SHL PUSH1 0x0 MSTORE PUSH1 0x12 PUSH1 0x4 MSTORE PUSH1 0x24 PUSH1 0x0 REVERT JUMPDEST ISZERO PUSH3 0x1BD5 JUMPI JUMP JUMPDEST PUSH1 0x40 MLOAD PUSH3 0x461BCD PUSH1 0xE5 SHL DUP2 MSTORE PUSH1 0x20 PUSH1 0x4 DUP3 ADD MSTORE PUSH1 0x1C PUSH1 0x24 DUP3 ADD MSTORE PUSH32 0x496E73756666696369656E7420746F6B656E206C697175696469747900000000 PUSH1 0x44 DUP3 ADD MSTORE PUSH1 0x64 SWAP1 REVERT JUMPDEST PUSH1 0x0 NOT DUP2 EQ PUSH3 0x8D4 JUMPI PUSH1 0x1 ADD SWAP1 JUMP JUMPDEST SWAP1 DUP2 PUSH1 0x20 SWAP2 SUB SLT PUSH3 0x1C4 JUMPI MLOAD DUP1 ISZERO ISZERO DUP2 SUB PUSH3 0x1C4 JUMPI SWAP1 JUMP JUMPDEST ISZERO PUSH3 0x1C4C JUMPI JUMP JUMPDEST PUSH1 0x40 MLOAD PUSH3 0x461BCD PUSH1 0xE5 SHL DUP2 MSTORE PUSH1 0x20 PUSH1 0x4 DUP3 ADD MSTORE PUSH1 0xD PUSH1 0x24 DUP3 ADD MSTORE PUSH13 0x24B73B30B634B2103A37B5B2B7 PUSH1 0x99 SHL PUSH1 0x44 DUP3 ADD MSTORE PUSH1 0x64 SWAP1 REVERT JUMPDEST ISZERO PUSH3 0x1C89 JUMPI JUMP JUMPDEST PUSH1 0x40 MLOAD PUSH3 0x461BCD PUSH1 0xE5 SHL DUP2 MSTORE PUSH1 0x20 PUSH1 0x4 DUP3 ADD MSTORE PUSH1 0xF PUSH1 0x24 DUP3 ADD MSTORE PUSH15 0x151BDAD95B8819DC98591D585D1959 PUSH1 0x8A SHL PUSH1 0x44 DUP3 ADD MSTORE PUSH1 0x64 SWAP1 REVERT JUMPDEST ISZERO PUSH3 0x1CC8 JUMPI JUMP JUMPDEST PUSH1 0x40 MLOAD PUSH3 0x461BCD PUSH1 0xE5 SHL DUP2 MSTORE PUSH1 0x20 PUSH1 0x4 DUP3 ADD MSTORE PUSH1 0x11 PUSH1 0x24 DUP3 ADD MSTORE PUSH17 0x14DB1A5C1C1859D948195E18D959591959 PUSH1 0x7A SHL PUSH1 0x44 DUP3 ADD MSTORE PUSH1 0x64 SWAP1 REVERT JUMPDEST ISZERO PUSH3 0x1D09 JUMPI JUMP JUMPDEST PUSH1 0x40 MLOAD PUSH3 0x461BCD PUSH1 0xE5 SHL DUP2 MSTORE PUSH1 0x20 PUSH1 0x4 DUP3 ADD MSTORE PUSH1 0xF PUSH1 0x24 DUP3 ADD MSTORE PUSH15 0x151C985B9CD9995C8819985A5B1959 PUSH1 0x8A SHL PUSH1 0x44 DUP3 ADD MSTORE PUSH1 0x64 SWAP1 REVERT JUMPDEST SWAP1 PUSH8 0xDE0B6B3A7640000 SWAP2 DUP3 DUP2 MUL SWAP3 DUP2 DUP5 DIV EQ SWAP1 ISZERO OR ISZERO PUSH3 0x8D4 JUMPI PUSH3 0x1D67 SWAP2 PUSH3 0x1BAC JUMP JUMPDEST SWAP1 JUMP JUMPDEST SWAP1 PUSH1 0x0 SWAP2 PUSH1 0x1 DUP1 PUSH1 0xA0 SHL SUB AND DUP3 MSTORE PUSH1 0x4 PUSH1 0x20 MSTORE PUSH1 0x40 DUP3 KECCAK256 PUSH1 0x5 PUSH1 0x20 MSTORE PUSH1 0xFF PUSH1 0x40 DUP5 KECCAK256 SLOAD AND ISZERO PUSH3 0x1DEA JUMPI PUSH1 0x2 DUP2 ADD SLOAD SWAP1 PUSH8 0xDE0B6B3A7640000 SWAP2 DUP3 ADD DUP1 SWAP3 GT PUSH3 0x1DD6 JUMPI PUSH1 0x3 ADD SLOAD SWAP1 PUSH10 0xD3C21BCECCEDA1000000 SWAP2 DUP3 ADD DUP1 SWAP3 GT PUSH3 0x1DD6 JUMPI PUSH3 0x1D67 SWAP3 SWAP4 POP PUSH3 0x1D40 JUMP JUMPDEST PUSH4 0x4E487B71 PUSH1 0xE0 SHL DUP5 MSTORE PUSH1 0x11 PUSH1 0x4 MSTORE PUSH1 0x24 DUP5 REVERT JUMPDEST POP JUMP JUMPDEST SWAP1 PUSH1 0x0 SWAP2 PUSH1 0x1 DUP1 PUSH1 0xA0 SHL SUB AND DUP3 MSTORE PUSH1 0x4 PUSH1 0x20 MSTORE PUSH1 0x40 DUP3 KECCAK256 SWAP1 PUSH1 0x5 PUSH1 0x20 MSTORE PUSH1 0xFF PUSH1 0x40 DUP5 KECCAK256 SLOAD AND ISZERO PUSH3 0x1EBD JUMPI PUSH3 0x1E4B SWAP1 PUSH3 0xCF5 PUSH2 0x2710 DUP1 PUSH3 0x1E33 PUSH1 0x2 SLOAD DUP6 PUSH3 0x1B31 JUMP JUMPDEST DIV SWAP1 PUSH3 0x1E43 PUSH1 0x3 SLOAD DUP6 PUSH3 0x1B31 JUMP JUMPDEST DIV SWAP3 PUSH3 0x1B45 JUMP JUMPDEST PUSH1 0x2 DUP3 ADD SLOAD PUSH8 0xDE0B6B3A7640000 SWAP1 DUP2 ADD DUP1 SWAP2 GT PUSH3 0x1DD6 JUMPI PUSH1 0x3 DUP4 ADD SLOAD SWAP4 PUSH10 0xD3C21BCECCEDA1000000 SWAP5 DUP6 ADD DUP1 SWAP6 GT PUSH3 0x1EA9 JUMPI POP SWAP2 PUSH1 0x4 PUSH3 0x1E99 PUSH3 0x1EA2 SWAP4 PUSH3 0x1D67 SWAP7 SWAP6 PUSH3 0x1AC3 JUMP JUMPDEST SWAP2 ADD SLOAD PUSH3 0x1BAC JUMP JUMPDEST SWAP1 PUSH3 0x1B45 JUMP JUMPDEST PUSH4 0x4E487B71 PUSH1 0xE0 SHL DUP2 MSTORE PUSH1 0x11 PUSH1 0x4 MSTORE PUSH1 0x24 SWAP1 REVERT JUMPDEST POP POP SWAP1 JUMP JUMPDEST SWAP1 PUSH1 0x0 SWAP2 PUSH1 0x1 DUP1 PUSH1 0xA0 SHL SUB AND DUP3 MSTORE PUSH1 0x4 PUSH1 0x20 MSTORE PUSH1 0x40 DUP3 KECCAK256 SWAP1 PUSH1 0x5 PUSH1 0x20 MSTORE PUSH1 0xFF PUSH1 0x40 DUP5 KECCAK256 SLOAD AND ISZERO PUSH3 0x1EBD JUMPI PUSH1 0x2 DUP3 ADD SLOAD SWAP3 PUSH8 0xDE0B6B3A7640000 SWAP4 DUP5 ADD DUP1 SWAP5 GT PUSH3 0x1EA9 JUMPI PUSH1 0x3 DUP4 ADD SLOAD SWAP1 PUSH10 0xD3C21BCECCEDA1000000 SWAP2 DUP3 ADD DUP1 SWAP3 GT PUSH3 0x1EA9 JUMPI POP PUSH3 0x1F40 SWAP3 PUSH1 0x4 PUSH3 0x1E99 PUSH3 0x1D67 SWAP7 SWAP5 PUSH3 0x1EA2 SWAP5 PUSH3 0x1AC3 JUMP JUMPDEST PUSH3 0xCF5 PUSH2 0x2710 DUP1 PUSH3 0x1E33 PUSH1 0x2 SLOAD DUP6 PUSH3 0x1B31 JUMP JUMPDEST PUSH1 0x0 SWAP1 PUSH1 0x1 DUP1 PUSH1 0xA0 SHL SUB AND DUP2 MSTORE PUSH1 0x4 PUSH1 0x20 MSTORE PUSH1 0x40 DUP2 KECCAK256 SWAP1 PUSH1 0x5 PUSH1 0x20 MSTORE PUSH1 0xFF PUSH1 0x40 DUP3 KECCAK256 SLOAD AND ISZERO PUSH3 0x1FFB JUMPI PUSH1 0x2 DUP3 ADD SLOAD SWAP2 PUSH8 0xDE0B6B3A7640000 SWAP3 DUP4 ADD SWAP1 DUP2 DUP5 GT PUSH3 0x1FE7 JUMPI PUSH1 0x3 ADD SLOAD SWAP1 PUSH10 0xD3C21BCECCEDA1000000 SWAP2 DUP3 ADD DUP1 SWAP3 GT PUSH3 0x1FE7 JUMPI SWAP1 PUSH3 0x1FC2 SWAP2 PUSH3 0x1D40 JUMP JUMPDEST SWAP1 PUSH12 0x33B2E3C9FD0803CE8000000 SWAP2 DUP3 DUP2 MUL SWAP3 DUP2 DUP5 DIV EQ SWAP1 ISZERO OR ISZERO PUSH3 0x1EA9 JUMPI POP DIV SWAP1 JUMP JUMPDEST PUSH4 0x4E487B71 PUSH1 0xE0 SHL DUP4 MSTORE PUSH1 0x11 PUSH1 0x4 MSTORE PUSH1 0x24 DUP4 REVERT JUMPDEST SWAP1 POP SWAP1 JUMP JUMPDEST PUSH1 0x1 PUSH1 0x1 PUSH1 0xA0 SHL SUB AND PUSH1 0x0 SWAP1 DUP2 MSTORE PUSH1 0x4 PUSH1 0x20 SWAP1 DUP2 MSTORE PUSH1 0x40 DUP1 DUP4 KECCAK256 PUSH1 0x5 SWAP1 SWAP3 MSTORE DUP3 KECCAK256 SLOAD PUSH1 0xFF AND ISZERO PUSH3 0x20B3 JUMPI PUSH1 0x2 DUP2 ADD SLOAD SWAP1 PUSH8 0xDE0B6B3A7640000 SWAP2 DUP3 ADD SWAP1 DUP2 DUP4 GT PUSH3 0x1DD6 JUMPI PUSH1 0x3 ADD SLOAD SWAP1 PUSH10 0xD3C21BCECCEDA1000000 SWAP2 DUP3 ADD DUP1 SWAP3 GT PUSH3 0x1DD6 JUMPI SWAP1 PUSH3 0x206D SWAP2 PUSH3 0x1D40 JUMP JUMPDEST PUSH12 0x33B2E3C9FD0803CE8000000 SWAP1 DUP2 DUP2 MUL SWAP2 DUP2 DUP4 DIV EQ SWAP1 ISZERO OR ISZERO PUSH3 0x1FE7 JUMPI DIV SWAP1 PUSH1 0x64 DUP3 MUL SWAP2 DUP1 DUP4 DIV PUSH1 0x64 EQ SWAP1 ISZERO OR ISZERO PUSH3 0x1EA9 JUMPI POP PUSH10 0xE9C7F5BD65501200000 SWAP1 DIV SWAP1 JUMP JUMPDEST POP SWAP1 JUMP INVALID PUSH1 0x40 PUSH1 0xC0 DUP2 MSTORE CALLVALUE PUSH3 0xC17 JUMPI PUSH3 0x18F8 DUP1 CODESIZE SUB DUP1 PUSH3 0x1E DUP2 PUSH3 0xC1C JUMP JUMPDEST SWAP3 DUP4 CODECOPY DUP2 ADD SWAP1 PUSH2 0x140 DUP2 DUP4 SUB SLT PUSH3 0xC17 JUMPI DUP1 MLOAD PUSH1 0x1 PUSH1 0x1 PUSH1 0x40 SHL SUB DUP2 GT PUSH3 0xC17 JUMPI DUP3 PUSH3 0x4F SWAP2 DUP4 ADD PUSH3 0xC42 JUMP JUMPDEST PUSH1 0x20 DUP3 ADD MLOAD SWAP1 SWAP2 SWAP1 PUSH1 0x1 PUSH1 0x1 PUSH1 0x40 SHL SUB DUP2 GT PUSH3 0xC17 JUMPI DUP4 PUSH3 0x74 SWAP2 DUP4 ADD PUSH3 0xC42 JUMP JUMPDEST DUP2 DUP6 ADD MLOAD PUSH1 0x60 DUP4 ADD MLOAD SWAP1 SWAP5 SWAP1 PUSH1 0x1 PUSH1 0x1 PUSH1 0x40 SHL SUB DUP2 GT PUSH3 0xC17 JUMPI DUP2 PUSH3 0x9D SWAP2 DUP6 ADD PUSH3 0xC42 JUMP JUMPDEST PUSH1 0x80 DUP5 ADD MLOAD PUSH1 0x1 PUSH1 0x1 PUSH1 0x40 SHL SUB DUP2 GT PUSH3 0xC17 JUMPI DUP3 PUSH3 0xBF SWAP2 DUP7 ADD PUSH3 0xC42 JUMP JUMPDEST PUSH1 0xA0 DUP6 ADD MLOAD PUSH1 0x1 PUSH1 0x1 PUSH1 0x40 SHL SUB DUP2 GT PUSH3 0xC17 JUMPI DUP4 PUSH3 0xE1 SWAP2 DUP8 ADD PUSH3 0xC42 JUMP JUMPDEST PUSH1 0xC0 DUP7 ADD MLOAD SWAP1 SWAP3 SWAP1 PUSH1 0x1 PUSH1 0x1 PUSH1 0x40 SHL SUB DUP2 GT PUSH3 0xC17 JUMPI DUP5 PUSH3 0x106 SWAP2 DUP9 ADD PUSH3 0xC42 JUMP JUMPDEST PUSH1 0xE0 DUP8 ADD MLOAD SWAP1 SWAP5 PUSH1 0x1 PUSH1 0x1 PUSH1 0x40 SHL SUB DUP3 GT PUSH3 0xC17 JUMPI PUSH3 0x129 SWAP2 DUP9 ADD PUSH3 0xC42 JUMP JUMPDEST SWAP5 PUSH3 0x148 PUSH2 0x120 PUSH3 0x140 PUSH2 0x100 DUP11 ADD PUSH3 0xCB4 JUMP JUMPDEST SWAP9 ADD PUSH3 0xCB4 JUMP JUMPDEST DUP9 MLOAD SWAP1 SWAP9 PUSH1 0x1 PUSH1 0x1 PUSH1 0x40 SHL SUB DUP3 GT PUSH3 0x5EE JUMPI PUSH1 0x3 SLOAD SWAP1 PUSH1 0x1 DUP3 DUP2 SHR SWAP3 AND DUP1 ISZERO PUSH3 0xC0C JUMPI JUMPDEST PUSH1 0x20 DUP4 LT EQ PUSH3 0x5CD JUMPI DUP2 PUSH1 0x1F DUP5 SWAP4 GT PUSH3 0xB9A JUMPI JUMPDEST POP PUSH1 0x20 SWAP1 PUSH1 0x1F DUP4 GT PUSH1 0x1 EQ PUSH3 0xB0B JUMPI PUSH1 0x0 SWAP3 PUSH3 0xAFF JUMPI JUMPDEST POP POP DUP2 PUSH1 0x1 SHL SWAP2 PUSH1 0x0 NOT SWAP1 PUSH1 0x3 SHL SHR NOT AND OR PUSH1 0x3 SSTORE JUMPDEST DUP1 MLOAD SWAP1 PUSH1 0x1 PUSH1 0x1 PUSH1 0x40 SHL SUB DUP3 GT PUSH3 0x5EE JUMPI PUSH1 0x4 SLOAD SWAP1 PUSH1 0x1 DUP3 DUP2 SHR SWAP3 AND DUP1 ISZERO PUSH3 0xAF4 JUMPI JUMPDEST PUSH1 0x20 DUP4 LT EQ PUSH3 0x5CD JUMPI DUP2 PUSH1 0x1F DUP5 SWAP4 GT PUSH3 0xA82 JUMPI JUMPDEST POP PUSH1 0x20 SWAP1 PUSH1 0x1F DUP4 GT PUSH1 0x1 EQ PUSH3 0x9F3 JUMPI PUSH1 0x0 SWAP3 PUSH3 0x9E7 JUMPI JUMPDEST POP POP DUP2 PUSH1 0x1 SHL SWAP2 PUSH1 0x0 NOT SWAP1 PUSH1 0x3 SHL SHR NOT AND OR PUSH1 0x4 SSTORE JUMPDEST DUP1 MLOAD SWAP1 PUSH1 0x1 PUSH1 0x1 PUSH1 0x40 SHL SUB DUP3 GT PUSH3 0x5EE JUMPI PUSH1 0x5 SLOAD SWAP1 PUSH1 0x1 DUP3 DUP2 SHR SWAP3 AND DUP1 ISZERO PUSH3 0x9DC JUMPI JUMPDEST PUSH1 0x20 DUP4 LT EQ PUSH3 0x5CD JUMPI DUP2 PUSH1 0x1F DUP5 SWAP4 GT PUSH3 0x986 JUMPI JUMPDEST POP PUSH1 0x20 SWAP1 PUSH1 0x1F DUP4 GT PUSH1 0x1 EQ PUSH3 0x8F7 JUMPI PUSH1 0x0 SWAP3 PUSH3 0x8EB JUMPI JUMPDEST POP POP DUP2 PUSH1 0x1 SHL SWAP2 PUSH1 0x0 NOT SWAP1 PUSH1 0x3 SHL SHR NOT AND OR PUSH1 0x5 SSTORE JUMPDEST DUP1 MLOAD SWAP1 PUSH1 0x1 PUSH1 0x1 PUSH1 0x40 SHL SUB DUP3 GT PUSH3 0x5EE JUMPI PUSH1 0x6 SLOAD SWAP1 PUSH1 0x1 DUP3 DUP2 SHR SWAP3 AND DUP1 ISZERO PUSH3 0x8E0 JUMPI JUMPDEST PUSH1 0x20 DUP4 LT EQ PUSH3 0x5CD JUMPI DUP2 PUSH1 0x1F DUP5 SWAP4 GT PUSH3 0x87C JUMPI JUMPDEST POP PUSH1 0x20 SWAP1 PUSH1 0x1F DUP4 GT PUSH1 0x1 EQ PUSH3 0x7FE JUMPI PUSH1 0x0 SWAP3 PUSH3 0x7F2 JUMPI JUMPDEST POP POP DUP2 PUSH1 0x1 SHL SWAP2 PUSH1 0x0 NOT SWAP1 PUSH1 0x3 SHL SHR NOT AND OR PUSH1 0x6 SSTORE JUMPDEST DUP1 MLOAD SWAP1 PUSH1 0x1 PUSH1 0x1 PUSH1 0x40 SHL SUB DUP3 GT PUSH3 0x5EE JUMPI PUSH1 0x7 SLOAD SWAP1 PUSH1 0x1 DUP3 DUP2 SHR SWAP3 AND DUP1 ISZERO PUSH3 0x7E7 JUMPI JUMPDEST PUSH1 0x20 DUP4 LT EQ PUSH3 0x5CD JUMPI DUP2 PUSH1 0x1F DUP5 SWAP4 GT PUSH3 0x783 JUMPI JUMPDEST POP PUSH1 0x20 SWAP1 PUSH1 0x1F DUP4 GT PUSH1 0x1 EQ PUSH3 0x705 JUMPI PUSH1 0x0 SWAP3 PUSH3 0x6F9 JUMPI JUMPDEST POP POP DUP2 PUSH1 0x1 SHL SWAP2 PUSH1 0x0 NOT SWAP1 PUSH1 0x3 SHL SHR NOT AND OR PUSH1 0x7 SSTORE JUMPDEST DUP1 MLOAD SWAP1 PUSH1 0x1 PUSH1 0x1 PUSH1 0x40 SHL SUB DUP3 GT PUSH3 0x5EE JUMPI PUSH1 0x8 SLOAD SWAP1 PUSH1 0x1 DUP3 DUP2 SHR SWAP3 AND DUP1 ISZERO PUSH3 0x6EE JUMPI JUMPDEST PUSH1 0x20 DUP4 LT EQ PUSH3 0x5CD JUMPI DUP2 PUSH1 0x1F DUP5 SWAP4 GT PUSH3 0x68A JUMPI JUMPDEST POP PUSH1 0x20 SWAP1 PUSH1 0x1F DUP4 GT PUSH1 0x1 EQ PUSH3 0x610 JUMPI PUSH1 0x0 SWAP3 PUSH3 0x604 JUMPI JUMPDEST POP POP DUP2 PUSH1 0x1 SHL SWAP2 PUSH1 0x0 NOT SWAP1 PUSH1 0x3 SHL SHR NOT AND OR PUSH1 0x8 SSTORE JUMPDEST DUP1 MLOAD SWAP1 PUSH1 0x1 PUSH1 0x1 PUSH1 0x40 SHL SUB DUP3 GT PUSH3 0x5EE JUMPI PUSH1 0x9 SLOAD SWAP1 PUSH1 0x1 DUP3 DUP2 SHR SWAP3 AND DUP1 ISZERO PUSH3 0x5E3 JUMPI JUMPDEST PUSH1 0x20 DUP4 LT EQ PUSH3 0x5CD JUMPI DUP2 PUSH1 0x1F DUP5 SWAP4 GT PUSH3 0x569 JUMPI JUMPDEST POP PUSH1 0x20 SWAP1 PUSH1 0x1F DUP4 GT PUSH1 0x1 EQ PUSH3 0x4EF JUMPI PUSH1 0x0 SWAP3 PUSH3 0x4E3 JUMPI JUMPDEST POP POP DUP2 PUSH1 0x1 SHL SWAP2 PUSH1 0x0 NOT SWAP1 PUSH1 0x3 SHL SHR NOT AND OR PUSH1 0x9 SSTORE JUMPDEST PUSH1 0x80 MSTORE TIMESTAMP PUSH1 0xA0 MSTORE PUSH1 0x1 PUSH1 0x1 PUSH1 0xA0 SHL SUB AND SWAP1 DUP2 ISZERO PUSH3 0x4CB JUMPI PUSH1 0x2 SLOAD SWAP1 DUP1 DUP3 ADD DUP1 SWAP3 GT PUSH3 0x4B5 JUMPI PUSH1 0x20 PUSH32 0xDDF252AD1BE2C89B69C2B068FC378DAA952BA7F163C4A11628F55A4DF523B3EF SWAP2 PUSH1 0x0 SWAP4 PUSH1 0x2 SSTORE DUP5 DUP5 MSTORE DUP4 DUP3 MSTORE DUP6 DUP5 KECCAK256 DUP2 DUP2 SLOAD ADD SWAP1 SSTORE DUP6 MLOAD SWAP1 DUP2 MSTORE LOG3 MLOAD PUSH2 0xBAE SWAP1 DUP2 PUSH3 0xCCA DUP3 CODECOPY PUSH1 0x80 MLOAD DUP2 PUSH2 0x9F1 ADD MSTORE PUSH1 0xA0 MLOAD DUP2 PUSH2 0x137 ADD MSTORE RETURN JUMPDEST PUSH4 0x4E487B71 PUSH1 0xE0 SHL PUSH1 0x0 MSTORE PUSH1 0x11 PUSH1 0x4 MSTORE PUSH1 0x24 PUSH1 0x0 REVERT JUMPDEST DUP3 MLOAD PUSH4 0xEC442F05 PUSH1 0xE0 SHL DUP2 MSTORE PUSH1 0x0 PUSH1 0x4 DUP3 ADD MSTORE PUSH1 0x24 SWAP1 REVERT JUMPDEST ADD MLOAD SWAP1 POP CODESIZE DUP1 PUSH3 0x419 JUMP JUMPDEST PUSH1 0x9 PUSH1 0x0 SWAP1 DUP2 MSTORE PUSH1 0x0 DUP1 MLOAD PUSH1 0x20 PUSH3 0x18B8 DUP4 CODECOPY DUP2 MLOAD SWAP2 MSTORE SWAP4 POP PUSH1 0x1F NOT DUP6 AND SWAP1 JUMPDEST DUP2 DUP2 LT PUSH3 0x550 JUMPI POP SWAP1 DUP5 PUSH1 0x1 SWAP6 SWAP5 SWAP4 SWAP3 LT PUSH3 0x536 JUMPI JUMPDEST POP POP POP DUP2 SHL ADD PUSH1 0x9 SSTORE PUSH3 0x42F JUMP JUMPDEST ADD MLOAD PUSH1 0x0 NOT PUSH1 0xF8 DUP5 PUSH1 0x3 SHL AND SHR NOT AND SWAP1 SSTORE CODESIZE DUP1 DUP1 PUSH3 0x527 JUMP JUMPDEST SWAP3 SWAP4 PUSH1 0x20 PUSH1 0x1 DUP2 SWAP3 DUP8 DUP7 ADD MLOAD DUP2 SSTORE ADD SWAP6 ADD SWAP4 ADD PUSH3 0x50F JUMP JUMPDEST PUSH1 0x9 PUSH1 0x0 MSTORE SWAP1 SWAP2 POP PUSH1 0x0 DUP1 MLOAD PUSH1 0x20 PUSH3 0x18B8 DUP4 CODECOPY DUP2 MLOAD SWAP2 MSTORE PUSH1 0x1F DUP5 ADD PUSH1 0x5 SHR DUP2 ADD SWAP2 PUSH1 0x20 DUP6 LT PUSH3 0x5C2 JUMPI JUMPDEST SWAP1 PUSH1 0x1F DUP6 SWAP5 SWAP4 SWAP3 ADD PUSH1 0x5 SHR ADD SWAP1 JUMPDEST DUP2 DUP2 LT PUSH3 0x5B2 JUMPI POP PUSH3 0x400 JUMP JUMPDEST PUSH1 0x0 DUP2 SSTORE DUP5 SWAP4 POP PUSH1 0x1 ADD PUSH3 0x5A3 JUMP JUMPDEST SWAP1 SWAP2 POP DUP2 SWAP1 PUSH3 0x595 JUMP JUMPDEST PUSH4 0x4E487B71 PUSH1 0xE0 SHL PUSH1 0x0 MSTORE PUSH1 0x22 PUSH1 0x4 MSTORE PUSH1 0x24 PUSH1 0x0 REVERT JUMPDEST SWAP2 PUSH1 0x7F AND SWAP2 PUSH3 0x3EA JUMP JUMPDEST PUSH4 0x4E487B71 PUSH1 0xE0 SHL PUSH1 0x0 MSTORE PUSH1 0x41 PUSH1 0x4 MSTORE PUSH1 0x24 PUSH1 0x0 REVERT JUMPDEST ADD MLOAD SWAP1 POP CODESIZE DUP1 PUSH3 0x3AF JUMP JUMPDEST PUSH1 0x8 PUSH1 0x0 SWAP1 DUP2 MSTORE PUSH1 0x0 DUP1 MLOAD PUSH1 0x20 PUSH3 0x1898 DUP4 CODECOPY DUP2 MLOAD SWAP2 MSTORE SWAP4 POP PUSH1 0x1F NOT DUP6 AND SWAP1 JUMPDEST DUP2 DUP2 LT PUSH3 0x671 JUMPI POP SWAP1 DUP5 PUSH1 0x1 SWAP6 SWAP5 SWAP4 SWAP3 LT PUSH3 0x657 JUMPI JUMPDEST POP POP POP DUP2 SHL ADD PUSH1 0x8 SSTORE PUSH3 0x3C5 JUMP JUMPDEST ADD MLOAD PUSH1 0x0 NOT PUSH1 0xF8 DUP5 PUSH1 0x3 SHL AND SHR NOT AND SWAP1 SSTORE CODESIZE DUP1 DUP1 PUSH3 0x648 JUMP JUMPDEST SWAP3 SWAP4 PUSH1 0x20 PUSH1 0x1 DUP2 SWAP3 DUP8 DUP7 ADD MLOAD DUP2 SSTORE ADD SWAP6 ADD SWAP4 ADD PUSH3 0x630 JUMP JUMPDEST PUSH1 0x8 PUSH1 0x0 MSTORE SWAP1 SWAP2 POP PUSH1 0x0 DUP1 MLOAD PUSH1 0x20 PUSH3 0x1898 DUP4 CODECOPY DUP2 MLOAD SWAP2 MSTORE PUSH1 0x1F DUP5 ADD PUSH1 0x5 SHR DUP2 ADD SWAP2 PUSH1 0x20 DUP6 LT PUSH3 0x6E3 JUMPI JUMPDEST SWAP1 PUSH1 0x1F DUP6 SWAP5 SWAP4 SWAP3 ADD PUSH1 0x5 SHR ADD SWAP1 JUMPDEST DUP2 DUP2 LT PUSH3 0x6D3 JUMPI POP PUSH3 0x396 JUMP JUMPDEST PUSH1 0x0 DUP2 SSTORE DUP5 SWAP4 POP PUSH1 0x1 ADD PUSH3 0x6C4 JUMP JUMPDEST SWAP1 SWAP2 POP DUP2 SWAP1 PUSH3 0x6B6 JUMP JUMPDEST SWAP2 PUSH1 0x7F AND SWAP2 PUSH3 0x380 JUMP JUMPDEST ADD MLOAD SWAP1 POP CODESIZE DUP1 PUSH3 0x345 JUMP JUMPDEST PUSH1 0x7 PUSH1 0x0 SWAP1 DUP2 MSTORE SWAP4 POP PUSH1 0x0 DUP1 MLOAD PUSH1 0x20 PUSH3 0x1878 DUP4 CODECOPY DUP2 MLOAD SWAP2 MSTORE SWAP2 SWAP1 JUMPDEST PUSH1 0x1F NOT DUP5 AND DUP6 LT PUSH3 0x767 JUMPI PUSH1 0x1 SWAP5 POP DUP4 PUSH1 0x1F NOT DUP2 AND LT PUSH3 0x74D JUMPI JUMPDEST POP POP POP DUP2 SHL ADD PUSH1 0x7 SSTORE PUSH3 0x35B JUMP JUMPDEST ADD MLOAD PUSH1 0x0 NOT PUSH1 0xF8 DUP5 PUSH1 0x3 SHL AND SHR NOT AND SWAP1 SSTORE CODESIZE DUP1 DUP1 PUSH3 0x73E JUMP JUMPDEST DUP2 DUP2 ADD MLOAD DUP4 SSTORE PUSH1 0x20 SWAP5 DUP6 ADD SWAP5 PUSH1 0x1 SWAP1 SWAP4 ADD SWAP3 SWAP1 SWAP2 ADD SWAP1 PUSH3 0x721 JUMP JUMPDEST PUSH1 0x7 PUSH1 0x0 MSTORE SWAP1 SWAP2 POP PUSH1 0x0 DUP1 MLOAD PUSH1 0x20 PUSH3 0x1878 DUP4 CODECOPY DUP2 MLOAD SWAP2 MSTORE PUSH1 0x1F DUP5 ADD PUSH1 0x5 SHR DUP2 ADD SWAP2 PUSH1 0x20 DUP6 LT PUSH3 0x7DC JUMPI JUMPDEST SWAP1 PUSH1 0x1F DUP6 SWAP5 SWAP4 SWAP3 ADD PUSH1 0x5 SHR ADD SWAP1 JUMPDEST DUP2 DUP2 LT PUSH3 0x7CC JUMPI POP PUSH3 0x32C JUMP JUMPDEST PUSH1 0x0 DUP2 SSTORE DUP5 SWAP4 POP PUSH1 0x1 ADD PUSH3 0x7BD JUMP JUMPDEST SWAP1 SWAP2 POP DUP2 SWAP1 PUSH3 0x7AF JUMP JUMPDEST SWAP2 PUSH1 0x7F AND SWAP2 PUSH3 0x316 JUMP JUMPDEST ADD MLOAD SWAP1 POP CODESIZE DUP1 PUSH3 0x2DB JUMP JUMPDEST PUSH1 0x6 PUSH1 0x0 SWAP1 DUP2 MSTORE SWAP4 POP PUSH1 0x0 DUP1 MLOAD PUSH1 0x20 PUSH3 0x18D8 DUP4 CODECOPY DUP2 MLOAD SWAP2 MSTORE SWAP2 SWAP1 JUMPDEST PUSH1 0x1F NOT DUP5 AND DUP6 LT PUSH3 0x860 JUMPI PUSH1 0x1 SWAP5 POP DUP4 PUSH1 0x1F NOT DUP2 AND LT PUSH3 0x846 JUMPI JUMPDEST POP POP POP DUP2 SHL ADD PUSH1 0x6 SSTORE PUSH3 0x2F1 JUMP JUMPDEST ADD MLOAD PUSH1 0x0 NOT PUSH1 0xF8 DUP5 PUSH1 0x3 SHL AND SHR NOT AND SWAP1 SSTORE CODESIZE DUP1 DUP1 PUSH3 0x837 JUMP JUMPDEST DUP2 DUP2 ADD MLOAD DUP4 SSTORE PUSH1 0x20 SWAP5 DUP6 ADD SWAP5 PUSH1 0x1 SWAP1 SWAP4 ADD SWAP3 SWAP1 SWAP2 ADD SWAP1 PUSH3 0x81A JUMP JUMPDEST PUSH1 0x6 PUSH1 0x0 MSTORE SWAP1 SWAP2 POP PUSH1 0x0 DUP1 MLOAD PUSH1 0x20 PUSH3 0x18D8 DUP4 CODECOPY DUP2 MLOAD SWAP2 MSTORE PUSH1 0x1F DUP5 ADD PUSH1 0x5 SHR DUP2 ADD SWAP2 PUSH1 0x20 DUP6 LT PUSH3 0x8D5 JUMPI JUMPDEST SWAP1 PUSH1 0x1F DUP6 SWAP5 SWAP4 SWAP3 ADD PUSH1 0x5 SHR ADD SWAP1 JUMPDEST DUP2 DUP2 LT PUSH3 0x8C5 JUMPI POP PUSH3 0x2C2 JUMP JUMPDEST PUSH1 0x0 DUP2 SSTORE DUP5 SWAP4 POP PUSH1 0x1 ADD PUSH3 0x8B6 JUMP JUMPDEST SWAP1 SWAP2 POP DUP2 SWAP1 PUSH3 0x8A8 JUMP JUMPDEST SWAP2 PUSH1 0x7F AND SWAP2 PUSH3 0x2AC JUMP JUMPDEST ADD MLOAD SWAP1 POP CODESIZE DUP1 PUSH3 0x271 JUMP JUMPDEST PUSH1 0x5 PUSH1 0x0 SWAP1 DUP2 MSTORE SWAP4 POP PUSH32 0x36B6384B5ECA791C62761152D0C79BB0604C104A5FB6F4EB0703F3154BB3DB0 SWAP2 SWAP1 JUMPDEST PUSH1 0x1F NOT DUP5 AND DUP6 LT PUSH3 0x96A JUMPI PUSH1 0x1 SWAP5 POP DUP4 PUSH1 0x1F NOT DUP2 AND LT PUSH3 0x950 JUMPI JUMPDEST POP POP POP DUP2 SHL ADD PUSH1 0x5 SSTORE PUSH3 0x287 JUMP JUMPDEST ADD MLOAD PUSH1 0x0 NOT PUSH1 0xF8 DUP5 PUSH1 0x3 SHL AND SHR NOT AND SWAP1 SSTORE CODESIZE DUP1 DUP1 PUSH3 0x941 JUMP JUMPDEST DUP2 DUP2 ADD MLOAD DUP4 SSTORE PUSH1 0x20 SWAP5 DUP6 ADD SWAP5 PUSH1 0x1 SWAP1 SWAP4 ADD SWAP3 SWAP1 SWAP2 ADD SWAP1 PUSH3 0x924 JUMP JUMPDEST SWAP1 SWAP2 POP PUSH1 0x5 PUSH1 0x0 MSTORE PUSH1 0x20 PUSH1 0x0 KECCAK256 PUSH1 0x1F DUP5 ADD PUSH1 0x5 SHR DUP2 ADD PUSH1 0x20 DUP6 LT PUSH3 0x9D4 JUMPI JUMPDEST SWAP1 DUP5 SWAP4 SWAP3 SWAP2 JUMPDEST PUSH1 0x1F DUP4 ADD PUSH1 0x5 SHR DUP3 ADD DUP2 LT PUSH3 0x9C4 JUMPI POP POP PUSH3 0x258 JUMP JUMPDEST PUSH1 0x0 DUP2 SSTORE DUP6 SWAP5 POP PUSH1 0x1 ADD PUSH3 0x9AC JUMP JUMPDEST POP DUP1 PUSH3 0x9A6 JUMP JUMPDEST SWAP2 PUSH1 0x7F AND SWAP2 PUSH3 0x242 JUMP JUMPDEST ADD MLOAD SWAP1 POP CODESIZE DUP1 PUSH3 0x207 JUMP JUMPDEST PUSH1 0x4 PUSH1 0x0 SWAP1 DUP2 MSTORE SWAP4 POP PUSH32 0x8A35ACFBC15FF81A39AE7D344FD709F28E8600B4AA8C65C6B64BFE7FE36BD19B SWAP2 SWAP1 JUMPDEST PUSH1 0x1F NOT DUP5 AND DUP6 LT PUSH3 0xA66 JUMPI PUSH1 0x1 SWAP5 POP DUP4 PUSH1 0x1F NOT DUP2 AND LT PUSH3 0xA4C JUMPI JUMPDEST POP POP POP DUP2 SHL ADD PUSH1 0x4 SSTORE PUSH3 0x21D JUMP JUMPDEST ADD MLOAD PUSH1 0x0 NOT PUSH1 0xF8 DUP5 PUSH1 0x3 SHL AND SHR NOT AND SWAP1 SSTORE CODESIZE DUP1 DUP1 PUSH3 0xA3D JUMP JUMPDEST DUP2 DUP2 ADD MLOAD DUP4 SSTORE PUSH1 0x20 SWAP5 DUP6 ADD SWAP5 PUSH1 0x1 SWAP1 SWAP4 ADD SWAP3 SWAP1 SWAP2 ADD SWAP1 PUSH3 0xA20 JUMP JUMPDEST PUSH1 0x4 PUSH1 0x0 MSTORE SWAP1 SWAP2 POP PUSH32 0x8A35ACFBC15FF81A39AE7D344FD709F28E8600B4AA8C65C6B64BFE7FE36BD19B PUSH1 0x1F DUP5 ADD PUSH1 0x5 SHR DUP2 ADD PUSH1 0x20 DUP6 LT PUSH3 0xAEC JUMPI JUMPDEST SWAP1 DUP5 SWAP4 SWAP3 SWAP2 JUMPDEST PUSH1 0x1F DUP4 ADD PUSH1 0x5 SHR DUP3 ADD DUP2 LT PUSH3 0xADC JUMPI POP POP PUSH3 0x1EE JUMP JUMPDEST PUSH1 0x0 DUP2 SSTORE DUP6 SWAP5 POP PUSH1 0x1 ADD PUSH3 0xAC4 JUMP JUMPDEST POP DUP1 PUSH3 0xABE JUMP JUMPDEST SWAP2 PUSH1 0x7F AND SWAP2 PUSH3 0x1D8 JUMP JUMPDEST ADD MLOAD SWAP1 POP CODESIZE DUP1 PUSH3 0x19D JUMP JUMPDEST PUSH1 0x3 PUSH1 0x0 SWAP1 DUP2 MSTORE SWAP4 POP PUSH32 0xC2575A0E9E593C00F959F8C92F12DB2869C3395A3B0502D05E2516446F71F85B SWAP2 SWAP1 JUMPDEST PUSH1 0x1F NOT DUP5 AND DUP6 LT PUSH3 0xB7E JUMPI PUSH1 0x1 SWAP5 POP DUP4 PUSH1 0x1F NOT DUP2 AND LT PUSH3 0xB64 JUMPI JUMPDEST POP POP POP DUP2 SHL ADD PUSH1 0x3 SSTORE PUSH3 0x1B3 JUMP JUMPDEST ADD MLOAD PUSH1 0x0 NOT PUSH1 0xF8 DUP5 PUSH1 0x3 SHL AND SHR NOT AND SWAP1 SSTORE CODESIZE DUP1 DUP1 PUSH3 0xB55 JUMP JUMPDEST DUP2 DUP2 ADD MLOAD DUP4 SSTORE PUSH1 0x20 SWAP5 DUP6 ADD SWAP5 PUSH1 0x1 SWAP1 SWAP4 ADD SWAP3 SWAP1 SWAP2 ADD SWAP1 PUSH3 0xB38 JUMP JUMPDEST PUSH1 0x3 PUSH1 0x0 MSTORE SWAP1 SWAP2 POP PUSH32 0xC2575A0E9E593C00F959F8C92F12DB2869C3395A3B0502D05E2516446F71F85B PUSH1 0x1F DUP5 ADD PUSH1 0x5 SHR DUP2 ADD PUSH1 0x20 DUP6 LT PUSH3 0xC04 JUMPI JUMPDEST SWAP1 DUP5 SWAP4 SWAP3 SWAP2 JUMPDEST PUSH1 0x1F DUP4 ADD PUSH1 0x5 SHR DUP3 ADD DUP2 LT PUSH3 0xBF4 JUMPI POP POP PUSH3 0x184 JUMP JUMPDEST PUSH1 0x0 DUP2 SSTORE DUP6 SWAP5 POP PUSH1 0x1 ADD PUSH3 0xBDC JUMP JUMPDEST POP DUP1 PUSH3 0xBD6 JUMP JUMPDEST SWAP2 PUSH1 0x7F AND SWAP2 PUSH3 0x16E JUMP JUMPDEST PUSH1 0x0 DUP1 REVERT JUMPDEST PUSH1 0x40 MLOAD SWAP2 SWAP1 PUSH1 0x1F ADD PUSH1 0x1F NOT AND DUP3 ADD PUSH1 0x1 PUSH1 0x1 PUSH1 0x40 SHL SUB DUP2 GT DUP4 DUP3 LT OR PUSH3 0x5EE JUMPI PUSH1 0x40 MSTORE JUMP JUMPDEST SWAP2 SWAP1 DUP1 PUSH1 0x1F DUP5 ADD SLT ISZERO PUSH3 0xC17 JUMPI DUP3 MLOAD PUSH1 0x1 PUSH1 0x1 PUSH1 0x40 SHL SUB DUP2 GT PUSH3 0x5EE JUMPI PUSH1 0x20 SWAP1 PUSH3 0xC78 PUSH1 0x1F DUP3 ADD PUSH1 0x1F NOT AND DUP4 ADD PUSH3 0xC1C JUMP JUMPDEST SWAP3 DUP2 DUP5 MSTORE DUP3 DUP3 DUP8 ADD ADD GT PUSH3 0xC17 JUMPI PUSH1 0x0 JUMPDEST DUP2 DUP2 LT PUSH3 0xCA0 JUMPI POP DUP3 PUSH1 0x0 SWAP4 SWAP5 SWAP6 POP ADD ADD MSTORE SWAP1 JUMP JUMPDEST DUP6 DUP2 ADD DUP4 ADD MLOAD DUP5 DUP3 ADD DUP5 ADD MSTORE DUP3 ADD PUSH3 0xC8A JUMP JUMPDEST MLOAD SWAP1 PUSH1 0x1 PUSH1 0x1 PUSH1 0xA0 SHL SUB DUP3 AND DUP3 SUB PUSH3 0xC17 JUMPI JUMP INVALID PUSH1 0x80 PUSH1 0x40 DUP2 DUP2 MSTORE PUSH1 0x4 SWAP2 DUP3 CALLDATASIZE LT ISZERO PUSH2 0x16 JUMPI PUSH1 0x0 DUP1 REVERT JUMPDEST PUSH1 0x0 SWAP3 DUP4 CALLDATALOAD PUSH1 0xE0 SHR SWAP2 DUP3 PUSH4 0x2D05D3F EQ PUSH2 0x9DD JUMPI POP DUP2 PUSH4 0x6FDDE03 EQ PUSH2 0x903 JUMPI DUP2 PUSH4 0x95EA7B3 EQ PUSH2 0x855 JUMPI DUP2 PUSH4 0x18160DDD EQ PUSH2 0x836 JUMPI DUP2 PUSH4 0x23B872DD EQ PUSH2 0x73F JUMPI DUP2 PUSH4 0x313CE567 EQ PUSH2 0x723 JUMPI DUP2 PUSH4 0x47ECB665 EQ PUSH2 0x649 JUMPI DUP2 PUSH4 0x70A08231 EQ PUSH2 0x612 JUMPI DUP2 PUSH4 0x7284E416 EQ PUSH2 0x538 JUMPI DUP2 PUSH4 0x95D89B41 EQ PUSH2 0x460 JUMPI DUP2 PUSH4 0xA9059CBB EQ PUSH2 0x42F JUMPI DUP2 PUSH4 0xABA83150 EQ PUSH2 0x355 JUMPI DUP2 PUSH4 0xABFAEEE0 EQ PUSH2 0x27B JUMPI DUP2 PUSH4 0xBEB0A416 EQ PUSH2 0x15A JUMPI POP DUP1 PUSH4 0xCF09E0D0 EQ PUSH2 0x120 JUMPI PUSH4 0xDD62ED3E EQ PUSH2 0xD5 JUMPI PUSH1 0x0 DUP1 REVERT JUMPDEST CALLVALUE PUSH2 0x11C JUMPI DUP1 PUSH1 0x3 NOT CALLDATASIZE ADD SLT PUSH2 0x11C JUMPI DUP1 PUSH1 0x20 SWAP3 PUSH2 0xF1 PUSH2 0xA69 JUMP JUMPDEST PUSH2 0xF9 PUSH2 0xA84 JUMP JUMPDEST PUSH1 0x1 PUSH1 0x1 PUSH1 0xA0 SHL SUB SWAP2 DUP3 AND DUP4 MSTORE PUSH1 0x1 DUP7 MSTORE DUP4 DUP4 KECCAK256 SWAP2 AND DUP3 MSTORE DUP5 MSTORE KECCAK256 SLOAD SWAP1 MLOAD SWAP1 DUP2 MSTORE RETURN JUMPDEST POP DUP1 REVERT JUMPDEST POP CALLVALUE PUSH2 0x11C JUMPI DUP2 PUSH1 0x3 NOT CALLDATASIZE ADD SLT PUSH2 0x11C JUMPI PUSH1 0x20 SWAP1 MLOAD PUSH32 0x0 DUP2 MSTORE RETURN JUMPDEST DUP4 DUP4 CALLVALUE PUSH2 0x11C JUMPI DUP2 PUSH1 0x3 NOT CALLDATASIZE ADD SLT PUSH2 0x11C JUMPI DUP1 MLOAD SWAP1 DUP3 PUSH1 0x9 SLOAD PUSH1 0x1 DUP2 DUP2 SHR SWAP1 DUP1 DUP4 AND SWAP3 DUP4 ISZERO PUSH2 0x271 JUMPI JUMPDEST PUSH1 0x20 SWAP4 DUP5 DUP5 LT DUP2 EQ PUSH2 0x25E JUMPI DUP4 DUP9 MSTORE SWAP1 DUP2 ISZERO PUSH2 0x242 JUMPI POP PUSH1 0x1 EQ PUSH2 0x1EC JUMPI JUMPDEST POP POP POP DUP3 SWAP1 SUB PUSH1 0x1F ADD PUSH1 0x1F NOT AND DUP3 ADD SWAP3 PUSH8 0xFFFFFFFFFFFFFFFF DUP5 GT DUP4 DUP6 LT OR PUSH2 0x1D9 JUMPI POP DUP3 SWAP2 DUP3 PUSH2 0x1D5 SWAP3 MSTORE DUP3 PUSH2 0xA20 JUMP JUMPDEST SUB SWAP1 RETURN JUMPDEST PUSH4 0x4E487B71 PUSH1 0xE0 SHL DUP2 MSTORE PUSH1 0x41 DUP6 MSTORE PUSH1 0x24 SWAP1 REVERT JUMPDEST PUSH1 0x9 DUP8 MSTORE SWAP2 SWAP3 POP DUP6 SWAP2 DUP4 PUSH32 0x6E1540171B6C0C960B71A7020D9F60077F6AF931A8BBF590DA0223DACF75C7AF JUMPDEST DUP4 DUP6 LT PUSH2 0x22E JUMPI POP POP POP POP DUP4 ADD ADD DUP6 DUP1 DUP1 PUSH2 0x1A3 JUMP JUMPDEST DUP1 SLOAD DUP9 DUP7 ADD DUP4 ADD MSTORE SWAP4 ADD SWAP3 DUP5 SWAP1 DUP3 ADD PUSH2 0x218 JUMP JUMPDEST PUSH1 0xFF NOT AND DUP8 DUP6 ADD MSTORE POP POP ISZERO ISZERO PUSH1 0x5 SHL DUP5 ADD ADD SWAP1 POP DUP6 DUP1 DUP1 PUSH2 0x1A3 JUMP JUMPDEST PUSH4 0x4E487B71 PUSH1 0xE0 SHL DUP10 MSTORE PUSH1 0x22 DUP11 MSTORE PUSH1 0x24 DUP10 REVERT JUMPDEST SWAP2 PUSH1 0x7F AND SWAP2 PUSH2 0x184 JUMP JUMPDEST DUP4 DUP4 CALLVALUE PUSH2 0x11C JUMPI DUP2 PUSH1 0x3 NOT CALLDATASIZE ADD SLT PUSH2 0x11C JUMPI DUP1 MLOAD SWAP1 DUP3 PUSH1 0x7 SLOAD PUSH1 0x1 DUP2 DUP2 SHR SWAP1 DUP1 DUP4 AND SWAP3 DUP4 ISZERO PUSH2 0x34B JUMPI JUMPDEST PUSH1 0x20 SWAP4 DUP5 DUP5 LT DUP2 EQ PUSH2 0x25E JUMPI DUP4 DUP9 MSTORE SWAP1 DUP2 ISZERO PUSH2 0x242 JUMPI POP PUSH1 0x1 EQ PUSH2 0x2F5 JUMPI POP POP POP DUP3 SWAP1 SUB PUSH1 0x1F ADD PUSH1 0x1F NOT AND DUP3 ADD SWAP3 PUSH8 0xFFFFFFFFFFFFFFFF DUP5 GT DUP4 DUP6 LT OR PUSH2 0x1D9 JUMPI POP DUP3 SWAP2 DUP3 PUSH2 0x1D5 SWAP3 MSTORE DUP3 PUSH2 0xA20 JUMP JUMPDEST PUSH1 0x7 DUP8 MSTORE SWAP2 SWAP3 POP DUP6 SWAP2 DUP4 PUSH32 0xA66CC928B5EDB82AF9BD49922954155AB7B0942694BEA4CE44661D9A8736C688 JUMPDEST DUP4 DUP6 LT PUSH2 0x337 JUMPI POP POP POP POP DUP4 ADD ADD DUP6 DUP1 DUP1 PUSH2 0x1A3 JUMP JUMPDEST DUP1 SLOAD DUP9 DUP7 ADD DUP4 ADD MSTORE SWAP4 ADD SWAP3 DUP5 SWAP1 DUP3 ADD PUSH2 0x321 JUMP JUMPDEST SWAP2 PUSH1 0x7F AND SWAP2 PUSH2 0x2A5 JUMP JUMPDEST DUP4 DUP4 CALLVALUE PUSH2 0x11C JUMPI DUP2 PUSH1 0x3 NOT CALLDATASIZE ADD SLT PUSH2 0x11C JUMPI DUP1 MLOAD SWAP1 DUP3 PUSH1 0x5 SLOAD PUSH1 0x1 DUP2 DUP2 SHR SWAP1 DUP1 DUP4 AND SWAP3 DUP4 ISZERO PUSH2 0x425 JUMPI JUMPDEST PUSH1 0x20 SWAP4 DUP5 DUP5 LT DUP2 EQ PUSH2 0x25E JUMPI DUP4 DUP9 MSTORE SWAP1 DUP2 ISZERO PUSH2 0x242 JUMPI POP PUSH1 0x1 EQ PUSH2 0x3CF JUMPI POP POP POP DUP3 SWAP1 SUB PUSH1 0x1F ADD PUSH1 0x1F NOT AND DUP3 ADD SWAP3 PUSH8 0xFFFFFFFFFFFFFFFF DUP5 GT DUP4 DUP6 LT OR PUSH2 0x1D9 JUMPI POP DUP3 SWAP2 DUP3 PUSH2 0x1D5 SWAP3 MSTORE DUP3 PUSH2 0xA20 JUMP JUMPDEST PUSH1 0x5 DUP8 MSTORE SWAP2 SWAP3 POP DUP6 SWAP2 DUP4 PUSH32 0x36B6384B5ECA791C62761152D0C79BB0604C104A5FB6F4EB0703F3154BB3DB0 JUMPDEST DUP4 DUP6 LT PUSH2 0x411 JUMPI POP POP POP POP DUP4 ADD ADD DUP6 DUP1 DUP1 PUSH2 0x1A3 JUMP JUMPDEST DUP1 SLOAD DUP9 DUP7 ADD DUP4 ADD MSTORE SWAP4 ADD SWAP3 DUP5 SWAP1 DUP3 ADD PUSH2 0x3FB JUMP JUMPDEST SWAP2 PUSH1 0x7F AND SWAP2 PUSH2 0x37F JUMP JUMPDEST POP POP CALLVALUE PUSH2 0x11C JUMPI DUP1 PUSH1 0x3 NOT CALLDATASIZE ADD SLT PUSH2 0x11C JUMPI PUSH1 0x20 SWAP1 PUSH2 0x459 PUSH2 0x44F PUSH2 0xA69 JUMP JUMPDEST PUSH1 0x24 CALLDATALOAD SWAP1 CALLER PUSH2 0xA9A JUMP JUMPDEST MLOAD PUSH1 0x1 DUP2 MSTORE RETURN JUMPDEST DUP4 DUP4 CALLVALUE PUSH2 0x11C JUMPI DUP2 PUSH1 0x3 NOT CALLDATASIZE ADD SLT PUSH2 0x11C JUMPI DUP1 MLOAD SWAP1 DUP3 DUP5 SLOAD PUSH1 0x1 DUP2 DUP2 SHR SWAP1 DUP1 DUP4 AND SWAP3 DUP4 ISZERO PUSH2 0x52E JUMPI JUMPDEST PUSH1 0x20 SWAP4 DUP5 DUP5 LT DUP2 EQ PUSH2 0x25E JUMPI DUP4 DUP9 MSTORE SWAP1 DUP2 ISZERO PUSH2 0x242 JUMPI POP PUSH1 0x1 EQ PUSH2 0x4D9 JUMPI POP POP POP DUP3 SWAP1 SUB PUSH1 0x1F ADD PUSH1 0x1F NOT AND DUP3 ADD SWAP3 PUSH8 0xFFFFFFFFFFFFFFFF DUP5 GT DUP4 DUP6 LT OR PUSH2 0x1D9 JUMPI POP DUP3 SWAP2 DUP3 PUSH2 0x1D5 SWAP3 MSTORE DUP3 PUSH2 0xA20 JUMP JUMPDEST DUP8 DUP8 MSTORE SWAP2 SWAP3 POP DUP6 SWAP2 DUP4 PUSH32 0x8A35ACFBC15FF81A39AE7D344FD709F28E8600B4AA8C65C6B64BFE7FE36BD19B JUMPDEST DUP4 DUP6 LT PUSH2 0x51A JUMPI POP POP POP POP DUP4 ADD ADD DUP6 DUP1 DUP1 PUSH2 0x1A3 JUMP JUMPDEST DUP1 SLOAD DUP9 DUP7 ADD DUP4 ADD MSTORE SWAP4 ADD SWAP3 DUP5 SWAP1 DUP3 ADD PUSH2 0x504 JUMP JUMPDEST SWAP2 PUSH1 0x7F AND SWAP2 PUSH2 0x489 JUMP JUMPDEST DUP4 DUP4 CALLVALUE PUSH2 0x11C JUMPI DUP2 PUSH1 0x3 NOT CALLDATASIZE ADD SLT PUSH2 0x11C JUMPI DUP1 MLOAD SWAP1 DUP3 PUSH1 0x6 SLOAD PUSH1 0x1 DUP2 DUP2 SHR SWAP1 DUP1 DUP4 AND SWAP3 DUP4 ISZERO PUSH2 0x608 JUMPI JUMPDEST PUSH1 0x20 SWAP4 DUP5 DUP5 LT DUP2 EQ PUSH2 0x25E JUMPI DUP4 DUP9 MSTORE SWAP1 DUP2 ISZERO PUSH2 0x242 JUMPI POP PUSH1 0x1 EQ PUSH2 0x5B2 JUMPI POP POP POP DUP3 SWAP1 SUB PUSH1 0x1F ADD PUSH1 0x1F NOT AND DUP3 ADD SWAP3 PUSH8 0xFFFFFFFFFFFFFFFF DUP5 GT DUP4 DUP6 LT OR PUSH2 0x1D9 JUMPI POP DUP3 SWAP2 DUP3 PUSH2 0x1D5 SWAP3 MSTORE DUP3 PUSH2 0xA20 JUMP JUMPDEST PUSH1 0x6 DUP8 MSTORE SWAP2 SWAP3 POP DUP6 SWAP2 DUP4 PUSH32 0xF652222313E28459528D920B65115C16C04F3EFC82AAEDC97BE59F3F377C0D3F JUMPDEST DUP4 DUP6 LT PUSH2 0x5F4 JUMPI POP POP POP POP DUP4 ADD ADD DUP6 DUP1 DUP1 PUSH2 0x1A3 JUMP JUMPDEST DUP1 SLOAD DUP9 DUP7 ADD DUP4 ADD MSTORE SWAP4 ADD SWAP3 DUP5 SWAP1 DUP3 ADD PUSH2 0x5DE JUMP JUMPDEST SWAP2 PUSH1 0x7F AND SWAP2 PUSH2 0x562 JUMP JUMPDEST POP POP CALLVALUE PUSH2 0x11C JUMPI PUSH1 0x20 CALLDATASIZE PUSH1 0x3 NOT ADD SLT PUSH2 0x11C JUMPI PUSH1 0x20 SWAP2 DUP2 SWAP1 PUSH1 0x1 PUSH1 0x1 PUSH1 0xA0 SHL SUB PUSH2 0x63A PUSH2 0xA69 JUMP JUMPDEST AND DUP2 MSTORE DUP1 DUP5 MSTORE KECCAK256 SLOAD SWAP1 MLOAD SWAP1 DUP2 MSTORE RETURN JUMPDEST DUP4 DUP4 CALLVALUE PUSH2 0x11C JUMPI DUP2 PUSH1 0x3 NOT CALLDATASIZE ADD SLT PUSH2 0x11C JUMPI DUP1 MLOAD SWAP1 DUP3 PUSH1 0x8 SLOAD PUSH1 0x1 DUP2 DUP2 SHR SWAP1 DUP1 DUP4 AND SWAP3 DUP4 ISZERO PUSH2 0x719 JUMPI JUMPDEST PUSH1 0x20 SWAP4 DUP5 DUP5 LT DUP2 EQ PUSH2 0x25E JUMPI DUP4 DUP9 MSTORE SWAP1 DUP2 ISZERO PUSH2 0x242 JUMPI POP PUSH1 0x1 EQ PUSH2 0x6C3 JUMPI POP POP POP DUP3 SWAP1 SUB PUSH1 0x1F ADD PUSH1 0x1F NOT AND DUP3 ADD SWAP3 PUSH8 0xFFFFFFFFFFFFFFFF DUP5 GT DUP4 DUP6 LT OR PUSH2 0x1D9 JUMPI POP DUP3 SWAP2 DUP3 PUSH2 0x1D5 SWAP3 MSTORE DUP3 PUSH2 0xA20 JUMP JUMPDEST PUSH1 0x8 DUP8 MSTORE SWAP2 SWAP3 POP DUP6 SWAP2 DUP4 PUSH32 0xF3F7A9FE364FAAB93B216DA50A3214154F22A0A2B415B23A84C8169E8B636EE3 JUMPDEST DUP4 DUP6 LT PUSH2 0x705 JUMPI POP POP POP POP DUP4 ADD ADD DUP6 DUP1 DUP1 PUSH2 0x1A3 JUMP JUMPDEST DUP1 SLOAD DUP9 DUP7 ADD DUP4 ADD MSTORE SWAP4 ADD SWAP3 DUP5 SWAP1 DUP3 ADD PUSH2 0x6EF JUMP JUMPDEST SWAP2 PUSH1 0x7F AND SWAP2 PUSH2 0x673 JUMP JUMPDEST POP POP CALLVALUE PUSH2 0x11C JUMPI DUP2 PUSH1 0x3 NOT CALLDATASIZE ADD SLT PUSH2 0x11C JUMPI PUSH1 0x20 SWAP1 MLOAD PUSH1 0x12 DUP2 MSTORE RETURN JUMPDEST SWAP1 POP DUP3 CALLVALUE PUSH2 0x833 JUMPI PUSH1 0x60 CALLDATASIZE PUSH1 0x3 NOT ADD SLT PUSH2 0x833 JUMPI PUSH2 0x75B PUSH2 0xA69 JUMP JUMPDEST PUSH2 0x763 PUSH2 0xA84 JUMP JUMPDEST SWAP2 PUSH1 0x44 CALLDATALOAD SWAP4 PUSH1 0x1 DUP1 PUSH1 0xA0 SHL SUB DUP4 AND DUP1 DUP4 MSTORE PUSH1 0x1 PUSH1 0x20 MSTORE DUP7 DUP4 KECCAK256 CALLER DUP5 MSTORE PUSH1 0x20 MSTORE DUP7 DUP4 KECCAK256 SLOAD SWAP2 PUSH1 0x0 NOT DUP4 LT PUSH2 0x79F JUMPI JUMPDEST PUSH1 0x20 DUP9 PUSH2 0x459 DUP10 DUP10 DUP10 PUSH2 0xA9A JUMP JUMPDEST DUP7 DUP4 LT PUSH2 0x807 JUMPI DUP2 ISZERO PUSH2 0x7F0 JUMPI CALLER ISZERO PUSH2 0x7D9 JUMPI POP DUP3 MSTORE PUSH1 0x1 PUSH1 0x20 SWAP1 DUP2 MSTORE DUP7 DUP4 KECCAK256 CALLER DUP5 MSTORE DUP2 MSTORE SWAP2 DUP7 SWAP1 KECCAK256 SWAP1 DUP6 SWAP1 SUB SWAP1 SSTORE DUP3 SWAP1 PUSH2 0x459 DUP8 PUSH2 0x791 JUMP JUMPDEST DUP8 MLOAD PUSH4 0x4A1406B1 PUSH1 0xE1 SHL DUP2 MSTORE SWAP1 DUP2 ADD DUP5 SWAP1 MSTORE PUSH1 0x24 SWAP1 REVERT JUMPDEST DUP8 MLOAD PUSH4 0xE602DF05 PUSH1 0xE0 SHL DUP2 MSTORE SWAP1 DUP2 ADD DUP5 SWAP1 MSTORE PUSH1 0x24 SWAP1 REVERT JUMPDEST DUP8 MLOAD PUSH4 0x7DC7A0D9 PUSH1 0xE1 SHL DUP2 MSTORE CALLER SWAP2 DUP2 ADD SWAP2 DUP3 MSTORE PUSH1 0x20 DUP3 ADD SWAP4 SWAP1 SWAP4 MSTORE PUSH1 0x40 DUP2 ADD DUP8 SWAP1 MSTORE DUP3 SWAP2 POP PUSH1 0x60 ADD SUB SWAP1 REVERT JUMPDEST DUP1 REVERT JUMPDEST POP POP CALLVALUE PUSH2 0x11C JUMPI DUP2 PUSH1 0x3 NOT CALLDATASIZE ADD SLT PUSH2 0x11C JUMPI PUSH1 0x20 SWAP1 PUSH1 0x2 SLOAD SWAP1 MLOAD SWAP1 DUP2 MSTORE RETURN JUMPDEST SWAP1 POP CALLVALUE PUSH2 0x8FF JUMPI DUP2 PUSH1 0x3 NOT CALLDATASIZE ADD SLT PUSH2 0x8FF JUMPI PUSH2 0x86F PUSH2 0xA69 JUMP JUMPDEST PUSH1 0x24 CALLDATALOAD SWAP1 CALLER ISZERO PUSH2 0x8E8 JUMPI PUSH1 0x1 PUSH1 0x1 PUSH1 0xA0 SHL SUB AND SWAP2 DUP3 ISZERO PUSH2 0x8D1 JUMPI POP DUP1 DUP4 PUSH1 0x20 SWAP6 CALLER DUP2 MSTORE PUSH1 0x1 DUP8 MSTORE DUP2 DUP2 KECCAK256 DUP6 DUP3 MSTORE DUP8 MSTORE KECCAK256 SSTORE DUP3 MLOAD SWAP1 DUP2 MSTORE PUSH32 0x8C5BE1E5EBEC7D5BD14F71427D1E84F3DD0314C0F7B2291E5B200AC8C7C3B925 DUP5 CALLER SWAP3 LOG3 MLOAD PUSH1 0x1 DUP2 MSTORE RETURN JUMPDEST DUP4 MLOAD PUSH4 0x4A1406B1 PUSH1 0xE1 SHL DUP2 MSTORE SWAP1 DUP2 ADD DUP6 SWAP1 MSTORE PUSH1 0x24 SWAP1 REVERT JUMPDEST DUP4 MLOAD PUSH4 0xE602DF05 PUSH1 0xE0 SHL DUP2 MSTORE DUP1 DUP5 ADD DUP7 SWAP1 MSTORE PUSH1 0x24 SWAP1 REVERT JUMPDEST DUP3 DUP1 REVERT JUMPDEST DUP4 DUP4 CALLVALUE PUSH2 0x11C JUMPI DUP2 PUSH1 0x3 NOT CALLDATASIZE ADD SLT PUSH2 0x11C JUMPI DUP1 MLOAD SWAP1 DUP3 PUSH1 0x3 SLOAD PUSH1 0x1 DUP2 DUP2 SHR SWAP1 DUP1 DUP4 AND SWAP3 DUP4 ISZERO PUSH2 0x9D3 JUMPI JUMPDEST PUSH1 0x20 SWAP4 DUP5 DUP5 LT DUP2 EQ PUSH2 0x25E JUMPI DUP4 DUP9 MSTORE SWAP1 DUP2 ISZERO PUSH2 0x242 JUMPI POP PUSH1 0x1 EQ PUSH2 0x97D JUMPI POP POP POP DUP3 SWAP1 SUB PUSH1 0x1F ADD PUSH1 0x1F NOT AND DUP3 ADD SWAP3 PUSH8 0xFFFFFFFFFFFFFFFF DUP5 GT DUP4 DUP6 LT OR PUSH2 0x1D9 JUMPI POP DUP3 SWAP2 DUP3 PUSH2 0x1D5 SWAP3 MSTORE DUP3 PUSH2 0xA20 JUMP JUMPDEST PUSH1 0x3 DUP8 MSTORE SWAP2 SWAP3 POP DUP6 SWAP2 DUP4 PUSH32 0xC2575A0E9E593C00F959F8C92F12DB2869C3395A3B0502D05E2516446F71F85B JUMPDEST DUP4 DUP6 LT PUSH2 0x9BF JUMPI POP POP POP POP DUP4 ADD ADD DUP6 DUP1 DUP1 PUSH2 0x1A3 JUMP JUMPDEST DUP1 SLOAD DUP9 DUP7 ADD DUP4 ADD MSTORE SWAP4 ADD SWAP3 DUP5 SWAP1 DUP3 ADD PUSH2 0x9A9 JUMP JUMPDEST SWAP2 PUSH1 0x7F AND SWAP2 PUSH2 0x92D JUMP JUMPDEST DUP5 SWAP1 CALLVALUE PUSH2 0x11C JUMPI DUP2 PUSH1 0x3 NOT CALLDATASIZE ADD SLT PUSH2 0x11C JUMPI PUSH32 0x0 PUSH1 0x1 PUSH1 0x1 PUSH1 0xA0 SHL SUB AND DUP2 MSTORE PUSH1 0x20 SWAP1 RETURN JUMPDEST PUSH1 0x20 DUP1 DUP3 MSTORE DUP3 MLOAD DUP2 DUP4 ADD DUP2 SWAP1 MSTORE SWAP1 SWAP4 SWAP3 PUSH1 0x0 JUMPDEST DUP3 DUP2 LT PUSH2 0xA55 JUMPI POP POP PUSH1 0x40 SWAP3 SWAP4 POP PUSH1 0x0 DUP4 DUP3 DUP5 ADD ADD MSTORE PUSH1 0x1F DUP1 NOT SWAP2 ADD AND ADD ADD SWAP1 JUMP JUMPDEST DUP2 DUP2 ADD DUP7 ADD MLOAD DUP5 DUP3 ADD PUSH1 0x40 ADD MSTORE DUP6 ADD PUSH2 0xA33 JUMP JUMPDEST PUSH1 0x4 CALLDATALOAD SWAP1 PUSH1 0x1 PUSH1 0x1 PUSH1 0xA0 SHL SUB DUP3 AND DUP3 SUB PUSH2 0xA7F JUMPI JUMP JUMPDEST PUSH1 0x0 DUP1 REVERT JUMPDEST PUSH1 0x24 CALLDATALOAD SWAP1 PUSH1 0x1 PUSH1 0x1 PUSH1 0xA0 SHL SUB DUP3 AND DUP3 SUB PUSH2 0xA7F JUMPI JUMP JUMPDEST SWAP2 PUSH1 0x1 PUSH1 0x1 PUSH1 0xA0 SHL SUB DUP1 DUP5 AND SWAP3 DUP4 ISZERO PUSH2 0xB5F JUMPI AND SWAP3 DUP4 ISZERO PUSH2 0xB46 JUMPI PUSH1 0x0 SWAP1 DUP4 DUP3 MSTORE DUP2 PUSH1 0x20 MSTORE PUSH1 0x40 DUP3 KECCAK256 SLOAD SWAP1 DUP4 DUP3 LT PUSH2 0xB14 JUMPI POP SWAP2 PUSH1 0x40 DUP3 DUP3 PUSH32 0xDDF252AD1BE2C89B69C2B068FC378DAA952BA7F163C4A11628F55A4DF523B3EF SWAP6 DUP8 PUSH1 0x20 SWAP7 MSTORE DUP3 DUP7 MSTORE SUB DUP3 DUP3 KECCAK256 SSTORE DUP7 DUP2 MSTORE KECCAK256 DUP2 DUP2 SLOAD ADD SWAP1 SSTORE PUSH1 0x40 MLOAD SWAP1 DUP2 MSTORE LOG3 JUMP JUMPDEST PUSH1 0x40 MLOAD PUSH4 0x391434E3 PUSH1 0xE2 SHL DUP2 MSTORE PUSH1 0x1 PUSH1 0x1 PUSH1 0xA0 SHL SUB SWAP2 SWAP1 SWAP2 AND PUSH1 0x4 DUP3 ADD MSTORE PUSH1 0x24 DUP2 ADD SWAP2 SWAP1 SWAP2 MSTORE PUSH1 0x44 DUP2 ADD DUP4 SWAP1 MSTORE PUSH1 0x64 SWAP1 REVERT JUMPDEST PUSH1 0x40 MLOAD PUSH4 0xEC442F05 PUSH1 0xE0 SHL DUP2 MSTORE PUSH1 0x0 PUSH1 0x4 DUP3 ADD MSTORE PUSH1 0x24 SWAP1 REVERT JUMPDEST PUSH1 0x40 MLOAD PUSH4 0x4B637E8F PUSH1 0xE1 SHL DUP2 MSTORE PUSH1 0x0 PUSH1 0x4 DUP3 ADD MSTORE PUSH1 0x24 SWAP1 REVERT INVALID LOG2 PUSH5 0x6970667358 0x22 SLT KECCAK256 LOG2 GT GAS CREATE2 SWAP10 0xA8 CREATE2 DUP6 DUP2 0xDA 0xE5 0xB1 0xE2 0x23 0xE0 MSTORE SWAP1 0xD7 LOG3 CREATE 0x2A 0xA8 BLOCKHASH 0xEE 0xC7 0xB4 0x24 PUSH19 0x7FEFA93764736F6C63430008140033A66CC928 0xB5 0xED 0xB8 0x2A 0xF9 0xBD 0x49 SWAP3 0x29 SLOAD ISZERO GAS 0xB7 0xB0 SWAP5 0x26 SWAP5 0xBE LOG4 0xCE PREVRANDAO PUSH7 0x1D9A8736C688F3 0xF7 0xA9 INVALID CALLDATASIZE 0x4F 0xAA 0xB9 EXTCODESIZE 0x21 PUSH14 0xA50A3214154F22A0A2B415B23A84 0xC8 AND SWAP15 DUP12 PUSH4 0x6EE36E15 BLOCKHASH OR SHL PUSH13 0xC960B71A7020D9F60077F6AF9 BALANCE 0xA8 0xBB CREATE2 SWAP1 0xDA MUL 0x23 0xDA 0xCF PUSH22 0xC7AFF652222313E28459528D920B65115C16C04F3EFC DUP3 0xAA 0xED 0xC9 PUSH28 0xE59F3F377C0D3FA264697066735822122049DDD8A9C1B862D8C00467 0xC2 SELFBALANCE PUSH0 PUSH24 0xF1506BC3EBA500C9C0E9294EE2EE24945664736F6C634300 ADDMOD EQ STOP CALLER "},"methodIdentifiers":{"BONDING_SUPPLY()":"8d427e25","BPS_DENOMINATOR()":"e1a45218","CREATION_FEE()":"49a2104d","DEX_RESERVE()":"75535f32","GRADUATION_THRESHOLD()":"fcfc0c09","MAX_DEV_BUY()":"48dfd578","TOTAL_SUPPLY()":"902d55a5","VIRTUAL_ETH_RESERVE()":"cb24a72f","VIRTUAL_TOKEN_RESERVE()":"7e309b92","allTokens(uint256)":"634282af","bondingProgress(address)":"b45d92df","buyTokens(address,uint256)":"0752881a","calculateBuyReturn(address,uint256)":"75a8e372","calculateMarketCap(address)":"41344d5d","calculateSellReturn(address,uint256)":"1c8b271a","claimCreatorFees(address)":"d6ae6e44","createToken(string,string,string,string,string,string,string,string,uint256)":"ea1ee599","creatorFeeBps()":"17773ebb","getAllTokens()":"2a5c792a","getFullTokenInfo(address)":"306ba063","getTokenCount()":"78a89567","getTokenPrice(address)":"d02641a0","isValidToken(address)":"c1876453","owner()":"8da5cb5b","platformFeeBps()":"22dcd13e","renounceOwnership()":"715018a6","sellTokens(address,uint256,uint256)":"e4e57b9e","tokenInfo(address)":"f5dab711","totalPlatformFees()":"d3631fa5","transferOwnership(address)":"f2fde38b","updateFees(uint256,uint256)":"6db79437","withdrawPlatformFees()":"d0b7830b"}}}}}