{"abi":[{"type":"constructor","inputs":[{"name":"_implementation","type":"address","internalType":"address"}],"stateMutability":"nonpayable"},{"type":"function","name":"MAX_FEE","inputs":[],"outputs":[{"name":"","type":"uint256","internalType":"uint256"}],"stateMutability":"view"},{"type":"function","name":"admin","inputs":[],"outputs":[{"name":"","type":"address","internalType":"address"}],"stateMutability":"view"},{"type":"function","name":"adminReleaseMilestone","inputs":[{"name":"escrowAddress","type":"address","internalType":"address"},{"name":"milestoneId","type":"uint256","internalType":"uint256"}],"outputs":[],"stateMutability":"nonpayable"},{"type":"function","name":"allEscrows","inputs":[{"name":"","type":"uint256","internalType":"uint256"}],"outputs":[{"name":"","type":"address","internalType":"address"}],"stateMutability":"view"},{"type":"function","name":"collectFees","inputs":[],"outputs":[],"stateMutability":"nonpayable"},{"type":"function","name":"collectedFees","inputs":[],"outputs":[{"name":"","type":"uint256","internalType":"uint256"}],"stateMutability":"view"},{"type":"function","name":"createEscrow","inputs":[{"name":"kol","type":"address","internalType":"address"},{"name":"token","type":"address","internalType":"address"},{"name":"totalAmount","type":"uint256","internalType":"uint256"},{"name":"milestoneAmounts","type":"uint256[]","internalType":"uint256[]"},{"name":"releaseDates","type":"uint256[]","internalType":"uint256[]"},{"name":"verifiers","type":"address[]","internalType":"address[]"},{"name":"verificationThreshold","type":"uint8","internalType":"uint8"}],"outputs":[{"name":"escrow","type":"address","internalType":"address"}],"stateMutability":"nonpayable"},{"type":"function","name":"feePercentage","inputs":[],"outputs":[{"name":"","type":"uint256","internalType":"uint256"}],"stateMutability":"view"},{"type":"function","name":"getAllEscrows","inputs":[],"outputs":[{"name":"","type":"address[]","internalType":"address[]"}],"stateMutability":"view"},{"type":"function","name":"getEscrowCount","inputs":[],"outputs":[{"name":"","type":"uint256","internalType":"uint256"}],"stateMutability":"view"},{"type":"function","name":"getEscrowsByKOL","inputs":[{"name":"kol","type":"address","internalType":"address"}],"outputs":[{"name":"","type":"address[]","internalType":"address[]"}],"stateMutability":"view"},{"type":"function","name":"getEscrowsByProject","inputs":[{"name":"project","type":"address","internalType":"address"}],"outputs":[{"name":"","type":"address[]","internalType":"address[]"}],"stateMutability":"view"},{"type":"function","name":"implementation","inputs":[],"outputs":[{"name":"","type":"address","internalType":"address"}],"stateMutability":"view"},{"type":"function","name":"isEscrow","inputs":[{"name":"","type":"address","internalType":"address"}],"outputs":[{"name":"","type":"bool","internalType":"bool"}],"stateMutability":"view"},{"type":"function","name":"kolEscrows","inputs":[{"name":"","type":"address","internalType":"address"},{"name":"","type":"uint256","internalType":"uint256"}],"outputs":[{"name":"","type":"address","internalType":"address"}],"stateMutability":"view"},{"type":"function","name":"projectEscrows","inputs":[{"name":"","type":"address","internalType":"address"},{"name":"","type":"uint256","internalType":"uint256"}],"outputs":[{"name":"","type":"address","internalType":"address"}],"stateMutability":"view"},{"type":"function","name":"updateAdmin","inputs":[{"name":"newAdmin","type":"address","internalType":"address"}],"outputs":[],"stateMutability":"nonpayable"},{"type":"function","name":"updateFee","inputs":[{"name":"newFeePercentage","type":"uint256","internalType":"uint256"}],"outputs":[],"stateMutability":"nonpayable"},{"type":"function","name":"updateImplementation","inputs":[{"name":"newImplementation","type":"address","internalType":"address"}],"outputs":[],"stateMutability":"nonpayable"},{"type":"event","name":"AdminChanged","inputs":[{"name":"oldAdmin","type":"address","indexed":true,"internalType":"address"},{"name":"newAdmin","type":"address","indexed":true,"internalType":"address"}],"anonymous":false},{"type":"event","name":"EscrowCreated","inputs":[{"name":"escrow","type":"address","indexed":true,"internalType":"address"},{"name":"project","type":"address","indexed":true,"internalType":"address"},{"name":"kol","type":"address","indexed":true,"internalType":"address"},{"name":"token","type":"address","indexed":false,"internalType":"address"},{"name":"totalAmount","type":"uint256","indexed":false,"internalType":"uint256"}],"anonymous":false},{"type":"event","name":"FeeUpdated","inputs":[{"name":"oldFee","type":"uint256","indexed":false,"internalType":"uint256"},{"name":"newFee","type":"uint256","indexed":false,"internalType":"uint256"}],"anonymous":false},{"type":"event","name":"FeesCollected","inputs":[{"name":"collector","type":"address","indexed":true,"internalType":"address"},{"name":"amount","type":"uint256","indexed":false,"internalType":"uint256"}],"anonymous":false},{"type":"event","name":"ImplementationUpdated","inputs":[{"name":"oldImpl","type":"address","indexed":true,"internalType":"address"},{"name":"newImpl","type":"address","indexed":true,"internalType":"address"}],"anonymous":false},{"type":"error","name":"AddressEmptyCode","inputs":[{"name":"target","type":"address","internalType":"address"}]},{"type":"error","name":"AddressInsufficientBalance","inputs":[{"name":"account","type":"address","internalType":"address"}]},{"type":"error","name":"ERC1167FailedCreateClone","inputs":[]},{"type":"error","name":"FailedInnerCall","inputs":[]},{"type":"error","name":"InsufficientAllowance","inputs":[]},{"type":"error","name":"InvalidFeePercentage","inputs":[]},{"type":"error","name":"InvalidImplementation","inputs":[]},{"type":"error","name":"InvalidParameters","inputs":[]},{"type":"error","name":"ReentrancyGuardReentrantCall","inputs":[]},{"type":"error","name":"SafeERC20FailedOperation","inputs":[{"name":"token","type":"address","internalType":"address"}]},{"type":"error","name":"TransferFailed","inputs":[]},{"type":"error","name":"Unauthorized","inputs":[]},{"type":"error","name":"ZeroAddress","inputs":[]}],"bytecode":{"object":"0x60803461009d57601f6110d938819003918201601f19168301916001600160401b038311848410176100a15780849260209460405283398101031261009d57516001600160a01b0381169081900361009d5760015f55801561008b5760018060a01b0319908160015416176001553390600254161760025560fa60035560405161102390816100b68239f35b60405163d92e233d60e01b8152600490fd5b5f80fd5b634e487b7160e01b5f52604160045260245ffdfe6080806040526004361015610012575f80fd5b5f90813560e01c908163025b22bc14610c595750806316b1513514610c3b5780631d3afee614610bdf5780633031381d1461065c5780633adf0527146105e45780635c60da1b146105bb5780636cc0f5411461053f5780637ba0eb5e146104a75780639003adfe146104895780639012c4a81461040c5780639a6ac36f1461037d578063a001ecdd1461035f578063b166a09f14610320578063bc063e1a14610303578063c879657214610253578063cce446d414610208578063ce8b8089146101ad578063e2f273bd1461011a5763f851a440146100ef575f80fd5b346101175780600319360112610117576002546040516001600160a01b039091168152602090f35b80fd5b503461011757602036600319011261011757610134610cf7565b600254906001600160a01b03808316913383900361019c571691821561018a576001600160a01b03191682176002557f7e644d79422f17c01e4894b5f4f588d331ebfa28653d42ae832dc59e38c9798f8380a380f35b60405163d92e233d60e01b8152600490fd5b6040516282b42960e81b8152600490fd5b5034610117576040366003190112610117576101c7610cf7565b6001600160a01b0390811682526006602052604082208054602435939084101561011757506020926101f891610d11565b9190546040519260031b1c168152f35b503461011757604036600319011261011757610222610cf7565b6001600160a01b0390811682526007602052604082208054602435939084101561011757506020926101f891610d11565b50346101175780600319360112610117576002546001600160a01b03908116330361019c57610280610fcc565b6004549081156102f15782600455828080808585600254165af16102a2610e60565b50156102df5760207f9dc46f23cfb5ddcad0ae7ea2be38d47fec07bb9382ec7e564efc69e036dd66ce916002541692604051908152a26001815580f35b6040516312171d8360e31b8152600490fd5b604051630e52390960e41b8152600490fd5b503461011757806003193601126101175760206040516103e88152f35b50346101175760203660031901126101175760209060ff906040906001600160a01b0361034b610cf7565b168152600584522054166040519015158152f35b50346101175780600319360112610117576020600354604051908152f35b5034610117578060031936011261011757604051600880548083529083526020808301937ff3f7a9fe364faab93b216da50a3214154f22a0a2b415b23a84c8169e8b636ee392915b8282106103ec576103e8856103dc81890382610ddf565b60405191829182610d57565b0390f35b83546001600160a01b0316865294850194600193840193909101906103c5565b503461011757602036600319011261011757600254600435906001600160a01b0316330361019c576103e881116104775760407f528d9479e9f9889a87a3c30c7f7ba537e5e59c4c85a37733b16e57c62df6130291600354908060035582519182526020820152a180f35b60405163390edff560e11b8152600490fd5b50346101175780600319360112610117576020600454604051908152f35b5034610117576040366003190112610117576104c1610cf7565b6002546001600160a01b0391908216330361019c5716808252600560205260ff604083205416156102f1578082913b1561053c578180916024604051809481936337bdc99b60e01b8352833560048401525af18015610531576105215750f35b61052a90610dcb565b6101175780f35b6040513d84823e3d90fd5b50fd5b5034610117576020806003193601126105b7576001600160a01b039182610564610cf7565b168152600682526040812092604051908193808654938481520195845280842093915b83831061059e576103e8866103dc818a0382610ddf565b8454811687529581019560019485019490920191610587565b5080fd5b50346101175780600319360112610117576001546040516001600160a01b039091168152602090f35b5034610117576020806003193601126105b7576001600160a01b039182610609610cf7565b168152600782526040812092604051908193808654938481520195845280842093915b838310610643576103e8866103dc818a0382610ddf565b845481168752958101956001948501949092019161062c565b50346101175760e036600319011261011757610676610cf7565b906024356001600160a01b03811681036105b75767ffffffffffffffff606435818111610bd7576106ab903690600401610d26565b9390608435838111610bdb576106c5903690600401610d26565b9360a435908111610bd7576106de903690600401610d26565b60c4929192359160ff83168303610bd3576106f7610fcc565b6001600160a01b038a16158015610bc2575b61018a57604435156102f15788158015610bb8575b6102f15781151580610bad575b6102f1578160ff8416116102f15785865b8a8110610b145750604435036102f15760035496876044350297604435890403610b00576107706127108904604435610daa565b604051636eb1769f60e11b81523360048201523060248201526020816044816001600160a01b038f165afa908115610af5578991610ac3575b5010610ab157600154608881901c62ffffff16763d602d80600a3d3981f3363d3d373d3d3d363d7300000017885260781b6effffffffffffffffffffffffffffff19166e5af43d82803e903d91602b57fd5bf3176020526037600988f06001600160a01b0381169a9096908b15610a9f578b3b15610a9b57604051631d230b2960e11b81523360048201526001600160a01b03808f1660248301528c1660448083019190915235606482015261010060848201529689968896919590949193602093610891939161087f916101048b0191610e01565b8881036003190160a48a015291610e01565b8581036003190160c487015282815201929085905b808210610a5c5750505060ff1660e483015281900381838a5af18015610a5157610a3e575b50909161093b91906108ea60443583336001600160a01b038916610e9f565b6127108104610a0d575b50848352600560205260408320600160ff1982541617905533835260066020526109218160408520610e25565b6001600160a01b0386168352600760205260408320610e25565b60085491600160401b8310156109f95760018301806008558310156109e55760085f527ff3f7a9fe364faab93b216da50a3214154f22a0a2b415b23a84c8169e8b636ee390920180546001600160a01b03191684179055604080516001600160a01b039384168152604435602082810191909152956001941691339186917f5110acfd33aad02838430d854a830e50cb07377fab40a6e84daeedb1b151360091a455604051908152f35b634e487b7160e01b5f52603260045260245ffd5b634e487b7160e01b5f52604160045260245ffd5b610a359061271090610a2c82820430336001600160a01b038b16610e9f565b04600454610daa565b6004555f6108f4565b91610a4b61093b93610dcb565b916108cb565b6040513d85823e3d90fd5b919550919350909184356001600160a01b0381168103610a9b576001600160a01b031681528794869460209283019490939190920191600101906108a6565b8880fd5b6040516330be1a3d60e21b8152600490fd5b6040516313be252b60e01b8152600490fd5b90506020813d602011610aed575b81610ade60209383610ddf565b81010312610a9b57515f6107a9565b3d9150610ad1565b6040513d8b823e3d90fd5b634e487b7160e01b87526011600452602487fd5b90610b20828c89610d9a565b35156102f15781151580610b6e575b6102f157610b4990610b42838d8a610d9a565b3590610daa565b905f198114610b5a5760010161073c565b634e487b7160e01b88526011600452602488fd5b50610b7a828a85610d9a565b355f198301838111610b9957610b91908b86610d9a565b351015610b2f565b634e487b7160e01b8a52601160045260248afd5b5060ff83161561072b565b508689141561071e565b506001600160a01b03881615610709565b8580fd5b8380fd5b8280fd5b5034610117576020366003190112610117576004356008548110156105b75760089091527ff3f7a9fe364faab93b216da50a3214154f22a0a2b415b23a84c8169e8b636ee301546040516001600160a01b039091168152602090f35b50346101175780600319360112610117576020600854604051908152f35b9050346105b75760203660031901126105b757610c74610cf7565b6002546001600160a01b03929083163303610ce957508116908115610cd75760015490811690818314610cd7576001600160a01b03191682176001557faa3f731066a578e5f39b4215468d826cdd15373cbc0dfc9cb9bdc649718ef7da8380a380f35b60405163340aafcd60e11b8152600490fd5b6282b42960e81b8152600490fd5b600435906001600160a01b0382168203610d0d57565b5f80fd5b80548210156109e5575f5260205f2001905f90565b9181601f84011215610d0d5782359167ffffffffffffffff8311610d0d576020808501948460051b010111610d0d57565b602090816040818301928281528551809452019301915f5b828110610d7d575050505090565b83516001600160a01b031685529381019392810192600101610d6f565b91908110156109e55760051b0190565b91908201809211610db757565b634e487b7160e01b5f52601160045260245ffd5b67ffffffffffffffff81116109f957604052565b90601f8019910116810190811067ffffffffffffffff8211176109f957604052565b81835290916001600160fb1b038311610d0d5760209260051b809284830137010190565b8054600160401b8110156109f957610e4291600182018155610d11565b819291549060031b9160018060a01b03809116831b921b1916179055565b3d15610e9a573d9067ffffffffffffffff82116109f95760405191610e8f601f8201601f191660200184610ddf565b82523d5f602084013e565b606090565b6040516323b872dd60e01b602082019081526001600160a01b039384166024830152938316604482015260648082019590955293845260a08401919067ffffffffffffffff8311858410176109f957610f119260405216925f80938192519082875af1610f0a610e60565b9084610f69565b908151918215159283610f41575b505050610f295750565b60249060405190635274afe760e01b82526004820152fd5b8192935090602091810103126105b757602001519081159182150361011757505f8080610f1f565b90610f905750805115610f7e57805190602001fd5b604051630a12f52160e11b8152600490fd5b81511580610fc3575b610fa1575090565b604051639996b31560e01b81526001600160a01b039091166004820152602490fd5b50803b15610f99565b60025f5414610fdb5760025f55565b604051633ee5aeb560e01b8152600490fdfea264697066735822122071503af705f57daf1e3bb437cfc0206dd436186241313da95b809f173ceee25264736f6c63430008140033","linkReferences":{}},"methodIdentifiers":{"MAX_FEE()":"bc063e1a","admin()":"f851a440","adminReleaseMilestone(address,uint256)":"7ba0eb5e","allEscrows(uint256)":"1d3afee6","collectFees()":"c8796572","collectedFees()":"9003adfe","createEscrow(address,address,uint256,uint256[],uint256[],address[],uint8)":"3031381d","feePercentage()":"a001ecdd","getAllEscrows()":"9a6ac36f","getEscrowCount()":"16b15135","getEscrowsByKOL(address)":"3adf0527","getEscrowsByProject(address)":"6cc0f541","implementation()":"5c60da1b","isEscrow(address)":"b166a09f","kolEscrows(address,uint256)":"cce446d4","projectEscrows(address,uint256)":"ce8b8089","updateAdmin(address)":"e2f273bd","updateFee(uint256)":"9012c4a8","updateImplementation(address)":"025b22bc"},"id":3}