{
  "_format": "hh-sol-artifact-1",
  "contractName": "SecureLowFeeBondingCurve",
  "sourceName": "contracts/SecureLowFeeBondingCurve.sol",
  "abi": [
    {
      "inputs": [],
      "name": "EnforcedPause",
      "type": "error"
    },
    {
      "inputs": [],
      "name": "ExpectedPause",
      "type": "error"
    },
    {
      "inputs": [
        {
          "internalType": "address",
          "name": "owner",
          "type": "address"
        }
      ],
      "name": "OwnableInvalidOwner",
      "type": "error"
    },
    {
      "inputs": [
        {
          "internalType": "address",
          "name": "account",
          "type": "address"
        }
      ],
      "name": "OwnableUnauthorizedAccount",
      "type": "error"
    },
    {
      "inputs": [],
      "name": "ReentrancyGuardReentrantCall",
      "type": "error"
    },
    {
      "anonymous": false,
      "inputs": [
        {
          "indexed": true,
          "internalType": "address",
          "name": "token",
          "type": "address"
        },
        {
          "indexed": false,
          "internalType": "uint256",
          "name": "amount",
          "type": "uint256"
        }
      ],
      "name": "EmergencyWithdraw",
      "type": "event"
    },
    {
      "anonymous": false,
      "inputs": [
        {
          "indexed": false,
          "internalType": "uint256",
          "name": "platformFeeBps",
          "type": "uint256"
        },
        {
          "indexed": false,
          "internalType": "uint256",
          "name": "creatorFeeBps",
          "type": "uint256"
        }
      ],
      "name": "FeesUpdated",
      "type": "event"
    },
    {
      "anonymous": false,
      "inputs": [
        {
          "indexed": true,
          "internalType": "address",
          "name": "previousOwner",
          "type": "address"
        },
        {
          "indexed": true,
          "internalType": "address",
          "name": "newOwner",
          "type": "address"
        }
      ],
      "name": "OwnershipTransferred",
      "type": "event"
    },
    {
      "anonymous": false,
      "inputs": [
        {
          "indexed": false,
          "internalType": "address",
          "name": "account",
          "type": "address"
        }
      ],
      "name": "Paused",
      "type": "event"
    },
    {
      "anonymous": false,
      "inputs": [
        {
          "indexed": true,
          "internalType": "address",
          "name": "token",
          "type": "address"
        },
        {
          "indexed": true,
          "internalType": "address",
          "name": "creator",
          "type": "address"
        },
        {
          "indexed": false,
          "internalType": "string",
          "name": "name",
          "type": "string"
        },
        {
          "indexed": false,
          "internalType": "string",
          "name": "symbol",
          "type": "string"
        },
        {
          "indexed": false,
          "internalType": "uint256",
          "name": "timestamp",
          "type": "uint256"
        }
      ],
      "name": "TokenCreated",
      "type": "event"
    },
    {
      "anonymous": false,
      "inputs": [
        {
          "indexed": true,
          "internalType": "address",
          "name": "token",
          "type": "address"
        },
        {
          "indexed": false,
          "internalType": "uint256",
          "name": "ethReserve",
          "type": "uint256"
        },
        {
          "indexed": false,
          "internalType": "uint256",
          "name": "tokenReserve",
          "type": "uint256"
        },
        {
          "indexed": false,
          "internalType": "uint256",
          "name": "totalVolume",
          "type": "uint256"
        }
      ],
      "name": "TokenGraduated",
      "type": "event"
    },
    {
      "anonymous": false,
      "inputs": [
        {
          "indexed": true,
          "internalType": "address",
          "name": "token",
          "type": "address"
        },
        {
          "indexed": true,
          "internalType": "address",
          "name": "trader",
          "type": "address"
        },
        {
          "indexed": false,
          "internalType": "bool",
          "name": "isBuy",
          "type": "bool"
        },
        {
          "indexed": false,
          "internalType": "uint256",
          "name": "ethAmount",
          "type": "uint256"
        },
        {
          "indexed": false,
          "internalType": "uint256",
          "name": "tokenAmount",
          "type": "uint256"
        },
        {
          "indexed": false,
          "internalType": "uint256",
          "name": "newPrice",
          "type": "uint256"
        },
        {
          "indexed": false,
          "internalType": "uint256",
          "name": "platformFee",
          "type": "uint256"
        },
        {
          "indexed": false,
          "internalType": "uint256",
          "name": "creatorFee",
          "type": "uint256"
        }
      ],
      "name": "TokenTraded",
      "type": "event"
    },
    {
      "anonymous": false,
      "inputs": [
        {
          "indexed": false,
          "internalType": "address",
          "name": "account",
          "type": "address"
        }
      ],
      "name": "Unpaused",
      "type": "event"
    },
    {
      "anonymous": false,
      "inputs": [
        {
          "indexed": true,
          "internalType": "address",
          "name": "user",
          "type": "address"
        },
        {
          "indexed": false,
          "internalType": "bool",
          "name": "status",
          "type": "bool"
        }
      ],
      "name": "UserBlacklisted",
      "type": "event"
    },
    {
      "inputs": [],
      "name": "BONDING_SUPPLY",
      "outputs": [
        {
          "internalType": "uint256",
          "name": "",
          "type": "uint256"
        }
      ],
      "stateMutability": "view",
      "type": "function"
    },
    {
      "inputs": [],
      "name": "BPS_DENOMINATOR",
      "outputs": [
        {
          "internalType": "uint256",
          "name": "",
          "type": "uint256"
        }
      ],
      "stateMutability": "view",
      "type": "function"
    },
    {
      "inputs": [],
      "name": "COOLDOWN_PERIOD",
      "outputs": [
        {
          "internalType": "uint256",
          "name": "",
          "type": "uint256"
        }
      ],
      "stateMutability": "view",
      "type": "function"
    },
    {
      "inputs": [],
      "name": "CREATION_FEE",
      "outputs": [
        {
          "internalType": "uint256",
          "name": "",
          "type": "uint256"
        }
      ],
      "stateMutability": "view",
      "type": "function"
    },
    {
      "inputs": [],
      "name": "DEX_RESERVE",
      "outputs": [
        {
          "internalType": "uint256",
          "name": "",
          "type": "uint256"
        }
      ],
      "stateMutability": "view",
      "type": "function"
    },
    {
      "inputs": [],
      "name": "GRADUATION_THRESHOLD",
      "outputs": [
        {
          "internalType": "uint256",
          "name": "",
          "type": "uint256"
        }
      ],
      "stateMutability": "view",
      "type": "function"
    },
    {
      "inputs": [],
      "name": "INITIAL_VIRTUAL_ETH",
      "outputs": [
        {
          "internalType": "uint256",
          "name": "",
          "type": "uint256"
        }
      ],
      "stateMutability": "view",
      "type": "function"
    },
    {
      "inputs": [],
      "name": "INITIAL_VIRTUAL_TOKENS",
      "outputs": [
        {
          "internalType": "uint256",
          "name": "",
          "type": "uint256"
        }
      ],
      "stateMutability": "view",
      "type": "function"
    },
    {
      "inputs": [],
      "name": "LOCK_PERIOD",
      "outputs": [
        {
          "internalType": "uint256",
          "name": "",
          "type": "uint256"
        }
      ],
      "stateMutability": "view",
      "type": "function"
    },
    {
      "inputs": [],
      "name": "MAX_FEE_BPS",
      "outputs": [
        {
          "internalType": "uint256",
          "name": "",
          "type": "uint256"
        }
      ],
      "stateMutability": "view",
      "type": "function"
    },
    {
      "inputs": [],
      "name": "MAX_TOKENS_PER_USER",
      "outputs": [
        {
          "internalType": "uint256",
          "name": "",
          "type": "uint256"
        }
      ],
      "stateMutability": "view",
      "type": "function"
    },
    {
      "inputs": [],
      "name": "MAX_TRADE_AMOUNT",
      "outputs": [
        {
          "internalType": "uint256",
          "name": "",
          "type": "uint256"
        }
      ],
      "stateMutability": "view",
      "type": "function"
    },
    {
      "inputs": [],
      "name": "MIN_TRADE_AMOUNT",
      "outputs": [
        {
          "internalType": "uint256",
          "name": "",
          "type": "uint256"
        }
      ],
      "stateMutability": "view",
      "type": "function"
    },
    {
      "inputs": [],
      "name": "TOTAL_SUPPLY",
      "outputs": [
        {
          "internalType": "uint256",
          "name": "",
          "type": "uint256"
        }
      ],
      "stateMutability": "view",
      "type": "function"
    },
    {
      "inputs": [
        {
          "internalType": "uint256",
          "name": "",
          "type": "uint256"
        }
      ],
      "name": "allTokens",
      "outputs": [
        {
          "internalType": "address",
          "name": "",
          "type": "address"
        }
      ],
      "stateMutability": "view",
      "type": "function"
    },
    {
      "inputs": [
        {
          "internalType": "address",
          "name": "",
          "type": "address"
        }
      ],
      "name": "blacklistedUsers",
      "outputs": [
        {
          "internalType": "bool",
          "name": "",
          "type": "bool"
        }
      ],
      "stateMutability": "view",
      "type": "function"
    },
    {
      "inputs": [
        {
          "internalType": "address",
          "name": "_token",
          "type": "address"
        },
        {
          "internalType": "uint256",
          "name": "_minTokensOut",
          "type": "uint256"
        }
      ],
      "name": "buyTokens",
      "outputs": [
        {
          "internalType": "uint256",
          "name": "",
          "type": "uint256"
        }
      ],
      "stateMutability": "payable",
      "type": "function"
    },
    {
      "inputs": [
        {
          "internalType": "address",
          "name": "_token",
          "type": "address"
        }
      ],
      "name": "claimCreatorFees",
      "outputs": [],
      "stateMutability": "nonpayable",
      "type": "function"
    },
    {
      "inputs": [
        {
          "internalType": "string",
          "name": "_name",
          "type": "string"
        },
        {
          "internalType": "string",
          "name": "_symbol",
          "type": "string"
        },
        {
          "internalType": "string",
          "name": "_description",
          "type": "string"
        },
        {
          "internalType": "string",
          "name": "_imageUrl",
          "type": "string"
        },
        {
          "internalType": "string",
          "name": "_twitter",
          "type": "string"
        },
        {
          "internalType": "string",
          "name": "_telegram",
          "type": "string"
        },
        {
          "internalType": "string",
          "name": "_website",
          "type": "string"
        },
        {
          "internalType": "string",
          "name": "",
          "type": "string"
        }
      ],
      "name": "createToken",
      "outputs": [
        {
          "internalType": "address",
          "name": "",
          "type": "address"
        }
      ],
      "stateMutability": "payable",
      "type": "function"
    },
    {
      "inputs": [],
      "name": "creatorFeeBps",
      "outputs": [
        {
          "internalType": "uint256",
          "name": "",
          "type": "uint256"
        }
      ],
      "stateMutability": "view",
      "type": "function"
    },
    {
      "inputs": [],
      "name": "getAllTokens",
      "outputs": [
        {
          "internalType": "address[]",
          "name": "",
          "type": "address[]"
        }
      ],
      "stateMutability": "view",
      "type": "function"
    },
    {
      "inputs": [],
      "name": "getTokenCount",
      "outputs": [
        {
          "internalType": "uint256",
          "name": "",
          "type": "uint256"
        }
      ],
      "stateMutability": "view",
      "type": "function"
    },
    {
      "inputs": [
        {
          "internalType": "address",
          "name": "_token",
          "type": "address"
        }
      ],
      "name": "getTokenPrice",
      "outputs": [
        {
          "internalType": "uint256",
          "name": "",
          "type": "uint256"
        }
      ],
      "stateMutability": "view",
      "type": "function"
    },
    {
      "inputs": [
        {
          "internalType": "address",
          "name": "",
          "type": "address"
        }
      ],
      "name": "isValidToken",
      "outputs": [
        {
          "internalType": "bool",
          "name": "",
          "type": "bool"
        }
      ],
      "stateMutability": "view",
      "type": "function"
    },
    {
      "inputs": [],
      "name": "owner",
      "outputs": [
        {
          "internalType": "address",
          "name": "",
          "type": "address"
        }
      ],
      "stateMutability": "view",
      "type": "function"
    },
    {
      "inputs": [],
      "name": "pause",
      "outputs": [],
      "stateMutability": "nonpayable",
      "type": "function"
    },
    {
      "inputs": [],
      "name": "paused",
      "outputs": [
        {
          "internalType": "bool",
          "name": "",
          "type": "bool"
        }
      ],
      "stateMutability": "view",
      "type": "function"
    },
    {
      "inputs": [],
      "name": "platformFeeBps",
      "outputs": [
        {
          "internalType": "uint256",
          "name": "",
          "type": "uint256"
        }
      ],
      "stateMutability": "view",
      "type": "function"
    },
    {
      "inputs": [],
      "name": "renounceOwnership",
      "outputs": [],
      "stateMutability": "nonpayable",
      "type": "function"
    },
    {
      "inputs": [
        {
          "internalType": "address",
          "name": "_token",
          "type": "address"
        },
        {
          "internalType": "uint256",
          "name": "_tokenAmount",
          "type": "uint256"
        },
        {
          "internalType": "uint256",
          "name": "_minEthOut",
          "type": "uint256"
        }
      ],
      "name": "sellTokens",
      "outputs": [
        {
          "internalType": "uint256",
          "name": "",
          "type": "uint256"
        }
      ],
      "stateMutability": "nonpayable",
      "type": "function"
    },
    {
      "inputs": [
        {
          "internalType": "address",
          "name": "_user",
          "type": "address"
        },
        {
          "internalType": "bool",
          "name": "_status",
          "type": "bool"
        }
      ],
      "name": "toggleBlacklist",
      "outputs": [],
      "stateMutability": "nonpayable",
      "type": "function"
    },
    {
      "inputs": [
        {
          "internalType": "address",
          "name": "",
          "type": "address"
        }
      ],
      "name": "tokenInfo",
      "outputs": [
        {
          "internalType": "address",
          "name": "tokenAddress",
          "type": "address"
        },
        {
          "internalType": "address",
          "name": "creator",
          "type": "address"
        },
        {
          "internalType": "uint256",
          "name": "virtualEthReserve",
          "type": "uint256"
        },
        {
          "internalType": "uint256",
          "name": "virtualTokenReserve",
          "type": "uint256"
        },
        {
          "internalType": "uint256",
          "name": "realEthReserve",
          "type": "uint256"
        },
        {
          "internalType": "uint256",
          "name": "realTokenReserve",
          "type": "uint256"
        },
        {
          "internalType": "uint256",
          "name": "dexReserve",
          "type": "uint256"
        },
        {
          "internalType": "uint256",
          "name": "creatorFees",
          "type": "uint256"
        },
        {
          "internalType": "uint256",
          "name": "platformFees",
          "type": "uint256"
        },
        {
          "internalType": "bool",
          "name": "graduated",
          "type": "bool"
        },
        {
          "internalType": "uint256",
          "name": "createdAt",
          "type": "uint256"
        },
        {
          "internalType": "uint256",
          "name": "firstTradeAt",
          "type": "uint256"
        },
        {
          "internalType": "uint256",
          "name": "lockedUntil",
          "type": "uint256"
        },
        {
          "internalType": "uint256",
          "name": "totalVolume",
          "type": "uint256"
        },
        {
          "internalType": "uint256",
          "name": "tradeCount",
          "type": "uint256"
        }
      ],
      "stateMutability": "view",
      "type": "function"
    },
    {
      "inputs": [],
      "name": "totalPlatformFees",
      "outputs": [
        {
          "internalType": "uint256",
          "name": "",
          "type": "uint256"
        }
      ],
      "stateMutability": "view",
      "type": "function"
    },
    {
      "inputs": [
        {
          "internalType": "address",
          "name": "newOwner",
          "type": "address"
        }
      ],
      "name": "transferOwnership",
      "outputs": [],
      "stateMutability": "nonpayable",
      "type": "function"
    },
    {
      "inputs": [],
      "name": "unpause",
      "outputs": [],
      "stateMutability": "nonpayable",
      "type": "function"
    },
    {
      "inputs": [
        {
          "internalType": "uint256",
          "name": "_platformFeeBps",
          "type": "uint256"
        },
        {
          "internalType": "uint256",
          "name": "_creatorFeeBps",
          "type": "uint256"
        }
      ],
      "name": "updateFees",
      "outputs": [],
      "stateMutability": "nonpayable",
      "type": "function"
    },
    {
      "inputs": [
        {
          "internalType": "address",
          "name": "",
          "type": "address"
        }
      ],
      "name": "userLastCreation",
      "outputs": [
        {
          "internalType": "uint256",
          "name": "",
          "type": "uint256"
        }
      ],
      "stateMutability": "view",
      "type": "function"
    },
    {
      "inputs": [
        {
          "internalType": "address",
          "name": "",
          "type": "address"
        }
      ],
      "name": "userTokenCount",
      "outputs": [
        {
          "internalType": "uint256",
          "name": "",
          "type": "uint256"
        }
      ],
      "stateMutability": "view",
      "type": "function"
    },
    {
      "inputs": [],
      "name": "withdrawPlatformFees",
      "outputs": [],
      "stateMutability": "nonpayable",
      "type": "function"
    }
  ],
  "bytecode": "0x608080604052346100885733156100725760008054336001600160a01b03198216811783556040519290916001600160a01b0316907f8be0079c531659141344cd1fd0a4f28419497f9722a3daafe3b4186f6b6457e09080a36001805560646003556064600455613af2908161008e8239f35b631e4fbdf760e01b815260006004820152602490fd5b600080fdfe608060405260043610156200001357600080fd5b60003560e01c80630752881a14620017ea57806317773ebb14620017ca5780631820cabb14620017ab57806322c0aec7146200176857806322dcd13e14620017485780632a5c792a146200167857806331b7d41314620016555780633f4ba83a14620015e657806345b18f2514620015c157806349a2104d146200159d57806351bd058814620015765780635c975abb1462001551578063634282af146200150a57806369c5dfd814620014ec5780636db7943714620014455780636e99d52f14620014275780636f4d57301462001402578063715018a614620013a557806375535f32146200137d57806378a89567146200135d5780638456cb5914620012fd5780638d427e2514620012d45780638da5cb5b14620012a95780638f215f67146200126b578063902d55a51462001242578063c187645314620011ff578063d02641a014620011ce578063d0b7830b1462001189578063d3631fa51462001169578063d55be8c6146200114a578063d6ae6e441462001064578063dc0274381462001026578063e1a452181462001007578063e4e57b9e1462000c42578063eac440fc1462000429578063f2fde38b1462000394578063f5dab71114620002ad578063fc03b68a146200021d5763fcfc0c0914620001f157600080fd5b346200021857600036600319011262000218576020604051690e9c7f5bd655012000008152f35b600080fd5b346200021857604036600319011262000218576200023a62001cf4565b602435908115159081830362000218577f5b7ef9d8e7fd7ff1dae13005391bc3aa7cc048c7ba41af348e5da4dcbe7323e091620002a46020926200027d62001de6565b60018060a01b03169485600052600a845260406000209060ff801983541691151516179055565b604051908152a2005b346200021857602036600319011262000218576001600160a01b0380620002d362001cf4565b166000526006602052604060002090808254169060018301541691600281015460038201546004830154600584015460068501546007860154600887015491600988015460ff1693600a89015495600b8a015497600c8b015499600d8c01549b600e01549c6040519e8f91825260208201526040015260608d015260808c015260a08b015260c08a015260e089015261010088015215156101208701526101408601526101608501526101808401526101a08301526101c08201526101e090f35b34620002185760203660031901126200021857620003b162001cf4565b620003bb62001de6565b6001600160a01b039081169081156200041057600054826bffffffffffffffffffffffff60a01b821617600055167f8be0079c531659141344cd1fd0a4f28419497f9722a3daafe3b4186f6b6457e0600080a3005b604051631e4fbdf760e01b815260006004820152602490fd5b610100366003190112620002185760043567ffffffffffffffff811162000218576200045a90369060040162001d99565b60243567ffffffffffffffff811162000218576200047d90369060040162001d99565b9060443567ffffffffffffffff81116200021857620004a190369060040162001d99565b60643567ffffffffffffffff81116200021857620004c490369060040162001d99565b9060843567ffffffffffffffff81116200021857620004e890369060040162001d99565b60a43567ffffffffffffffff811162000218576200050b90369060040162001d99565b9260c43567ffffffffffffffff811162000218576200052f90369060040162001d99565b9060e43567ffffffffffffffff811162000218576200055390369060040162001d99565b506200055e62001f15565b6200056862001ef6565b33600052600a6020526200058560ff604060002054161562001e13565b66038d7ea4c68000341062000c0a57336000526007602052604060002054603c810180911162000a8457421062000bcc57336000526008602052600360406000205410801562000bb7575b1562000b7c578551801515908162000b6f575b501562000b3b5786516002811015908162000b2e575b501562000af8576101f484511162000abc5760405194856118f881011067ffffffffffffffff6118f88801111762000a9a57620006dc6200070a94620006c58897620006ae620006f396620006818e620006698f6101408f6118f8620021c582396118f801818152019062001e61565b908d60206118f882018403916118f801015262001e61565b906b033b2e3c9fd0803ce800000060408d6118f80101526118f88c01820360608d6118f801015262001e61565b906118f88a01820360806118f88c01015262001e61565b906118f88801820360a06118f88a01015262001e61565b906118f88601820360c06118f88801015262001e61565b906118f88401820360e06118f88601015262001e61565b336101006118f884010152306101206118f88401015203906000f091821562000ab057610e104201421162000a8457604051806101e081011067ffffffffffffffff6101e08301111762000a9a576101e0810160405260018060a01b0384168152336020820152670de0b6b3a7640000604082015269d3c21bcecceda10000006060820152600060808201526b0295be96e64066972000000060a08201526aa56fa5b99019a5c800000060c0820152600060e082015260006101008201526000610120820152426101408201526000610160820152610e10420161018082015260006101a082015260006101c082015260018060a01b0384166000526006602052600e6101c060406000209260018060a01b038151166bffffffffffffffffffffffff60a01b9081865416178555600185019060018060a01b036020840151169082541617905560408101516002850155606081015160038501556080810151600485015560a0810151600585015560c0810151600685015560e081015160078501556101008101516008850155620008b96101208201511515600986019060ff801983541691151516179055565b610140810151600a850155610160810151600b850155610180810151600c8501556101a0810151600d8501550151910155600b546801000000000000000081101562000a9a57806001620009119201600b5562001d0b565b81549060031b9060018060a01b038616821b9160018060a01b03901b191617905560018060a01b03831660005260096020526040600020600160ff19825416179055336000526007602052426040600020556008602052604060002062000979815462001ea3565b9055600c549066038d7ea4c68000820180921162000a8457620009bf91600c55620009b06040519360608552606085019062001e61565b90838203602085015262001e61565b42604083015233916001600160a01b038416917f6e6ae68e7d7d45fbd855c40d1eaafa8de46c5fbec3ee26f1af88730e400bc92c919081900390a366038d7ea4c68000341162000a23575b600180556040516001600160a01b039091168152602090f35b66038d7ea4c67fff19340134811162000a8457600080808093335af162000a4962001ec1565b5062000a0a5760405162461bcd60e51b815260206004820152600d60248201526c1499599d5b990819985a5b1959609a1b6044820152606490fd5b634e487b7160e01b600052601160045260246000fd5b634e487b7160e01b600052604160045260246000fd5b6040513d6000823e3d90fd5b60405162461bcd60e51b81526020600482015260146024820152734465736372697074696f6e20746f6f206c6f6e6760601b6044820152606490fd5b60405162461bcd60e51b815260206004820152600e60248201526d125b9d985b1a59081cde5b589bdb60921b6044820152606490fd5b60089150111588620005f9565b60405162461bcd60e51b815260206004820152600c60248201526b496e76616c6964206e616d6560a01b6044820152606490fd5b60209150111588620005e3565b60405162461bcd60e51b8152602060048201526013602482015272151bdad95b881b1a5b5a5d081c995858da1959606a1b6044820152606490fd5b50670de0b6b3a7640000600c541015620005d0565b60405162461bcd60e51b8152602060048201526016602482015275436f6f6c646f776e20706572696f642061637469766560501b6044820152606490fd5b60405162461bcd60e51b815260206004820152601060248201526f496e73756666696369656e742066656560801b6044820152606490fd5b3462000218576060366003190112620002185762000c5f62001cf4565b62000c6962001f15565b62000c7362001ef6565b33600052600a60205262000c9060ff604060002054161562001e13565b6001600160a01b0381811660009081526009602052604090205462000cb89060ff1662001f39565b33600052600560205262000cd3604060002054431162001f76565b33600052600560205243604060002055808216600052600660205260406000209162000d0760ff6009850154161562001fb6565b6024351562000fd15781600184015416330362000fb9575b60028301549162000d366004850154809462001e53565b62000d4b600386015460058701549062001e53565b62000d7e62000d7662000d6e62000d63848662002031565b936024359062001e53565b809362002045565b809362001eb3565b92612710968762000d926003548762002031565b049762000da26004548762002031565b049062000dd962000dbf8362000db98c8a62001eb3565b62001eb3565b9862000dd06044358b101562002066565b891115620020a7565b604051906323b872dd60e01b825233600483015230602483015260243560448301526020826064816000888d165af191821562000ab057600e9262000e289160009162000f83575b5062002107565b62000e3887600483015462001eb3565b600482015562000e4f602435600583015462001e53565b60058201556007810162000e6584825462001e53565b90556008810162000e788b825462001e53565b9055600d810162000e8b88825462001e53565b90550162000e9a815462001ea3565b905562000eaa88600c5462001e53565b600c5560008080808a335af162000ec062001ec1565b501562000f4857670de0b6b3a76400009384810294818604149015171562000a845760209762000f1460c0947fb6bfd1e0b5e5317c2be379c71d23b23080c3bf9b072a49298ba82a7a06b6dc5b9662002045565b60405196600088528a88015260243560408801526060870152608086015260a085015233941692a360018055604051908152f35b60405162461bcd60e51b8152602060048201526013602482015272115512081d1c985b9cd9995c8819985a5b1959606a1b6044820152606490fd5b62000faa915060203d60201162000fb1575b62000fa1818362001d59565b810190620020ed565b8c62000e21565b503d62000f95565b62000fcb600c84015442101562001ff5565b62000d1f565b60405162461bcd60e51b815260206004820152600e60248201526d125b9d985b1a5908185b5bdd5b9d60921b6044820152606490fd5b3462000218576000366003190112620002185760206040516127108152f35b346200021857602036600319011262000218576001600160a01b036200104b62001cf4565b1660005260086020526020604060002054604051908152f35b346200021857602036600319011262000218576200108162001cf4565b6200108b62001f15565b6001600160a01b03908116600090815260066020526040902060018101549091163303620011175760070180548015620010df5760008080809381620010d99655335af162000e2162001ec1565b60018055005b60405162461bcd60e51b815260206004820152601060248201526f4e6f206665657320746f20636c61696d60801b6044820152606490fd5b60405162461bcd60e51b815260206004820152600b60248201526a2737ba1031b932b0ba37b960a91b6044820152606490fd5b34620002185760003660031901126200021857602060405161012c8152f35b346200021857600036600319011262000218576020600c54604051908152f35b34620002185760003660031901126200021857620011a662001de6565b620011cc6000808080600c5481600c5560018060a01b038254165af162000e2162001ec1565b005b346200021857602036600319011262000218576020620011f7620011f162001cf4565b62002146565b604051908152f35b346200021857602036600319011262000218576001600160a01b036200122462001cf4565b166000526009602052602060ff604060002054166040519015158152f35b3462000218576000366003190112620002185760206040516b033b2e3c9fd0803ce80000008152f35b346200021857602036600319011262000218576001600160a01b036200129062001cf4565b1660005260076020526020604060002054604051908152f35b346200021857600036600319011262000218576000546040516001600160a01b039091168152602090f35b3462000218576000366003190112620002185760206040516b0295be96e6406697200000008152f35b346200021857600036600319011262000218576200131a62001de6565b6200132462001ef6565b600160ff1960025416176002557f62e78cea01bee320cd4e420270b5ea74000d11b0c9f74754ebdbfc544b05a2586020604051338152a1005b346200021857600036600319011262000218576020600b54604051908152f35b3462000218576000366003190112620002185760206040516aa56fa5b99019a5c80000008152f35b34620002185760003660031901126200021857620013c262001de6565b600080546001600160a01b0319811682556001600160a01b03167f8be0079c531659141344cd1fd0a4f28419497f9722a3daafe3b4186f6b6457e08280a3005b346200021857600036600319011262000218576020604051678ac7230489e800008152f35b346200021857600036600319011262000218576020604051603c8152f35b346200021857604036600319011262000218576004356024356200146862001de6565b61012c62001477828462001e53565b11620014b757816040917f5c6323bf1c2d7aaea2c091a4751c1c87af7f2864650c336507a77d0557af37a1936003558060045582519182526020820152a1005b60405162461bcd60e51b815260206004820152600d60248201526c08ccacae640e8dede40d0d2ced609b1b6044820152606490fd5b34620002185760003660031901126200021857602060405160038152f35b34620002185760203660031901126200021857600435600b5481101562000218576200153860209162001d0b565b905460405160039290921b1c6001600160a01b03168152f35b34620002185760003660031901126200021857602060ff600254166040519015158152f35b34620002185760003660031901126200021857602060405169d3c21bcecceda10000008152f35b34620002185760003660031901126200021857602060405166038d7ea4c680008152f35b346200021857600036600319011262000218576020604051670de0b6b3a76400008152f35b346200021857600036600319011262000218576200160362001de6565b60025460ff811615620016435760ff19166002557f5db9ee0a495bf2e6ff9c91a7834c1ba4fdd244a5e8aa4e537bd38aeae4b073aa6020604051338152a1005b604051638dfc202b60e01b8152600490fd5b346200021857600036600319011262000218576020604051655af3107a40008152f35b3462000218576000366003190112620002185760405180600b5480835260208093018091600b6000527f0175b7a638427703f0dbe7bb9bbf987a2551717b34e79f33b5b1008d1fa01db99060005b868282106200172a578686620016df8288038362001d59565b604051928392818401908285525180915260408401929160005b8281106200170957505050500390f35b83516001600160a01b031685528695509381019392810192600101620016f9565b83546001600160a01b031685529093019260019283019201620016c6565b346200021857600036600319011262000218576020600354604051908152f35b346200021857602036600319011262000218576001600160a01b036200178d62001cf4565b16600052600a602052602060ff604060002054166040519015158152f35b346200021857600036600319011262000218576020604051610e108152f35b346200021857600036600319011262000218576020600454604051908152f35b604036600319011262000218576200180162001cf4565b6200180b62001f15565b6200181562001ef6565b33600052602090600a82526200183460ff604060002054161562001e13565b60018060a01b0390818116600052600983526200185960ff6040600020541662001f39565b336000526005835262001873604060002054431162001f76565b33600052600583524360406000205581811660005260068352604060002091620018a560ff6009850154161562001fb6565b655af3107a4000341062001cbd57678ac7230489e80000341162001c865780600184015416330362001c6e575b600b830180541562001c64575b50600354620018ef903462002031565b6127109004926004543490620019059162002031565b6127109004908162001918863462001eb3565b90620019249162001eb3565b946002820154600483015490816200193c9162001e53565b92600381015460058201549081620019549162001e53565b98620019618a8762002031565b936200196e828862001e53565b94856200197b9162002045565b9662001988888d62001eb3565b9b620019996024358e101562002066565b620019a7858e1115620020a7565b620019b3908462002031565b90620019bf9162002045565b61251c818181020481148215171562000a84576127109102048b1062001c2a57600e9392620019f4620019ff938d9362001e53565b600485015562001eb3565b60058201556007810162001a1587825462001e53565b90556008810162001a2885825462001e53565b9055600d810162001a3b34825462001e53565b90550162001a4a815462001ea3565b905562001a5a82600c5462001e53565b600c5560405163a9059cbb60e01b815233600482015260248101889052888160448160008b8b165af1801562000ab05762001a9e9160009162001c08575062002107565b670de0b6b3a7640000928382029180830485149015171562000a845762001ac59162002045565b9260405191600183523489840152876040840152846060840152608083015260a082015233907fb6bfd1e0b5e5317c2be379c71d23b23080c3bf9b072a49298ba82a7a06b6dc5b60c086881692a36b033b2e3c9fd0803ce80000009182810292818404149015171562000a8457690e9c7f5bd655012000009104101562001b55575b505060018055604051908152f35b8082166000526006845260406000209160098301805460ff811662001bcf57917f74ddd6b35eb9921605ec2cb7da4af12cd0020d2117b708ade1d30523471b74419391600160609460ff1916179055600485015494600d6006820154910154906040519687528887015260408601521692a2828062001b47565b60405162461bcd60e51b8152600481018890526011602482015270105b1c9958591e4819dc98591d585d1959607a1b6044820152606490fd5b62001c2391508a3d8c1162000fb15762000fa1818362001d59565b8a62000e21565b60405162461bcd60e51b8152600481018d9052601260248201527145786365737369766520736c69707061676560701b6044820152606490fd5b42905584620018df565b62001c80600c84015442101562001ff5565b620018d2565b60405162461bcd60e51b815260048101859052600f60248201526e547261646520746f6f206c6172676560881b6044820152606490fd5b60405162461bcd60e51b815260048101859052600f60248201526e151c985919481d1bdbc81cdb585b1b608a1b6044820152606490fd5b600435906001600160a01b03821682036200021857565b600b5481101562001d4357600b6000527f0175b7a638427703f0dbe7bb9bbf987a2551717b34e79f33b5b1008d1fa01db90190600090565b634e487b7160e01b600052603260045260246000fd5b90601f8019910116810190811067ffffffffffffffff82111762000a9a57604052565b67ffffffffffffffff811162000a9a57601f01601f191660200190565b81601f82011215620002185780359062001db38262001d7c565b9262001dc3604051948562001d59565b828452602083830101116200021857816000926020809301838601378301015290565b6000546001600160a01b0316330362001dfb57565b60405163118cdaa760e01b8152336004820152602490fd5b1562001e1b57565b60405162461bcd60e51b815260206004820152601060248201526f155cd95c88189b1858dadb1a5cdd195960821b6044820152606490fd5b9190820180921162000a8457565b919082519283825260005b84811062001e8e575050826000602080949584010152601f8019910116010190565b60208183018101518483018201520162001e6c565b600019811462000a845760010190565b9190820391821162000a8457565b3d1562001ef1573d9062001ed58262001d7c565b9162001ee5604051938462001d59565b82523d6000602084013e565b606090565b60ff6002541662001f0357565b60405163d93c066560e01b8152600490fd5b60026001541462001f27576002600155565b604051633ee5aeb560e01b8152600490fd5b1562001f4157565b60405162461bcd60e51b815260206004820152600d60248201526c24b73b30b634b2103a37b5b2b760991b6044820152606490fd5b1562001f7e57565b60405162461bcd60e51b815260206004820152601060248201526f53616d6520626c6f636b20747261646560801b6044820152606490fd5b1562001fbe57565b60405162461bcd60e51b815260206004820152600f60248201526e151bdad95b8819dc98591d585d1959608a1b6044820152606490fd5b1562001ffd57565b60405162461bcd60e51b815260206004820152600c60248201526b151bdad95b881b1bd8dad95960a21b6044820152606490fd5b8181029291811591840414171562000a8457565b811562002050570490565b634e487b7160e01b600052601260045260246000fd5b156200206e57565b60405162461bcd60e51b815260206004820152601160248201527014db1a5c1c1859d948195e18d959591959607a1b6044820152606490fd5b15620020af57565b60405162461bcd60e51b8152602060048201526016602482015275496e73756666696369656e74206c697175696469747960501b6044820152606490fd5b908160209103126200021857518015158103620002185790565b156200210f57565b60405162461bcd60e51b815260206004820152600f60248201526e151c985b9cd9995c8819985a5b1959608a1b6044820152606490fd5b6001600160a01b039081166000908152600660205260409020805490911615620021be576200219562002183600283015460048401549062001e53565b91600560038201549101549062001e53565b670de0b6b3a76400009182810292818404149015171562000a8457620021bb9162002045565b90565b5060009056fe604060c081523462000c1757620018f8803803806200001e8162000c1c565b9283398101906101408183031262000c175780516001600160401b03811162000c1757826200004f91830162000c42565b60208201519091906001600160401b03811162000c1757836200007491830162000c42565b8185015160608301519094906001600160401b03811162000c1757816200009d91850162000c42565b60808401516001600160401b03811162000c175782620000bf91860162000c42565b60a08501516001600160401b03811162000c175783620000e191870162000c42565b60c08601519092906001600160401b03811162000c1757846200010691880162000c42565b60e087015190946001600160401b03821162000c17576200012991880162000c42565b9462000148610120620001406101008a0162000cb4565b980162000cb4565b885190986001600160401b038211620005ee5760035490600182811c9216801562000c0c575b6020831014620005cd5781601f84931162000b9a575b50602090601f831160011462000b0b5760009262000aff575b50508160011b916000199060031b1c1916176003555b8051906001600160401b038211620005ee5760045490600182811c9216801562000af4575b6020831014620005cd5781601f84931162000a82575b50602090601f8311600114620009f357600092620009e7575b50508160011b916000199060031b1c1916176004555b8051906001600160401b038211620005ee5760055490600182811c92168015620009dc575b6020831014620005cd5781601f84931162000986575b50602090601f8311600114620008f757600092620008eb575b50508160011b916000199060031b1c1916176005555b8051906001600160401b038211620005ee5760065490600182811c92168015620008e0575b6020831014620005cd5781601f8493116200087c575b50602090601f8311600114620007fe57600092620007f2575b50508160011b916000199060031b1c1916176006555b8051906001600160401b038211620005ee5760075490600182811c92168015620007e7575b6020831014620005cd5781601f84931162000783575b50602090601f83116001146200070557600092620006f9575b50508160011b916000199060031b1c1916176007555b8051906001600160401b038211620005ee5760085490600182811c92168015620006ee575b6020831014620005cd5781601f8493116200068a575b50602090601f8311600114620006105760009262000604575b50508160011b916000199060031b1c1916176008555b8051906001600160401b038211620005ee5760095490600182811c92168015620005e3575b6020831014620005cd5781601f84931162000569575b50602090601f8311600114620004ef57600092620004e3575b50508160011b916000199060031b1c1916176009555b6080524260a0526001600160a01b0316908115620004cb5760025490808201809211620004b55760207fddf252ad1be2c89b69c2b068fc378daa952ba7f163c4a11628f55a4df523b3ef916000936002558484528382528584208181540190558551908152a351610bae908162000cca8239608051816109f1015260a051816101370152f35b634e487b7160e01b600052601160045260246000fd5b825163ec442f0560e01b815260006004820152602490fd5b01519050388062000419565b60096000908152600080516020620018b88339815191529350601f198516905b81811062000550575090846001959493921062000536575b505050811b016009556200042f565b015160001960f88460031b161c1916905538808062000527565b929360206001819287860151815501950193016200050f565b6009600052909150600080516020620018b8833981519152601f840160051c81019160208510620005c2575b90601f859493920160051c01905b818110620005b2575062000400565b60008155849350600101620005a3565b909150819062000595565b634e487b7160e01b600052602260045260246000fd5b91607f1691620003ea565b634e487b7160e01b600052604160045260246000fd5b015190503880620003af565b60086000908152600080516020620018988339815191529350601f198516905b81811062000671575090846001959493921062000657575b505050811b01600855620003c5565b015160001960f88460031b161c1916905538808062000648565b9293602060018192878601518155019501930162000630565b600860005290915060008051602062001898833981519152601f840160051c81019160208510620006e3575b90601f859493920160051c01905b818110620006d3575062000396565b60008155849350600101620006c4565b9091508190620006b6565b91607f169162000380565b01519050388062000345565b6007600090815293506000805160206200187883398151915291905b601f198416851062000767576001945083601f198116106200074d575b505050811b016007556200035b565b015160001960f88460031b161c191690553880806200073e565b8181015183556020948501946001909301929091019062000721565b600760005290915060008051602062001878833981519152601f840160051c81019160208510620007dc575b90601f859493920160051c01905b818110620007cc57506200032c565b60008155849350600101620007bd565b9091508190620007af565b91607f169162000316565b015190503880620002db565b600660009081529350600080516020620018d883398151915291905b601f198416851062000860576001945083601f1981161062000846575b505050811b01600655620002f1565b015160001960f88460031b161c1916905538808062000837565b818101518355602094850194600190930192909101906200081a565b6006600052909150600080516020620018d8833981519152601f840160051c81019160208510620008d5575b90601f859493920160051c01905b818110620008c55750620002c2565b60008155849350600101620008b6565b9091508190620008a8565b91607f1691620002ac565b01519050388062000271565b6005600090815293507f036b6384b5eca791c62761152d0c79bb0604c104a5fb6f4eb0703f3154bb3db091905b601f19841685106200096a576001945083601f1981161062000950575b505050811b0160055562000287565b015160001960f88460031b161c1916905538808062000941565b8181015183556020948501946001909301929091019062000924565b90915060056000526020600020601f840160051c810160208510620009d4575b90849392915b601f830160051c82018110620009c457505062000258565b60008155859450600101620009ac565b5080620009a6565b91607f169162000242565b01519050388062000207565b6004600090815293507f8a35acfbc15ff81a39ae7d344fd709f28e8600b4aa8c65c6b64bfe7fe36bd19b91905b601f198416851062000a66576001945083601f1981161062000a4c575b505050811b016004556200021d565b015160001960f88460031b161c1916905538808062000a3d565b8181015183556020948501946001909301929091019062000a20565b60046000529091507f8a35acfbc15ff81a39ae7d344fd709f28e8600b4aa8c65c6b64bfe7fe36bd19b601f840160051c81016020851062000aec575b90849392915b601f830160051c8201811062000adc575050620001ee565b6000815585945060010162000ac4565b508062000abe565b91607f1691620001d8565b0151905038806200019d565b6003600090815293507fc2575a0e9e593c00f959f8c92f12db2869c3395a3b0502d05e2516446f71f85b91905b601f198416851062000b7e576001945083601f1981161062000b64575b505050811b01600355620001b3565b015160001960f88460031b161c1916905538808062000b55565b8181015183556020948501946001909301929091019062000b38565b60036000529091507fc2575a0e9e593c00f959f8c92f12db2869c3395a3b0502d05e2516446f71f85b601f840160051c81016020851062000c04575b90849392915b601f830160051c8201811062000bf457505062000184565b6000815585945060010162000bdc565b508062000bd6565b91607f16916200016e565b600080fd5b6040519190601f01601f191682016001600160401b03811183821017620005ee57604052565b919080601f8401121562000c175782516001600160401b038111620005ee5760209062000c78601f8201601f1916830162000c1c565b9281845282828701011162000c175760005b81811062000ca057508260009394955001015290565b858101830151848201840152820162000c8a565b51906001600160a01b038216820362000c175756fe608060408181526004918236101561001657600080fd5b600092833560e01c91826302d05d3f146109dd5750816306fdde0314610903578163095ea7b31461085557816318160ddd1461083657816323b872dd1461073f578163313ce5671461072357816347ecb6651461064957816370a08231146106125781637284e4161461053857816395d89b4114610460578163a9059cbb1461042f578163aba8315014610355578163abfaeee01461027b578163beb0a4161461015a57508063cf09e0d0146101205763dd62ed3e146100d557600080fd5b3461011c578060031936011261011c57806020926100f1610a69565b6100f9610a84565b6001600160a01b0391821683526001865283832091168252845220549051908152f35b5080fd5b503461011c578160031936011261011c57602090517f00000000000000000000000000000000000000000000000000000000000000008152f35b83833461011c578160031936011261011c5780519082600954600181811c90808316928315610271575b602093848410811461025e5783885290811561024257506001146101ec575b505050829003601f01601f191682019267ffffffffffffffff8411838510176101d957508291826101d5925282610a20565b0390f35b634e487b7160e01b815260418552602490fd5b600987529192508591837f6e1540171b6c0c960b71a7020d9f60077f6af931a8bbf590da0223dacf75c7af5b83851061022e57505050508301018580806101a3565b805488860183015293019284908201610218565b60ff1916878501525050151560051b84010190508580806101a3565b634e487b7160e01b895260228a52602489fd5b91607f1691610184565b83833461011c578160031936011261011c5780519082600754600181811c9080831692831561034b575b602093848410811461025e5783885290811561024257506001146102f557505050829003601f01601f191682019267ffffffffffffffff8411838510176101d957508291826101d5925282610a20565b600787529192508591837fa66cc928b5edb82af9bd49922954155ab7b0942694bea4ce44661d9a8736c6885b83851061033757505050508301018580806101a3565b805488860183015293019284908201610321565b91607f16916102a5565b83833461011c578160031936011261011c5780519082600554600181811c90808316928315610425575b602093848410811461025e5783885290811561024257506001146103cf57505050829003601f01601f191682019267ffffffffffffffff8411838510176101d957508291826101d5925282610a20565b600587529192508591837f036b6384b5eca791c62761152d0c79bb0604c104a5fb6f4eb0703f3154bb3db05b83851061041157505050508301018580806101a3565b8054888601830152930192849082016103fb565b91607f169161037f565b50503461011c578060031936011261011c5760209061045961044f610a69565b6024359033610a9a565b5160018152f35b83833461011c578160031936011261011c57805190828454600181811c9080831692831561052e575b602093848410811461025e5783885290811561024257506001146104d957505050829003601f01601f191682019267ffffffffffffffff8411838510176101d957508291826101d5925282610a20565b8787529192508591837f8a35acfbc15ff81a39ae7d344fd709f28e8600b4aa8c65c6b64bfe7fe36bd19b5b83851061051a57505050508301018580806101a3565b805488860183015293019284908201610504565b91607f1691610489565b83833461011c578160031936011261011c5780519082600654600181811c90808316928315610608575b602093848410811461025e5783885290811561024257506001146105b257505050829003601f01601f191682019267ffffffffffffffff8411838510176101d957508291826101d5925282610a20565b600687529192508591837ff652222313e28459528d920b65115c16c04f3efc82aaedc97be59f3f377c0d3f5b8385106105f457505050508301018580806101a3565b8054888601830152930192849082016105de565b91607f1691610562565b50503461011c57602036600319011261011c5760209181906001600160a01b0361063a610a69565b16815280845220549051908152f35b83833461011c578160031936011261011c5780519082600854600181811c90808316928315610719575b602093848410811461025e5783885290811561024257506001146106c357505050829003601f01601f191682019267ffffffffffffffff8411838510176101d957508291826101d5925282610a20565b600887529192508591837ff3f7a9fe364faab93b216da50a3214154f22a0a2b415b23a84c8169e8b636ee35b83851061070557505050508301018580806101a3565b8054888601830152930192849082016106ef565b91607f1691610673565b50503461011c578160031936011261011c576020905160128152f35b905082346108335760603660031901126108335761075b610a69565b610763610a84565b916044359360018060a01b03831680835260016020528683203384526020528683205491600019831061079f575b602088610459898989610a9a565b8683106108075781156107f05733156107d95750825260016020908152868320338452815291869020908590039055829061045987610791565b8751634a1406b160e11b8152908101849052602490fd5b875163e602df0560e01b8152908101849052602490fd5b8751637dc7a0d960e11b8152339181019182526020820193909352604081018790528291506060010390fd5b80fd5b50503461011c578160031936011261011c576020906002549051908152f35b9050346108ff57816003193601126108ff5761086f610a69565b6024359033156108e8576001600160a01b03169182156108d157508083602095338152600187528181208582528752205582519081527f8c5be1e5ebec7d5bd14f71427d1e84f3dd0314c0f7b2291e5b200ac8c7c3b925843392a35160018152f35b8351634a1406b160e11b8152908101859052602490fd5b835163e602df0560e01b8152808401869052602490fd5b8280fd5b83833461011c578160031936011261011c5780519082600354600181811c908083169283156109d3575b602093848410811461025e57838852908115610242575060011461097d57505050829003601f01601f191682019267ffffffffffffffff8411838510176101d957508291826101d5925282610a20565b600387529192508591837fc2575a0e9e593c00f959f8c92f12db2869c3395a3b0502d05e2516446f71f85b5b8385106109bf57505050508301018580806101a3565b8054888601830152930192849082016109a9565b91607f169161092d565b84903461011c578160031936011261011c577f00000000000000000000000000000000000000000000000000000000000000006001600160a01b03168152602090f35b6020808252825181830181905290939260005b828110610a5557505060409293506000838284010152601f8019910116010190565b818101860151848201604001528501610a33565b600435906001600160a01b0382168203610a7f57565b600080fd5b602435906001600160a01b0382168203610a7f57565b916001600160a01b03808416928315610b5f5716928315610b465760009083825281602052604082205490838210610b14575091604082827fddf252ad1be2c89b69c2b068fc378daa952ba7f163c4a11628f55a4df523b3ef958760209652828652038282205586815220818154019055604051908152a3565b60405163391434e360e21b81526001600160a01b03919091166004820152602481019190915260448101839052606490fd5b60405163ec442f0560e01b815260006004820152602490fd5b604051634b637e8f60e11b815260006004820152602490fdfea2646970667358221220e1e1d41fa4e8db1187fcd4c41ca997697eb71d0e8b84f48ba4f33600a6c7c87f64736f6c63430008140033a66cc928b5edb82af9bd49922954155ab7b0942694bea4ce44661d9a8736c688f3f7a9fe364faab93b216da50a3214154f22a0a2b415b23a84c8169e8b636ee36e1540171b6c0c960b71a7020d9f60077f6af931a8bbf590da0223dacf75c7aff652222313e28459528d920b65115c16c04f3efc82aaedc97be59f3f377c0d3fa264697066735822122015e95c16565fdc06199157d7aa18bd22b7829050c2196ac624c5f1b72cb8f50464736f6c63430008140033",
  "linkReferences": {},
  "deployedLinkReferences": {}
}