{
  "_format": "hh-sol-artifact-1",
  "contractName": "DevBondingCurveV2",
  "sourceName": "contracts/DevBondingCurveV2.sol",
  "abi": [
    {
      "inputs": [
        {
          "internalType": "address",
          "name": "owner",
          "type": "address"
        }
      ],
      "name": "OwnableInvalidOwner",
      "type": "error"
    },
    {
      "inputs": [
        {
          "internalType": "address",
          "name": "account",
          "type": "address"
        }
      ],
      "name": "OwnableUnauthorizedAccount",
      "type": "error"
    },
    {
      "inputs": [],
      "name": "ReentrancyGuardReentrantCall",
      "type": "error"
    },
    {
      "anonymous": false,
      "inputs": [
        {
          "indexed": false,
          "internalType": "uint256",
          "name": "platformFeeBps",
          "type": "uint256"
        },
        {
          "indexed": false,
          "internalType": "uint256",
          "name": "creatorFeeBps",
          "type": "uint256"
        }
      ],
      "name": "FeesUpdated",
      "type": "event"
    },
    {
      "anonymous": false,
      "inputs": [
        {
          "indexed": true,
          "internalType": "address",
          "name": "previousOwner",
          "type": "address"
        },
        {
          "indexed": true,
          "internalType": "address",
          "name": "newOwner",
          "type": "address"
        }
      ],
      "name": "OwnershipTransferred",
      "type": "event"
    },
    {
      "anonymous": false,
      "inputs": [
        {
          "indexed": true,
          "internalType": "address",
          "name": "token",
          "type": "address"
        },
        {
          "indexed": true,
          "internalType": "address",
          "name": "creator",
          "type": "address"
        },
        {
          "indexed": false,
          "internalType": "string",
          "name": "name",
          "type": "string"
        },
        {
          "indexed": false,
          "internalType": "string",
          "name": "symbol",
          "type": "string"
        },
        {
          "indexed": false,
          "internalType": "uint256",
          "name": "timestamp",
          "type": "uint256"
        },
        {
          "indexed": false,
          "internalType": "uint256",
          "name": "devBuyAmount",
          "type": "uint256"
        }
      ],
      "name": "TokenCreated",
      "type": "event"
    },
    {
      "anonymous": false,
      "inputs": [
        {
          "indexed": true,
          "internalType": "address",
          "name": "token",
          "type": "address"
        },
        {
          "indexed": false,
          "internalType": "uint256",
          "name": "ethReserve",
          "type": "uint256"
        },
        {
          "indexed": false,
          "internalType": "uint256",
          "name": "tokenReserve",
          "type": "uint256"
        },
        {
          "indexed": false,
          "internalType": "uint256",
          "name": "totalVolume",
          "type": "uint256"
        }
      ],
      "name": "TokenGraduated",
      "type": "event"
    },
    {
      "anonymous": false,
      "inputs": [
        {
          "indexed": true,
          "internalType": "address",
          "name": "token",
          "type": "address"
        },
        {
          "indexed": true,
          "internalType": "address",
          "name": "trader",
          "type": "address"
        },
        {
          "indexed": false,
          "internalType": "bool",
          "name": "isBuy",
          "type": "bool"
        },
        {
          "indexed": false,
          "internalType": "uint256",
          "name": "ethAmount",
          "type": "uint256"
        },
        {
          "indexed": false,
          "internalType": "uint256",
          "name": "tokenAmount",
          "type": "uint256"
        },
        {
          "indexed": false,
          "internalType": "uint256",
          "name": "newPrice",
          "type": "uint256"
        },
        {
          "indexed": false,
          "internalType": "uint256",
          "name": "platformFee",
          "type": "uint256"
        },
        {
          "indexed": false,
          "internalType": "uint256",
          "name": "creatorFee",
          "type": "uint256"
        }
      ],
      "name": "TokenTraded",
      "type": "event"
    },
    {
      "inputs": [],
      "name": "BONDING_SUPPLY",
      "outputs": [
        {
          "internalType": "uint256",
          "name": "",
          "type": "uint256"
        }
      ],
      "stateMutability": "view",
      "type": "function"
    },
    {
      "inputs": [],
      "name": "BPS_DENOMINATOR",
      "outputs": [
        {
          "internalType": "uint256",
          "name": "",
          "type": "uint256"
        }
      ],
      "stateMutability": "view",
      "type": "function"
    },
    {
      "inputs": [],
      "name": "CREATION_FEE",
      "outputs": [
        {
          "internalType": "uint256",
          "name": "",
          "type": "uint256"
        }
      ],
      "stateMutability": "view",
      "type": "function"
    },
    {
      "inputs": [],
      "name": "DEX_RESERVE",
      "outputs": [
        {
          "internalType": "uint256",
          "name": "",
          "type": "uint256"
        }
      ],
      "stateMutability": "view",
      "type": "function"
    },
    {
      "inputs": [],
      "name": "GRADUATION_THRESHOLD",
      "outputs": [
        {
          "internalType": "uint256",
          "name": "",
          "type": "uint256"
        }
      ],
      "stateMutability": "view",
      "type": "function"
    },
    {
      "inputs": [],
      "name": "MAX_DEV_BUY",
      "outputs": [
        {
          "internalType": "uint256",
          "name": "",
          "type": "uint256"
        }
      ],
      "stateMutability": "view",
      "type": "function"
    },
    {
      "inputs": [],
      "name": "TOTAL_SUPPLY",
      "outputs": [
        {
          "internalType": "uint256",
          "name": "",
          "type": "uint256"
        }
      ],
      "stateMutability": "view",
      "type": "function"
    },
    {
      "inputs": [],
      "name": "VIRTUAL_ETH_RESERVE",
      "outputs": [
        {
          "internalType": "uint256",
          "name": "",
          "type": "uint256"
        }
      ],
      "stateMutability": "view",
      "type": "function"
    },
    {
      "inputs": [],
      "name": "VIRTUAL_TOKEN_RESERVE",
      "outputs": [
        {
          "internalType": "uint256",
          "name": "",
          "type": "uint256"
        }
      ],
      "stateMutability": "view",
      "type": "function"
    },
    {
      "inputs": [
        {
          "internalType": "uint256",
          "name": "",
          "type": "uint256"
        }
      ],
      "name": "allTokens",
      "outputs": [
        {
          "internalType": "address",
          "name": "",
          "type": "address"
        }
      ],
      "stateMutability": "view",
      "type": "function"
    },
    {
      "inputs": [
        {
          "internalType": "address",
          "name": "_token",
          "type": "address"
        }
      ],
      "name": "bondingProgress",
      "outputs": [
        {
          "internalType": "uint256",
          "name": "",
          "type": "uint256"
        }
      ],
      "stateMutability": "view",
      "type": "function"
    },
    {
      "inputs": [
        {
          "internalType": "address",
          "name": "_token",
          "type": "address"
        },
        {
          "internalType": "uint256",
          "name": "_minTokensOut",
          "type": "uint256"
        }
      ],
      "name": "buyTokens",
      "outputs": [
        {
          "internalType": "uint256",
          "name": "",
          "type": "uint256"
        }
      ],
      "stateMutability": "payable",
      "type": "function"
    },
    {
      "inputs": [
        {
          "internalType": "address",
          "name": "_token",
          "type": "address"
        },
        {
          "internalType": "uint256",
          "name": "_ethAmount",
          "type": "uint256"
        }
      ],
      "name": "calculateBuyReturn",
      "outputs": [
        {
          "internalType": "uint256",
          "name": "",
          "type": "uint256"
        }
      ],
      "stateMutability": "view",
      "type": "function"
    },
    {
      "inputs": [
        {
          "internalType": "address",
          "name": "_token",
          "type": "address"
        }
      ],
      "name": "calculateMarketCap",
      "outputs": [
        {
          "internalType": "uint256",
          "name": "",
          "type": "uint256"
        }
      ],
      "stateMutability": "view",
      "type": "function"
    },
    {
      "inputs": [
        {
          "internalType": "address",
          "name": "_token",
          "type": "address"
        },
        {
          "internalType": "uint256",
          "name": "_tokenAmount",
          "type": "uint256"
        }
      ],
      "name": "calculateSellReturn",
      "outputs": [
        {
          "internalType": "uint256",
          "name": "",
          "type": "uint256"
        }
      ],
      "stateMutability": "view",
      "type": "function"
    },
    {
      "inputs": [
        {
          "internalType": "address",
          "name": "_token",
          "type": "address"
        }
      ],
      "name": "claimCreatorFees",
      "outputs": [],
      "stateMutability": "nonpayable",
      "type": "function"
    },
    {
      "inputs": [
        {
          "internalType": "string",
          "name": "_name",
          "type": "string"
        },
        {
          "internalType": "string",
          "name": "_symbol",
          "type": "string"
        },
        {
          "internalType": "string",
          "name": "_description",
          "type": "string"
        },
        {
          "internalType": "string",
          "name": "_imageUrl",
          "type": "string"
        },
        {
          "internalType": "string",
          "name": "_twitter",
          "type": "string"
        },
        {
          "internalType": "string",
          "name": "_telegram",
          "type": "string"
        },
        {
          "internalType": "string",
          "name": "_website",
          "type": "string"
        },
        {
          "internalType": "string",
          "name": "",
          "type": "string"
        },
        {
          "internalType": "uint256",
          "name": "_devBuyAmount",
          "type": "uint256"
        }
      ],
      "name": "createToken",
      "outputs": [
        {
          "internalType": "address",
          "name": "",
          "type": "address"
        }
      ],
      "stateMutability": "payable",
      "type": "function"
    },
    {
      "inputs": [],
      "name": "creatorFeeBps",
      "outputs": [
        {
          "internalType": "uint256",
          "name": "",
          "type": "uint256"
        }
      ],
      "stateMutability": "view",
      "type": "function"
    },
    {
      "inputs": [],
      "name": "getAllTokens",
      "outputs": [
        {
          "internalType": "address[]",
          "name": "",
          "type": "address[]"
        }
      ],
      "stateMutability": "view",
      "type": "function"
    },
    {
      "inputs": [
        {
          "internalType": "address",
          "name": "_token",
          "type": "address"
        }
      ],
      "name": "getFullTokenInfo",
      "outputs": [
        {
          "internalType": "address",
          "name": "creator",
          "type": "address"
        },
        {
          "internalType": "uint256",
          "name": "virtualEthReserve",
          "type": "uint256"
        },
        {
          "internalType": "uint256",
          "name": "virtualTokenReserve",
          "type": "uint256"
        },
        {
          "internalType": "uint256",
          "name": "realEthReserve",
          "type": "uint256"
        },
        {
          "internalType": "uint256",
          "name": "realTokenReserve",
          "type": "uint256"
        },
        {
          "internalType": "uint256",
          "name": "k",
          "type": "uint256"
        },
        {
          "internalType": "bool",
          "name": "graduated",
          "type": "bool"
        }
      ],
      "stateMutability": "view",
      "type": "function"
    },
    {
      "inputs": [],
      "name": "getTokenCount",
      "outputs": [
        {
          "internalType": "uint256",
          "name": "",
          "type": "uint256"
        }
      ],
      "stateMutability": "view",
      "type": "function"
    },
    {
      "inputs": [
        {
          "internalType": "address",
          "name": "_token",
          "type": "address"
        }
      ],
      "name": "getTokenPrice",
      "outputs": [
        {
          "internalType": "uint256",
          "name": "",
          "type": "uint256"
        }
      ],
      "stateMutability": "view",
      "type": "function"
    },
    {
      "inputs": [
        {
          "internalType": "address",
          "name": "",
          "type": "address"
        }
      ],
      "name": "isValidToken",
      "outputs": [
        {
          "internalType": "bool",
          "name": "",
          "type": "bool"
        }
      ],
      "stateMutability": "view",
      "type": "function"
    },
    {
      "inputs": [],
      "name": "owner",
      "outputs": [
        {
          "internalType": "address",
          "name": "",
          "type": "address"
        }
      ],
      "stateMutability": "view",
      "type": "function"
    },
    {
      "inputs": [],
      "name": "platformFeeBps",
      "outputs": [
        {
          "internalType": "uint256",
          "name": "",
          "type": "uint256"
        }
      ],
      "stateMutability": "view",
      "type": "function"
    },
    {
      "inputs": [],
      "name": "renounceOwnership",
      "outputs": [],
      "stateMutability": "nonpayable",
      "type": "function"
    },
    {
      "inputs": [
        {
          "internalType": "address",
          "name": "_token",
          "type": "address"
        },
        {
          "internalType": "uint256",
          "name": "_tokenAmount",
          "type": "uint256"
        },
        {
          "internalType": "uint256",
          "name": "_minEthOut",
          "type": "uint256"
        }
      ],
      "name": "sellTokens",
      "outputs": [
        {
          "internalType": "uint256",
          "name": "",
          "type": "uint256"
        }
      ],
      "stateMutability": "nonpayable",
      "type": "function"
    },
    {
      "inputs": [
        {
          "internalType": "address",
          "name": "",
          "type": "address"
        }
      ],
      "name": "tokenInfo",
      "outputs": [
        {
          "internalType": "address",
          "name": "tokenAddress",
          "type": "address"
        },
        {
          "internalType": "address",
          "name": "creator",
          "type": "address"
        },
        {
          "internalType": "uint256",
          "name": "realEthReserve",
          "type": "uint256"
        },
        {
          "internalType": "uint256",
          "name": "realTokenReserve",
          "type": "uint256"
        },
        {
          "internalType": "uint256",
          "name": "k",
          "type": "uint256"
        },
        {
          "internalType": "uint256",
          "name": "dexReserve",
          "type": "uint256"
        },
        {
          "internalType": "uint256",
          "name": "creatorFees",
          "type": "uint256"
        },
        {
          "internalType": "uint256",
          "name": "platformFees",
          "type": "uint256"
        },
        {
          "internalType": "bool",
          "name": "graduated",
          "type": "bool"
        },
        {
          "internalType": "uint256",
          "name": "createdAt",
          "type": "uint256"
        },
        {
          "internalType": "uint256",
          "name": "totalVolume",
          "type": "uint256"
        },
        {
          "internalType": "uint256",
          "name": "tradeCount",
          "type": "uint256"
        }
      ],
      "stateMutability": "view",
      "type": "function"
    },
    {
      "inputs": [],
      "name": "totalPlatformFees",
      "outputs": [
        {
          "internalType": "uint256",
          "name": "",
          "type": "uint256"
        }
      ],
      "stateMutability": "view",
      "type": "function"
    },
    {
      "inputs": [
        {
          "internalType": "address",
          "name": "newOwner",
          "type": "address"
        }
      ],
      "name": "transferOwnership",
      "outputs": [],
      "stateMutability": "nonpayable",
      "type": "function"
    },
    {
      "inputs": [
        {
          "internalType": "uint256",
          "name": "_platformFeeBps",
          "type": "uint256"
        },
        {
          "internalType": "uint256",
          "name": "_creatorFeeBps",
          "type": "uint256"
        }
      ],
      "name": "updateFees",
      "outputs": [],
      "stateMutability": "nonpayable",
      "type": "function"
    },
    {
      "inputs": [],
      "name": "withdrawPlatformFees",
      "outputs": [],
      "stateMutability": "nonpayable",
      "type": "function"
    }
  ],
  "bytecode": "0x608080604052346100885733156100725760008054336001600160a01b03198216811783556040519290916001600160a01b0316907f8be0079c531659141344cd1fd0a4f28419497f9722a3daafe3b4186f6b6457e09080a360018055606460025560646003556139e5908161008e8239f35b631e4fbdf760e01b815260006004820152602490fd5b600080fdfe608060405260043610156200001357600080fd5b60003560e01c80630752881a146200162c57806317773ebb146200160c5780631c8b271a14620015df57806322dcd13e14620015bf5780632a5c792a14620014ef578063306ba063146200145c57806341344d5d146200143357806348dfd578146200140e57806349a2104d14620013ea578063634282af14620013a35780636db7943714620012f6578063715018a6146200129957806375535f32146200127157806375a8e372146200124457806378a8956714620012245780637e309b9214620011fd5780638d427e2514620011d45780638da5cb5b14620011a9578063902d55a51462001180578063b45d92df1462001157578063c18764531462001114578063cb24a72f14620010ef578063d02641a014620010be578063d0b7830b1462001079578063d3631fa51462001059578063d6ae6e441462000f73578063e1a452181462000f54578063e4e57b9e1462000bdc578063ea1ee599146200031b578063f2fde38b146200028b578063f5dab71114620001c95763fcfc0c09146200019d57600080fd5b34620001c4576000366003190112620001c4576020604051690e9c7f5bd655012000008152f35b600080fd5b34620001c4576020366003190112620001c4576101806001600160a01b0380620001f2620019a4565b1660005260046020526040600020818154169160018201541690600281015460038201546004830154600584015460068501549060078601549260ff60088801541694600988015496600b600a8a0154990154996040519b8c5260208c015260408b015260608a0152608089015260a088015260c087015260e08601521515610100850152610120840152610140830152610160820152f35b34620001c4576020366003190112620001c457620002a8620019a4565b620002b262001a96565b6001600160a01b039081169081156200030257600054826001600160601b0360a01b821617600055167f8be0079c531659141344cd1fd0a4f28419497f9722a3daafe3b4186f6b6457e0600080a3005b604051631e4fbdf760e01b815260006004820152602490fd5b610120366003190112620001c45760043567ffffffffffffffff8111620001c4576200034c90369060040162001a49565b60243567ffffffffffffffff8111620001c4576200036f90369060040162001a49565b9060443567ffffffffffffffff8111620001c4576200039390369060040162001a49565b60643567ffffffffffffffff8111620001c457620003b690369060040162001a49565b9060843567ffffffffffffffff8111620001c457620003da90369060040162001a49565b60a43567ffffffffffffffff8111620001c457620003fd90369060040162001a49565b9260c43567ffffffffffffffff8111620001c4576200042190369060040162001a49565b9060e43567ffffffffffffffff8111620001c4576200044590369060040162001a49565b506200045062001b88565b6101043566038d7ea4c680000166038d7ea4c6800011620008d4576101043566038d7ea4c6800001341062000ba057678ac7230489e80000610104351162000b5b5785511562000b265786511562000aef5760405194856118f881011067ffffffffffffffff6118f888011117620008ea5762000573620005a1946200055c8897620005456200058a96620005188e620005008f6101408f6118f8620020b882396118f801818152019062001ad1565b908d60206118f882018403916118f801015262001ad1565b906b033b2e3c9fd0803ce800000060408d6118f80101526118f88c01820360608d6118f801015262001ad1565b906118f88a01820360806118f88c01015262001ad1565b906118f88801820360a06118f88a01015262001ad1565b906118f88601820360c06118f88801015262001ad1565b906118f88401820360e06118f88601015262001ad1565b336101006118f884010152306101206118f88401015203906000f091821562000ae3576040518061018081011067ffffffffffffffff61018083011117620008ea57610180810160405260018060a01b0384168152336020820152600060408201526b0295be96e64066972000000060608201527223eb0770016ae74c53ff94acc264000000000060808201526aa56fa5b99019a5c800000060a0820152600060c0820152600060e08201526000610100820152426101208201526000610140820152600061016082015260018060a01b0384166000526004602052604060002060018060a01b038251166001600160601b0360a01b8254161781556001810160018060a01b036020840151166001600160601b0360a01b82541617905560408201519081600282015560608301519081600382015560808401519283600483015560a0850151600583015560c0850151600683015560e0850151600783015560088201610100860151151560ff8019835416911617905561012085015160098301556101606101408601519586600a85015501519081600b8401556101043562000900575b50505050505060065468010000000000000000811015620008ea57806001620007749201600655620019bb565b81546001600160a01b0386811660039390931b83811b91901b19909116179091556000908152600560205260409020805460ff1916600117905560075466038d7ea4c68000810191908210620008d457620007f291600755620007e36040519360808552608085019062001ad1565b90838203602085015262001ad1565b42604083015261010435606083015233916001600160a01b038416917fc12630d761ddbf18b9530f31d91e67493535a2b635711bcff59fded8bf381cce919081900390a36101043566038d7ea4c6800001341162000864575b600180556040516001600160a01b039091168152602090f35b66038d7ea4c67fff193401348111620008d457600080806200088c8194610104359062001b45565b335af16200089962001b53565b506200084b5760405162461bcd60e51b815260206004820152600d60248201526c1499599d5b990819985a5b1959609a1b6044820152606490fd5b634e487b7160e01b600052601160045260246000fd5b634e487b7160e01b600052604160045260246000fd5b670de0b6b3a7640000918183018311620008d45769d3c21bcecceda10000008581018111620008d45762000987976200099284886200096b620009a2956200096162000959600b9b620009ad9b61010435910162001ac3565b809e62001bac565b9b8c910162001b45565b9b8c926200097c8385111562001bcd565b610104359062001ac3565b60028a015562001b45565b6003870155610104359062001ac3565b600a85015562001c1a565b91015560405163a9059cbb60e01b81523360048201526024810184905260208160448160006001600160a01b038c165af190811562000ae35760009162000aad575b501562000a705762000a0562000a0b9262001b13565b62001bac565b60405191600183526101043560208401526040830152606082015260006080820152600060a082015233907fb6bfd1e0b5e5317c2be379c71d23b23080c3bf9b072a49298ba82a7a06b6dc5b60c060018060a01b03871692a383808080808062000747565b60405162461bcd60e51b8152602060048201526015602482015274151bdad95b881d1c985b9cd9995c8819985a5b1959605a1b6044820152606490fd5b62000ad4915060203d60201162000adb575b62000acb818362001a09565b81019062001c2a565b87620009ef565b503d62000abf565b6040513d6000823e3d90fd5b60405162461bcd60e51b815260206004820152600f60248201526e14de5b589bdb081c995c5d5a5c9959608a1b6044820152606490fd5b60405162461bcd60e51b815260206004820152600d60248201526c13985b59481c995c5d5a5c9959609a1b6044820152606490fd5b60405162461bcd60e51b815260206004820152601760248201527f446576206275792065786365656473206d6178696d756d0000000000000000006044820152606490fd5b60405162461bcd60e51b8152602060048201526014602482015273125b9cdd59999a58da595b9d081c185e5b595b9d60621b6044820152606490fd5b34620001c4576060366003190112620001c45762000bf9620019a4565b62000c0362001b88565b6001600160a01b03811660009081526005602052604090205462000c2a9060ff1662001c44565b60018060a01b038116600052600460205260406000209062000c5460ff6008840154161562001c81565b6024351562000f1e57600282015490670de0b6b3a7640000828101809111620008d457600384015469d3c21bcecceda1000000908101809111620008d45762000ca1906024359062001ac3565b9362000cbe62000cb686600484015462001bac565b809362001b45565b91612710908162000cd26002548662001b31565b049162000ce26003548662001b31565b049262000cfb8462000cf5858862001b45565b62001b45565b9662000d0c60443589101562001cc0565b851162000ed9576040516323b872dd60e01b8152336004820152306024808301919091523560448201529060208260648160006001600160a01b038c165af191821562000ae357600b9262000d6b9160009162000eb5575b5062001d01565b62000d7b86600283015462001b45565b600282015562000d92602435600383015462001ac3565b60038201556006810162000da886825462001ac3565b90556007810162000dbb85825462001ac3565b9055600a810162000dce87825462001ac3565b90550162000ddd815462001c1a565b905562000ded8260075462001ac3565b600755600080808089335af162000e0362001b53565b501562000e7a5760209662000a0562000e1c9262001b13565b60405193600085528785015260243560408501526060840152608083015260a08201527fb6bfd1e0b5e5317c2be379c71d23b23080c3bf9b072a49298ba82a7a06b6dc5b60c0339360018060a01b031692a360018055604051908152f35b60405162461bcd60e51b8152602060048201526013602482015272115512081d1c985b9cd9995c8819985a5b1959606a1b6044820152606490fd5b62000ed2915060203d60201162000adb5762000acb818362001a09565b8b62000d64565b60405162461bcd60e51b815260206004820152601a60248201527f496e73756666696369656e7420455448206c69717569646974790000000000006044820152606490fd5b60405162461bcd60e51b815260206004820152600e60248201526d125b9d985b1a5908185b5bdd5b9d60921b6044820152606490fd5b34620001c4576000366003190112620001c45760206040516127108152f35b34620001c4576020366003190112620001c45762000f90620019a4565b62000f9a62001b88565b6001600160a01b0390811660009081526004602052604090206001810154909116330362001026576006018054801562000fee576000808080938162000fe89655335af162000d6462001b53565b60018055005b60405162461bcd60e51b815260206004820152601060248201526f4e6f206665657320746f20636c61696d60801b6044820152606490fd5b60405162461bcd60e51b815260206004820152600b60248201526a2737ba1031b932b0ba37b960a91b6044820152606490fd5b34620001c4576000366003190112620001c4576020600754604051908152f35b34620001c4576000366003190112620001c4576200109662001a96565b620010bc60008080806007548160075560018060a01b038254165af162000d6462001b53565b005b34620001c4576020366003190112620001c4576020620010e7620010e1620019a4565b62001d6a565b604051908152f35b34620001c4576000366003190112620001c4576020604051670de0b6b3a76400008152f35b34620001c4576020366003190112620001c4576001600160a01b0362001139620019a4565b166000526005602052602060ff604060002054166040519015158152f35b34620001c4576020366003190112620001c4576020620010e76200117a620019a4565b62002000565b34620001c4576000366003190112620001c45760206040516b033b2e3c9fd0803ce80000008152f35b34620001c4576000366003190112620001c4576000546040516001600160a01b039091168152602090f35b34620001c4576000366003190112620001c45760206040516b0295be96e6406697200000008152f35b34620001c4576000366003190112620001c457602060405169d3c21bcecceda10000008152f35b34620001c4576000366003190112620001c4576020600654604051908152f35b34620001c4576040366003190112620001c4576020620010e762001267620019a4565b6024359062001ded565b34620001c4576000366003190112620001c45760206040516aa56fa5b99019a5c80000008152f35b34620001c4576000366003190112620001c457620012b662001a96565b600080546001600160a01b0319811682556001600160a01b03167f8be0079c531659141344cd1fd0a4f28419497f9722a3daafe3b4186f6b6457e08280a3005b34620001c4576040366003190112620001c4576004356024356200131962001a96565b6103e862001328828462001ac3565b116200136857816040917f5c6323bf1c2d7aaea2c091a4751c1c87af7f2864650c336507a77d0557af37a1936002558060035582519182526020820152a1005b60405162461bcd60e51b81526020600482015260136024820152720a8dee8c2d840cccacae640e8dede40d0d2ced606b1b6044820152606490fd5b34620001c4576020366003190112620001c457600435600654811015620001c457620013d1602091620019bb565b905460405160039290921b1c6001600160a01b03168152f35b34620001c4576000366003190112620001c457602060405166038d7ea4c680008152f35b34620001c4576000366003190112620001c4576020604051678ac7230489e800008152f35b34620001c4576020366003190112620001c4576020620010e762001456620019a4565b62001f56565b34620001c4576020366003190112620001c45760e06001600160a01b038062001484620019a4565b16600052600460205260406000209060018201541690600281015490600381015460ff600860048401549301541692604051948552670de0b6b3a7640000602086015269d3c21bcecceda100000060408601526060850152608084015260a0830152151560c0820152f35b34620001c4576000366003190112620001c457604051806006548083526020809301809160066000527ff652222313e28459528d920b65115c16c04f3efc82aaedc97be59f3f377c0d3f9060005b86828210620015a1578686620015568288038362001a09565b604051928392818401908285525180915260408401929160005b8281106200158057505050500390f35b83516001600160a01b03168552869550938101939281019260010162001570565b83546001600160a01b0316855290930192600192830192016200153d565b34620001c4576000366003190112620001c4576020600254604051908152f35b34620001c4576040366003190112620001c4576020620010e762001602620019a4565b6024359062001ec2565b34620001c4576000366003190112620001c4576020600354604051908152f35b6040366003190112620001c45762001643620019a4565b6200164d62001b88565b60018060a01b031680600052602090600582526200167360ff6040600020541662001c44565b80600052600482526040600020906200169460ff6008840154161562001c81565b341562001974576127109182620016ae6002543462001b31565b0492620016be6003543462001b31565b0490620016d18262000cf5863462001b45565b93600282018054670de0b6b3a76400009381850190818611620008d4576003810180549269d3c21bcecceda100000094848601809611620008d457600b946200171f8d6200176f9462001ac3565b976200176762001740620017388b60048a015462001bac565b809a62001b45565b9e8f946200175360243587101562001cc0565b620017618587111562001bcd565b62001ac3565b905562001b45565b9055600681016200178288825462001ac3565b9055600781016200179586825462001ac3565b9055600a8101620017a834825462001ac3565b905501620017b7815462001c1a565b9055620017c78360075462001ac3565b60075560405163a9059cbb60e01b81523360048201526024810188905291888360448160008b5af190811562000ae3576200181462000a05926200181a9560009162001952575062001d01565b62001b13565b9260405191600183523488840152866040840152846060840152608083015260a0820152837fb6bfd1e0b5e5317c2be379c71d23b23080c3bf9b072a49298ba82a7a06b6dc5b60c03393a36b033b2e3c9fd0803ce800000091828102928184041490151715620008d457690e9c7f5bd6550120000091041015620018a6575b5060018055604051908152f35b8060005260048352604060002060088101805460ff811662001919579160609160017f74ddd6b35eb9921605ec2cb7da4af12cd0020d2117b708ade1d30523471b74419460ff1916179055600281015490600a600582015491015490604051928352878301526040820152a28262001899565b60405162461bcd60e51b8152600481018790526011602482015270105b1c9958591e4819dc98591d585d1959607a1b6044820152606490fd5b6200196d91508c8d3d1062000adb5762000acb818362001a09565b8c62000d64565b60405162461bcd60e51b81526004810184905260086024820152670a6cadcc8408aa8960c31b6044820152606490fd5b600435906001600160a01b0382168203620001c457565b600654811015620019f35760066000527ff652222313e28459528d920b65115c16c04f3efc82aaedc97be59f3f377c0d3f0190600090565b634e487b7160e01b600052603260045260246000fd5b90601f8019910116810190811067ffffffffffffffff821117620008ea57604052565b67ffffffffffffffff8111620008ea57601f01601f191660200190565b81601f82011215620001c45780359062001a638262001a2c565b9262001a73604051948562001a09565b82845260208383010111620001c457816000926020809301838601378301015290565b6000546001600160a01b0316330362001aab57565b60405163118cdaa760e01b8152336004820152602490fd5b91908201809211620008d457565b919082519283825260005b84811062001afe575050826000602080949584010152601f8019910116010190565b60208183018101518483018201520162001adc565b90670de0b6b3a764000091828102928184041490151715620008d457565b81810292918115918404141715620008d457565b91908203918211620008d457565b3d1562001b83573d9062001b678262001a2c565b9162001b77604051938462001a09565b82523d6000602084013e565b606090565b60026001541462001b9a576002600155565b604051633ee5aeb560e01b8152600490fd5b811562001bb7570490565b634e487b7160e01b600052601260045260246000fd5b1562001bd557565b60405162461bcd60e51b815260206004820152601c60248201527f496e73756666696369656e7420746f6b656e206c6971756964697479000000006044820152606490fd5b6000198114620008d45760010190565b90816020910312620001c457518015158103620001c45790565b1562001c4c57565b60405162461bcd60e51b815260206004820152600d60248201526c24b73b30b634b2103a37b5b2b760991b6044820152606490fd5b1562001c8957565b60405162461bcd60e51b815260206004820152600f60248201526e151bdad95b8819dc98591d585d1959608a1b6044820152606490fd5b1562001cc857565b60405162461bcd60e51b815260206004820152601160248201527014db1a5c1c1859d948195e18d959591959607a1b6044820152606490fd5b1562001d0957565b60405162461bcd60e51b815260206004820152600f60248201526e151c985b9cd9995c8819985a5b1959608a1b6044820152606490fd5b90670de0b6b3a764000091828102928184041490151715620008d45762001d679162001bac565b90565b9060009160018060a01b03168252600460205260408220600560205260ff6040842054161562001dea57600281015490670de0b6b3a764000091820180921162001dd657600301549069d3c21bcecceda100000091820180921162001dd65762001d6792935062001d40565b634e487b7160e01b84526011600452602484fd5b50565b9060009160018060a01b0316825260046020526040822090600560205260ff6040842054161562001ebd5762001e4b9062000cf56127108062001e336002548562001b31565b049062001e436003548562001b31565b049262001b45565b6002820154670de0b6b3a764000090810180911162001dd65760038301549369d3c21bcecceda100000094850180951162001ea9575091600462001e9962001ea29362001d67969562001ac3565b91015462001bac565b9062001b45565b634e487b7160e01b81526011600452602490fd5b505090565b9060009160018060a01b0316825260046020526040822090600560205260ff6040842054161562001ebd57600282015492670de0b6b3a764000093840180941162001ea95760038301549069d3c21bcecceda100000091820180921162001ea9575062001f4092600462001e9962001d67969462001ea29462001ac3565b62000cf56127108062001e336002548562001b31565b60009060018060a01b0316815260046020526040812090600560205260ff6040822054161562001ffb57600282015491670de0b6b3a76400009283019081841162001fe757600301549069d3c21bcecceda100000091820180921162001fe7579062001fc29162001d40565b906b033b2e3c9fd0803ce80000009182810292818404149015171562001ea957500490565b634e487b7160e01b83526011600452602483fd5b905090565b6001600160a01b03166000908152600460209081526040808320600590925282205460ff1615620020b357600281015490670de0b6b3a76400009182019081831162001dd657600301549069d3c21bcecceda100000091820180921162001dd657906200206d9162001d40565b6b033b2e3c9fd0803ce80000009081810291818304149015171562001fe757049060648202918083046064149015171562001ea95750690e9c7f5bd65501200000900490565b509056fe604060c081523462000c1757620018f8803803806200001e8162000c1c565b9283398101906101408183031262000c175780516001600160401b03811162000c1757826200004f91830162000c42565b60208201519091906001600160401b03811162000c1757836200007491830162000c42565b8185015160608301519094906001600160401b03811162000c1757816200009d91850162000c42565b60808401516001600160401b03811162000c175782620000bf91860162000c42565b60a08501516001600160401b03811162000c175783620000e191870162000c42565b60c08601519092906001600160401b03811162000c1757846200010691880162000c42565b60e087015190946001600160401b03821162000c17576200012991880162000c42565b9462000148610120620001406101008a0162000cb4565b980162000cb4565b885190986001600160401b038211620005ee5760035490600182811c9216801562000c0c575b6020831014620005cd5781601f84931162000b9a575b50602090601f831160011462000b0b5760009262000aff575b50508160011b916000199060031b1c1916176003555b8051906001600160401b038211620005ee5760045490600182811c9216801562000af4575b6020831014620005cd5781601f84931162000a82575b50602090601f8311600114620009f357600092620009e7575b50508160011b916000199060031b1c1916176004555b8051906001600160401b038211620005ee5760055490600182811c92168015620009dc575b6020831014620005cd5781601f84931162000986575b50602090601f8311600114620008f757600092620008eb575b50508160011b916000199060031b1c1916176005555b8051906001600160401b038211620005ee5760065490600182811c92168015620008e0575b6020831014620005cd5781601f8493116200087c575b50602090601f8311600114620007fe57600092620007f2575b50508160011b916000199060031b1c1916176006555b8051906001600160401b038211620005ee5760075490600182811c92168015620007e7575b6020831014620005cd5781601f84931162000783575b50602090601f83116001146200070557600092620006f9575b50508160011b916000199060031b1c1916176007555b8051906001600160401b038211620005ee5760085490600182811c92168015620006ee575b6020831014620005cd5781601f8493116200068a575b50602090601f8311600114620006105760009262000604575b50508160011b916000199060031b1c1916176008555b8051906001600160401b038211620005ee5760095490600182811c92168015620005e3575b6020831014620005cd5781601f84931162000569575b50602090601f8311600114620004ef57600092620004e3575b50508160011b916000199060031b1c1916176009555b6080524260a0526001600160a01b0316908115620004cb5760025490808201809211620004b55760207fddf252ad1be2c89b69c2b068fc378daa952ba7f163c4a11628f55a4df523b3ef916000936002558484528382528584208181540190558551908152a351610bae908162000cca8239608051816109f1015260a051816101370152f35b634e487b7160e01b600052601160045260246000fd5b825163ec442f0560e01b815260006004820152602490fd5b01519050388062000419565b60096000908152600080516020620018b88339815191529350601f198516905b81811062000550575090846001959493921062000536575b505050811b016009556200042f565b015160001960f88460031b161c1916905538808062000527565b929360206001819287860151815501950193016200050f565b6009600052909150600080516020620018b8833981519152601f840160051c81019160208510620005c2575b90601f859493920160051c01905b818110620005b2575062000400565b60008155849350600101620005a3565b909150819062000595565b634e487b7160e01b600052602260045260246000fd5b91607f1691620003ea565b634e487b7160e01b600052604160045260246000fd5b015190503880620003af565b60086000908152600080516020620018988339815191529350601f198516905b81811062000671575090846001959493921062000657575b505050811b01600855620003c5565b015160001960f88460031b161c1916905538808062000648565b9293602060018192878601518155019501930162000630565b600860005290915060008051602062001898833981519152601f840160051c81019160208510620006e3575b90601f859493920160051c01905b818110620006d3575062000396565b60008155849350600101620006c4565b9091508190620006b6565b91607f169162000380565b01519050388062000345565b6007600090815293506000805160206200187883398151915291905b601f198416851062000767576001945083601f198116106200074d575b505050811b016007556200035b565b015160001960f88460031b161c191690553880806200073e565b8181015183556020948501946001909301929091019062000721565b600760005290915060008051602062001878833981519152601f840160051c81019160208510620007dc575b90601f859493920160051c01905b818110620007cc57506200032c565b60008155849350600101620007bd565b9091508190620007af565b91607f169162000316565b015190503880620002db565b600660009081529350600080516020620018d883398151915291905b601f198416851062000860576001945083601f1981161062000846575b505050811b01600655620002f1565b015160001960f88460031b161c1916905538808062000837565b818101518355602094850194600190930192909101906200081a565b6006600052909150600080516020620018d8833981519152601f840160051c81019160208510620008d5575b90601f859493920160051c01905b818110620008c55750620002c2565b60008155849350600101620008b6565b9091508190620008a8565b91607f1691620002ac565b01519050388062000271565b6005600090815293507f036b6384b5eca791c62761152d0c79bb0604c104a5fb6f4eb0703f3154bb3db091905b601f19841685106200096a576001945083601f1981161062000950575b505050811b0160055562000287565b015160001960f88460031b161c1916905538808062000941565b8181015183556020948501946001909301929091019062000924565b90915060056000526020600020601f840160051c810160208510620009d4575b90849392915b601f830160051c82018110620009c457505062000258565b60008155859450600101620009ac565b5080620009a6565b91607f169162000242565b01519050388062000207565b6004600090815293507f8a35acfbc15ff81a39ae7d344fd709f28e8600b4aa8c65c6b64bfe7fe36bd19b91905b601f198416851062000a66576001945083601f1981161062000a4c575b505050811b016004556200021d565b015160001960f88460031b161c1916905538808062000a3d565b8181015183556020948501946001909301929091019062000a20565b60046000529091507f8a35acfbc15ff81a39ae7d344fd709f28e8600b4aa8c65c6b64bfe7fe36bd19b601f840160051c81016020851062000aec575b90849392915b601f830160051c8201811062000adc575050620001ee565b6000815585945060010162000ac4565b508062000abe565b91607f1691620001d8565b0151905038806200019d565b6003600090815293507fc2575a0e9e593c00f959f8c92f12db2869c3395a3b0502d05e2516446f71f85b91905b601f198416851062000b7e576001945083601f1981161062000b64575b505050811b01600355620001b3565b015160001960f88460031b161c1916905538808062000b55565b8181015183556020948501946001909301929091019062000b38565b60036000529091507fc2575a0e9e593c00f959f8c92f12db2869c3395a3b0502d05e2516446f71f85b601f840160051c81016020851062000c04575b90849392915b601f830160051c8201811062000bf457505062000184565b6000815585945060010162000bdc565b508062000bd6565b91607f16916200016e565b600080fd5b6040519190601f01601f191682016001600160401b03811183821017620005ee57604052565b919080601f8401121562000c175782516001600160401b038111620005ee5760209062000c78601f8201601f1916830162000c1c565b9281845282828701011162000c175760005b81811062000ca057508260009394955001015290565b858101830151848201840152820162000c8a565b51906001600160a01b038216820362000c175756fe608060408181526004918236101561001657600080fd5b600092833560e01c91826302d05d3f146109dd5750816306fdde0314610903578163095ea7b31461085557816318160ddd1461083657816323b872dd1461073f578163313ce5671461072357816347ecb6651461064957816370a08231146106125781637284e4161461053857816395d89b4114610460578163a9059cbb1461042f578163aba8315014610355578163abfaeee01461027b578163beb0a4161461015a57508063cf09e0d0146101205763dd62ed3e146100d557600080fd5b3461011c578060031936011261011c57806020926100f1610a69565b6100f9610a84565b6001600160a01b0391821683526001865283832091168252845220549051908152f35b5080fd5b503461011c578160031936011261011c57602090517f00000000000000000000000000000000000000000000000000000000000000008152f35b83833461011c578160031936011261011c5780519082600954600181811c90808316928315610271575b602093848410811461025e5783885290811561024257506001146101ec575b505050829003601f01601f191682019267ffffffffffffffff8411838510176101d957508291826101d5925282610a20565b0390f35b634e487b7160e01b815260418552602490fd5b600987529192508591837f6e1540171b6c0c960b71a7020d9f60077f6af931a8bbf590da0223dacf75c7af5b83851061022e57505050508301018580806101a3565b805488860183015293019284908201610218565b60ff1916878501525050151560051b84010190508580806101a3565b634e487b7160e01b895260228a52602489fd5b91607f1691610184565b83833461011c578160031936011261011c5780519082600754600181811c9080831692831561034b575b602093848410811461025e5783885290811561024257506001146102f557505050829003601f01601f191682019267ffffffffffffffff8411838510176101d957508291826101d5925282610a20565b600787529192508591837fa66cc928b5edb82af9bd49922954155ab7b0942694bea4ce44661d9a8736c6885b83851061033757505050508301018580806101a3565b805488860183015293019284908201610321565b91607f16916102a5565b83833461011c578160031936011261011c5780519082600554600181811c90808316928315610425575b602093848410811461025e5783885290811561024257506001146103cf57505050829003601f01601f191682019267ffffffffffffffff8411838510176101d957508291826101d5925282610a20565b600587529192508591837f036b6384b5eca791c62761152d0c79bb0604c104a5fb6f4eb0703f3154bb3db05b83851061041157505050508301018580806101a3565b8054888601830152930192849082016103fb565b91607f169161037f565b50503461011c578060031936011261011c5760209061045961044f610a69565b6024359033610a9a565b5160018152f35b83833461011c578160031936011261011c57805190828454600181811c9080831692831561052e575b602093848410811461025e5783885290811561024257506001146104d957505050829003601f01601f191682019267ffffffffffffffff8411838510176101d957508291826101d5925282610a20565b8787529192508591837f8a35acfbc15ff81a39ae7d344fd709f28e8600b4aa8c65c6b64bfe7fe36bd19b5b83851061051a57505050508301018580806101a3565b805488860183015293019284908201610504565b91607f1691610489565b83833461011c578160031936011261011c5780519082600654600181811c90808316928315610608575b602093848410811461025e5783885290811561024257506001146105b257505050829003601f01601f191682019267ffffffffffffffff8411838510176101d957508291826101d5925282610a20565b600687529192508591837ff652222313e28459528d920b65115c16c04f3efc82aaedc97be59f3f377c0d3f5b8385106105f457505050508301018580806101a3565b8054888601830152930192849082016105de565b91607f1691610562565b50503461011c57602036600319011261011c5760209181906001600160a01b0361063a610a69565b16815280845220549051908152f35b83833461011c578160031936011261011c5780519082600854600181811c90808316928315610719575b602093848410811461025e5783885290811561024257506001146106c357505050829003601f01601f191682019267ffffffffffffffff8411838510176101d957508291826101d5925282610a20565b600887529192508591837ff3f7a9fe364faab93b216da50a3214154f22a0a2b415b23a84c8169e8b636ee35b83851061070557505050508301018580806101a3565b8054888601830152930192849082016106ef565b91607f1691610673565b50503461011c578160031936011261011c576020905160128152f35b905082346108335760603660031901126108335761075b610a69565b610763610a84565b916044359360018060a01b03831680835260016020528683203384526020528683205491600019831061079f575b602088610459898989610a9a565b8683106108075781156107f05733156107d95750825260016020908152868320338452815291869020908590039055829061045987610791565b8751634a1406b160e11b8152908101849052602490fd5b875163e602df0560e01b8152908101849052602490fd5b8751637dc7a0d960e11b8152339181019182526020820193909352604081018790528291506060010390fd5b80fd5b50503461011c578160031936011261011c576020906002549051908152f35b9050346108ff57816003193601126108ff5761086f610a69565b6024359033156108e8576001600160a01b03169182156108d157508083602095338152600187528181208582528752205582519081527f8c5be1e5ebec7d5bd14f71427d1e84f3dd0314c0f7b2291e5b200ac8c7c3b925843392a35160018152f35b8351634a1406b160e11b8152908101859052602490fd5b835163e602df0560e01b8152808401869052602490fd5b8280fd5b83833461011c578160031936011261011c5780519082600354600181811c908083169283156109d3575b602093848410811461025e57838852908115610242575060011461097d57505050829003601f01601f191682019267ffffffffffffffff8411838510176101d957508291826101d5925282610a20565b600387529192508591837fc2575a0e9e593c00f959f8c92f12db2869c3395a3b0502d05e2516446f71f85b5b8385106109bf57505050508301018580806101a3565b8054888601830152930192849082016109a9565b91607f169161092d565b84903461011c578160031936011261011c577f00000000000000000000000000000000000000000000000000000000000000006001600160a01b03168152602090f35b6020808252825181830181905290939260005b828110610a5557505060409293506000838284010152601f8019910116010190565b818101860151848201604001528501610a33565b600435906001600160a01b0382168203610a7f57565b600080fd5b602435906001600160a01b0382168203610a7f57565b916001600160a01b03808416928315610b5f5716928315610b465760009083825281602052604082205490838210610b14575091604082827fddf252ad1be2c89b69c2b068fc378daa952ba7f163c4a11628f55a4df523b3ef958760209652828652038282205586815220818154019055604051908152a3565b60405163391434e360e21b81526001600160a01b03919091166004820152602481019190915260448101839052606490fd5b60405163ec442f0560e01b815260006004820152602490fd5b604051634b637e8f60e11b815260006004820152602490fdfea2646970667358221220a2115af599a8f58581dae5b1e223e05290d7a3f02aa840eec7b424727fefa93764736f6c63430008140033a66cc928b5edb82af9bd49922954155ab7b0942694bea4ce44661d9a8736c688f3f7a9fe364faab93b216da50a3214154f22a0a2b415b23a84c8169e8b636ee36e1540171b6c0c960b71a7020d9f60077f6af931a8bbf590da0223dacf75c7aff652222313e28459528d920b65115c16c04f3efc82aaedc97be59f3f377c0d3fa264697066735822122049ddd8a9c1b862d8c00467c2475f77f1506bc3eba500c9c0e9294ee2ee24945664736f6c63430008140033",
  "linkReferences": {},
  "deployedLinkReferences": {}
}