{"abi":[{"type":"function","name":"admin","inputs":[],"outputs":[{"name":"","type":"address","internalType":"address"}],"stateMutability":"view"},{"type":"function","name":"claim","inputs":[],"outputs":[],"stateMutability":"nonpayable"},{"type":"function","name":"claimedAmount","inputs":[],"outputs":[{"name":"","type":"uint256","internalType":"uint256"}],"stateMutability":"view"},{"type":"function","name":"clawback","inputs":[],"outputs":[],"stateMutability":"nonpayable"},{"type":"function","name":"disputeActive","inputs":[],"outputs":[{"name":"","type":"bool","internalType":"bool"}],"stateMutability":"view"},{"type":"function","name":"disputeRaiser","inputs":[],"outputs":[{"name":"","type":"address","internalType":"address"}],"stateMutability":"view"},{"type":"function","name":"disputeReason","inputs":[],"outputs":[{"name":"","type":"string","internalType":"string"}],"stateMutability":"view"},{"type":"function","name":"getClaimableAmount","inputs":[],"outputs":[{"name":"","type":"uint256","internalType":"uint256"}],"stateMutability":"view"},{"type":"function","name":"getMilestone","inputs":[{"name":"milestoneId","type":"uint256","internalType":"uint256"}],"outputs":[{"name":"amount","type":"uint256","internalType":"uint256"},{"name":"releaseDate","type":"uint256","internalType":"uint256"},{"name":"released","type":"bool","internalType":"bool"},{"name":"verified","type":"bool","internalType":"bool"}],"stateMutability":"view"},{"type":"function","name":"getMilestoneCount","inputs":[],"outputs":[{"name":"","type":"uint256","internalType":"uint256"}],"stateMutability":"view"},{"type":"function","name":"getVerifierApproval","inputs":[{"name":"milestoneId","type":"uint256","internalType":"uint256"},{"name":"verifier","type":"address","internalType":"address"}],"outputs":[{"name":"","type":"bool","internalType":"bool"}],"stateMutability":"view"},{"type":"function","name":"getVerifierCount","inputs":[],"outputs":[{"name":"","type":"uint256","internalType":"uint256"}],"stateMutability":"view"},{"type":"function","name":"initialize","inputs":[{"name":"_project","type":"address","internalType":"address"},{"name":"_kol","type":"address","internalType":"address"},{"name":"_token","type":"address","internalType":"address"},{"name":"_totalAmount","type":"uint256","internalType":"uint256"},{"name":"_milestoneAmounts","type":"uint256[]","internalType":"uint256[]"},{"name":"_releaseDates","type":"uint256[]","internalType":"uint256[]"},{"name":"_verifiers","type":"address[]","internalType":"address[]"},{"name":"_verificationThreshold","type":"uint8","internalType":"uint8"}],"outputs":[],"stateMutability":"nonpayable"},{"type":"function","name":"isVerifier","inputs":[{"name":"","type":"address","internalType":"address"}],"outputs":[{"name":"","type":"bool","internalType":"bool"}],"stateMutability":"view"},{"type":"function","name":"kolAddress","inputs":[],"outputs":[{"name":"","type":"address","internalType":"address"}],"stateMutability":"view"},{"type":"function","name":"milestones","inputs":[{"name":"","type":"uint256","internalType":"uint256"}],"outputs":[{"name":"amount","type":"uint256","internalType":"uint256"},{"name":"releaseDate","type":"uint256","internalType":"uint256"},{"name":"released","type":"bool","internalType":"bool"},{"name":"verified","type":"bool","internalType":"bool"}],"stateMutability":"view"},{"type":"function","name":"oracleAddress","inputs":[],"outputs":[{"name":"","type":"address","internalType":"address"}],"stateMutability":"view"},{"type":"function","name":"priceThreshold","inputs":[],"outputs":[{"name":"","type":"uint256","internalType":"uint256"}],"stateMutability":"view"},{"type":"function","name":"projectAddress","inputs":[],"outputs":[{"name":"","type":"address","internalType":"address"}],"stateMutability":"view"},{"type":"function","name":"raiseDispute","inputs":[{"name":"reason","type":"string","internalType":"string"}],"outputs":[],"stateMutability":"nonpayable"},{"type":"function","name":"release","inputs":[{"name":"milestoneId","type":"uint256","internalType":"uint256"}],"outputs":[],"stateMutability":"nonpayable"},{"type":"function","name":"releasedAmount","inputs":[],"outputs":[{"name":"","type":"uint256","internalType":"uint256"}],"stateMutability":"view"},{"type":"function","name":"resolveDispute","inputs":[{"name":"inFavorOfKOL","type":"bool","internalType":"bool"}],"outputs":[],"stateMutability":"nonpayable"},{"type":"function","name":"setOracle","inputs":[{"name":"_oracle","type":"address","internalType":"address"},{"name":"_threshold","type":"uint256","internalType":"uint256"}],"outputs":[],"stateMutability":"nonpayable"},{"type":"function","name":"token","inputs":[],"outputs":[{"name":"","type":"address","internalType":"address"}],"stateMutability":"view"},{"type":"function","name":"totalAmount","inputs":[],"outputs":[{"name":"","type":"uint256","internalType":"uint256"}],"stateMutability":"view"},{"type":"function","name":"verificationThreshold","inputs":[],"outputs":[{"name":"","type":"uint8","internalType":"uint8"}],"stateMutability":"view"},{"type":"function","name":"verifiers","inputs":[{"name":"","type":"uint256","internalType":"uint256"}],"outputs":[{"name":"","type":"address","internalType":"address"}],"stateMutability":"view"},{"type":"function","name":"verifyMilestone","inputs":[{"name":"milestoneId","type":"uint256","internalType":"uint256"}],"outputs":[],"stateMutability":"nonpayable"},{"type":"event","name":"DisputeRaised","inputs":[{"name":"raiser","type":"address","indexed":true,"internalType":"address"},{"name":"reason","type":"string","indexed":false,"internalType":"string"}],"anonymous":false},{"type":"event","name":"DisputeResolved","inputs":[{"name":"resolver","type":"address","indexed":true,"internalType":"address"},{"name":"inFavorOfKOL","type":"bool","indexed":false,"internalType":"bool"}],"anonymous":false},{"type":"event","name":"EmergencyClawback","inputs":[{"name":"admin","type":"address","indexed":true,"internalType":"address"},{"name":"amount","type":"uint256","indexed":false,"internalType":"uint256"}],"anonymous":false},{"type":"event","name":"Initialized","inputs":[{"name":"version","type":"uint64","indexed":false,"internalType":"uint64"}],"anonymous":false},{"type":"event","name":"MilestoneReleased","inputs":[{"name":"milestoneId","type":"uint256","indexed":true,"internalType":"uint256"},{"name":"amount","type":"uint256","indexed":false,"internalType":"uint256"},{"name":"timestamp","type":"uint256","indexed":false,"internalType":"uint256"}],"anonymous":false},{"type":"event","name":"MilestoneVerified","inputs":[{"name":"milestoneId","type":"uint256","indexed":true,"internalType":"uint256"},{"name":"verifier","type":"address","indexed":true,"internalType":"address"}],"anonymous":false},{"type":"event","name":"PaymentClaimed","inputs":[{"name":"kol","type":"address","indexed":true,"internalType":"address"},{"name":"amount","type":"uint256","indexed":false,"internalType":"uint256"}],"anonymous":false},{"type":"error","name":"AddressEmptyCode","inputs":[{"name":"target","type":"address","internalType":"address"}]},{"type":"error","name":"AddressInsufficientBalance","inputs":[{"name":"account","type":"address","internalType":"address"}]},{"type":"error","name":"DisputeActive","inputs":[]},{"type":"error","name":"FailedInnerCall","inputs":[]},{"type":"error","name":"InsufficientClaimableAmount","inputs":[]},{"type":"error","name":"InvalidAmount","inputs":[]},{"type":"error","name":"InvalidInitialization","inputs":[]},{"type":"error","name":"InvalidMilestoneId","inputs":[]},{"type":"error","name":"InvalidReleaseDate","inputs":[]},{"type":"error","name":"MilestoneAlreadyReleased","inputs":[]},{"type":"error","name":"MilestoneNotReady","inputs":[]},{"type":"error","name":"MilestoneNotVerified","inputs":[]},{"type":"error","name":"NotAdmin","inputs":[]},{"type":"error","name":"NotAuthorized","inputs":[]},{"type":"error","name":"NotInitializing","inputs":[]},{"type":"error","name":"NotKOL","inputs":[]},{"type":"error","name":"NotProjectOwner","inputs":[]},{"type":"error","name":"NotVerifier","inputs":[]},{"type":"error","name":"ReentrancyGuardReentrantCall","inputs":[]},{"type":"error","name":"SafeERC20FailedOperation","inputs":[{"name":"token","type":"address","internalType":"address"}]},{"type":"error","name":"TransferFailed","inputs":[]},{"type":"error","name":"ZeroAddress","inputs":[]}],"bytecode":{"object":"0x6080806040523461001a5760015f556117b4908161001f8239f35b5f80fdfe6080806040526004361015610012575f80fd5b5f3560e01c9081630904f5af1461130457508063167feb09146112e45780631a39d8ef146112c75780632442e1cb146112a05780632526d9601461112d57806333105218146110f057806337bdc99b14610f6457806337dad2bb14610f3c5780633a46165214610b475780633cf96af114610b1f57806345d30a1714610b025780634e71d92d14610aaa578063725a3b4b146108225780637ac584f4146107f65780637bf6c104146106de57806389e1e82a146104e95780638f4cf247146104cc57806392c5466d146104aa5780639668ceb81461048d578063a53c51f01461042a578063a85f3128146102d1578063a89ae4ba146102a9578063ac1eff6814610267578063b9c688a71461024a578063c354bd6e14610230578063cc2f609314610213578063e89e4ed6146101af578063f851a440146101875763fc0c546a1461015b575f80fd5b34610183575f366003190112610183576003546040516001600160a01b039091168152602090f35b5f80fd5b34610183575f36600319011261018357600d546040516001600160a01b039091168152602090f35b3461018357602036600319011261018357600435600a54811015610183576101d6906114b0565b508054600182015460029092015460408051928352602083019390935260ff80821615159383019390935260081c90911615156060820152608090f35b34610183575f366003190112610183576020600f54604051908152f35b34610183575f3660031901126101835760206040515f8152f35b34610183575f366003190112610183576020600754604051908152f35b346101835760203660031901126101835760043560075481101561018357610290602091611467565b905460405160039290921b1c6001600160a01b03168152f35b34610183575f36600319011261018357600e546040516001600160a01b039091168152602090f35b34610183576020806003193601126101835760043590335f526009815260ff908160405f2054161561041857600a548310156103f457610310836114b0565b5091600283019281845416610406576003809101335f528084528260405f2054166103f457335f5280845260405f20600160ff198254161790555f935f92600754935b8481106103a6575050505050600854161115610393575b5033907f6de8802c4244f14b02e4b9d13164d1708baacffb33f05d13c1ed264eac6453425f80a3005b805461ff0019166101001790558161036a565b6103af81611467565b905490831b1c6001600160a01b03165f908152848452604090205486166103df575b6103da906114e8565b610353565b956103ec6103da916114e8565b9690506103d1565b604051633c26846160e21b8152600490fd5b6040516340dabeef60e11b8152600490fd5b6040516312331aab60e11b8152600490fd5b3461018357604036600319011261018357610443611381565b600d546001600160a01b0391908216330361047b57166bffffffffffffffffffffffff60a01b600e541617600e55602435600f555f80f35b604051637bfa4b9f60e01b8152600490fd5b34610183575f366003190112610183576020600654604051908152f35b34610183575f36600319011261018357602060ff600b54166040519015158152f35b34610183575f366003190112610183576020600a54604051908152f35b346101835760208060031936011261018357600435908115159182810361018357600d546001600160a01b0392908316330361047b57600b549060ff92838316156103f45760ff19928316600b551561060e575f5b600a548110156105d95780610555610570926114b0565b50856002809201541615806105c2575b610575575b506114e8565b61053e565b8061057f836114b0565b5001600186825416179055610593826114b0565b5001805461ff0019166101001790556105ab816114b0565b50546105ba600591825461150a565b90558761056a565b5060016105ce836114b0565b500154421015610565565b509150507fcea2bc33eef9c2bacf266c2b7b17f8f2db3c22582cb56c00467843e85d98021e915b600d541692604051908152a2005b915050816003541691604051926370a0823160e01b84523060048501528284602481845afa80156106d3575f90610686575b7fcea2bc33eef9c2bacf266c2b7b17f8f2db3c22582cb56c00467843e85d98021e945080610670575b5050610600565b61067f918360015416906115c9565b8480610669565b508284813d83116106cc575b61069c8183611397565b81010312610183577fcea2bc33eef9c2bacf266c2b7b17f8f2db3c22582cb56c00467843e85d98021e9351610640565b503d610692565b6040513d5f823e3d90fd5b34610183575f36600319011261018357604051600c54815f6106ff8361142f565b808352926001908181169081156107d45750600114610776575b5061072692500382611397565b6040519081602080825282519081818401525f935b82851061075d575050604092505f838284010152601f80199101168101030190f35b848101820151868601604001529381019385935061073b565b600c5f90815291507fdf6966c971051c3d54ec59162606531493a51404a002842f56009d7e5cf4a8c75b8483106107b95750610726935050810160200184610719565b819350908160209254838589010152019101909184926107a0565b90506020925061072694915060ff191682840152151560051b82010184610719565b34610183575f36600319011261018357600b5460405160089190911c6001600160a01b03168152602090f35b3461018357602080600319360112610183576004359067ffffffffffffffff90818311610183573660238401121561018357826004013591821161018357602492368484830101116101835760018054336001600160a01b0391821614159081610a9b575b50610a8957600b5460ff8116610a77578415610a65576001600160a81b0319163360081b610100600160a81b0316178117600b55600c546108c79061142f565b601f8111610a00575b505f601f851160011461095a57918480879381987f28b099eb575e23e32becd7c30dc8f9b2f98e370cdbf9841ea3338d9000402a2598965f9461094d575b50501b905f198560031b1c191617600c555b82604051948086528501520160408301375f604084830101526040813394601f80199101168101030190a2005b850101359250848a61090e565b601f19851690600c5f527fdf6966c971051c3d54ec59162606531493a51404a002842f56009d7e5cf4a8c7915f5b8181106109e957509186979391877f28b099eb575e23e32becd7c30dc8f9b2f98e370cdbf9841ea3338d9000402a25989694106109ce575b505083811b01600c55610920565b83018401355f19600387901b60f8161c1916905587806109c0565b858301890135845592840192918601918601610988565b600c5f527fdf6966c971051c3d54ec59162606531493a51404a002842f56009d7e5cf4a8c7601f860160051c810191858710610a5b575b601f0160051c019082905b828110610a505750506108d0565b5f8155018290610a42565b9091508190610a37565b60405163162908e360e11b8152600490fd5b604051637c9d2ba760e01b8152600490fd5b604051637c2411e960e01b8152600490fd5b90506002541633141586610887565b34610183575f366003190112610183576002546001600160a01b03163303610af05760ff600b5416610a7757610ade61173d565b604051634400c3cf60e01b8152600490fd5b604051632c34c29b60e01b8152600490fd5b34610183575f366003190112610183576020600554604051908152f35b34610183575f366003190112610183576001546040516001600160a01b039091168152602090f35b346101835761010036600319011261018357610b61611381565b610b6961136b565b906044356001600160a01b038116908190036101835767ffffffffffffffff60843581811161018357610ba09036906004016113d1565b9160a43582811161018357610bb99036906004016113d1565b9060c435958387116101835736602388011215610183578660040135610bde816113b9565b97610bec604051998a611397565b818952602460208a019260051b8201019036821161018357602401915b818310610f1c5750505060e4359560ff87168703610183575f8051602061175f8339815191525494851680159081610f0c575b6001149081610f02575b159081610ef9575b50610ee757600167ffffffffffffffff198616175f8051602061175f8339815191525560ff8560401c1615610ebb575b6001600160a01b03169182158015610eaa575b8015610ea2575b610da857606435918215610a6557865115610a65576bffffffffffffffffffffffff60a01b9384600154161760015560018060a01b03168360025416176002558260035416176003556004553390600d541617600d555f5b8551811015610dba576001600160a01b03610d0b82886114f6565b511615610da8576001600160a01b03610d2482886114f6565b51169060075491600160401b831015610d9457610d4a836001610d8f9501600755611467565b815460039190911b92831b6001600160a01b039384901b19909116179055610d7282896114f6565b51165f52600960205260405f20600160ff198254161790556114e8565b610cf0565b634e487b7160e01b5f52604160045260245ffd5b60405163d92e233d60e01b8152600490fd5b5060ff841660ff1960085416176008555f5b8351811015610e3d57610ddf81856114f6565b5115610a6557600a908154600160401b811015610d9457610e0b81610e389460016002940190556114b0565b50610e1683886114f6565b518155610e2383866114f6565b51600182015501805461ffff191690556114e8565b610dcc565b60ff8360401c1615610e4b57005b68ff0000000000000000195f8051602061175f83398151915254165f8051602061175f833981519152557fc7f505b2f371ae2175ee4913f4499e1f2633a7b5936321eed1cdaeb6115181d2602060405160018152a1005b508015610c98565b506001600160a01b03821615610c91565b68ffffffffffffffffff19851668010000000000000001175f8051602061175f83398151915255610c7e565b60405163f92ee8a960e01b8152600490fd5b90501589610c4e565b303b159150610c46565b604087901c60ff16159150610c3c565b82356001600160a01b038116810361018357815260209283019201610c09565b34610183575f366003190112610183576002546040516001600160a01b039091168152602090f35b3461018357602036600319011261018357600154600435906001600160a01b03908116331415806110e2575b6110d05760ff600b5416610a7757610fa661173d565b600a548210156103f457610fb9826114b0565b50600281019182549160ff8316610406576007541515806110c2575b6110b05781600e54161515806110a1575b61108f577fd55844180ecf7ddd241cc500fe92b00e8177a1e2ada6e15b2b6c3c8b863ed73693600160209460ff1916179055611025815460055461150a565b60055561103d826003541683600254168354916115c9565b61104a815460065461150a565b60065554937fd33fcd27cbfb73a2d9058c968b560ccb306500bf536133802048489ecc7355e9604080518781524286820152a26002541692604051908152a260015f55005b60405163d09c646d60e01b8152600490fd5b506110aa61152e565b15610fe6565b60405163b0e33fe960e01b8152600490fd5b5060ff8360081c1615610fd5565b60405163ea8e4eb560e01b8152600490fd5b5080600d5416331415610f90565b34610183576020366003190112610183576001600160a01b03611111611381565b165f526009602052602060ff60405f2054166040519015158152f35b34610183575f36600319011261018357600d546001600160a01b03908116330361047b5760249061115c61173d565b60208160035416604051938480926370a0823160e01b82523060048301525afa9182156106d3575f9261126d575b508115610a65575f5b600a548110156111e057806111aa6111bf926114b0565b5060ff60028092015416156111c457506114e8565b611193565b6111cd826114b0565b5001805460ff191660011790558461056a565b5060045491600554830392831161125957808311611251575b5081611206575b60015f55005b60208161123e847f294b4f73ba375c60f53aea8141d7faa62f646d30e47b10b93c7315924cdd4a0f94600354168360015416906115c9565b600d541692604051908152a28080611200565b9150826111f9565b634e487b7160e01b5f52601160045260245ffd5b9091506020813d8211611298575b8161128860209383611397565b810103126101835751908261118a565b3d915061127b565b3461018357602036600319011261018357600435600a548110156103f4576101d6906114b0565b34610183575f366003190112610183576020600454604051908152f35b34610183575f36600319011261018357602060ff60085416604051908152f35b34610183576040366003190112610183576004359061132161136b565b90600a5483101561135c57506113386003926114b0565b509060018060a01b03165f5201602052602060ff60405f2054166040519015158152f35b633c26846160e21b8152600490fd5b602435906001600160a01b038216820361018357565b600435906001600160a01b038216820361018357565b90601f8019910116810190811067ffffffffffffffff821117610d9457604052565b67ffffffffffffffff8111610d945760051b60200190565b81601f82011215610183578035916113e8836113b9565b926113f66040519485611397565b808452602092838086019260051b820101928311610183578301905b828210611420575050505090565b81358152908301908301611412565b90600182811c9216801561145d575b602083101461144957565b634e487b7160e01b5f52602260045260245ffd5b91607f169161143e565b60075481101561149c5760075f527fa66cc928b5edb82af9bd49922954155ab7b0942694bea4ce44661d9a8736c68801905f90565b634e487b7160e01b5f52603260045260245ffd5b600a5481101561149c57600a5f5260021b7fc65a7bb8d6351c1cf70c95a316cc6a92839c986682d98bc35f958f4883f9d2a801905f90565b5f1981146112595760010190565b805182101561149c5760209160051b010190565b9190820180921161125957565b519069ffffffffffffffffffff8216820361018357565b600e546001600160a01b031680156115c35760a060049160405192838092633fabe5a360e21b82525afa5f9181611572575b5061156a57505f90565b600f54111590565b909160a0823d82116115bb575b8161158c60a09383611397565b810103126115b8575061159e81611517565b506115b0608060208301519201611517565b50905f611560565b80fd5b3d915061157f565b50600190565b60405163a9059cbb60e01b602082019081526001600160a01b039384166024830152604480830195909552938152929167ffffffffffffffff916080850183811186821017610d945760405216925f80938192519082875af13d156116cd573d9182116116b9579061165d916040519161164d6020601f19601f8401160184611397565b82523d84602084013e5b846116da565b90815191821515928361168d575b5050506116755750565b60249060405190635274afe760e01b82526004820152fd5b8192935090602091810103126116b55760200151908115918215036115b857505f808061166b565b5080fd5b634e487b7160e01b83526041600452602483fd5b61165d9150606090611657565b9061170157508051156116ef57805190602001fd5b604051630a12f52160e11b8152600490fd5b81511580611734575b611712575090565b604051639996b31560e01b81526001600160a01b039091166004820152602490fd5b50803b1561170a565b60025f541461174c5760025f55565b604051633ee5aeb560e01b8152600490fdfef0c57e16840df040f15088dc2f81fe391c3923bec73e23a9662efc9c229c6a00a26469706673582212209402f2e628a079ce4e4bd38f3fcdbefa50cb52d9c937dc29f7920cf6fc0d3e6464736f6c63430008140033","linkReferences":{}},"methodIdentifiers":{"admin()":"f851a440","claim()":"4e71d92d","claimedAmount()":"9668ceb8","clawback()":"2526d960","disputeActive()":"92c5466d","disputeRaiser()":"7ac584f4","disputeReason()":"7bf6c104","getClaimableAmount()":"c354bd6e","getMilestone(uint256)":"2442e1cb","getMilestoneCount()":"8f4cf247","getVerifierApproval(uint256,address)":"0904f5af","getVerifierCount()":"b9c688a7","initialize(address,address,address,uint256,uint256[],uint256[],address[],uint8)":"3a461652","isVerifier(address)":"33105218","kolAddress()":"37dad2bb","milestones(uint256)":"e89e4ed6","oracleAddress()":"a89ae4ba","priceThreshold()":"cc2f6093","projectAddress()":"3cf96af1","raiseDispute(string)":"725a3b4b","release(uint256)":"37bdc99b","releasedAmount()":"45d30a17","resolveDispute(bool)":"89e1e82a","setOracle(address,uint256)":"a53c51f0","token()":"fc0c546a","totalAmount()":"1a39d8ef","verificationThreshold()":"167feb09","verifiers(uint256)":"ac1eff68","verifyMilestone(uint256)":"a85f3128"},"id":2}