{
  "_format": "hh-sol-artifact-1",
  "contractName": "MinimalToken",
  "sourceName": "contracts/OptimizedTokenFactory.sol",
  "abi": [
    {
      "inputs": [],
      "stateMutability": "nonpayable",
      "type": "constructor"
    },
    {
      "inputs": [
        {
          "internalType": "address",
          "name": "spender",
          "type": "address"
        },
        {
          "internalType": "uint256",
          "name": "allowance",
          "type": "uint256"
        },
        {
          "internalType": "uint256",
          "name": "needed",
          "type": "uint256"
        }
      ],
      "name": "ERC20InsufficientAllowance",
      "type": "error"
    },
    {
      "inputs": [
        {
          "internalType": "address",
          "name": "sender",
          "type": "address"
        },
        {
          "internalType": "uint256",
          "name": "balance",
          "type": "uint256"
        },
        {
          "internalType": "uint256",
          "name": "needed",
          "type": "uint256"
        }
      ],
      "name": "ERC20InsufficientBalance",
      "type": "error"
    },
    {
      "inputs": [
        {
          "internalType": "address",
          "name": "approver",
          "type": "address"
        }
      ],
      "name": "ERC20InvalidApprover",
      "type": "error"
    },
    {
      "inputs": [
        {
          "internalType": "address",
          "name": "receiver",
          "type": "address"
        }
      ],
      "name": "ERC20InvalidReceiver",
      "type": "error"
    },
    {
      "inputs": [
        {
          "internalType": "address",
          "name": "sender",
          "type": "address"
        }
      ],
      "name": "ERC20InvalidSender",
      "type": "error"
    },
    {
      "inputs": [
        {
          "internalType": "address",
          "name": "spender",
          "type": "address"
        }
      ],
      "name": "ERC20InvalidSpender",
      "type": "error"
    },
    {
      "anonymous": false,
      "inputs": [
        {
          "indexed": true,
          "internalType": "address",
          "name": "owner",
          "type": "address"
        },
        {
          "indexed": true,
          "internalType": "address",
          "name": "spender",
          "type": "address"
        },
        {
          "indexed": false,
          "internalType": "uint256",
          "name": "value",
          "type": "uint256"
        }
      ],
      "name": "Approval",
      "type": "event"
    },
    {
      "anonymous": false,
      "inputs": [
        {
          "indexed": true,
          "internalType": "address",
          "name": "from",
          "type": "address"
        },
        {
          "indexed": true,
          "internalType": "address",
          "name": "to",
          "type": "address"
        },
        {
          "indexed": false,
          "internalType": "uint256",
          "name": "value",
          "type": "uint256"
        }
      ],
      "name": "Transfer",
      "type": "event"
    },
    {
      "inputs": [
        {
          "internalType": "address",
          "name": "owner",
          "type": "address"
        },
        {
          "internalType": "address",
          "name": "spender",
          "type": "address"
        }
      ],
      "name": "allowance",
      "outputs": [
        {
          "internalType": "uint256",
          "name": "",
          "type": "uint256"
        }
      ],
      "stateMutability": "view",
      "type": "function"
    },
    {
      "inputs": [
        {
          "internalType": "address",
          "name": "spender",
          "type": "address"
        },
        {
          "internalType": "uint256",
          "name": "value",
          "type": "uint256"
        }
      ],
      "name": "approve",
      "outputs": [
        {
          "internalType": "bool",
          "name": "",
          "type": "bool"
        }
      ],
      "stateMutability": "nonpayable",
      "type": "function"
    },
    {
      "inputs": [
        {
          "internalType": "address",
          "name": "account",
          "type": "address"
        }
      ],
      "name": "balanceOf",
      "outputs": [
        {
          "internalType": "uint256",
          "name": "",
          "type": "uint256"
        }
      ],
      "stateMutability": "view",
      "type": "function"
    },
    {
      "inputs": [],
      "name": "createdAt",
      "outputs": [
        {
          "internalType": "uint256",
          "name": "",
          "type": "uint256"
        }
      ],
      "stateMutability": "view",
      "type": "function"
    },
    {
      "inputs": [],
      "name": "creator",
      "outputs": [
        {
          "internalType": "address",
          "name": "",
          "type": "address"
        }
      ],
      "stateMutability": "view",
      "type": "function"
    },
    {
      "inputs": [],
      "name": "decimals",
      "outputs": [
        {
          "internalType": "uint8",
          "name": "",
          "type": "uint8"
        }
      ],
      "stateMutability": "view",
      "type": "function"
    },
    {
      "inputs": [],
      "name": "imageUrl",
      "outputs": [
        {
          "internalType": "string",
          "name": "",
          "type": "string"
        }
      ],
      "stateMutability": "view",
      "type": "function"
    },
    {
      "inputs": [
        {
          "internalType": "string",
          "name": "_name",
          "type": "string"
        },
        {
          "internalType": "string",
          "name": "_symbol",
          "type": "string"
        },
        {
          "internalType": "uint256",
          "name": "_totalSupply",
          "type": "uint256"
        },
        {
          "internalType": "string",
          "name": "_imageUrl",
          "type": "string"
        },
        {
          "internalType": "address",
          "name": "_creator",
          "type": "address"
        },
        {
          "internalType": "address",
          "name": "_initialHolder",
          "type": "address"
        }
      ],
      "name": "initialize",
      "outputs": [],
      "stateMutability": "nonpayable",
      "type": "function"
    },
    {
      "inputs": [],
      "name": "name",
      "outputs": [
        {
          "internalType": "string",
          "name": "",
          "type": "string"
        }
      ],
      "stateMutability": "view",
      "type": "function"
    },
    {
      "inputs": [],
      "name": "symbol",
      "outputs": [
        {
          "internalType": "string",
          "name": "",
          "type": "string"
        }
      ],
      "stateMutability": "view",
      "type": "function"
    },
    {
      "inputs": [],
      "name": "totalSupply",
      "outputs": [
        {
          "internalType": "uint256",
          "name": "",
          "type": "uint256"
        }
      ],
      "stateMutability": "view",
      "type": "function"
    },
    {
      "inputs": [
        {
          "internalType": "address",
          "name": "to",
          "type": "address"
        },
        {
          "internalType": "uint256",
          "name": "value",
          "type": "uint256"
        }
      ],
      "name": "transfer",
      "outputs": [
        {
          "internalType": "bool",
          "name": "",
          "type": "bool"
        }
      ],
      "stateMutability": "nonpayable",
      "type": "function"
    },
    {
      "inputs": [
        {
          "internalType": "address",
          "name": "from",
          "type": "address"
        },
        {
          "internalType": "address",
          "name": "to",
          "type": "address"
        },
        {
          "internalType": "uint256",
          "name": "value",
          "type": "uint256"
        }
      ],
      "name": "transferFrom",
      "outputs": [
        {
          "internalType": "bool",
          "name": "",
          "type": "bool"
        }
      ],
      "stateMutability": "nonpayable",
      "type": "function"
    }
  ],
  "bytecode": "0x608060405234620002de5762000014620002e3565b6200001e620002e3565b8151906001600160401b0390818311620001de576003908154906001948583811c9316968715620002d3575b60209788851014620002bd578190601f9485811162000267575b5088908583116001146200020057600092620001f4575b505060001982861b1c191690861b1783555b8051938411620001de5760049586548681811c91168015620001d3575b82821014620001be5783811162000173575b5080928511600114620001055750938394918492600095620000f9575b50501b92600019911b1c19161790555b604051610ae09081620003088239f35b015193503880620000d9565b92919084601f1981168860005285600020956000905b898383106200015857505050106200013d575b50505050811b019055620000e9565b01519060f884600019921b161c19169055388080806200012e565b8587015189559097019694850194889350908101906200011b565b87600052816000208480880160051c820192848910620001b4575b0160051c019087905b828110620001a7575050620000bc565b6000815501879062000197565b925081926200018e565b602288634e487b7160e01b6000525260246000fd5b90607f1690620000aa565b634e487b7160e01b600052604160045260246000fd5b0151905038806200007b565b90889350601f19831691876000528a6000209260005b8c82821062000250575050841162000237575b505050811b0183556200008d565b015160001983881b60f8161c1916905538808062000229565b8385015186558c9790950194938401930162000216565b90915085600052886000208580850160051c8201928b8610620002b3575b918a91869594930160051c01915b828110620002a357505062000064565b600081558594508a910162000293565b9250819262000285565b634e487b7160e01b600052602260045260246000fd5b92607f16926200004a565b600080fd5b60405190602082016001600160401b03811183821017620001de576040526000825256fe608060408181526004918236101561001657600080fd5b600092833560e01c91826302d05d3f146108645750816306fdde03146107ba578163095ea7b31461071057816309a7ea7b1461043d57816318160ddd1461041e57816323b872dd1461032757508063313ce5671461030c57806370a08231146102d657806395d89b411461022d578063a9059cbb146101fd578063aba831501461011d578063cf09e0d0146100ff5763dd62ed3e146100b457600080fd5b346100fb57806003193601126100fb57806020926100d06108d2565b6100d86108ed565b6001600160a01b0391821683526001865283832091168252845220549051908152f35b5080fd5b50346100fb57816003193601126100fb576020906007549051908152f35b50346100fb57816003193601126100fb578051908260055461013e81610992565b808552916001918083169081156101d55750600114610178575b50505061016a82610174940383610903565b5191829182610889565b0390f35b9450600585527f036b6384b5eca791c62761152d0c79bb0604c104a5fb6f4eb0703f3154bb3db05b8286106101bd5750505061016a8260206101749582010194610158565b805460208787018101919091529095019481016101a0565b61017497508693506020925061016a94915060ff191682840152151560051b82010194610158565b50346100fb57806003193601126100fb5760209061022661021c6108d2565b60243590336109cc565b5160018152f35b50346100fb57816003193601126100fb5780519082600a5461024e81610992565b808552916001918083169081156101d557506001146102795750505061016a82610174940383610903565b9450600a85527fc65a7bb8d6351c1cf70c95a316cc6a92839c986682d98bc35f958f4883f9d2a85b8286106102be5750505061016a8260206101749582010194610158565b805460208787018101919091529095019481016102a1565b50346100fb5760203660031901126100fb5760209181906001600160a01b036102fd6108d2565b16815280845220549051908152f35b50346100fb57816003193601126100fb576020905160128152f35b9050823461041b57606036600319011261041b576103436108d2565b61034b6108ed565b916044359360018060a01b038316808352600160205286832033845260205286832054916000198310610387575b6020886102268989896109cc565b8683106103ef5781156103d85733156103c15750825260016020908152868320338452815291869020908590039055829061022687610379565b8751634a1406b160e11b8152908101849052602490fd5b875163e602df0560e01b8152908101849052602490fd5b8751637dc7a0d960e11b8152339181019182526020820193909352604081018790528291506060010390fd5b80fd5b5050346100fb57816003193601126100fb576020906002549051908152f35b90503461070c5760c036600319011261070c5767ffffffffffffffff91813583811161070857610470903690840161093b565b5060243583811161070857610488903690840161093b565b5060443591606435848111610704576104a4903690830161093b565b6001600160a01b03946084358681169291908390036107005760a435968716809703610700576008549060ff82166106c7576001809260ff19161760085582519081116106b4576005926104f88454610992565b601f8111610651575b50602090601f83116001146105d4579282939183928c946105c9575b50501b916000199060031b1c19161790555b6bffffffffffffffffffffffff60a01b60065416176006554260075583156105b457600254908382018092116105a1575084927fddf252ad1be2c89b69c2b068fc378daa952ba7f163c4a11628f55a4df523b3ef9260209260025585855284835280852082815401905551908152a380f35b634e487b7160e01b865260119052602485fd5b84602492519163ec442f0560e01b8352820152fd5b01519250388061051d565b848b527f036b6384b5eca791c62761152d0c79bb0604c104a5fb6f4eb0703f3154bb3db0919083601f1981168d5b878282106106385750501061061f575b505050811b01905561052f565b015160001960f88460031b161c19169055388080610612565b8486015187559095019460209485019487935001610602565b848b527f036b6384b5eca791c62761152d0c79bb0604c104a5fb6f4eb0703f3154bb3db0601f8401861c810191602085106106aa575b601f01861c019084905b82811061069f575050610501565b8c8155018490610691565b9091508190610687565b634e487b7160e01b895260418552602489fd5b855162461bcd60e51b81526020818701526013602482015272105b1c9958591e481a5b9a5d1a585b1a5e9959606a1b6044820152606490fd5b8780fd5b8580fd5b8480fd5b8280fd5b90503461070c578160031936011261070c5761072a6108d2565b6024359033156107a3576001600160a01b031691821561078c57508083602095338152600187528181208582528752205582519081527f8c5be1e5ebec7d5bd14f71427d1e84f3dd0314c0f7b2291e5b200ac8c7c3b925843392a35160018152f35b8351634a1406b160e11b8152908101859052602490fd5b835163e602df0560e01b8152808401869052602490fd5b5050346100fb57816003193601126100fb57805190826009546107dc81610992565b808552916001918083169081156101d557506001146108075750505061016a82610174940383610903565b9450600985527f6e1540171b6c0c960b71a7020d9f60077f6af931a8bbf590da0223dacf75c7af5b82861061084c5750505061016a8260206101749582010194610158565b8054602087870181019190915290950194810161082f565b8490346100fb57816003193601126100fb576006546001600160a01b03168152602090f35b6020808252825181830181905290939260005b8281106108be57505060409293506000838284010152601f8019910116010190565b81810186015184820160400152850161089c565b600435906001600160a01b03821682036108e857565b600080fd5b602435906001600160a01b03821682036108e857565b90601f8019910116810190811067ffffffffffffffff82111761092557604052565b634e487b7160e01b600052604160045260246000fd5b81601f820112156108e85780359067ffffffffffffffff82116109255760405192610970601f8401601f191660200185610903565b828452602083830101116108e857816000926020809301838601378301015290565b90600182811c921680156109c2575b60208310146109ac57565b634e487b7160e01b600052602260045260246000fd5b91607f16916109a1565b916001600160a01b03808416928315610a915716928315610a785760009083825281602052604082205490838210610a46575091604082827fddf252ad1be2c89b69c2b068fc378daa952ba7f163c4a11628f55a4df523b3ef958760209652828652038282205586815220818154019055604051908152a3565b60405163391434e360e21b81526001600160a01b03919091166004820152602481019190915260448101839052606490fd5b60405163ec442f0560e01b815260006004820152602490fd5b604051634b637e8f60e11b815260006004820152602490fdfea2646970667358221220fd51d8f949d30128c22b355574a1b01153aa83a51d4f627fd9fe2c7484eeb8f364736f6c63430008140033",
  "linkReferences": {},
  "deployedLinkReferences": {}
}