{
  "_format": "hh-sol-artifact-1",
  "contractName": "OptimizedTokenFactory",
  "sourceName": "contracts/OptimizedTokenFactory.sol",
  "abi": [
    {
      "inputs": [],
      "stateMutability": "nonpayable",
      "type": "constructor"
    },
    {
      "inputs": [],
      "name": "FailedDeployment",
      "type": "error"
    },
    {
      "inputs": [
        {
          "internalType": "uint256",
          "name": "balance",
          "type": "uint256"
        },
        {
          "internalType": "uint256",
          "name": "needed",
          "type": "uint256"
        }
      ],
      "name": "InsufficientBalance",
      "type": "error"
    },
    {
      "inputs": [
        {
          "internalType": "address",
          "name": "owner",
          "type": "address"
        }
      ],
      "name": "OwnableInvalidOwner",
      "type": "error"
    },
    {
      "inputs": [
        {
          "internalType": "address",
          "name": "account",
          "type": "address"
        }
      ],
      "name": "OwnableUnauthorizedAccount",
      "type": "error"
    },
    {
      "inputs": [],
      "name": "ReentrancyGuardReentrantCall",
      "type": "error"
    },
    {
      "anonymous": false,
      "inputs": [
        {
          "indexed": true,
          "internalType": "address",
          "name": "previousOwner",
          "type": "address"
        },
        {
          "indexed": true,
          "internalType": "address",
          "name": "newOwner",
          "type": "address"
        }
      ],
      "name": "OwnershipTransferred",
      "type": "event"
    },
    {
      "anonymous": false,
      "inputs": [
        {
          "indexed": true,
          "internalType": "address",
          "name": "token",
          "type": "address"
        },
        {
          "indexed": true,
          "internalType": "address",
          "name": "creator",
          "type": "address"
        },
        {
          "indexed": false,
          "internalType": "string",
          "name": "name",
          "type": "string"
        },
        {
          "indexed": false,
          "internalType": "string",
          "name": "symbol",
          "type": "string"
        }
      ],
      "name": "TokenCreated",
      "type": "event"
    },
    {
      "anonymous": false,
      "inputs": [
        {
          "indexed": true,
          "internalType": "address",
          "name": "token",
          "type": "address"
        },
        {
          "indexed": false,
          "internalType": "uint256",
          "name": "ethLiquidity",
          "type": "uint256"
        },
        {
          "indexed": false,
          "internalType": "uint256",
          "name": "tokenLiquidity",
          "type": "uint256"
        }
      ],
      "name": "TokenGraduated",
      "type": "event"
    },
    {
      "anonymous": false,
      "inputs": [
        {
          "indexed": true,
          "internalType": "address",
          "name": "token",
          "type": "address"
        },
        {
          "indexed": true,
          "internalType": "address",
          "name": "trader",
          "type": "address"
        },
        {
          "indexed": false,
          "internalType": "bool",
          "name": "isBuy",
          "type": "bool"
        },
        {
          "indexed": false,
          "internalType": "uint256",
          "name": "ethAmount",
          "type": "uint256"
        },
        {
          "indexed": false,
          "internalType": "uint256",
          "name": "tokenAmount",
          "type": "uint256"
        }
      ],
      "name": "TokenTraded",
      "type": "event"
    },
    {
      "inputs": [],
      "name": "BONDING_SUPPLY",
      "outputs": [
        {
          "internalType": "uint256",
          "name": "",
          "type": "uint256"
        }
      ],
      "stateMutability": "view",
      "type": "function"
    },
    {
      "inputs": [],
      "name": "BPS_DENOMINATOR",
      "outputs": [
        {
          "internalType": "uint256",
          "name": "",
          "type": "uint256"
        }
      ],
      "stateMutability": "view",
      "type": "function"
    },
    {
      "inputs": [],
      "name": "CREATION_FEE",
      "outputs": [
        {
          "internalType": "uint256",
          "name": "",
          "type": "uint256"
        }
      ],
      "stateMutability": "view",
      "type": "function"
    },
    {
      "inputs": [],
      "name": "CREATOR_FEE_BPS",
      "outputs": [
        {
          "internalType": "uint256",
          "name": "",
          "type": "uint256"
        }
      ],
      "stateMutability": "view",
      "type": "function"
    },
    {
      "inputs": [],
      "name": "DEX_RESERVE",
      "outputs": [
        {
          "internalType": "uint256",
          "name": "",
          "type": "uint256"
        }
      ],
      "stateMutability": "view",
      "type": "function"
    },
    {
      "inputs": [],
      "name": "GRADUATION_THRESHOLD",
      "outputs": [
        {
          "internalType": "uint256",
          "name": "",
          "type": "uint256"
        }
      ],
      "stateMutability": "view",
      "type": "function"
    },
    {
      "inputs": [],
      "name": "INITIAL_VIRTUAL_ETH",
      "outputs": [
        {
          "internalType": "uint256",
          "name": "",
          "type": "uint256"
        }
      ],
      "stateMutability": "view",
      "type": "function"
    },
    {
      "inputs": [],
      "name": "INITIAL_VIRTUAL_TOKENS",
      "outputs": [
        {
          "internalType": "uint256",
          "name": "",
          "type": "uint256"
        }
      ],
      "stateMutability": "view",
      "type": "function"
    },
    {
      "inputs": [],
      "name": "PLATFORM_FEE_BPS",
      "outputs": [
        {
          "internalType": "uint256",
          "name": "",
          "type": "uint256"
        }
      ],
      "stateMutability": "view",
      "type": "function"
    },
    {
      "inputs": [],
      "name": "TOTAL_SUPPLY",
      "outputs": [
        {
          "internalType": "uint256",
          "name": "",
          "type": "uint256"
        }
      ],
      "stateMutability": "view",
      "type": "function"
    },
    {
      "inputs": [
        {
          "internalType": "uint256",
          "name": "",
          "type": "uint256"
        }
      ],
      "name": "allTokens",
      "outputs": [
        {
          "internalType": "address",
          "name": "",
          "type": "address"
        }
      ],
      "stateMutability": "view",
      "type": "function"
    },
    {
      "inputs": [
        {
          "internalType": "address",
          "name": "_token",
          "type": "address"
        }
      ],
      "name": "buyTokens",
      "outputs": [],
      "stateMutability": "payable",
      "type": "function"
    },
    {
      "inputs": [
        {
          "internalType": "address",
          "name": "_token",
          "type": "address"
        }
      ],
      "name": "claimCreatorFees",
      "outputs": [],
      "stateMutability": "nonpayable",
      "type": "function"
    },
    {
      "inputs": [
        {
          "internalType": "string",
          "name": "_name",
          "type": "string"
        },
        {
          "internalType": "string",
          "name": "_symbol",
          "type": "string"
        },
        {
          "internalType": "string",
          "name": "_imageUrl",
          "type": "string"
        }
      ],
      "name": "createToken",
      "outputs": [
        {
          "internalType": "address",
          "name": "",
          "type": "address"
        }
      ],
      "stateMutability": "payable",
      "type": "function"
    },
    {
      "inputs": [],
      "name": "owner",
      "outputs": [
        {
          "internalType": "address",
          "name": "",
          "type": "address"
        }
      ],
      "stateMutability": "view",
      "type": "function"
    },
    {
      "inputs": [],
      "name": "renounceOwnership",
      "outputs": [],
      "stateMutability": "nonpayable",
      "type": "function"
    },
    {
      "inputs": [
        {
          "internalType": "address",
          "name": "_token",
          "type": "address"
        },
        {
          "internalType": "uint256",
          "name": "_amount",
          "type": "uint256"
        }
      ],
      "name": "sellTokens",
      "outputs": [],
      "stateMutability": "nonpayable",
      "type": "function"
    },
    {
      "inputs": [],
      "name": "tokenImplementation",
      "outputs": [
        {
          "internalType": "address",
          "name": "",
          "type": "address"
        }
      ],
      "stateMutability": "view",
      "type": "function"
    },
    {
      "inputs": [
        {
          "internalType": "address",
          "name": "",
          "type": "address"
        }
      ],
      "name": "tokenInfo",
      "outputs": [
        {
          "internalType": "address",
          "name": "tokenAddress",
          "type": "address"
        },
        {
          "internalType": "address",
          "name": "creator",
          "type": "address"
        },
        {
          "internalType": "uint256",
          "name": "virtualEthReserve",
          "type": "uint256"
        },
        {
          "internalType": "uint256",
          "name": "virtualTokenReserve",
          "type": "uint256"
        },
        {
          "internalType": "uint256",
          "name": "realEthReserve",
          "type": "uint256"
        },
        {
          "internalType": "uint256",
          "name": "realTokenReserve",
          "type": "uint256"
        },
        {
          "internalType": "uint256",
          "name": "creatorFees",
          "type": "uint256"
        },
        {
          "internalType": "bool",
          "name": "graduated",
          "type": "bool"
        },
        {
          "internalType": "uint256",
          "name": "createdAt",
          "type": "uint256"
        }
      ],
      "stateMutability": "view",
      "type": "function"
    },
    {
      "inputs": [],
      "name": "totalPlatformFees",
      "outputs": [
        {
          "internalType": "uint256",
          "name": "",
          "type": "uint256"
        }
      ],
      "stateMutability": "view",
      "type": "function"
    },
    {
      "inputs": [
        {
          "internalType": "address",
          "name": "newOwner",
          "type": "address"
        }
      ],
      "name": "transferOwnership",
      "outputs": [],
      "stateMutability": "nonpayable",
      "type": "function"
    },
    {
      "inputs": [],
      "name": "withdrawPlatformFees",
      "outputs": [],
      "stateMutability": "nonpayable",
      "type": "function"
    }
  ],
  "bytecode": "0x60a080604052346100e45733156100ce5760008054336001600160a01b03198216811783556040516001600160a01b03939290919084167f8be0079c531659141344cd1fd0a4f28419497f9722a3daafe3b4186f6b6457e08480a360018055610de8818101906001600160401b038211838310176100ba579082916112b98339039082f09081156100ae5750166080526040516111cf90816100ea82396080518181816108e40152610e960152f35b604051903d90823e3d90fd5b634e487b7160e01b84526041600452602484fd5b631e4fbdf760e01b815260006004820152602490fd5b600080fdfe608060408181526004918236101561001657600080fd5b600092833560e01c9182632f3a3d5d14610e825750816345b18f2514610e5f57816349a2104d14610e3d57816351bd058814610e18578163539aa77f14610620578163634282af14610dd7578163715018a614610d7a57816375535f3214610d545781638d427e2514610d2d5781638da5cb5b14610d05578163902d55a514610cde57816394aed7d014610845578163c464fe6514610625578163cc3cbd2a1461062057838263d0b7830b146105d657508163d3631fa5146105b8578163d6ae6e4414610515578163e1a45218146104f8578163ec8ac4d81461026f578163f2fde38b146101da578163f5dab7111461013e575063fcfc0c091461011957600080fd5b3461013a578160031936011261013a5760209051678ac7230489e800008152f35b5080fd5b8391503461013a57602036600319011261013a57610120926001600160a01b039281908461016a610fc2565b1681526002602052209083825416936001830154169260028301549060038401549084015490600585015492600686015494600860ff600789015416970154978151998a5260208a01528801526060870152608086015260a085015260c0840152151560e0830152610100820152f35b90503461026b57602036600319011261026b576101f5610fc2565b906101fe610fd8565b6001600160a01b03918216928315610255575050600054826bffffffffffffffffffffffff60a01b821617600055167f8be0079c531659141344cd1fd0a4f28419497f9722a3daafe3b4186f6b6457e0600080a380f35b51631e4fbdf760e01b8152908101849052602490fd5b8280fd5b836020843660031901821361026b57610286610fc2565b9061028f611074565b6001600160a01b03918216808552600284528185208054919390916102b691161515611097565b6102c760ff600783015416156110d3565b34156104c757606434023481046064036104b457600692916103996127108993046102fb816102f68134611067565b611067565b958361036061038260028a97015461034f61037b610366866102f68d82019c8d54988761035a61032c8c809b611044565b936103556005600389015498019d8e549b8c97610349898c611044565b90611111565b94611044565b611044565b90611124565b92611044565b9c8d93841515806104aa575b61035590611144565b8955611067565b905501610390828254611044565b90558354611044565b8255825163a9059cbb60e01b815233818401526024810185905286816044818b8a5af180156104a0578693928592678ac7230489e8000092610473575b5054101561041d575b91505051936001855234908501528301527f7de7ccb0d6b12f41c11600a18be80c156137bfb216a4cb7cc95d7aeb261233d460603393a36001805580f35b7f1669614928af055cd5932e43424383a863eb888f3e3a9f80f443162171c568b691838952600288526005828a209160078301600160ff19825416179055820154910154825191825288820152a28286826103df565b610492908a3d8c11610499575b61048a8183610f33565b810190611181565b508a6103d6565b503d610480565b84513d8a823e3d90fd5b5083851115610372565b634e487b7160e01b865260118752602486fd5b815162461bcd60e51b8152808701859052600b60248201526a139bc8115512081cd95b9d60aa1b6044820152606490fd5b50503461013a578160031936011261013a57602090516127108152f35b90503461026b57602036600319011261026b576001600160a01b03908161053a610fc2565b168452600260205282842091600183015416330361058757508280806006819401818154915581811561057e575b3390f115610574575080f35b51903d90823e3d90fd5b506108fc610568565b606490602084519162461bcd60e51b8352820152600b60248201526a2737ba1031b932b0ba37b960a91b6044820152fd5b90503461026b578260031936011261026b5760209250549051908152f35b91503461013a578160031936011261013a57818080926105f4610fd8565b80549082905581546001600160a01b0316828215610617575bf115610574575080f35b506108fc61060d565b610ec5565b9190503461026b578060031936011261026b57610640610fc2565b906024359061064d611074565b60018060a01b038093169283865260209460028652610673838820928354161515611097565b61068460ff600784015416156110d3565b83156108115782516323b872dd60e01b815233828201523060248201526044810185905286816064818b8a5af180156104a0576107f4575b506002820154908083019283549261034f6107036106da8684611044565b926102f6876103608c61035a60038a01549161035560058c019a8b549a8b916103498388611044565b9586158015806107ea575b61071790611144565b606488029088820460641417156107d7578760068e989496899894966107628e8b9a8b9a61075b6127106107799a04986107558a6102f68184611067565b9c611067565b9055611044565b905501610770828254611044565b90558254611044565b90558181156107ce575b3390f1156107c4578151948686528501528301527f7de7ccb0d6b12f41c11600a18be80c156137bfb216a4cb7cc95d7aeb261233d460603393a36001805580f35b81513d87823e3d90fd5b506108fc610783565b634e487b7160e01b8d526011865260248dfd5b508688111561070e565b61080a90873d89116104995761048a8183610f33565b50386106bc565b825162461bcd60e51b8152908101869052600e60248201526d125b9d985b1a5908185b5bdd5b9d60921b6044820152606490fd5b600319929150606036840112610cda5767ffffffffffffffff8135818111610cd6576108749036908401610f6b565b906024918235828111610cd25761088e9036908601610f6b565b90604435838111610cce576108a69036908701610f6b565b6108ae611074565b66038d7ea4c6800093843410610c9e5782518015159081610c92575b5015610c615783518015159081610c55575b5015610c22577f0000000000000000000000000000000000000000000000000000000000000000608881901c62ffffff16763d602d80600a3d3981f3363d3d373d3d3d363d73000000178b5260781b6e5af43d82803e903d91602b57fd5bf3176020526001600160a01b039182603760098df016998a15610c12578b908b3b1561013a578b60c0838c6109c58f95610995988f6109a4908f8f9a519c8d9b8c9a8b996309a7ea7b60e01b8b528a015260c4890190611004565b91858884030190880152611004565b916b033b2e3c9fd0803ce80000006044860152848303016064850152611004565b3360848301523060a483015203925af18015610c0857610be3575b50875190610120820190811182821017610bcf5788528881526008898b8a6020850133815281860167016345785d8a000081526060870169152d02c7e14af68000008152608088019185835260a08901936b0295be96e64066972000000085528a60c08b019688885260e08c0198808a526101008d019a428c5281526002602052209a51166bffffffffffffffffffffffff60a01b90818c5416178b558b60018c0192511690825416179055516002890155516003880155518c870155516005860155516006850155600784019051151560ff801983541691161790555191015560035468010000000000000000811015610bbd5788927fd5d05a8421149c74fd223cfc823befb883babf9bf0b0e4d6bf9c8fdb70e59bb492610b0c836001610b409501600355610ee6565b819291549060031b9187831b921b1916179055610b2a348954611044565b8855610b4f89519283928b84528b840190611004565b82810360208401523396611004565b0390a33411610b67575b602084846001805551908152f35b66038d7ea4c67fff19340191348311610bac5750508380808093818115610ba3575b3390f115610b98578280610b59565b51913d9150823e3d90fd5b506108fc610b89565b634e487b7160e01b86526011905284fd5b634e487b7160e01b8a5260418752858afd5b86604189634e487b7160e01b600052526000fd5b81819b929b11610bf657885298386109e0565b634e487b7160e01b8252604188528682fd5b89513d8d823e3d90fd5b895163b06ebf3d60e01b81528990fd5b875162461bcd60e51b8152602081890152600e818801526d125b9d985b1a59081cde5b589bdb60921b6044820152606490fd5b600891501115386108dc565b875162461bcd60e51b8152602081890152600c818801526b496e76616c6964206e616d6560a01b6044820152606490fd5b602091501115386108ca565b875162461bcd60e51b8152602081890152600b818801526a46656520746f6f206c6f7760a81b6044820152606490fd5b8880fd5b8780fd5b8580fd5b8380fd5b50503461013a578160031936011261013a57602090516b033b2e3c9fd0803ce80000008152f35b50503461013a578160031936011261013a57905490516001600160a01b039091168152602090f35b50503461013a578160031936011261013a57602090516b0295be96e6406697200000008152f35b50503461013a578160031936011261013a57602090516aa56fa5b99019a5c80000008152f35b8334610dd45780600319360112610dd457610d93610fd8565b80546001600160a01b03198116825581906001600160a01b03167f8be0079c531659141344cd1fd0a4f28419497f9722a3daafe3b4186f6b6457e08280a380f35b80fd5b90503461026b57602036600319011261026b573591600354831015610dd45750610e02602092610ee6565b60018060a01b0391549060031b1c169051908152f35b50503461013a578160031936011261013a576020905169152d02c7e14af68000008152f35b50503461013a578160031936011261013a576020905166038d7ea4c680008152f35b50503461013a578160031936011261013a576020905167016345785d8a00008152f35b84903461013a578160031936011261013a577f00000000000000000000000000000000000000000000000000000000000000006001600160a01b03168152602090f35b34610ee1576000366003190112610ee157602060405160648152f35b600080fd5b600354811015610f1d5760036000527fc2575a0e9e593c00f959f8c92f12db2869c3395a3b0502d05e2516446f71f85b0190600090565b634e487b7160e01b600052603260045260246000fd5b90601f8019910116810190811067ffffffffffffffff821117610f5557604052565b634e487b7160e01b600052604160045260246000fd5b81601f82011215610ee15780359067ffffffffffffffff8211610f555760405192610fa0601f8401601f191660200185610f33565b82845260208383010111610ee157816000926020809301838601378301015290565b600435906001600160a01b0382168203610ee157565b6000546001600160a01b03163303610fec57565b60405163118cdaa760e01b8152336004820152602490fd5b919082519283825260005b848110611030575050826000602080949584010152601f8019910116010190565b60208183018101518483018201520161100f565b9190820180921161105157565b634e487b7160e01b600052601160045260246000fd5b9190820391821161105157565b600260015414611085576002600155565b604051633ee5aeb560e01b8152600490fd5b1561109e57565b60405162461bcd60e51b815260206004820152600d60248201526c24b73b30b634b2103a37b5b2b760991b6044820152606490fd5b156110da57565b60405162461bcd60e51b815260206004820152600f60248201526e151bdad95b8819dc98591d585d1959608a1b6044820152606490fd5b8181029291811591840414171561105157565b811561112e570490565b634e487b7160e01b600052601260045260246000fd5b1561114b57565b60405162461bcd60e51b815260206004820152600e60248201526d125b9d985b1a59081bdd5d1c1d5d60921b6044820152606490fd5b90816020910312610ee157518015158103610ee1579056fea2646970667358221220601372db548aee78d6b4fe1b6bf12c34ed7763e5c264b94722bfcf5bbf2b21b364736f6c63430008140033608060405234620002de5762000014620002e3565b6200001e620002e3565b8151906001600160401b0390818311620001de576003908154906001948583811c9316968715620002d3575b60209788851014620002bd578190601f9485811162000267575b5088908583116001146200020057600092620001f4575b505060001982861b1c191690861b1783555b8051938411620001de5760049586548681811c91168015620001d3575b82821014620001be5783811162000173575b5080928511600114620001055750938394918492600095620000f9575b50501b92600019911b1c19161790555b604051610ae09081620003088239f35b015193503880620000d9565b92919084601f1981168860005285600020956000905b898383106200015857505050106200013d575b50505050811b019055620000e9565b01519060f884600019921b161c19169055388080806200012e565b8587015189559097019694850194889350908101906200011b565b87600052816000208480880160051c820192848910620001b4575b0160051c019087905b828110620001a7575050620000bc565b6000815501879062000197565b925081926200018e565b602288634e487b7160e01b6000525260246000fd5b90607f1690620000aa565b634e487b7160e01b600052604160045260246000fd5b0151905038806200007b565b90889350601f19831691876000528a6000209260005b8c82821062000250575050841162000237575b505050811b0183556200008d565b015160001983881b60f8161c1916905538808062000229565b8385015186558c9790950194938401930162000216565b90915085600052886000208580850160051c8201928b8610620002b3575b918a91869594930160051c01915b828110620002a357505062000064565b600081558594508a910162000293565b9250819262000285565b634e487b7160e01b600052602260045260246000fd5b92607f16926200004a565b600080fd5b60405190602082016001600160401b03811183821017620001de576040526000825256fe608060408181526004918236101561001657600080fd5b600092833560e01c91826302d05d3f146108645750816306fdde03146107ba578163095ea7b31461071057816309a7ea7b1461043d57816318160ddd1461041e57816323b872dd1461032757508063313ce5671461030c57806370a08231146102d657806395d89b411461022d578063a9059cbb146101fd578063aba831501461011d578063cf09e0d0146100ff5763dd62ed3e146100b457600080fd5b346100fb57806003193601126100fb57806020926100d06108d2565b6100d86108ed565b6001600160a01b0391821683526001865283832091168252845220549051908152f35b5080fd5b50346100fb57816003193601126100fb576020906007549051908152f35b50346100fb57816003193601126100fb578051908260055461013e81610992565b808552916001918083169081156101d55750600114610178575b50505061016a82610174940383610903565b5191829182610889565b0390f35b9450600585527f036b6384b5eca791c62761152d0c79bb0604c104a5fb6f4eb0703f3154bb3db05b8286106101bd5750505061016a8260206101749582010194610158565b805460208787018101919091529095019481016101a0565b61017497508693506020925061016a94915060ff191682840152151560051b82010194610158565b50346100fb57806003193601126100fb5760209061022661021c6108d2565b60243590336109cc565b5160018152f35b50346100fb57816003193601126100fb5780519082600a5461024e81610992565b808552916001918083169081156101d557506001146102795750505061016a82610174940383610903565b9450600a85527fc65a7bb8d6351c1cf70c95a316cc6a92839c986682d98bc35f958f4883f9d2a85b8286106102be5750505061016a8260206101749582010194610158565b805460208787018101919091529095019481016102a1565b50346100fb5760203660031901126100fb5760209181906001600160a01b036102fd6108d2565b16815280845220549051908152f35b50346100fb57816003193601126100fb576020905160128152f35b9050823461041b57606036600319011261041b576103436108d2565b61034b6108ed565b916044359360018060a01b038316808352600160205286832033845260205286832054916000198310610387575b6020886102268989896109cc565b8683106103ef5781156103d85733156103c15750825260016020908152868320338452815291869020908590039055829061022687610379565b8751634a1406b160e11b8152908101849052602490fd5b875163e602df0560e01b8152908101849052602490fd5b8751637dc7a0d960e11b8152339181019182526020820193909352604081018790528291506060010390fd5b80fd5b5050346100fb57816003193601126100fb576020906002549051908152f35b90503461070c5760c036600319011261070c5767ffffffffffffffff91813583811161070857610470903690840161093b565b5060243583811161070857610488903690840161093b565b5060443591606435848111610704576104a4903690830161093b565b6001600160a01b03946084358681169291908390036107005760a435968716809703610700576008549060ff82166106c7576001809260ff19161760085582519081116106b4576005926104f88454610992565b601f8111610651575b50602090601f83116001146105d4579282939183928c946105c9575b50501b916000199060031b1c19161790555b6bffffffffffffffffffffffff60a01b60065416176006554260075583156105b457600254908382018092116105a1575084927fddf252ad1be2c89b69c2b068fc378daa952ba7f163c4a11628f55a4df523b3ef9260209260025585855284835280852082815401905551908152a380f35b634e487b7160e01b865260119052602485fd5b84602492519163ec442f0560e01b8352820152fd5b01519250388061051d565b848b527f036b6384b5eca791c62761152d0c79bb0604c104a5fb6f4eb0703f3154bb3db0919083601f1981168d5b878282106106385750501061061f575b505050811b01905561052f565b015160001960f88460031b161c19169055388080610612565b8486015187559095019460209485019487935001610602565b848b527f036b6384b5eca791c62761152d0c79bb0604c104a5fb6f4eb0703f3154bb3db0601f8401861c810191602085106106aa575b601f01861c019084905b82811061069f575050610501565b8c8155018490610691565b9091508190610687565b634e487b7160e01b895260418552602489fd5b855162461bcd60e51b81526020818701526013602482015272105b1c9958591e481a5b9a5d1a585b1a5e9959606a1b6044820152606490fd5b8780fd5b8580fd5b8480fd5b8280fd5b90503461070c578160031936011261070c5761072a6108d2565b6024359033156107a3576001600160a01b031691821561078c57508083602095338152600187528181208582528752205582519081527f8c5be1e5ebec7d5bd14f71427d1e84f3dd0314c0f7b2291e5b200ac8c7c3b925843392a35160018152f35b8351634a1406b160e11b8152908101859052602490fd5b835163e602df0560e01b8152808401869052602490fd5b5050346100fb57816003193601126100fb57805190826009546107dc81610992565b808552916001918083169081156101d557506001146108075750505061016a82610174940383610903565b9450600985527f6e1540171b6c0c960b71a7020d9f60077f6af931a8bbf590da0223dacf75c7af5b82861061084c5750505061016a8260206101749582010194610158565b8054602087870181019190915290950194810161082f565b8490346100fb57816003193601126100fb576006546001600160a01b03168152602090f35b6020808252825181830181905290939260005b8281106108be57505060409293506000838284010152601f8019910116010190565b81810186015184820160400152850161089c565b600435906001600160a01b03821682036108e857565b600080fd5b602435906001600160a01b03821682036108e857565b90601f8019910116810190811067ffffffffffffffff82111761092557604052565b634e487b7160e01b600052604160045260246000fd5b81601f820112156108e85780359067ffffffffffffffff82116109255760405192610970601f8401601f191660200185610903565b828452602083830101116108e857816000926020809301838601378301015290565b90600182811c921680156109c2575b60208310146109ac57565b634e487b7160e01b600052602260045260246000fd5b91607f16916109a1565b916001600160a01b03808416928315610a915716928315610a785760009083825281602052604082205490838210610a46575091604082827fddf252ad1be2c89b69c2b068fc378daa952ba7f163c4a11628f55a4df523b3ef958760209652828652038282205586815220818154019055604051908152a3565b60405163391434e360e21b81526001600160a01b03919091166004820152602481019190915260448101839052606490fd5b60405163ec442f0560e01b815260006004820152602490fd5b604051634b637e8f60e11b815260006004820152602490fdfea2646970667358221220fd51d8f949d30128c22b355574a1b01153aa83a51d4f627fd9fe2c7484eeb8f364736f6c63430008140033",
  "linkReferences": {},
  "deployedLinkReferences": {}
}