{"abi":[{"type":"constructor","inputs":[{"name":"_admins","type":"address[]","internalType":"address[]"},{"name":"_threshold","type":"uint256","internalType":"uint256"}],"stateMutability":"nonpayable"},{"type":"receive","stateMutability":"payable"},{"type":"function","name":"addAdmin","inputs":[{"name":"_admin","type":"address","internalType":"address"}],"outputs":[],"stateMutability":"nonpayable"},{"type":"function","name":"admins","inputs":[{"name":"","type":"uint256","internalType":"uint256"}],"outputs":[{"name":"","type":"address","internalType":"address"}],"stateMutability":"view"},{"type":"function","name":"approveTransaction","inputs":[{"name":"_txIndex","type":"uint256","internalType":"uint256"}],"outputs":[],"stateMutability":"nonpayable"},{"type":"function","name":"getAdmins","inputs":[],"outputs":[{"name":"","type":"address[]","internalType":"address[]"}],"stateMutability":"view"},{"type":"function","name":"getTransactionInfo","inputs":[{"name":"_txIndex","type":"uint256","internalType":"uint256"}],"outputs":[{"name":"target","type":"address","internalType":"address"},{"name":"value","type":"uint256","internalType":"uint256"},{"name":"data","type":"bytes","internalType":"bytes"},{"name":"executed","type":"bool","internalType":"bool"},{"name":"approvalCount","type":"uint256","internalType":"uint256"}],"stateMutability":"view"},{"type":"function","name":"isAdmin","inputs":[{"name":"","type":"address","internalType":"address"}],"outputs":[{"name":"","type":"bool","internalType":"bool"}],"stateMutability":"view"},{"type":"function","name":"isApproved","inputs":[{"name":"_txIndex","type":"uint256","internalType":"uint256"},{"name":"_admin","type":"address","internalType":"address"}],"outputs":[{"name":"","type":"bool","internalType":"bool"}],"stateMutability":"view"},{"type":"function","name":"removeAdmin","inputs":[{"name":"_admin","type":"address","internalType":"address"}],"outputs":[],"stateMutability":"nonpayable"},{"type":"function","name":"revokeApproval","inputs":[{"name":"_txIndex","type":"uint256","internalType":"uint256"}],"outputs":[],"stateMutability":"nonpayable"},{"type":"function","name":"submitTransaction","inputs":[{"name":"_target","type":"address","internalType":"address"},{"name":"_value","type":"uint256","internalType":"uint256"},{"name":"_data","type":"bytes","internalType":"bytes"}],"outputs":[{"name":"","type":"uint256","internalType":"uint256"}],"stateMutability":"nonpayable"},{"type":"function","name":"threshold","inputs":[],"outputs":[{"name":"","type":"uint256","internalType":"uint256"}],"stateMutability":"view"},{"type":"function","name":"transactionCount","inputs":[],"outputs":[{"name":"","type":"uint256","internalType":"uint256"}],"stateMutability":"view"},{"type":"function","name":"transactions","inputs":[{"name":"","type":"uint256","internalType":"uint256"}],"outputs":[{"name":"target","type":"address","internalType":"address"},{"name":"value","type":"uint256","internalType":"uint256"},{"name":"data","type":"bytes","internalType":"bytes"},{"name":"executed","type":"bool","internalType":"bool"},{"name":"approvalCount","type":"uint256","internalType":"uint256"}],"stateMutability":"view"},{"type":"function","name":"updateThreshold","inputs":[{"name":"_threshold","type":"uint256","internalType":"uint256"}],"outputs":[],"stateMutability":"nonpayable"},{"type":"event","name":"AdminAdded","inputs":[{"name":"admin","type":"address","indexed":true,"internalType":"address"}],"anonymous":false},{"type":"event","name":"AdminRemoved","inputs":[{"name":"admin","type":"address","indexed":true,"internalType":"address"}],"anonymous":false},{"type":"event","name":"ThresholdUpdated","inputs":[{"name":"oldThreshold","type":"uint256","indexed":false,"internalType":"uint256"},{"name":"newThreshold","type":"uint256","indexed":false,"internalType":"uint256"}],"anonymous":false},{"type":"event","name":"TransactionApproved","inputs":[{"name":"txIndex","type":"uint256","indexed":true,"internalType":"uint256"},{"name":"approver","type":"address","indexed":true,"internalType":"address"}],"anonymous":false},{"type":"event","name":"TransactionExecuted","inputs":[{"name":"txIndex","type":"uint256","indexed":true,"internalType":"uint256"},{"name":"executor","type":"address","indexed":true,"internalType":"address"}],"anonymous":false},{"type":"event","name":"TransactionRevoked","inputs":[{"name":"txIndex","type":"uint256","indexed":true,"internalType":"uint256"},{"name":"revoker","type":"address","indexed":true,"internalType":"address"}],"anonymous":false},{"type":"event","name":"TransactionSubmitted","inputs":[{"name":"txIndex","type":"uint256","indexed":true,"internalType":"uint256"},{"name":"submitter","type":"address","indexed":true,"internalType":"address"}],"anonymous":false}],"bytecode":{"object":"0x604060808152346200030a5762001454803803806200001e816200030e565b92833981019180828403126200030a5781516001600160401b0393908481116200030a5783019281601f850112156200030a578351948511620001915760059185831b6020958680620000738185016200030e565b809a815201928201019283116200030a5790868094939201905b828210620002de57505050015193848151106200029c57841562000240575f5b81518110156200022d5780831b82018501516001600160a01b03168015620001e957805f52600180875260ff865f205416620001a5575f828152818852868120805460ff19168317905554906801000000000000000082101562000191578101805f558110156200017d575f8080528781209190910180546001600160a01b031916831790557f44d6d25963f097ad14f29f06854a01f575648a1ef82f30e562ccd3889717e3399080a25f1981146200016957600101620000ad565b634e487b7160e01b5f52601160045260245ffd5b634e487b7160e01b5f52603260045260245ffd5b634e487b7160e01b5f52604160045260245ffd5b855162461bcd60e51b815260048101889052601e60248201527f4d756c746953696741646d696e3a206475706c69636174652061646d696e00006044820152606490fd5b845162461bcd60e51b815260048101879052601c60248201527f4d756c746953696741646d696e3a20696e76616c69642061646d696e000000006044820152606490fd5b83866002555161111f9081620003358239f35b825162461bcd60e51b815260048101859052602f60248201527f4d756c746953696741646d696e3a207468726573686f6c64206d75737420626560448201526e02067726561746572207468616e203608c1b6064820152608490fd5b60648484519062461bcd60e51b825280600483015260248201527f4d756c746953696741646d696e3a20696e76616c6964207468726573686f6c646044820152fd5b815193945091929091906001600160a01b03811681036200030a5781528693929184019084016200008d565b5f80fd5b6040519190601f01601f191682016001600160401b03811183821017620001915760405256fe6040608081526004908136101561001f575b5050361561001d575f80fd5b005b5f91823560e01c806314bfd6d014610bb45780631785f53c146109c2578063242232d11461089c57806324d7806c1461085e57806331ae450b1461079b57806342cde4e81461077c57806356c316371461072c57806370480275146105c75780639ace38c214610571578063b1e130fc1461044a578063b77bf6001461042b578063c6427474146101da578063d7aa82731461017e5763d7d7442f146100c55750610011565b3461017a57602036600319011261017a578035906100e430331461108f565b8115158061016f575b1561012c5750907fb06a54caabe58475c86c2bf9df3f2f06dd1213e9e10659c293117fe4893b274b91600254908060025582519182526020820152a180f35b606490602084519162461bcd60e51b8352820152602060248201527f4d756c746953696741646d696e3a20696e76616c6964207468726573686f6c646044820152fd5b5083548211156100ed565b8280fd5b5082346101d75760203660031901126101d757826101d39183358152836020522060018060a01b03815416926001820154946101c8600260ff600386015416938501549401610cc4565b905195869586610d65565b0390f35b80fd5b50919034610427576060366003190112610427576101f6610c3c565b916044359067ffffffffffffffff9485831161042757366023840112156104275782810135958611610427576024903682888601011161017a5733835260019360209785895261024b60ff8887205416610dd0565b80600394600286549a8b8952868d528a89209060018060a01b03166bffffffffffffffffffffffff60a01b82541617815582358a820155019361028e8554610c56565b601f81116103d5575b508790601f841160011461036e578893610361575b5050505f1982861b1c191690861b1790555b8583528087526005858420858482019360ff199485815416905582015533855201875283858420918254161790556102f68154610e27565b905533847f49dac62158bf9ae2b4399a70c655777cc0924f8708068eea723a1b4af2f07f1b8380a3837f924813d717e221b5f46dcd8a56da1679e4612584ab3237d55e5faabf6f6a3079339280a360025414610353575b51908152f35b61035c82610f07565b61034d565b01013590505f80806102ac565b8589528c89208a9550929091601f1985168a8f5b8282106103ba57505085116103a0575b50505050811b0190556102be565b5f1960f8868b1b161c19920101351690555f808080610392565b83860185013587558d98909601959283019290810190610382565b909192508488528b8820601f850160051c8101918d861061041d575b8594939291601f8c920160051c01915b82811061040f575050610297565b8a81558695508b9101610401565b90915081906103f1565b5080fd5b5050346104275781600319360112610427576020906003549051908152f35b50919034610427576020928360031936011261017a578035913384526001855261047960ff8286205416610dd0565b6104866003548410610e49565b82845281855261049f60ff600383872001541615610ea7565b828452818552808420906005820133865280875260ff82872054161561051e578394959633885252852060ff1981541690550190815490811561050b57505f1901905533907f4cd471041f6b9ff47536a54a3d3ab62d0fa9dd5e36c0418b294b1673acb318818380a380f35b634e487b7160e01b855260119052602484fd5b815162461bcd60e51b8152808501889052602760248201527f4d756c746953696741646d696e3a207472616e73616374696f6e206e6f7420616044820152661c1c1c9bdd995960ca1b6064820152608490fd5b5091346101d75760203660031901126101d757816101d3918435815284602052209160018060a01b03835416926001810154946105b060028301610cc4565b9060ff600384015416920154925195869586610d65565b50919034610427576020366003190112610427576105e3610c3c565b6105ee30331461108f565b6001600160a01b03811680845260016020528284205490929060ff166106ea5782156106a85782845260016020528320600160ff19825416179055825468010000000000000000811015610695579061064f82600161066e94018655610bf3565b90919082549060031b9160018060a01b03809116831b921b1916179055565b7f44d6d25963f097ad14f29f06854a01f575648a1ef82f30e562ccd3889717e3398280a280f35b634e487b7160e01b845260418552602484fd5b5162461bcd60e51b8152602081860152601c60248201527f4d756c746953696741646d696e3a20696e76616c69642061646d696e000000006044820152606490fd5b5162461bcd60e51b8152602081860152601c60248201527f4d756c746953696741646d696e3a20616c72656164792061646d696e000000006044820152606490fd5b503461017a578160031936011261017a576024356001600160a01b03811691908290036107785760209360ff928285933583528652600583832001908252855220541690519015158152f35b8380fd5b5050346104275781600319360112610427576020906002549051908152f35b8284346101d757806003193601126101d757908051918290805491828552602080950180938380527f290decd9548b62a8d60345a988386fc84ba6bc95484008f6362f93160ef3e56390845b81811061084157505050816107fd910382610c8e565b83519485948186019282875251809352850193925b82811061082157505050500390f35b83516001600160a01b031685528695509381019392810192600101610812565b82546001600160a01b0316845292880192600192830192016107e7565b5050346104275760203660031901126104275760209160ff9082906001600160a01b03610889610c3c565b1681526001855220541690519015158152f35b503461017a5760208060031936011261077857813592338552600182526108c860ff8287205416610dd0565b6108d56003548510610e49565b8385528282526108ee60ff600383882001541615610ea7565b83855282825280852091600583019033875281815260ff838820541661096c57338752528420600160ff198254161790550161092a8154610e27565b80915533827f924813d717e221b5f46dcd8a56da1679e4612584ab3237d55e5faabf6f6a30798580a36002541115610960575080f35b61096990610f07565b80f35b8460849184519162461bcd60e51b8352820152602b60248201527f4d756c746953696741646d696e3a207472616e73616374696f6e20616c72656160448201526a191e48185c1c1c9bdd995960aa1b6064820152fd5b50903461017a57602036600319011261017a576109dd610c3c565b6109e830331461108f565b60018060a01b03809116918285526001938460205260ff828720541615610b725785545f199290838101908111610b055760025411610b1e5784875260208690528620805460ff1916905585855b610a64575b86857fa3b62bc36326052d97ea62d63c3d60308ed4c3ea8ac079dd8499f1e9c4f80c0f8280a280f35b865480821015610b1857849086610a7a84610bf3565b939054600394851b1c1614610a9a575050610a9490610e27565b85610a36565b90959650838101908111610b05579061064f85610ab9610ac694610bf3565b905490891b1c1691610bf3565b8554908115610af257500191610adb83610bf3565b81939154921b1b191690558255805f808080610a3b565b634e487b7160e01b875260319052602486fd5b634e487b7160e01b885260118352602488fd5b50610a3b565b906020608492519162461bcd60e51b8352820152602860248201527f4d756c746953696741646d696e3a2063616e6e6f7420676f2062656c6f7720746044820152671a1c995cda1bdb1960c21b6064820152fd5b6020606492519162461bcd60e51b8352820152601860248201527f4d756c746953696741646d696e3a206e6f742061646d696e00000000000000006044820152fd5b503461017a57602036600319011261017a57359180548310156101d75750610bdd602092610bf3565b905491519160018060a01b039160031b1c168152f35b905f918254811015610c28578280527f290decd9548b62a8d60345a988386fc84ba6bc95484008f6362f93160ef3e563019190565b634e487b7160e01b83526032600452602483fd5b600435906001600160a01b0382168203610c5257565b5f80fd5b90600182811c92168015610c84575b6020831014610c7057565b634e487b7160e01b5f52602260045260245ffd5b91607f1691610c65565b90601f8019910116810190811067ffffffffffffffff821117610cb057604052565b634e487b7160e01b5f52604160045260245ffd5b9060405191825f825492610cd784610c56565b9081845260019485811690815f14610d425750600114610d02575b5050610d0092500383610c8e565b565b909391505f52602090815f20935f915b818310610d2a575050610d0093508201015f80610cf2565b85548884018501529485019487945091830191610d12565b915050610d0094506020925060ff191682840152151560051b8201015f80610cf2565b9291909594939560018060a01b031683526020908184015260a060408401528151918260a08501525f5b838110610dbc575050509060c0825f8260809585010152601f801991011682010194151560608201520152565b81810183015185820160c001528201610d8f565b15610dd757565b60405162461bcd60e51b815260206004820152602260248201527f4d756c746953696741646d696e3a2063616c6c6572206973206e6f742061646d60448201526134b760f11b6064820152608490fd5b5f198114610e355760010190565b634e487b7160e01b5f52601160045260245ffd5b15610e5057565b60405162461bcd60e51b815260206004820152602960248201527f4d756c746953696741646d696e3a207472616e73616374696f6e20646f6573206044820152681b9bdd08195e1a5cdd60ba1b6064820152608490fd5b15610eae57565b60405162461bcd60e51b815260206004820152602b60248201527f4d756c746953696741646d696e3a207472616e73616374696f6e20616c72656160448201526a191e48195e1958dd5d195960aa1b6064820152608490fd5b5f9080825260206004815260408320836003820191600160ff1993818582541617905560018060a01b03825416916002828201549101946040519285968054610f4f81610c56565b93818416918215611079575050600114611042575b50505081849503925af13d1561103d573d67ffffffffffffffff81116110295760405190610f9b601f8201601f1916850183610c8e565b815284833d92013e5b15610fd157507fefc13bdcf58f184ea7cae26b499fb33b539e01d0197cea456f3ada289b8cf19b339280a3565b6084906040519062461bcd60e51b82526004820152602b60248201527f4d756c746953696741646d696e3a207472616e73616374696f6e20657865637560448201526a1d1a5bdb8819985a5b195960aa1b6064820152fd5b634e487b7160e01b85526041600452602485fd5b610fa4565b8652878620965085905b88838310611063575050508201945081845f610f64565b885483870152978101978b97509091019061104c565b168652505050801515028201945081845f610f64565b1561109657565b60405162461bcd60e51b815260206004820152602560248201527f4d756c746953696741646d696e3a2063616c6c6572206973206e6f74206d756c604482015264746973696760d81b6064820152608490fdfea2646970667358221220d9db088a453bbcc29f6310f99be1fe4bbcc7a26d2c9de3d1799f740cdf51b35564736f6c63430008140033","linkReferences":{}},"methodIdentifiers":{"addAdmin(address)":"70480275","admins(uint256)":"14bfd6d0","approveTransaction(uint256)":"242232d1","getAdmins()":"31ae450b","getTransactionInfo(uint256)":"d7aa8273","isAdmin(address)":"24d7806c","isApproved(uint256,address)":"56c31637","removeAdmin(address)":"1785f53c","revokeApproval(uint256)":"b1e130fc","submitTransaction(address,uint256,bytes)":"c6427474","threshold()":"42cde4e8","transactionCount()":"b77bf600","transactions(uint256)":"9ace38c2","updateThreshold(uint256)":"d7d7442f"},"id":8}