{"abi":[{"type":"constructor","inputs":[],"stateMutability":"nonpayable"},{"type":"function","name":"MAX_FEE","inputs":[],"outputs":[{"name":"","type":"uint256","internalType":"uint256"}],"stateMutability":"view"},{"type":"function","name":"admin","inputs":[],"outputs":[{"name":"","type":"address","internalType":"address"}],"stateMutability":"view"},{"type":"function","name":"allEscrows","inputs":[{"name":"","type":"uint256","internalType":"uint256"}],"outputs":[{"name":"","type":"address","internalType":"address"}],"stateMutability":"view"},{"type":"function","name":"createEscrow","inputs":[{"name":"kol","type":"address","internalType":"address"},{"name":"token","type":"address","internalType":"address"},{"name":"totalAmount","type":"uint256","internalType":"uint256"},{"name":"titles","type":"string[]","internalType":"string[]"},{"name":"descriptions","type":"string[]","internalType":"string[]"},{"name":"amounts","type":"uint256[]","internalType":"uint256[]"}],"outputs":[{"name":"escrow","type":"address","internalType":"address"}],"stateMutability":"nonpayable"},{"type":"function","name":"feePercentage","inputs":[],"outputs":[{"name":"","type":"uint256","internalType":"uint256"}],"stateMutability":"view"},{"type":"function","name":"getAllEscrows","inputs":[],"outputs":[{"name":"","type":"address[]","internalType":"address[]"}],"stateMutability":"view"},{"type":"function","name":"getEscrowCount","inputs":[],"outputs":[{"name":"","type":"uint256","internalType":"uint256"}],"stateMutability":"view"},{"type":"function","name":"getKOLEscrows","inputs":[{"name":"kol","type":"address","internalType":"address"}],"outputs":[{"name":"","type":"address[]","internalType":"address[]"}],"stateMutability":"view"},{"type":"function","name":"getUserEscrows","inputs":[{"name":"user","type":"address","internalType":"address"}],"outputs":[{"name":"","type":"address[]","internalType":"address[]"}],"stateMutability":"view"},{"type":"function","name":"isEscrow","inputs":[{"name":"","type":"address","internalType":"address"}],"outputs":[{"name":"","type":"bool","internalType":"bool"}],"stateMutability":"view"},{"type":"function","name":"kolEscrows","inputs":[{"name":"","type":"address","internalType":"address"},{"name":"","type":"uint256","internalType":"uint256"}],"outputs":[{"name":"","type":"address","internalType":"address"}],"stateMutability":"view"},{"type":"function","name":"updateAdmin","inputs":[{"name":"newAdmin","type":"address","internalType":"address"}],"outputs":[],"stateMutability":"nonpayable"},{"type":"function","name":"updateFee","inputs":[{"name":"newFee","type":"uint256","internalType":"uint256"}],"outputs":[],"stateMutability":"nonpayable"},{"type":"function","name":"userEscrows","inputs":[{"name":"","type":"address","internalType":"address"},{"name":"","type":"uint256","internalType":"uint256"}],"outputs":[{"name":"","type":"address","internalType":"address"}],"stateMutability":"view"},{"type":"function","name":"withdrawFees","inputs":[{"name":"token","type":"address","internalType":"address"}],"outputs":[],"stateMutability":"nonpayable"},{"type":"event","name":"AdminChanged","inputs":[{"name":"oldAdmin","type":"address","indexed":true,"internalType":"address"},{"name":"newAdmin","type":"address","indexed":true,"internalType":"address"}],"anonymous":false},{"type":"event","name":"EscrowCreated","inputs":[{"name":"escrow","type":"address","indexed":true,"internalType":"address"},{"name":"project","type":"address","indexed":true,"internalType":"address"},{"name":"kol","type":"address","indexed":true,"internalType":"address"},{"name":"token","type":"address","indexed":false,"internalType":"address"},{"name":"totalAmount","type":"uint256","indexed":false,"internalType":"uint256"}],"anonymous":false},{"type":"event","name":"FeeUpdated","inputs":[{"name":"oldFee","type":"uint256","indexed":false,"internalType":"uint256"},{"name":"newFee","type":"uint256","indexed":false,"internalType":"uint256"}],"anonymous":false},{"type":"error","name":"InvalidFee","inputs":[]},{"type":"error","name":"InvalidParameters","inputs":[]},{"type":"error","name":"Unauthorized","inputs":[]}],"bytecode":{"object":"0x6080806040523461002c5760fa6001555f80546001600160a01b0319163317905561280490816100318239f35b5f80fdfe608080604052600436101562000013575f80fd5b5f3560e01c908163164e68de1462000b095750806316b151351462000aea5780631d3afee61462000a8d5780635ccea85e1462000a0e5780637f944dd014620009b05780639012c4a81462000932578063902a834114620008b35780639a6ac36f146200081a578063a001ecdd14620007fb578063b166a09f14620007ba578063bc063e1a146200079c578063cce446d4146200073e578063e2f273bd1462000684578063f1432b6714620000fe5763f851a44014620000d1575f80fd5b34620000fa575f366003190112620000fa575f546040516001600160a01b039091168152602090f35b5f80fd5b34620000fa5760c0366003190112620000fa576200011b62000c15565b6024356001600160a01b0381169003620000fa5760643567ffffffffffffffff8111620000fa576200015290369060040162000cc3565b60843567ffffffffffffffff8111620000fa576200017590369060040162000cc3565b60a43567ffffffffffffffff8111620000fa5736602382011215620000fa57806004013590620001a58262000caa565b90620001b5604051928362000c87565b828252602082016024819460051b83010191368311620000fa57602401905b82821062000673575050506001600160a01b0385161580156200065f575b62000633576044351562000633578351801590811562000652575b811562000645575b506200063357600154938460443502946044358604036200061f57612710850460443501604435116200061f57604051636eb1769f60e11b815233600482015230602482015260208160448160018060a01b03602435165afa90811562000560575f91620005e7575b5061271086046044350111620005a95760018060a01b035f541690604051948561193f81011067ffffffffffffffff61193f88011117620004cc576200032990620003126020938897969561193f62000e908a3961193f890190815233868201526001600160a01b038c81166040830152602435166060820152604435608082015261010060a08201819052019062000da8565b9061193f8701820360c061193f8901015262000da8565b9161193f8501830360e061193f8701015251918281520191905f5b8181106200058f5750505003905ff0801562000560576040516323b872dd60e01b8082523360048301526001600160a01b0392909216602482018190526044803590830152929190602081806064810103815f6024356001600160a01b03165af1801562000560576200056b575b506127108204620004e0575b5050805f52600260205260405f20600160ff19825416179055335f526003602052620003ee8160405f2062000e51565b60018060a01b0382165f5260046020526200040d8160405f2062000e51565b60055491600160401b831015620004cc576001830180600555831015620004b85760055f527f036b6384b5eca791c62761152d0c79bb0604c104a5fb6f4eb0703f3154bb3db09290920180546001600160a01b03191682179055604080516001600160a01b0360243581168252604435602080840191909152941691339184917f5110acfd33aad02838430d854a830e50cb07377fab40a6e84daeedb1b151360091a4604051908152f35b634e487b7160e01b5f52603260045260245ffd5b634e487b7160e01b5f52604160045260245ffd5b6040519081523360048201523060248201526127109091046044820152602081806064810103815f6024356001600160a01b03165af1801562000560576200052a575b80620003be565b620005509060203d60201162000558575b62000547818362000c87565b81019062000e37565b508262000523565b503d6200053b565b6040513d5f823e3d90fd5b620005879060203d602011620005585762000547818362000c87565b5084620003b2565b825184528594506020938401939092019160010162000344565b60405162461bcd60e51b8152602060048201526016602482015275496e73756666696369656e7420616c6c6f77616e636560501b6044820152606490fd5b90506020813d60201162000616575b81620006056020938362000c87565b81010312620000fa5751876200027e565b3d9150620005f6565b634e487b7160e01b5f52601160045260245ffd5b604051630e52390960e41b8152600490fd5b9050815114158662000215565b845181141591506200020d565b506024356001600160a01b031615620001f2565b8135815260209182019101620001d4565b34620000fa576020366003190112620000fa57620006a162000c15565b5f54906001600160a01b0380831691338390036200072d5716918215620006f8576001600160a01b03191682175f9081557f7e644d79422f17c01e4894b5f4f588d331ebfa28653d42ae832dc59e38c9798f9080a3005b60405162461bcd60e51b815260206004820152600d60248201526c24b73b30b634b21030b236b4b760991b6044820152606490fd5b6040516282b42960e81b8152600490fd5b34620000fa576040366003190112620000fa576200075b62000c15565b6024359060018060a01b038091165f52600460205260405f208054831015620000fa576020926200078c9162000c2c565b9190546040519260031b1c168152f35b34620000fa575f366003190112620000fa5760206040516103e88152f35b34620000fa576020366003190112620000fa576001600160a01b03620007df62000c15565b165f526002602052602060ff60405f2054166040519015158152f35b34620000fa575f366003190112620000fa576020600154604051908152f35b34620000fa575f366003190112620000fa57604051806005549182815260208091019260055f527f036b6384b5eca791c62761152d0c79bb0604c104a5fb6f4eb0703f3154bb3db0915f905b82821062000892576200088e85620008818189038262000c87565b6040519182918262000c42565b0390f35b83546001600160a01b03168652948501946001938401939091019062000866565b34620000fa57602080600319360112620000fa576001600160a01b0380620008da62000c15565b165f526004825260405f209160405180928285549283815201945f52825f20925f915b83831062000918576200088e8662000881818a038262000c87565b8454811687529581019560019485019490920191620008fd565b34620000fa576020366003190112620000fa575f54600435906001600160a01b031633036200072d576103e881116200099e5760407f528d9479e9f9889a87a3c30c7f7ba537e5e59c4c85a37733b16e57c62df6130291600154908060015582519182526020820152a1005b6040516358d620b360e01b8152600490fd5b34620000fa576040366003190112620000fa57620009cd62000c15565b6024359060018060a01b038091165f52600360205260405f208054831015620000fa57602092620009fe9162000c2c565b90549060031b1c16604051908152f35b34620000fa57602080600319360112620000fa576001600160a01b038062000a3562000c15565b165f526003825260405f209160405180928285549283815201945f52825f20925f915b83831062000a73576200088e8662000881818a038262000c87565b845481168752958101956001948501949092019162000a58565b34620000fa576020366003190112620000fa57600435600554811015620000fa5760055f527f036b6384b5eca791c62761152d0c79bb0604c104a5fb6f4eb0703f3154bb3db001546040516001600160a01b039091168152602090f35b34620000fa575f366003190112620000fa576020600554604051908152f35b34620000fa5760209081600319360112620000fa5762000b2862000c15565b60018060a01b0390815f54169283330362000c0757506040516370a0823160e01b81523060048201529116918382602481865afa908115620005605784925f9262000bcd575b5060405163a9059cbb60e01b81526001600160a01b0390911660048201526024810191909152918290815f81604481015b03925af18015620005605762000bb157005b8162000bcb92903d10620005585762000547818362000c87565b005b8381949293503d831162000bff575b62000be8818362000c87565b81010312620000fa579051839162000b9f62000b6e565b503d62000bdc565b6282b42960e81b8152600490fd5b600435906001600160a01b0382168203620000fa57565b8054821015620004b8575f5260205f2001905f90565b602090816040818301928281528551809452019301915f5b82811062000c69575050505090565b83516001600160a01b03168552938101939281019260010162000c5a565b90601f8019910116810190811067ffffffffffffffff821117620004cc57604052565b67ffffffffffffffff8111620004cc5760051b60200190565b90601f818184011215620000fa5782359262000cdf8462000caa565b9360409262000cf18451968762000c87565b818652602094858088019360051b85010194818611620000fa57868501935b86851062000d2357505050505050505090565b67ffffffffffffffff908535828111620000fa5787019084603f83011215620000fa578982013592831162000d9457835162000d68848801601f19168c018262000c87565b83815285858585010111620000fa575f8b85819688839701838601378301015281520194019362000d10565b60245f634e487b7160e01b81526041600452fd5b9080825180825260208092019180808360051b8601019501935f9384915b84831062000dd8575050505050505090565b9091929394959684601f198084840301855289518051908185528a5b82811062000e2257505080840183018a9052601f011690910181019781019695949360010192019062000dc6565b81810185015186820186015289940162000df4565b90816020910312620000fa57518015158103620000fa5790565b8054600160401b811015620004cc5762000e719160018201815562000c2c565b819291549060031b9160018060a01b03809116831b921b191617905556fe610120806040523462000897576200193f80380380916200002182856200094f565b833981016101008282031262000897576200003c8262000973565b906200004b6020840162000973565b926200005a6040820162000973565b92620000696060830162000973565b608083015160a08401519095906001600160401b03811162000897578562000093918601620009bc565b60c08501519093906001600160401b038111620008975786620000b8918701620009bc565b60e086015190966001600160401b038211620008975780601f83890101121562000897578187015191620000ec8362000988565b97620000fc604051998a6200094f565b838952602089019260208560051b848401010111620008975780820160200192915b60208560051b828401010184106200093a57505060015f5550505060805260a087905260c0526001600160a01b031660e05261010084905280518351811490816200092e575b5015620008e9575f93845b8251861015620007345762000185868462000aa6565b5162000192878762000aa6565b516200019f888762000aa6565b51604051929091906001600160401b0360e0850190811190851117620005445760e084016040528352602083015260408201525f60608201525f60808201525f60a082015260405180602081011060018060401b036020830111176200054457602081016040525f815260c0820152600154906801000000000000000082101562000544576001820180600155821015620007205760015f52805180517fb10e2d527612073b26eecdfd717e6a320cf44b4afac2b0732d9fcbe2b7fa0cf692916001600160401b03821162000544576005850284015490600182811c9216801562000715575b6020831014620005255781601f849311620006be575b50602090601f831160011462000647575f926200063b575b50508160011b915f199060031b1c191617600584028301555b60208101518051906001600160401b038211620005445760016005860285010154600181811c9116801562000630575b60208210146200052557601f8111620005e2575b50602090601f8311600114620005645760c09392915f918362000558575b50508160011b915f199060031b1c191617600160058602850101555b60408101516002600586028501015560036005850284010160608201511515815461ff006080850151151560081b169060ff62ff000060a0870151151560101b1693169062ffffff19161717179055015180519060018060401b038211620005445760046005850284010154600181811c9116801562000539575b60208210146200052557601f8111620004d7575b50602090601f83116001146200045c579180600592600495945f9262000450575b50508160011b915f199060031b1c19161793020101555b6200041d868562000aa6565b5181018091116200043c57945f1981146200043c57600101946200016f565b634e487b7160e01b5f52601160045260245ffd5b015190505f80620003fa565b906004600586028501015f5260205f20915f5b601f1985168110620004be5750926005926001926004969583601f19811610620004a5575b505050811b01930201015562000411565b01515f1960f88460031b161c191690555f808062000494565b919260206001819286850151815501940192016200046f565b6004600586028501015f5260205f20601f840160051c8101602085106200051d575b601f830160051c8201811062000511575050620003d9565b5f8155600101620004f9565b5080620004f9565b634e487b7160e01b5f52602260045260245ffd5b90607f1690620003c5565b634e487b7160e01b5f52604160045260245ffd5b015190505f806200032e565b906001600587028601015f5260205f20915f5b601f1985168110620005c9575091839160019360c09695601f19811610620005b0575b505050811b01600160058602850101556200034a565b01515f1960f88460031b161c191690555f80806200059a565b9192602060018192868501518155019401920162000577565b6001600587028601015f5260205f20601f840160051c81016020851062000628575b601f830160051c820181106200061c57505062000310565b5f815560010162000604565b508062000604565b90607f1690620002fc565b015190505f80620002b3565b92506005860285015f5260205f20905f935b601f1984168510620006a2576001945083601f1981161062000689575b505050811b0160058402830155620002cc565b01515f1960f88460031b161c191690555f808062000676565b8181015183556020948501946001909301929091019062000659565b9091506005860285015f5260205f20601f840160051c8101602085106200070d575b90849392915b601f830160051c82018110620006fe5750506200029b565b5f8155859450600101620006e6565b5080620006e0565b91607f169162000285565b634e487b7160e01b5f52603260045260245ffd5b81879103620008a45760e0516040516323b872dd60e01b602082019081526001600160a01b0393841660248301523060448301526064808301959095529381529116919060a081016001600160401b03811182821017620005445760405251620007d5915f91829182865af13d156200089b573d90620007b482620009a0565b91620007c460405193846200094f565b82523d5f602084013e5b8362000abb565b805190811515918262000870575b50506200085857604051610e1b908162000b24823960805181818161010b0152610745015260a05181818161014e0152610232015260c051818181610468015281816108100152610996015260e05181818160c4015281816102cf0152818161083b01526108ff015261010051816106f20152f35b60249060405190635274afe760e01b82526004820152fd5b819250906020918101031262000897576020015180159081150362000897578280620007e3565b5f80fd5b606090620007ce565b60405162461bcd60e51b815260206004820152601960248201527f416d6f756e747320646f6e2774206d6174636820746f74616c000000000000006044820152606490fd5b60405162461bcd60e51b815260206004820152601560248201527f4172726179206c656e677468206d69736d6174636800000000000000000000006044820152606490fd5b90508251145f62000164565b6020808094865181520194019392506200011e565b601f909101601f19168101906001600160401b038211908210176200054457604052565b51906001600160a01b03821682036200089757565b6001600160401b038111620005445760051b60200190565b6001600160401b0381116200054457601f01601f191660200190565b9080601f830112156200089757815191620009d78362000988565b92604090620009e9825195866200094f565b808552602093848087019260051b850101938185116200089757858101925b85841062000a1a575050505050505090565b83516001600160401b0381116200089757820183603f8201121562000897578781015162000a4881620009a0565b9162000a57885193846200094f565b81835285888383010111620008975792909189925f945b81861062000a8d5750838095505f918301015281520193019262000a08565b8086018a015183870186015293909401938a9362000a6e565b8051821015620007205760209160051b010190565b9062000ae4575080511562000ad257805190602001fd5b604051630a12f52160e11b8152600490fd5b8151158062000b19575b62000af7575090565b604051639996b31560e01b81526001600160a01b039091166004820152602490fd5b50803b1562000aee56fe6080604081815260049182361015610015575f80fd5b5f92833560e01c9182630dcba2d1146109825750816312065fe0146108d0578163150ad280146107155781631a39d8ef146106da5781632442e1cb146106665781636f210902146103f35781638f4cf247146103d457816395afc05c1461021d578163ad7c6ed1146101fe578163e89e4ed61461017d57508063f60ca60d1461013a578063f851a440146100f75763fc0c546a146100b1575f80fd5b346100f357816003193601126100f357517f00000000000000000000000000000000000000000000000000000000000000006001600160a01b03168152602090f35b5080fd5b50346100f357816003193601126100f357517f00000000000000000000000000000000000000000000000000000000000000006001600160a01b03168152602090f35b50346100f357816003193601126100f357517f00000000000000000000000000000000000000000000000000000000000000006001600160a01b03168152602090f35b905082346101fb5760203660031901126101fb578135906001548210156101fb57506101ab6101f791610aae565b50926101b684610b33565b936101c360018201610b33565b906101d960028201549560038301549201610b33565b925195869560ff8360101c169360ff808560081c1694169288610a03565b0390f35b80fd5b5050346100f357816003193601126100f3576020906002549051908152f35b919050346103d057826003193601126103d0577f00000000000000000000000000000000000000000000000000000000000000006001600160a01b03811691338390036103c15761026c610dc4565b849185946001958654905b81811061034a57505060025490818503948086116103375782146102fd5750916102f38480936102ca7fbada1a1bf129e41a8af5abe00997bd8a8cb1770cb0cf68314eb4b1d6c427139797602097610bd4565b6002557f0000000000000000000000000000000000000000000000000000000000000000610c76565b51908152a2815580f35b606490602085519162461bcd60e51b835282015260146024820152734e6f20726566756e647320617661696c61626c6560601b6044820152fd5b634e487b7160e01b895260118252602489fd5b61035c61035682610aae565b50610bf5565b60608101511580156103a7575b610391575b505f19811461037e578701610277565b634e487b7160e01b895260118352602489fd5b95856103a09297015190610bd4565b945f61036e565b50608081015115158015610369575060a081015115610369565b5163ebcef41b60e01b81528390fd5b8280fd5b5050346100f357816003193601126100f3576020906001549051908152f35b919050346103d057806003193601126103d0578135916024359167ffffffffffffffff9182841161066257366023850112156106625783810135928661043885610a92565b9561044585519788610a5c565b85875236602487830101116100f35785602496602097889301838a0137870101527f00000000000000000000000000000000000000000000000000000000000000006001600160a01b031633036106535760018054871015610643576104aa87610aae565b5060038101805460ff81166106335760ff1916831790558651908401939092831161062057506104da8354610afb565b601f81116105da575b5084601f83116001146105545791808061054395937f0ecd564a0ce8a5f592a42f808f248f0a5892eac4f08cdfa682a30e6a6255d3e6999897958c93610549575b501b915f199060031b1c19161790555b519282849384528301906109c5565b0390a280f35b89015192505f610524565b83895285892091929190601f1983168a5b8181106105c5575091839161054396947f0ecd564a0ce8a5f592a42f808f248f0a5892eac4f08cdfa682a30e6a6255d3e69a99989694106105ad575b5050811b019055610534565b8801515f1960f88460031b161c191690555f806105a1565b89830151845592850192918801918801610565565b838952858920601f840160051c810191878510610616575b601f0160051c019082905b82811061060b5750506104e3565b8a81550182906105fd565b90915081906105f2565b634e487b7160e01b895260419052602488fd5b865163b9f7965360e01b81528690fd5b83516302e845cd60e61b81528390fd5b509051632c34c29b60e01b8152fd5b8580fd5b905082346101fb5760203660031901126101fb57508035906001548210156106cc575061035661069591610aae565b906101f78251916020840151938181015160608201511515608083015115159160c060a08501511515940151945197889788610a03565b82516302e845cd60e61b8152fd5b5050346100f357816003193601126100f357602090517f00000000000000000000000000000000000000000000000000000000000000008152f35b919050346103d057806003193601126103d0578135916024359081151591828103610662576001600160a01b03907f0000000000000000000000000000000000000000000000000000000000000000821633036108c057610774610dc4565b6001548610156108b05761078786610aae565b5092600384019081549060ff8216156108a25760ff8260081c16610894575062ffff001916601086901b62ff000016176101001790557f209de51a06bf2f1b5c68ebbce5cbbcd40a574bfce664c34df6562e9a08a40beb94939260029290911561087e577f8c9a4f13b67cb64d7c6aa1ae0c9bf07694af521a28b93e7060020810ab4bc59f60207f00000000000000000000000000000000000000000000000000000000000000009285850161085f8154867f0000000000000000000000000000000000000000000000000000000000000000610c76565b549388519485521692a25b015482519182526020820152a26001815580f35b5061088d828201548354610bd4565b825561086a565b87516396c3b41160e01b8152fd5b8751630a8bd16f60e21b8152fd5b84516302e845cd60e61b81528390fd5b8451637bfa4b9f60e01b81528390fd5b919050346103d057826003193601126103d05780516370a0823160e01b815230928101929092526020826024817f00000000000000000000000000000000000000000000000000000000000000006001600160a01b03165afa918215610978578392610941575b6020838351908152f35b9091506020813d8211610970575b8161095c60209383610a5c565b810103126103d0576020925051905f610937565b3d915061094f565b81513d85823e3d90fd5b8490346100f357816003193601126100f3577f00000000000000000000000000000000000000000000000000000000000000006001600160a01b03168152602090f35b91908251928382525f5b8481106109ef575050825f602080949584010152601f8019910116010190565b6020818301810151848301820152016109cf565b9390610a59979592610a23610a319298959860e0885260e08801906109c5565b9086820360208801526109c5565b9560408501521515606084015215156080830152151560a082015260c08184039101526109c5565b90565b90601f8019910116810190811067ffffffffffffffff821117610a7e57604052565b634e487b7160e01b5f52604160045260245ffd5b67ffffffffffffffff8111610a7e57601f01601f191660200190565b600154811015610ae75760059060015f52027fb10e2d527612073b26eecdfd717e6a320cf44b4afac2b0732d9fcbe2b7fa0cf601905f90565b634e487b7160e01b5f52603260045260245ffd5b90600182811c92168015610b29575b6020831014610b1557565b634e487b7160e01b5f52602260045260245ffd5b91607f1691610b0a565b9060405191825f825492610b4684610afb565b9081845260019485811690815f14610bb15750600114610b71575b5050610b6f92500383610a5c565b565b909391505f52602090815f20935f915b818310610b99575050610b6f93508201015f80610b61565b85548884018501529485019487945091830191610b81565b915050610b6f94506020925060ff191682840152151560051b8201015f80610b61565b91908201809211610be157565b634e487b7160e01b5f52601160045260245ffd5b9060405160e0810181811067ffffffffffffffff821117610a7e5760405260c0610c7160048395610c2581610b33565b8552610c3360018201610b33565b60208601526002810154604086015260ff600382015481811615156060880152818160081c161515608088015260101c16151560a086015201610b33565b910152565b60405163a9059cbb60e01b602082019081526001600160a01b0393841660248301526044808301959095529381529291608084019167ffffffffffffffff831185841017610a7e57610d019260405216925f80938192519082875af13d15610d59573d90610ce382610a92565b91610cf16040519384610a5c565b82523d84602084013e5b84610d61565b908151918215159283610d31575b505050610d195750565b60249060405190635274afe760e01b82526004820152fd5b8192935090602091810103126100f35760200151908115918215036101fb57505f8080610d0f565b606090610cfb565b90610d885750805115610d7657805190602001fd5b604051630a12f52160e11b8152600490fd5b81511580610dbb575b610d99575090565b604051639996b31560e01b81526001600160a01b039091166004820152602490fd5b50803b15610d91565b60025f5414610dd35760025f55565b604051633ee5aeb560e01b8152600490fdfea264697066735822122034815f0f9d58506db94efb1586bbd8f9563d188c528ba95159dd826164e7be3864736f6c63430008140033a26469706673582212204f92a1e50dff884814d7ae587bb3633ec158d93aeb89ee14ceeedb4cf377b41564736f6c63430008140033","linkReferences":{}},"methodIdentifiers":{"MAX_FEE()":"bc063e1a","admin()":"f851a440","allEscrows(uint256)":"1d3afee6","createEscrow(address,address,uint256,string[],string[],uint256[])":"f1432b67","feePercentage()":"a001ecdd","getAllEscrows()":"9a6ac36f","getEscrowCount()":"16b15135","getKOLEscrows(address)":"902a8341","getUserEscrows(address)":"5ccea85e","isEscrow(address)":"b166a09f","kolEscrows(address,uint256)":"cce446d4","updateAdmin(address)":"e2f273bd","updateFee(uint256)":"9012c4a8","userEscrows(address,uint256)":"7f944dd0","withdrawFees(address)":"164e68de"},"id":1}