{
  "_format": "hh-sol-artifact-1",
  "contractName": "IntegratedTokenFactory",
  "sourceName": "contracts/IntegratedTokenFactory.sol",
  "abi": [
    {
      "inputs": [
        {
          "internalType": "address",
          "name": "owner",
          "type": "address"
        }
      ],
      "name": "OwnableInvalidOwner",
      "type": "error"
    },
    {
      "inputs": [
        {
          "internalType": "address",
          "name": "account",
          "type": "address"
        }
      ],
      "name": "OwnableUnauthorizedAccount",
      "type": "error"
    },
    {
      "inputs": [],
      "name": "ReentrancyGuardReentrantCall",
      "type": "error"
    },
    {
      "anonymous": false,
      "inputs": [
        {
          "indexed": true,
          "internalType": "address",
          "name": "previousOwner",
          "type": "address"
        },
        {
          "indexed": true,
          "internalType": "address",
          "name": "newOwner",
          "type": "address"
        }
      ],
      "name": "OwnershipTransferred",
      "type": "event"
    },
    {
      "anonymous": false,
      "inputs": [
        {
          "indexed": true,
          "internalType": "address",
          "name": "token",
          "type": "address"
        },
        {
          "indexed": true,
          "internalType": "address",
          "name": "creator",
          "type": "address"
        },
        {
          "indexed": false,
          "internalType": "string",
          "name": "name",
          "type": "string"
        },
        {
          "indexed": false,
          "internalType": "string",
          "name": "symbol",
          "type": "string"
        },
        {
          "indexed": false,
          "internalType": "uint256",
          "name": "timestamp",
          "type": "uint256"
        }
      ],
      "name": "TokenCreated",
      "type": "event"
    },
    {
      "anonymous": false,
      "inputs": [
        {
          "indexed": true,
          "internalType": "address",
          "name": "token",
          "type": "address"
        },
        {
          "indexed": false,
          "internalType": "uint256",
          "name": "ethReserve",
          "type": "uint256"
        },
        {
          "indexed": false,
          "internalType": "uint256",
          "name": "tokenReserve",
          "type": "uint256"
        }
      ],
      "name": "TokenGraduated",
      "type": "event"
    },
    {
      "anonymous": false,
      "inputs": [
        {
          "indexed": true,
          "internalType": "address",
          "name": "token",
          "type": "address"
        },
        {
          "indexed": true,
          "internalType": "address",
          "name": "trader",
          "type": "address"
        },
        {
          "indexed": false,
          "internalType": "bool",
          "name": "isBuy",
          "type": "bool"
        },
        {
          "indexed": false,
          "internalType": "uint256",
          "name": "ethAmount",
          "type": "uint256"
        },
        {
          "indexed": false,
          "internalType": "uint256",
          "name": "tokenAmount",
          "type": "uint256"
        },
        {
          "indexed": false,
          "internalType": "uint256",
          "name": "newPrice",
          "type": "uint256"
        },
        {
          "indexed": false,
          "internalType": "uint256",
          "name": "platformFee",
          "type": "uint256"
        },
        {
          "indexed": false,
          "internalType": "uint256",
          "name": "creatorFee",
          "type": "uint256"
        }
      ],
      "name": "TokenTraded",
      "type": "event"
    },
    {
      "inputs": [],
      "name": "BONDING_SUPPLY",
      "outputs": [
        {
          "internalType": "uint256",
          "name": "",
          "type": "uint256"
        }
      ],
      "stateMutability": "view",
      "type": "function"
    },
    {
      "inputs": [],
      "name": "BPS_DENOMINATOR",
      "outputs": [
        {
          "internalType": "uint256",
          "name": "",
          "type": "uint256"
        }
      ],
      "stateMutability": "view",
      "type": "function"
    },
    {
      "inputs": [],
      "name": "CREATION_FEE",
      "outputs": [
        {
          "internalType": "uint256",
          "name": "",
          "type": "uint256"
        }
      ],
      "stateMutability": "view",
      "type": "function"
    },
    {
      "inputs": [],
      "name": "CREATOR_FEE_BPS",
      "outputs": [
        {
          "internalType": "uint256",
          "name": "",
          "type": "uint256"
        }
      ],
      "stateMutability": "view",
      "type": "function"
    },
    {
      "inputs": [],
      "name": "DEX_RESERVE",
      "outputs": [
        {
          "internalType": "uint256",
          "name": "",
          "type": "uint256"
        }
      ],
      "stateMutability": "view",
      "type": "function"
    },
    {
      "inputs": [],
      "name": "GRADUATION_THRESHOLD",
      "outputs": [
        {
          "internalType": "uint256",
          "name": "",
          "type": "uint256"
        }
      ],
      "stateMutability": "view",
      "type": "function"
    },
    {
      "inputs": [],
      "name": "INITIAL_VIRTUAL_ETH",
      "outputs": [
        {
          "internalType": "uint256",
          "name": "",
          "type": "uint256"
        }
      ],
      "stateMutability": "view",
      "type": "function"
    },
    {
      "inputs": [],
      "name": "INITIAL_VIRTUAL_TOKENS",
      "outputs": [
        {
          "internalType": "uint256",
          "name": "",
          "type": "uint256"
        }
      ],
      "stateMutability": "view",
      "type": "function"
    },
    {
      "inputs": [],
      "name": "PLATFORM_FEE_BPS",
      "outputs": [
        {
          "internalType": "uint256",
          "name": "",
          "type": "uint256"
        }
      ],
      "stateMutability": "view",
      "type": "function"
    },
    {
      "inputs": [],
      "name": "TOTAL_SUPPLY",
      "outputs": [
        {
          "internalType": "uint256",
          "name": "",
          "type": "uint256"
        }
      ],
      "stateMutability": "view",
      "type": "function"
    },
    {
      "inputs": [
        {
          "internalType": "uint256",
          "name": "",
          "type": "uint256"
        }
      ],
      "name": "allTokens",
      "outputs": [
        {
          "internalType": "address",
          "name": "",
          "type": "address"
        }
      ],
      "stateMutability": "view",
      "type": "function"
    },
    {
      "inputs": [
        {
          "internalType": "address",
          "name": "_token",
          "type": "address"
        }
      ],
      "name": "bondingProgress",
      "outputs": [
        {
          "internalType": "uint256",
          "name": "",
          "type": "uint256"
        }
      ],
      "stateMutability": "view",
      "type": "function"
    },
    {
      "inputs": [
        {
          "internalType": "address",
          "name": "_token",
          "type": "address"
        },
        {
          "internalType": "uint256",
          "name": "_minTokensOut",
          "type": "uint256"
        }
      ],
      "name": "buyTokens",
      "outputs": [
        {
          "internalType": "uint256",
          "name": "",
          "type": "uint256"
        }
      ],
      "stateMutability": "payable",
      "type": "function"
    },
    {
      "inputs": [
        {
          "internalType": "address",
          "name": "_token",
          "type": "address"
        },
        {
          "internalType": "uint256",
          "name": "_ethAmount",
          "type": "uint256"
        }
      ],
      "name": "calculateBuyReturn",
      "outputs": [
        {
          "internalType": "uint256",
          "name": "",
          "type": "uint256"
        }
      ],
      "stateMutability": "view",
      "type": "function"
    },
    {
      "inputs": [
        {
          "internalType": "address",
          "name": "_token",
          "type": "address"
        }
      ],
      "name": "calculateMarketCap",
      "outputs": [
        {
          "internalType": "uint256",
          "name": "",
          "type": "uint256"
        }
      ],
      "stateMutability": "view",
      "type": "function"
    },
    {
      "inputs": [
        {
          "internalType": "address",
          "name": "_token",
          "type": "address"
        },
        {
          "internalType": "uint256",
          "name": "_tokenAmount",
          "type": "uint256"
        }
      ],
      "name": "calculateSellReturn",
      "outputs": [
        {
          "internalType": "uint256",
          "name": "",
          "type": "uint256"
        }
      ],
      "stateMutability": "view",
      "type": "function"
    },
    {
      "inputs": [
        {
          "internalType": "address",
          "name": "_token",
          "type": "address"
        }
      ],
      "name": "claimCreatorFees",
      "outputs": [],
      "stateMutability": "nonpayable",
      "type": "function"
    },
    {
      "inputs": [
        {
          "internalType": "string",
          "name": "_name",
          "type": "string"
        },
        {
          "internalType": "string",
          "name": "_symbol",
          "type": "string"
        },
        {
          "internalType": "string",
          "name": "_description",
          "type": "string"
        },
        {
          "internalType": "string",
          "name": "_imageUrl",
          "type": "string"
        },
        {
          "internalType": "string",
          "name": "_twitter",
          "type": "string"
        },
        {
          "internalType": "string",
          "name": "_telegram",
          "type": "string"
        },
        {
          "internalType": "string",
          "name": "_website",
          "type": "string"
        },
        {
          "internalType": "string",
          "name": "",
          "type": "string"
        }
      ],
      "name": "createToken",
      "outputs": [
        {
          "internalType": "address",
          "name": "",
          "type": "address"
        }
      ],
      "stateMutability": "payable",
      "type": "function"
    },
    {
      "inputs": [],
      "name": "getAllTokens",
      "outputs": [
        {
          "internalType": "address[]",
          "name": "",
          "type": "address[]"
        }
      ],
      "stateMutability": "view",
      "type": "function"
    },
    {
      "inputs": [],
      "name": "getCreationFee",
      "outputs": [
        {
          "internalType": "uint256",
          "name": "",
          "type": "uint256"
        }
      ],
      "stateMutability": "pure",
      "type": "function"
    },
    {
      "inputs": [],
      "name": "getTokenCount",
      "outputs": [
        {
          "internalType": "uint256",
          "name": "",
          "type": "uint256"
        }
      ],
      "stateMutability": "view",
      "type": "function"
    },
    {
      "inputs": [
        {
          "internalType": "address",
          "name": "_token",
          "type": "address"
        }
      ],
      "name": "getTokenPrice",
      "outputs": [
        {
          "internalType": "uint256",
          "name": "",
          "type": "uint256"
        }
      ],
      "stateMutability": "view",
      "type": "function"
    },
    {
      "inputs": [
        {
          "internalType": "address",
          "name": "",
          "type": "address"
        }
      ],
      "name": "isValidToken",
      "outputs": [
        {
          "internalType": "bool",
          "name": "",
          "type": "bool"
        }
      ],
      "stateMutability": "view",
      "type": "function"
    },
    {
      "inputs": [],
      "name": "owner",
      "outputs": [
        {
          "internalType": "address",
          "name": "",
          "type": "address"
        }
      ],
      "stateMutability": "view",
      "type": "function"
    },
    {
      "inputs": [],
      "name": "renounceOwnership",
      "outputs": [],
      "stateMutability": "nonpayable",
      "type": "function"
    },
    {
      "inputs": [
        {
          "internalType": "address",
          "name": "_token",
          "type": "address"
        },
        {
          "internalType": "uint256",
          "name": "_tokenAmount",
          "type": "uint256"
        },
        {
          "internalType": "uint256",
          "name": "_minEthOut",
          "type": "uint256"
        }
      ],
      "name": "sellTokens",
      "outputs": [
        {
          "internalType": "uint256",
          "name": "",
          "type": "uint256"
        }
      ],
      "stateMutability": "nonpayable",
      "type": "function"
    },
    {
      "inputs": [
        {
          "internalType": "address",
          "name": "",
          "type": "address"
        }
      ],
      "name": "tokenInfo",
      "outputs": [
        {
          "internalType": "address",
          "name": "tokenAddress",
          "type": "address"
        },
        {
          "internalType": "address",
          "name": "creator",
          "type": "address"
        },
        {
          "internalType": "uint256",
          "name": "virtualEthReserve",
          "type": "uint256"
        },
        {
          "internalType": "uint256",
          "name": "virtualTokenReserve",
          "type": "uint256"
        },
        {
          "internalType": "uint256",
          "name": "realEthReserve",
          "type": "uint256"
        },
        {
          "internalType": "uint256",
          "name": "realTokenReserve",
          "type": "uint256"
        },
        {
          "internalType": "uint256",
          "name": "dexReserve",
          "type": "uint256"
        },
        {
          "internalType": "uint256",
          "name": "creatorFees",
          "type": "uint256"
        },
        {
          "internalType": "uint256",
          "name": "platformFees",
          "type": "uint256"
        },
        {
          "internalType": "bool",
          "name": "graduated",
          "type": "bool"
        },
        {
          "internalType": "uint256",
          "name": "createdAt",
          "type": "uint256"
        }
      ],
      "stateMutability": "view",
      "type": "function"
    },
    {
      "inputs": [],
      "name": "totalPlatformFees",
      "outputs": [
        {
          "internalType": "uint256",
          "name": "",
          "type": "uint256"
        }
      ],
      "stateMutability": "view",
      "type": "function"
    },
    {
      "inputs": [
        {
          "internalType": "address",
          "name": "newOwner",
          "type": "address"
        }
      ],
      "name": "transferOwnership",
      "outputs": [],
      "stateMutability": "nonpayable",
      "type": "function"
    },
    {
      "inputs": [],
      "name": "withdrawPlatformFees",
      "outputs": [],
      "stateMutability": "nonpayable",
      "type": "function"
    }
  ],
  "bytecode": "0x6080806040523461007e5733156100685760008054336001600160a01b03198216811783556040519290916001600160a01b0316907f8be0079c531659141344cd1fd0a4f28419497f9722a3daafe3b4186f6b6457e09080a36001805561350a90816100848239f35b631e4fbdf760e01b815260006004820152602490fd5b600080fdfe608060405260043610156200001357600080fd5b60003560e01c80630752881a14620014d05780631c8b271a14620014665780632a5c792a146200139657806341344d5d14620012db57806345b18f2514620012b657806349a2104d1462000cc357806351bd0588146200128f578063539aa77f1462000f54578063634282af1462001248578063715018a614620011eb57806375535f3214620011c357806375a8e372146200111557806378a8956714620010f55780638d427e2514620010cc5780638da5cb5b14620010a1578063902d55a51462001078578063b45d92df1462000f9d578063c18764531462000f5a578063cc3cbd2a1462000f54578063d02641a01462000eb3578063d0b7830b1462000e32578063d3631fa51462000e12578063d6ae6e441462000ce7578063db07b68e1462000cc3578063e1a452181462000ca4578063e4e57b9e1462000927578063eac440fc14620002fc578063f2fde38b1462000267578063f5dab71114620001b15763fcfc0c09146200018557600080fd5b34620001ac576000366003190112620001ac576020604051690e9c7f5bd655012000008152f35b600080fd5b34620001ac576020366003190112620001ac576101606001600160a01b0380620001da62001875565b16600052600260205260406000208181541691600182015416906002810154600382015460048301546005840154600685015491600786015493600887015495600a60ff60098a015416980154986040519a8b5260208b015260408a01526060890152608088015260a087015260c086015260e08501526101008401521515610120830152610140820152f35b34620001ac576020366003190112620001ac576200028462001875565b6200028e62001985565b6001600160a01b03908116908115620002e357600054826bffffffffffffffffffffffff60a01b821617600055167f8be0079c531659141344cd1fd0a4f28419497f9722a3daafe3b4186f6b6457e0600080a3005b604051631e4fbdf760e01b815260006004820152602490fd5b610100366003190112620001ac5760043567ffffffffffffffff8111620001ac576200032d90369060040162001938565b60243567ffffffffffffffff8111620001ac576200035090369060040162001938565b9060443567ffffffffffffffff8111620001ac576200037490369060040162001938565b60643567ffffffffffffffff8111620001ac576200039790369060040162001938565b9060843567ffffffffffffffff8111620001ac57620003bb90369060040162001938565b60a43567ffffffffffffffff8111620001ac57620003de90369060040162001938565b9060c43567ffffffffffffffff8111620001ac576200040290369060040162001938565b60e43567ffffffffffffffff8111620001ac576200042590369060040162001938565b506200043062001a45565b66470de4df8200003410620008e25785518015159081620008d5575b5015620008a1578651801515908162000894575b50156200085e57604051946118f893868581011067ffffffffffffffff86890111176200083c57620005246200054a94620005118998620004fe8a62000537978f8f8d620004e76b033b2e3c9fd0803ce800000093620004d46040948462001bdd8a396101408986018181520190620019b2565b9083880182036020858a010152620019b2565b940101528c60608d808301850392010152620019b2565b90898b01820360808b8d010152620019b2565b90878901820360a0898b010152620019b2565b90858701820360c08789010152620019b2565b90838501820360e08587010152620019b2565b9033610100828501015261012030918401015203906000f09182156200085257604051610160810181811067ffffffffffffffff8211176200083c5760405260018060a01b0384168152336020820152670de0b6b3a7640000604082015269d3c21bcecceda10000006060820152600060808201526b0295be96e64066972000000060a08201526aa56fa5b99019a5c800000060c0820152600060e082015260006101008201526000610120820152610140810142815260018060a01b0385166000526002602052600a60406000209160018060a01b038451166bffffffffffffffffffffffff60a01b9081855416178455600184019060018060a01b036020870151169082541617905560408401516002840155606084015160038401556080840151600484015560a0840151600584015560c0840151600684015560e0840151600784015561010084015160088401556101206009840194015115159360ff199460ff86835416911617905551910155600354680100000000000000008110156200083c57806001620006e39201600355620018aa565b81546001600160a01b0387811660039390931b83811b91901b19909116179091556000908152600460205260409020805491909116600117905560055466470de4df820000810191908210620008265762000761916005556200075260405193606085526060850190620019b2565b908382036020850152620019b2565b42604083015233916001600160a01b038416917f6e6ae68e7d7d45fbd855c40d1eaafa8de46c5fbec3ee26f1af88730e400bc92c919081900390a366470de4df8200003411620007c5575b600180556040516001600160a01b039091168152602090f35b66470de4df81ffff1934013481116200082657600080808093335af1620007eb62001a10565b50620007ac5760405162461bcd60e51b815260206004820152600d60248201526c1499599d5b990819985a5b1959609a1b6044820152606490fd5b634e487b7160e01b600052601160045260246000fd5b634e487b7160e01b600052604160045260246000fd5b6040513d6000823e3d90fd5b60405162461bcd60e51b815260206004820152600e60248201526d125b9d985b1a59081cde5b589bdb60921b6044820152606490fd5b6008915011158862000460565b60405162461bcd60e51b815260206004820152600c60248201526b496e76616c6964206e616d6560a01b6044820152606490fd5b602091501115886200044c565b60405162461bcd60e51b815260206004820152601960248201527f496e73756666696369656e74206372656174696f6e20666565000000000000006044820152606490fd5b34620001ac576060366003190112620001ac576200094462001875565b6200094e62001a45565b60018060a01b039081811660005260026020526040600020906200097783835416151562001a69565b6200098a60ff6009840154161562001aad565b6024351562000c6b576040516323b872dd60e01b8152336004820152306024820152602435604482015260208160648160008887165af180156200085257620009dd9160009162000c35575b5062001b97565b600282015491620009f460048201548094620019f4565b9062000a3d60038201549262000a3662000a1460058501548096620019f4565b62000a2f62000a24828562001b07565b9160243590620019f4565b9062001b1b565b9062001a02565b606481029281840460641482151715620008265762000a6c612710850462000a66818562001a02565b62001a02565b9562000a7d60443588101562001b3c565b80871162000bf05762000aa49262000a959162001a02565b600484015560243590620019f4565b60058201556007810162000abe61271084048254620019f4565b90556008810162000ad561271084048254620019f4565b905562000ae96127108304600554620019f4565b600555600080808087335af162000aff62001a10565b501562000bb55762000b1b6002820154600483015490620019f4565b90670de0b6b3a764000091828102928184041490151715620008265760209561271062000b7b7fb6bfd1e0b5e5317c2be379c71d23b23080c3bf9b072a49298ba82a7a06b6dc5b9462000a2f856005600360c098015491015490620019f4565b946040519560008752888a8801526024356040880152606087015281810460808701520460a085015233941692a360018055604051908152f35b60405162461bcd60e51b8152602060048201526013602482015272115512081d1c985b9cd9995c8819985a5b1959606a1b6044820152606490fd5b60405162461bcd60e51b815260206004820152601a60248201527f496e73756666696369656e7420455448206c69717569646974790000000000006044820152606490fd5b62000c5c915060203d60201162000c63575b62000c538183620018f8565b81019062001b7d565b85620009d6565b503d62000c47565b60405162461bcd60e51b8152602060048201526011602482015270139bc81d1bdad95b9cc81d1bc81cd95b1b607a1b6044820152606490fd5b34620001ac576000366003190112620001ac5760206040516127108152f35b34620001ac576000366003190112620001ac57602060405166470de4df8200008152f35b34620001ac576020366003190112620001ac5762000d0462001875565b62000d0e62001a45565b6001600160a01b0390811660009081526002602052604090206001810154909116330362000dd957600701805490811562000da157600080809381809455335af162000d5962001a10565b501562000d665760018055005b60405162461bcd60e51b8152602060048201526013602482015272119959481d1c985b9cd9995c8819985a5b1959606a1b6044820152606490fd5b60405162461bcd60e51b815260206004820152601060248201526f4e6f206665657320746f20636c61696d60801b6044820152606490fd5b60405162461bcd60e51b81526020600482015260116024820152702737ba103a37b5b2b71031b932b0ba37b960791b6044820152606490fd5b34620001ac576000366003190112620001ac576020600554604051908152f35b34620001ac576000366003190112620001ac5762000e4f62001985565b60008080806005548160055560018060a01b038254165af162000e7162001a10565b501562000e7a57005b60405162461bcd60e51b815260206004820152601160248201527015da5d1a191c985dd85b0819985a5b1959607a1b6044820152606490fd5b34620001ac576020366003190112620001ac576001600160a01b038062000ed962001875565b16600052600260205262000ef7604060002091825416151562001a69565b62000f2262000f106002830154600484015490620019f4565b916005600382015491015490620019f4565b90670de0b6b3a764000090818102918183041490151715620008265760209162000f4c9162001b1b565b604051908152f35b6200188c565b34620001ac576020366003190112620001ac576001600160a01b0362000f7f62001875565b166000526004602052602060ff604060002054166040519015158152f35b34620001ac576020366003190112620001ac576001600160a01b038062000fc362001875565b16600052600260205262000fe1604060002091825416151562001a69565b62000ff66002820154600483015490620019f4565b90670de0b6b3a76400009182810290808204841490151715620008265762000a2f82600560036200102d95015491015490620019f4565b6b033b2e3c9fd0803ce8000000908181029181830414901517156200082657046064810290808204606414901517156200082657602090690e9c7f5bd6550120000060405191048152f35b34620001ac576000366003190112620001ac5760206040516b033b2e3c9fd0803ce80000008152f35b34620001ac576000366003190112620001ac576000546040516001600160a01b039091168152602090f35b34620001ac576000366003190112620001ac5760206040516b0295be96e6406697200000008152f35b34620001ac576000366003190112620001ac576020600354604051908152f35b34620001ac576040366003190112620001ac57602062000f4c6200113862001875565b62000a366200117f60243560018060a01b038094166000526002865262001169604060002094855416151562001a69565b612710620011778262001af0565b049062001a02565b9162000a2f620011af6200119d6002840154600485015490620019f4565b926005600382015491015490620019f4565b93620011bc858462001b07565b92620019f4565b34620001ac576000366003190112620001ac5760206040516aa56fa5b99019a5c80000008152f35b34620001ac576000366003190112620001ac576200120862001985565b600080546001600160a01b0319811682556001600160a01b03167f8be0079c531659141344cd1fd0a4f28419497f9722a3daafe3b4186f6b6457e08280a3005b34620001ac576020366003190112620001ac57600435600354811015620001ac5762001276602091620018aa565b905460405160039290921b1c6001600160a01b03168152f35b34620001ac576000366003190112620001ac57602060405169d3c21bcecceda10000008152f35b34620001ac576000366003190112620001ac576020604051670de0b6b3a76400008152f35b34620001ac576020366003190112620001ac576001600160a01b03806200130162001875565b1660005260026020526200131f604060002091825416151562001a69565b620013346002820154600483015490620019f4565b90670de0b6b3a76400009182810290808204841490151715620008265762000a2f82600560036200136b95015491015490620019f4565b6b033b2e3c9fd0803ce800000090818102918183041490151715620008265760209160405191048152f35b34620001ac576000366003190112620001ac57604051806003548083526020809301809160036000527fc2575a0e9e593c00f959f8c92f12db2869c3395a3b0502d05e2516446f71f85b9060005b8682821062001448578686620013fd82880383620018f8565b604051928392818401908285525180915260408401929160005b8281106200142757505050500390f35b83516001600160a01b03168552869550938101939281019260010162001417565b83546001600160a01b031685529093019260019283019201620013e4565b34620001ac576040366003190112620001ac57602062000f4c620011696001600160a01b03806200149662001875565b1660005260028452620014b3604060002091825416151562001a69565b62000a3662000a146200119d6002840154600485015490620019f4565b6040366003190112620001ac57620014e762001875565b620014f162001a45565b60018060a01b038091169081600052602091600283526200151c604060002092835416151562001a69565b6200152f60ff6009840154161562001aad565b341562001842576064340234810460640362000826576127109004916200155c8362000a66813462001a02565b9260028201805491600484016200157681548095620019f4565b92600386019586546200159e8a62000a36600585019862000a2f620011af8b548097620019f4565b99602497620015b189358d101562001b3c565b828c11620018055760089392620015ce620015d6938e93620019f4565b875562001a02565b865560078101620015e9868254620019f4565b905501620015f9848254620019f4565b90556200160983600554620019f4565b60055560405163a9059cbb60e01b8152336004820152858101899052898160448160008c5af1801562000852576200164a91600091620017e3575062001b97565b549054906200165a8282620019f4565b92670de0b6b3a76400009687850294808604891490151715620017ce579062001693620016e49493925496549562000a2f8789620019f4565b906040519160018352348d8401528b6040840152606083015280608083015260a0820152887fb6bfd1e0b5e5317c2be379c71d23b23080c3bf9b072a49298ba82a7a06b6dc5b60c03393a3620019f4565b9184830292808404861490151715620017b95762001708929162000a2f91620019f4565b906b033b2e3c9fd0803ce800000091828102928184041490151715620017a5575090690e9c7f5bd65501200000910410156200174c575b5060018055604051908152f35b80600052600283527f1669614928af055cd5932e43424383a863eb888f3e3a9f80f443162171c568b660408060002060098101600160ff1982541617905560066004820154910154825191825286820152a2826200173f565b634e487b7160e01b60009081526011600452fd5b83634e487b7160e01b60005260116004526000fd5b86634e487b7160e01b60005260116004526000fd5b620017fe91508b3d8d1162000c635762000c538183620018f8565b8b620009d6565b60405162461bcd60e51b8152600481018e90526016818b015275496e73756666696369656e74206c697175696469747960501b6044820152606490fd5b60405162461bcd60e51b815260048101849052600b60248201526a139bc8115512081cd95b9d60aa1b6044820152606490fd5b600435906001600160a01b0382168203620001ac57565b34620001ac576000366003190112620001ac57602060405160648152f35b600354811015620018e25760036000527fc2575a0e9e593c00f959f8c92f12db2869c3395a3b0502d05e2516446f71f85b0190600090565b634e487b7160e01b600052603260045260246000fd5b90601f8019910116810190811067ffffffffffffffff8211176200083c57604052565b67ffffffffffffffff81116200083c57601f01601f191660200190565b81601f82011215620001ac5780359062001952826200191b565b92620019626040519485620018f8565b82845260208383010111620001ac57816000926020809301838601378301015290565b6000546001600160a01b031633036200199a57565b60405163118cdaa760e01b8152336004820152602490fd5b919082519283825260005b848110620019df575050826000602080949584010152601f8019910116010190565b602081830181015184830182015201620019bd565b919082018092116200082657565b919082039182116200082657565b3d1562001a40573d9062001a24826200191b565b9162001a346040519384620018f8565b82523d6000602084013e565b606090565b60026001541462001a57576002600155565b604051633ee5aeb560e01b8152600490fd5b1562001a7157565b60405162461bcd60e51b8152602060048201526014602482015273151bdad95b88191bd95cc81b9bdd08195e1a5cdd60621b6044820152606490fd5b1562001ab557565b60405162461bcd60e51b8152602060048201526013602482015272151bdad95b881a185cc819dc98591d585d1959606a1b6044820152606490fd5b9060c882029180830460c814901517156200082657565b818102929181159184041417156200082657565b811562001b26570490565b634e487b7160e01b600052601260045260246000fd5b1562001b4457565b60405162461bcd60e51b815260206004820152601160248201527014db1a5c1c1859d948195e18d959591959607a1b6044820152606490fd5b90816020910312620001ac57518015158103620001ac5790565b1562001b9f57565b60405162461bcd60e51b8152602060048201526015602482015274151bdad95b881d1c985b9cd9995c8819985a5b1959605a1b6044820152606490fdfe604060c081523462000c1757620018f8803803806200001e8162000c1c565b9283398101906101408183031262000c175780516001600160401b03811162000c1757826200004f91830162000c42565b60208201519091906001600160401b03811162000c1757836200007491830162000c42565b8185015160608301519094906001600160401b03811162000c1757816200009d91850162000c42565b60808401516001600160401b03811162000c175782620000bf91860162000c42565b60a08501516001600160401b03811162000c175783620000e191870162000c42565b60c08601519092906001600160401b03811162000c1757846200010691880162000c42565b60e087015190946001600160401b03821162000c17576200012991880162000c42565b9462000148610120620001406101008a0162000cb4565b980162000cb4565b885190986001600160401b038211620005ee5760035490600182811c9216801562000c0c575b6020831014620005cd5781601f84931162000b9a575b50602090601f831160011462000b0b5760009262000aff575b50508160011b916000199060031b1c1916176003555b8051906001600160401b038211620005ee5760045490600182811c9216801562000af4575b6020831014620005cd5781601f84931162000a82575b50602090601f8311600114620009f357600092620009e7575b50508160011b916000199060031b1c1916176004555b8051906001600160401b038211620005ee5760055490600182811c92168015620009dc575b6020831014620005cd5781601f84931162000986575b50602090601f8311600114620008f757600092620008eb575b50508160011b916000199060031b1c1916176005555b8051906001600160401b038211620005ee5760065490600182811c92168015620008e0575b6020831014620005cd5781601f8493116200087c575b50602090601f8311600114620007fe57600092620007f2575b50508160011b916000199060031b1c1916176006555b8051906001600160401b038211620005ee5760075490600182811c92168015620007e7575b6020831014620005cd5781601f84931162000783575b50602090601f83116001146200070557600092620006f9575b50508160011b916000199060031b1c1916176007555b8051906001600160401b038211620005ee5760085490600182811c92168015620006ee575b6020831014620005cd5781601f8493116200068a575b50602090601f8311600114620006105760009262000604575b50508160011b916000199060031b1c1916176008555b8051906001600160401b038211620005ee5760095490600182811c92168015620005e3575b6020831014620005cd5781601f84931162000569575b50602090601f8311600114620004ef57600092620004e3575b50508160011b916000199060031b1c1916176009555b6080524260a0526001600160a01b0316908115620004cb5760025490808201809211620004b55760207fddf252ad1be2c89b69c2b068fc378daa952ba7f163c4a11628f55a4df523b3ef916000936002558484528382528584208181540190558551908152a351610bae908162000cca8239608051816109f1015260a051816101370152f35b634e487b7160e01b600052601160045260246000fd5b825163ec442f0560e01b815260006004820152602490fd5b01519050388062000419565b60096000908152600080516020620018b88339815191529350601f198516905b81811062000550575090846001959493921062000536575b505050811b016009556200042f565b015160001960f88460031b161c1916905538808062000527565b929360206001819287860151815501950193016200050f565b6009600052909150600080516020620018b8833981519152601f840160051c81019160208510620005c2575b90601f859493920160051c01905b818110620005b2575062000400565b60008155849350600101620005a3565b909150819062000595565b634e487b7160e01b600052602260045260246000fd5b91607f1691620003ea565b634e487b7160e01b600052604160045260246000fd5b015190503880620003af565b60086000908152600080516020620018988339815191529350601f198516905b81811062000671575090846001959493921062000657575b505050811b01600855620003c5565b015160001960f88460031b161c1916905538808062000648565b9293602060018192878601518155019501930162000630565b600860005290915060008051602062001898833981519152601f840160051c81019160208510620006e3575b90601f859493920160051c01905b818110620006d3575062000396565b60008155849350600101620006c4565b9091508190620006b6565b91607f169162000380565b01519050388062000345565b6007600090815293506000805160206200187883398151915291905b601f198416851062000767576001945083601f198116106200074d575b505050811b016007556200035b565b015160001960f88460031b161c191690553880806200073e565b8181015183556020948501946001909301929091019062000721565b600760005290915060008051602062001878833981519152601f840160051c81019160208510620007dc575b90601f859493920160051c01905b818110620007cc57506200032c565b60008155849350600101620007bd565b9091508190620007af565b91607f169162000316565b015190503880620002db565b600660009081529350600080516020620018d883398151915291905b601f198416851062000860576001945083601f1981161062000846575b505050811b01600655620002f1565b015160001960f88460031b161c1916905538808062000837565b818101518355602094850194600190930192909101906200081a565b6006600052909150600080516020620018d8833981519152601f840160051c81019160208510620008d5575b90601f859493920160051c01905b818110620008c55750620002c2565b60008155849350600101620008b6565b9091508190620008a8565b91607f1691620002ac565b01519050388062000271565b6005600090815293507f036b6384b5eca791c62761152d0c79bb0604c104a5fb6f4eb0703f3154bb3db091905b601f19841685106200096a576001945083601f1981161062000950575b505050811b0160055562000287565b015160001960f88460031b161c1916905538808062000941565b8181015183556020948501946001909301929091019062000924565b90915060056000526020600020601f840160051c810160208510620009d4575b90849392915b601f830160051c82018110620009c457505062000258565b60008155859450600101620009ac565b5080620009a6565b91607f169162000242565b01519050388062000207565b6004600090815293507f8a35acfbc15ff81a39ae7d344fd709f28e8600b4aa8c65c6b64bfe7fe36bd19b91905b601f198416851062000a66576001945083601f1981161062000a4c575b505050811b016004556200021d565b015160001960f88460031b161c1916905538808062000a3d565b8181015183556020948501946001909301929091019062000a20565b60046000529091507f8a35acfbc15ff81a39ae7d344fd709f28e8600b4aa8c65c6b64bfe7fe36bd19b601f840160051c81016020851062000aec575b90849392915b601f830160051c8201811062000adc575050620001ee565b6000815585945060010162000ac4565b508062000abe565b91607f1691620001d8565b0151905038806200019d565b6003600090815293507fc2575a0e9e593c00f959f8c92f12db2869c3395a3b0502d05e2516446f71f85b91905b601f198416851062000b7e576001945083601f1981161062000b64575b505050811b01600355620001b3565b015160001960f88460031b161c1916905538808062000b55565b8181015183556020948501946001909301929091019062000b38565b60036000529091507fc2575a0e9e593c00f959f8c92f12db2869c3395a3b0502d05e2516446f71f85b601f840160051c81016020851062000c04575b90849392915b601f830160051c8201811062000bf457505062000184565b6000815585945060010162000bdc565b508062000bd6565b91607f16916200016e565b600080fd5b6040519190601f01601f191682016001600160401b03811183821017620005ee57604052565b919080601f8401121562000c175782516001600160401b038111620005ee5760209062000c78601f8201601f1916830162000c1c565b9281845282828701011162000c175760005b81811062000ca057508260009394955001015290565b858101830151848201840152820162000c8a565b51906001600160a01b038216820362000c175756fe608060408181526004918236101561001657600080fd5b600092833560e01c91826302d05d3f146109dd5750816306fdde0314610903578163095ea7b31461085557816318160ddd1461083657816323b872dd1461073f578163313ce5671461072357816347ecb6651461064957816370a08231146106125781637284e4161461053857816395d89b4114610460578163a9059cbb1461042f578163aba8315014610355578163abfaeee01461027b578163beb0a4161461015a57508063cf09e0d0146101205763dd62ed3e146100d557600080fd5b3461011c578060031936011261011c57806020926100f1610a69565b6100f9610a84565b6001600160a01b0391821683526001865283832091168252845220549051908152f35b5080fd5b503461011c578160031936011261011c57602090517f00000000000000000000000000000000000000000000000000000000000000008152f35b83833461011c578160031936011261011c5780519082600954600181811c90808316928315610271575b602093848410811461025e5783885290811561024257506001146101ec575b505050829003601f01601f191682019267ffffffffffffffff8411838510176101d957508291826101d5925282610a20565b0390f35b634e487b7160e01b815260418552602490fd5b600987529192508591837f6e1540171b6c0c960b71a7020d9f60077f6af931a8bbf590da0223dacf75c7af5b83851061022e57505050508301018580806101a3565b805488860183015293019284908201610218565b60ff1916878501525050151560051b84010190508580806101a3565b634e487b7160e01b895260228a52602489fd5b91607f1691610184565b83833461011c578160031936011261011c5780519082600754600181811c9080831692831561034b575b602093848410811461025e5783885290811561024257506001146102f557505050829003601f01601f191682019267ffffffffffffffff8411838510176101d957508291826101d5925282610a20565b600787529192508591837fa66cc928b5edb82af9bd49922954155ab7b0942694bea4ce44661d9a8736c6885b83851061033757505050508301018580806101a3565b805488860183015293019284908201610321565b91607f16916102a5565b83833461011c578160031936011261011c5780519082600554600181811c90808316928315610425575b602093848410811461025e5783885290811561024257506001146103cf57505050829003601f01601f191682019267ffffffffffffffff8411838510176101d957508291826101d5925282610a20565b600587529192508591837f036b6384b5eca791c62761152d0c79bb0604c104a5fb6f4eb0703f3154bb3db05b83851061041157505050508301018580806101a3565b8054888601830152930192849082016103fb565b91607f169161037f565b50503461011c578060031936011261011c5760209061045961044f610a69565b6024359033610a9a565b5160018152f35b83833461011c578160031936011261011c57805190828454600181811c9080831692831561052e575b602093848410811461025e5783885290811561024257506001146104d957505050829003601f01601f191682019267ffffffffffffffff8411838510176101d957508291826101d5925282610a20565b8787529192508591837f8a35acfbc15ff81a39ae7d344fd709f28e8600b4aa8c65c6b64bfe7fe36bd19b5b83851061051a57505050508301018580806101a3565b805488860183015293019284908201610504565b91607f1691610489565b83833461011c578160031936011261011c5780519082600654600181811c90808316928315610608575b602093848410811461025e5783885290811561024257506001146105b257505050829003601f01601f191682019267ffffffffffffffff8411838510176101d957508291826101d5925282610a20565b600687529192508591837ff652222313e28459528d920b65115c16c04f3efc82aaedc97be59f3f377c0d3f5b8385106105f457505050508301018580806101a3565b8054888601830152930192849082016105de565b91607f1691610562565b50503461011c57602036600319011261011c5760209181906001600160a01b0361063a610a69565b16815280845220549051908152f35b83833461011c578160031936011261011c5780519082600854600181811c90808316928315610719575b602093848410811461025e5783885290811561024257506001146106c357505050829003601f01601f191682019267ffffffffffffffff8411838510176101d957508291826101d5925282610a20565b600887529192508591837ff3f7a9fe364faab93b216da50a3214154f22a0a2b415b23a84c8169e8b636ee35b83851061070557505050508301018580806101a3565b8054888601830152930192849082016106ef565b91607f1691610673565b50503461011c578160031936011261011c576020905160128152f35b905082346108335760603660031901126108335761075b610a69565b610763610a84565b916044359360018060a01b03831680835260016020528683203384526020528683205491600019831061079f575b602088610459898989610a9a565b8683106108075781156107f05733156107d95750825260016020908152868320338452815291869020908590039055829061045987610791565b8751634a1406b160e11b8152908101849052602490fd5b875163e602df0560e01b8152908101849052602490fd5b8751637dc7a0d960e11b8152339181019182526020820193909352604081018790528291506060010390fd5b80fd5b50503461011c578160031936011261011c576020906002549051908152f35b9050346108ff57816003193601126108ff5761086f610a69565b6024359033156108e8576001600160a01b03169182156108d157508083602095338152600187528181208582528752205582519081527f8c5be1e5ebec7d5bd14f71427d1e84f3dd0314c0f7b2291e5b200ac8c7c3b925843392a35160018152f35b8351634a1406b160e11b8152908101859052602490fd5b835163e602df0560e01b8152808401869052602490fd5b8280fd5b83833461011c578160031936011261011c5780519082600354600181811c908083169283156109d3575b602093848410811461025e57838852908115610242575060011461097d57505050829003601f01601f191682019267ffffffffffffffff8411838510176101d957508291826101d5925282610a20565b600387529192508591837fc2575a0e9e593c00f959f8c92f12db2869c3395a3b0502d05e2516446f71f85b5b8385106109bf57505050508301018580806101a3565b8054888601830152930192849082016109a9565b91607f169161092d565b84903461011c578160031936011261011c577f00000000000000000000000000000000000000000000000000000000000000006001600160a01b03168152602090f35b6020808252825181830181905290939260005b828110610a5557505060409293506000838284010152601f8019910116010190565b818101860151848201604001528501610a33565b600435906001600160a01b0382168203610a7f57565b600080fd5b602435906001600160a01b0382168203610a7f57565b916001600160a01b03808416928315610b5f5716928315610b465760009083825281602052604082205490838210610b14575091604082827fddf252ad1be2c89b69c2b068fc378daa952ba7f163c4a11628f55a4df523b3ef958760209652828652038282205586815220818154019055604051908152a3565b60405163391434e360e21b81526001600160a01b03919091166004820152602481019190915260448101839052606490fd5b60405163ec442f0560e01b815260006004820152602490fd5b604051634b637e8f60e11b815260006004820152602490fdfea26469706673582212200dc3164d007a0a458a81b26ac71e60a8ea4c7e8fc16d8620f19683e34b289f6264736f6c63430008140033a66cc928b5edb82af9bd49922954155ab7b0942694bea4ce44661d9a8736c688f3f7a9fe364faab93b216da50a3214154f22a0a2b415b23a84c8169e8b636ee36e1540171b6c0c960b71a7020d9f60077f6af931a8bbf590da0223dacf75c7aff652222313e28459528d920b65115c16c04f3efc82aaedc97be59f3f377c0d3fa26469706673582212202996452b7ce8fad77e8dc17b8c8f2845a6bc5aa226f50b9999ed5c1dcfc2760064736f6c63430008140033",
  "linkReferences": {},
  "deployedLinkReferences": {}
}