{"abi":[{"type":"constructor","inputs":[{"name":"_admin","type":"address","internalType":"address"},{"name":"_delay","type":"uint256","internalType":"uint256"}],"stateMutability":"nonpayable"},{"type":"receive","stateMutability":"payable"},{"type":"function","name":"GRACE_PERIOD","inputs":[],"outputs":[{"name":"","type":"uint256","internalType":"uint256"}],"stateMutability":"view"},{"type":"function","name":"MAX_DELAY","inputs":[],"outputs":[{"name":"","type":"uint256","internalType":"uint256"}],"stateMutability":"view"},{"type":"function","name":"MIN_DELAY","inputs":[],"outputs":[{"name":"","type":"uint256","internalType":"uint256"}],"stateMutability":"view"},{"type":"function","name":"acceptAdmin","inputs":[],"outputs":[],"stateMutability":"nonpayable"},{"type":"function","name":"admin","inputs":[],"outputs":[{"name":"","type":"address","internalType":"address"}],"stateMutability":"view"},{"type":"function","name":"cancelTransaction","inputs":[{"name":"target","type":"address","internalType":"address"},{"name":"value","type":"uint256","internalType":"uint256"},{"name":"data","type":"bytes","internalType":"bytes"}],"outputs":[],"stateMutability":"nonpayable"},{"type":"function","name":"delay","inputs":[],"outputs":[{"name":"","type":"uint256","internalType":"uint256"}],"stateMutability":"view"},{"type":"function","name":"executeTransaction","inputs":[{"name":"target","type":"address","internalType":"address"},{"name":"value","type":"uint256","internalType":"uint256"},{"name":"data","type":"bytes","internalType":"bytes"}],"outputs":[{"name":"","type":"bytes","internalType":"bytes"}],"stateMutability":"nonpayable"},{"type":"function","name":"getDelay","inputs":[],"outputs":[{"name":"","type":"uint256","internalType":"uint256"}],"stateMutability":"view"},{"type":"function","name":"getTransactionHash","inputs":[{"name":"target","type":"address","internalType":"address"},{"name":"value","type":"uint256","internalType":"uint256"},{"name":"data","type":"bytes","internalType":"bytes"}],"outputs":[{"name":"","type":"bytes32","internalType":"bytes32"}],"stateMutability":"pure"},{"type":"function","name":"isTransactionQueued","inputs":[{"name":"txHash","type":"bytes32","internalType":"bytes32"}],"outputs":[{"name":"","type":"bool","internalType":"bool"}],"stateMutability":"view"},{"type":"function","name":"pendingAdmin","inputs":[],"outputs":[{"name":"","type":"address","internalType":"address"}],"stateMutability":"view"},{"type":"function","name":"queueTransaction","inputs":[{"name":"target","type":"address","internalType":"address"},{"name":"value","type":"uint256","internalType":"uint256"},{"name":"data","type":"bytes","internalType":"bytes"}],"outputs":[{"name":"","type":"bytes32","internalType":"bytes32"}],"stateMutability":"nonpayable"},{"type":"function","name":"queuedTransactions","inputs":[{"name":"","type":"bytes32","internalType":"bytes32"}],"outputs":[{"name":"","type":"uint256","internalType":"uint256"}],"stateMutability":"view"},{"type":"function","name":"setDelay","inputs":[{"name":"_delay","type":"uint256","internalType":"uint256"}],"outputs":[],"stateMutability":"nonpayable"},{"type":"function","name":"setPendingAdmin","inputs":[{"name":"_pendingAdmin","type":"address","internalType":"address"}],"outputs":[],"stateMutability":"nonpayable"},{"type":"event","name":"DelayUpdated","inputs":[{"name":"oldDelay","type":"uint256","indexed":false,"internalType":"uint256"},{"name":"newDelay","type":"uint256","indexed":false,"internalType":"uint256"}],"anonymous":false},{"type":"event","name":"TransactionCancelled","inputs":[{"name":"txHash","type":"bytes32","indexed":true,"internalType":"bytes32"}],"anonymous":false},{"type":"event","name":"TransactionExecuted","inputs":[{"name":"txHash","type":"bytes32","indexed":true,"internalType":"bytes32"},{"name":"target","type":"address","indexed":true,"internalType":"address"},{"name":"value","type":"uint256","indexed":false,"internalType":"uint256"},{"name":"data","type":"bytes","indexed":false,"internalType":"bytes"}],"anonymous":false},{"type":"event","name":"TransactionQueued","inputs":[{"name":"txHash","type":"bytes32","indexed":true,"internalType":"bytes32"},{"name":"target","type":"address","indexed":true,"internalType":"address"},{"name":"value","type":"uint256","indexed":false,"internalType":"uint256"},{"name":"data","type":"bytes","indexed":false,"internalType":"bytes"},{"name":"executeTime","type":"uint256","indexed":false,"internalType":"uint256"}],"anonymous":false}],"bytecode":{"object":"0x6080346100ea57601f610ac538819003918201601f19168301916001600160401b038311848410176100ee5780849260409485528339810103126100ea5780516001600160a01b03811691908290036100ea5760200151906202a300821015806100dd575b1561008e575f80546001600160a01b0319169190911790556002556040516109c290816101038239f35b60405162461bcd60e51b815260206004820152602160248201527f54696d656c6f636b436f6e74726f6c6c65723a20696e76616c69642064656c616044820152607960f81b6064820152608490fd5b5062278d00821115610064565b5f80fd5b634e487b7160e01b5f52604160045260245ffdfe6080604081815260049182361015610021575b505050361561001f575f80fd5b005b5f92833560e01c9182630e18b681146106bb5750816326782247146106925781633f579f42146104435781634125ff90146104255781634dd18bf5146103d95781636a42b8f81461029c57816380b3b099146103215781638f4016b6146102f75781639f81aed7146102d9578163c1a287e2146102bb578163cebc9a821461029c578163e177246e146101d5578163e37c9fd51461015b578163f2b065371461012f57508063f791852b1461010a5763f851a440146100e05780610012565b34610106578160031936011261010657905490516001600160a01b039091168152602090f35b5080fd5b50346101065760209061012861011f36610761565b929190916108c5565b9051908152f35b9050346101575760203660031901126101575760209282913581526003845220549051908152f35b8280fd5b505034610106578161018c61016f36610761565b9261018760018060a09594951b0387541633146107c7565b6108c5565b9182825260036020526101a3818320541515610843565b82825260036020528120557f0891e6c675e964cf1e5982f60fda276ad06301a9221b2f1d7bf2b2a42fbd69a18280a280f35b905034610157576020366003190112610157578035906101f630331461090d565b6202a3008210158061028f575b156102425750907fa580b4a9812995ffed1b336481c3f3bfeb3414df9f587a9d73856bab25aa4eee91600254908060025582519182526020820152a180f35b608490602084519162461bcd60e51b8352820152602160248201527f54696d656c6f636b436f6e74726f6c6c65723a20696e76616c69642064656c616044820152607960f81b6064820152fd5b5062278d00821115610203565b5050346101065781600319360112610106576020906002549051908152f35b50503461010657816003193601126101065760209051621275008152f35b505034610106578160031936011261010657602090516202a3008152f35b90503461015757602036600319011261015757602092829135815260038452205415159051908152f35b8383346101065761033136610761565b9190949260018060a01b039061034b8286541633146107c7565b610357848885846108c5565b966002544201958642116103c65760209950916103b689969492888a868a7f4efebf40a8244d219085e74f928a18e8c9d17adc6b39270b8706cca0a92b648d9a985260038f5220558951958695865260608d8701526060860191610823565b968884015216940390a351908152f35b634e487b7160e01b815260118a52602490fd5b83903461010657602036600319011261010657356001600160a01b038116908190036101065761040a30331461090d565b6bffffffffffffffffffffffff60a01b600154161760015580f35b5050346101065781600319360112610106576020905162278d008152f35b9050346101575761045336610761565b86546001600160a01b03979491939061046f90891633146107c7565b61047b848483856108c5565b9283865260209860038a5288872054610495811515610843565b8042106106505762127500810180911161063d5742116105fd5784875260038a52868981205586808a518885823780898101838152039086885af1973d156105f5573d9867ffffffffffffffff8a116105e2578a51996104fe601f8201601f19168e018c61088f565b8a523d898d8c013e5b1561059957507f8b7b712167f6dc65bddd7d9a42eec3ed7de70db3ffda6e8fbb166195a0fa10cb939291610550918a9b99989b5194859485528b8b86015216968a840191610823565b0390a382519382859384528251928382860152825b84811061058357505050828201840152601f01601f19168101030190f35b8181018301518882018801528795508201610565565b895162461bcd60e51b81529081018b9052603060248201525f8051602061096d83398151915260448201526f195e1958dd5d1a5bdb8819985a5b195960821b6064820152608490fd5b634e487b7160e01b895260418252602489fd5b606098610507565b885162461bcd60e51b81528089018b9052602760248201525f8051602061096d833981519152604482015266195e1c1a5c995960ca1b6064820152608490fd5b634e487b7160e01b885260118952602488fd5b895162461bcd60e51b8152808a018c9052602960248201525f8051602061096d8339815191526044820152686e6f7420726561647960b81b6064820152608490fd5b50503461010657816003193601126101065760015490516001600160a01b039091168152602090f35b849250346101575782600319360112610157576001546001600160a01b03811692909190338490036107085750506bffffffffffffffffffffffff60a01b91828454161783551660015580f35b62461bcd60e51b8252602090820152602f60248201527f54696d656c6f636b436f6e74726f6c6c65723a2063616c6c6572206973206e6f60448201526e3a103832b73234b7339030b236b4b760891b6064820152608490fd5b9060606003198301126107c3576004356001600160a01b03811681036107c357916024359160443567ffffffffffffffff928382116107c357806023830112156107c35781600401359384116107c357602484830101116107c3576024019190565b5f80fd5b156107ce57565b60405162461bcd60e51b815260206004820152602760248201527f54696d656c6f636b436f6e74726f6c6c65723a2063616c6c6572206973206e6f6044820152663a1030b236b4b760c91b6064820152608490fd5b908060209392818452848401375f828201840152601f01601f1916010190565b1561084a57565b60405162461bcd60e51b815260206004820152602a60248201525f8051602061096d8339815191526044820152691b9bdd081c5d595d595960b21b6064820152608490fd5b90601f8019910116810190811067ffffffffffffffff8211176108b157604052565b634e487b7160e01b5f52604160045260245ffd5b9291906108f961090792604051948593602085019760018060a01b0316885260408501526060808501526080840191610823565b03601f19810183528261088f565b51902090565b1561091457565b60405162461bcd60e51b815260206004820152602a60248201527f54696d656c6f636b436f6e74726f6c6c65723a2063616c6c6572206973206e6f604482015269742074696d656c6f636b60b01b6064820152608490fdfe54696d656c6f636b436f6e74726f6c6c65723a207472616e73616374696f6e20a26469706673582212200c00a15c47e6ecdd25030d04f15b3d1c1a847c752ebace95b63fdfa495dfcb7a64736f6c63430008140033","linkReferences":{}},"methodIdentifiers":{"GRACE_PERIOD()":"c1a287e2","MAX_DELAY()":"4125ff90","MIN_DELAY()":"9f81aed7","acceptAdmin()":"0e18b681","admin()":"f851a440","cancelTransaction(address,uint256,bytes)":"e37c9fd5","delay()":"6a42b8f8","executeTransaction(address,uint256,bytes)":"3f579f42","getDelay()":"cebc9a82","getTransactionHash(address,uint256,bytes)":"f791852b","isTransactionQueued(bytes32)":"8f4016b6","pendingAdmin()":"26782247","queueTransaction(address,uint256,bytes)":"80b3b099","queuedTransactions(bytes32)":"f2b06537","setDelay(uint256)":"e177246e","setPendingAdmin(address)":"4dd18bf5"},"id":9}